{
  "contractName": "EIP20Factory",
  "abi": [
    {
      "constant": false,
      "inputs": [
        {
          "name": "_initialAmount",
          "type": "uint256"
        },
        {
          "name": "_name",
          "type": "string"
        },
        {
          "name": "_decimals",
          "type": "uint8"
        },
        {
          "name": "_symbol",
          "type": "string"
        }
      ],
      "name": "createEIP20",
      "outputs": [
        {
          "name": "",
          "type": "address"
        }
      ],
      "payable": false,
      "stateMutability": "nonpayable",
      "type": "function"
    }
  ],
  "bytecode": "0x6060604052341561000f57600080fd5b610b8f8061001e6000396000f3006060604052600436106100405763ffffffff7c01000000000000000000000000000000000000000000000000000000006000350416631e5f35698114610045575b600080fd5b341561005057600080fd5b6100e9600480359060446024803590810190830135806020601f8201819004810201604051908101604052818152929190602084018383808284378201915050505050509190803560ff1690602001909190803590602001908201803590602001908080601f01602080910402602001604051908101604052818152929190602084018383808284375094965061011295505050505050565b60405173ffffffffffffffffffffffffffffffffffffffff909116815260200160405180910390f35b600080858585856101216102c7565b84815260ff83166040820152608060208201818152906060830190830186818151815260200191508051906020019080838360005b8381101561016e578082015183820152602001610156565b50505050905090810190601f16801561019b5780820380516001836020036101000a031916815260200191505b50838103825284818151815260200191508051906020019080838360005b838110156101d15780820151838201526020016101b9565b50505050905090810190601f1680156101fe5780820380516001836020036101000a031916815260200191505b509650505050505050604051809103906000f080151561021d57600080fd5b90508073ffffffffffffffffffffffffffffffffffffffff1663a9059cbb33886040517c010000000000000000000000000000000000000000000000000000000063ffffffff851602815273ffffffffffffffffffffffffffffffffffffffff90921660048301526024820152604401602060405180830381600087803b15156102a657600080fd5b5af115156102b357600080fd5b505050604051805150909695505050505050565b60405161088c806102d88339019056006060604052341561000f57600080fd5b60405161088c38038061088c83398101604052808051919060200180518201919060200180519190602001805160008054600160a060020a033316600160a060020a03199091168117825581526002602052604090208690556001869055909101905060048380516100859291602001906100b2565b506005805460ff191660ff841617905560068180516100a89291602001906100b2565b505050505061014d565b828054600181600116156101000203166002900490600052602060002090601f016020900481019282601f106100f357805160ff1916838001178555610120565b82800160010185558215610120579182015b82811115610120578251825591602001919060010190610105565b5061012c929150610130565b5090565b61014a91905b8082111561012c5760008155600101610136565b90565b6107308061015c6000396000f3006060604052600436106100c45763ffffffff7c010000000000000000000000000000000000000000000000000000000060003504166306fdde0381146100c9578063095ea7b31461015357806318160ddd1461018957806323b872dd146101ae57806327e235e3146101d6578063313ce567146101f55780635c6581651461021e57806370a08231146102435780638da5cb5b1461026257806395d89b4114610291578063a9059cbb146102a4578063dd62ed3e146102c6578063f2fde38b146102eb575b600080fd5b34156100d457600080fd5b6100dc61030c565b60405160208082528190810183818151815260200191508051906020019080838360005b83811015610118578082015183820152602001610100565b50505050905090810190601f1680156101455780820380516001836020036101000a031916815260200191505b509250505060405180910390f35b341561015e57600080fd5b610175600160a060020a03600435166024356103aa565b604051901515815260200160405180910390f35b341561019457600080fd5b61019c610416565b60405190815260200160405180910390f35b34156101b957600080fd5b610175600160a060020a036004358116906024351660443561041c565b34156101e157600080fd5b61019c600160a060020a0360043516610522565b341561020057600080fd5b610208610534565b60405160ff909116815260200160405180910390f35b341561022957600080fd5b61019c600160a060020a036004358116906024351661053d565b341561024e57600080fd5b61019c600160a060020a036004351661055a565b341561026d57600080fd5b610275610575565b604051600160a060020a03909116815260200160405180910390f35b341561029c57600080fd5b6100dc610584565b34156102af57600080fd5b610175600160a060020a03600435166024356105ef565b34156102d157600080fd5b61019c600160a060020a0360043581169060243516610683565b34156102f657600080fd5b61030a600160a060020a03600435166106ae565b005b60048054600181600116156101000203166002900480601f0160208091040260200160405190810160405280929190818152602001828054600181600116156101000203166002900480156103a25780601f10610377576101008083540402835291602001916103a2565b820191906000526020600020905b81548152906001019060200180831161038557829003601f168201915b505050505081565b600160a060020a03338116600081815260036020908152604080832094871680845294909152808220859055909291907f8c5be1e5ebec7d5bd14f71427d1e84f3dd0314c0f7b2291e5b200ac8c7c3b9259085905190815260200160405180910390a350600192915050565b60015481565b600160a060020a0380841660008181526003602090815260408083203390951683529381528382205492825260029052918220548390108015906104605750828110155b151561046b57600080fd5b600160a060020a03808516600090815260026020526040808220805487019055918716815220805484900390556000198110156104d057600160a060020a03808616600090815260036020908152604080832033909416835292905220805484900390555b83600160a060020a031685600160a060020a03167fddf252ad1be2c89b69c2b068fc378daa952ba7f163c4a11628f55a4df523b3ef8560405190815260200160405180910390a3506001949350505050565b60026020526000908152604090205481565b60055460ff1681565b600360209081526000928352604080842090915290825290205481565b600160a060020a031660009081526002602052604090205490565b600054600160a060020a031681565b60068054600181600116156101000203166002900480601f0160208091040260200160405190810160405280929190818152602001828054600181600116156101000203166002900480156103a25780601f10610377576101008083540402835291602001916103a2565b600160a060020a0333166000908152600260205260408120548290101561061557600080fd5b600160a060020a033381166000818152600260205260408082208054879003905592861680825290839020805486019055917fddf252ad1be2c89b69c2b068fc378daa952ba7f163c4a11628f55a4df523b3ef9085905190815260200160405180910390a350600192915050565b600160a060020a03918216600090815260036020908152604080832093909416825291909152205490565b60005433600160a060020a039081169116146106c957600080fd5b600160a060020a03811615610701576000805473ffffffffffffffffffffffffffffffffffffffff1916600160a060020a0383161790555b505600a165627a7a72305820651df781dd5724dc9dc62c88c03fc3b63c633c7c2b694607c8de35c9f18b51540029a165627a7a72305820a4f34540a09060b8db5912853d6e17dedaadb0179189c26aaaf5e14f5ad281eb0029",
  "source": "pragma solidity 0.4.21;\n\nimport \"./EIP20.sol\";\nimport \"./EIP20Interface.sol\";\n\n\ncontract EIP20Factory {\n\n    function createEIP20(\n        uint256 _initialAmount,\n        string _name,\n        uint8 _decimals,\n        string _symbol\n    ) public returns (address) {\n        EIP20Interface newToken = EIP20Interface(new EIP20(_initialAmount, _name, _decimals, _symbol));\n        //the factory will own the created tokens. You must transfer them.\n        newToken.transfer(msg.sender, _initialAmount);\n        return address(newToken);\n    }\n}\n",
  "sourcePath": "/home/ipavlenko/Projects/Exchange/laborx.exchange/laborx.exchange.contracts/contracts/tokens/EIP20Factory.sol",
  "compiler": {
    "name": "solc",
    "version": "0.4.21+commit.dfe3193c.Emscripten.clang"
  },
  "schemaVersion": "2.0.0",
  "updatedAt": "2018-07-10T08:02:55.333Z"
}