{
  "contractName": "EIP20Factory",
  "abi": [
    {
      "constant": true,
      "inputs": [
        {
          "name": "",
          "type": "address"
        },
        {
          "name": "",
          "type": "uint256"
        }
      ],
      "name": "created",
      "outputs": [
        {
          "name": "",
          "type": "address"
        }
      ],
      "payable": false,
      "stateMutability": "view",
      "type": "function"
    },
    {
      "constant": true,
      "inputs": [
        {
          "name": "",
          "type": "address"
        }
      ],
      "name": "isEIP20",
      "outputs": [
        {
          "name": "",
          "type": "bool"
        }
      ],
      "payable": false,
      "stateMutability": "view",
      "type": "function"
    },
    {
      "constant": true,
      "inputs": [],
      "name": "EIP20ByteCode",
      "outputs": [
        {
          "name": "",
          "type": "bytes"
        }
      ],
      "payable": false,
      "stateMutability": "view",
      "type": "function"
    },
    {
      "inputs": [],
      "payable": false,
      "stateMutability": "nonpayable",
      "type": "constructor"
    },
    {
      "constant": true,
      "inputs": [
        {
          "name": "_tokenContract",
          "type": "address"
        }
      ],
      "name": "verifyEIP20",
      "outputs": [
        {
          "name": "",
          "type": "bool"
        }
      ],
      "payable": false,
      "stateMutability": "view",
      "type": "function"
    },
    {
      "constant": false,
      "inputs": [
        {
          "name": "_initialAmount",
          "type": "uint256"
        },
        {
          "name": "_name",
          "type": "string"
        },
        {
          "name": "_decimals",
          "type": "uint8"
        },
        {
          "name": "_symbol",
          "type": "string"
        }
      ],
      "name": "createEIP20",
      "outputs": [
        {
          "name": "",
          "type": "address"
        }
      ],
      "payable": false,
      "stateMutability": "nonpayable",
      "type": "function"
    }
  ],
  "bytecode": "0x606060405234156200001057600080fd5b6000620000996127106040805190810160405280600c81526020017f56657269667920546f6b656e0000000000000000000000000000000000000000815250600360408051908101604052600381527f565458000000000000000000000000000000000000000000000000000000000060208201526401000000006200022f620000d182021704565b9050620000b48164010000000062000641620002e182021704565b6002908051620000c992916020019062000311565b505062000405565b60008085858585620000e262000396565b84815260ff83166040820152608060208201818152906060830190830186818151815260200191508051906020019080838360005b838110156200013157808201518382015260200162000117565b50505050905090810190601f1680156200015f5780820380516001836020036101000a031916815260200191505b50838103825284818151815260200191508051906020019080838360005b83811015620001975780820151838201526020016200017d565b50505050905090810190601f168015620001c55780820380516001836020036101000a031916815260200191505b509650505050505050604051809103906000f0801515620001e557600080fd5b600160a060020a033316600090815260208190526040902080549192509060018101620002138382620003a7565b5060009182526020808320919091018054600160a060020a031916600160a060020a038516908117909155808352600191829052604092839020805460ff19169092179091559063a9059cbb9033908990517c010000000000000000000000000000000000000000000000000000000063ffffffff8516028152600160a060020a0390921660048301526024820152604401602060405180830381600087803b1515620002bf57600080fd5b5af11515620002cd57600080fd5b505050604051805150909695505050505050565b620002eb620003d3565b813b604051603f8201601f19168101604052818152915080600060208401853c50919050565b828054600181600116156101000203166002900490600052602060002090601f016020900481019282601f106200035457805160ff191683800117855562000384565b8280016001018555821562000384579182015b828111156200038457825182559160200191906001019062000367565b5062000392929150620003e5565b5090565b60405161088c80620013a883390190565b815481835581811511620003ce57600083815260209020620003ce918101908301620003e5565b505050565b60206040519081016040526000815290565b6200040291905b80821115620003925760008155600101620003ec565b90565b610f9380620004156000396000f30060606040526004361061006c5763ffffffff7c01000000000000000000000000000000000000000000000000000000006000350416631e5f356981146100715780635f8dead314610131578063706438d1146101535780637cf6283814610186578063cd4d689514610210575b600080fd5b341561007c57600080fd5b610115600480359060446024803590810190830135806020601f8201819004810201604051908101604052818152929190602084018383808284378201915050505050509190803560ff1690602001909190803590602001908201803590602001908080601f01602080910402602001604051908101604052818152929190602084018383808284375094965061022f95505050505050565b604051600160a060020a03909116815260200160405180910390f35b341561013c57600080fd5b610115600160a060020a036004351660243561043f565b341561015e57600080fd5b610172600160a060020a0360043516610476565b604051901515815260200160405180910390f35b341561019157600080fd5b61019961048b565b60405160208082528190810183818151815260200191508051906020019080838360005b838110156101d55780820151838201526020016101bd565b50505050905090810190601f1680156102025780820380516001836020036101000a031916815260200191505b509250505060405180910390f35b341561021b57600080fd5b610172600160a060020a0360043516610529565b6000808585858561023e61066f565b84815260ff83166040820152608060208201818152906060830190830186818151815260200191508051906020019080838360005b8381101561028b578082015183820152602001610273565b50505050905090810190601f1680156102b85780820380516001836020036101000a031916815260200191505b50838103825284818151815260200191508051906020019080838360005b838110156102ee5780820151838201526020016102d6565b50505050905090810190601f16801561031b5780820380516001836020036101000a031916815260200191505b509650505050505050604051809103906000f080151561033a57600080fd5b600160a060020a033316600090815260208190526040902080549192509060018101610366838261067f565b506000918252602080832091909101805473ffffffffffffffffffffffffffffffffffffffff1916600160a060020a038516908117909155808352600191829052604092839020805460ff19169092179091559063a9059cbb9033908990517c010000000000000000000000000000000000000000000000000000000063ffffffff8516028152600160a060020a0390921660048301526024820152604401602060405180830381600087803b151561041e57600080fd5b5af1151561042b57600080fd5b505050604051805150909695505050505050565b60006020528160005260406000208181548110151561045a57fe5b600091825260209091200154600160a060020a03169150829050565b60016020526000908152604090205460ff1681565b60028054600181600116156101000203166002900480601f0160208091040260200160405190810160405280929190818152602001828054600181600116156101000203166002900480156105215780601f106104f657610100808354040283529160200191610521565b820191906000526020600020905b81548152906001019060200180831161050457829003601f168201915b505050505081565b60006105336106a8565b600061053e84610641565b600280549193506000196101006001841615020190911604825114610566576000925061063a565b5060005b8151811015610635576002805482906000196101006001831615020116829004811061059257fe5b8154600116156105b15790600052602060002090602091828204019190065b9054901a60f860020a027effffffffffffffffffffffffffffffffffffffffffffffffffffffffffffff19168282815181106105e957fe5b016020015160f860020a900460f860020a027effffffffffffffffffffffffffffffffffffffffffffffffffffffffffffff191614151561062d576000925061063a565b60010161056a565b600192505b5050919050565b6106496106a8565b813b604051603f8201601f19168101604052818152915080600060208401853c50919050565b60405161088c806106dc83390190565b8154818355818115116106a3576000838152602090206106a39181019083016106ba565b505050565b60206040519081016040526000815290565b6106d891905b808211156106d457600081556001016106c0565b5090565b9056006060604052341561000f57600080fd5b60405161088c38038061088c83398101604052808051919060200180518201919060200180519190602001805160008054600160a060020a033316600160a060020a03199091168117825581526002602052604090208690556001869055909101905060048380516100859291602001906100b2565b506005805460ff191660ff841617905560068180516100a89291602001906100b2565b505050505061014d565b828054600181600116156101000203166002900490600052602060002090601f016020900481019282601f106100f357805160ff1916838001178555610120565b82800160010185558215610120579182015b82811115610120578251825591602001919060010190610105565b5061012c929150610130565b5090565b61014a91905b8082111561012c5760008155600101610136565b90565b6107308061015c6000396000f3006060604052600436106100c45763ffffffff7c010000000000000000000000000000000000000000000000000000000060003504166306fdde0381146100c9578063095ea7b31461015357806318160ddd1461018957806323b872dd146101ae57806327e235e3146101d6578063313ce567146101f55780635c6581651461021e57806370a08231146102435780638da5cb5b1461026257806395d89b4114610291578063a9059cbb146102a4578063dd62ed3e146102c6578063f2fde38b146102eb575b600080fd5b34156100d457600080fd5b6100dc61030c565b60405160208082528190810183818151815260200191508051906020019080838360005b83811015610118578082015183820152602001610100565b50505050905090810190601f1680156101455780820380516001836020036101000a031916815260200191505b509250505060405180910390f35b341561015e57600080fd5b610175600160a060020a03600435166024356103aa565b604051901515815260200160405180910390f35b341561019457600080fd5b61019c610416565b60405190815260200160405180910390f35b34156101b957600080fd5b610175600160a060020a036004358116906024351660443561041c565b34156101e157600080fd5b61019c600160a060020a0360043516610522565b341561020057600080fd5b610208610534565b60405160ff909116815260200160405180910390f35b341561022957600080fd5b61019c600160a060020a036004358116906024351661053d565b341561024e57600080fd5b61019c600160a060020a036004351661055a565b341561026d57600080fd5b610275610575565b604051600160a060020a03909116815260200160405180910390f35b341561029c57600080fd5b6100dc610584565b34156102af57600080fd5b610175600160a060020a03600435166024356105ef565b34156102d157600080fd5b61019c600160a060020a0360043581169060243516610683565b34156102f657600080fd5b61030a600160a060020a03600435166106ae565b005b60048054600181600116156101000203166002900480601f0160208091040260200160405190810160405280929190818152602001828054600181600116156101000203166002900480156103a25780601f10610377576101008083540402835291602001916103a2565b820191906000526020600020905b81548152906001019060200180831161038557829003601f168201915b505050505081565b600160a060020a03338116600081815260036020908152604080832094871680845294909152808220859055909291907f8c5be1e5ebec7d5bd14f71427d1e84f3dd0314c0f7b2291e5b200ac8c7c3b9259085905190815260200160405180910390a350600192915050565b60015481565b600160a060020a0380841660008181526003602090815260408083203390951683529381528382205492825260029052918220548390108015906104605750828110155b151561046b57600080fd5b600160a060020a03808516600090815260026020526040808220805487019055918716815220805484900390556000198110156104d057600160a060020a03808616600090815260036020908152604080832033909416835292905220805484900390555b83600160a060020a031685600160a060020a03167fddf252ad1be2c89b69c2b068fc378daa952ba7f163c4a11628f55a4df523b3ef8560405190815260200160405180910390a3506001949350505050565b60026020526000908152604090205481565b60055460ff1681565b600360209081526000928352604080842090915290825290205481565b600160a060020a031660009081526002602052604090205490565b600054600160a060020a031681565b60068054600181600116156101000203166002900480601f0160208091040260200160405190810160405280929190818152602001828054600181600116156101000203166002900480156103a25780601f10610377576101008083540402835291602001916103a2565b600160a060020a0333166000908152600260205260408120548290101561061557600080fd5b600160a060020a033381166000818152600260205260408082208054879003905592861680825290839020805486019055917fddf252ad1be2c89b69c2b068fc378daa952ba7f163c4a11628f55a4df523b3ef9085905190815260200160405180910390a350600192915050565b600160a060020a03918216600090815260036020908152604080832093909416825291909152205490565b60005433600160a060020a039081169116146106c957600080fd5b600160a060020a03811615610701576000805473ffffffffffffffffffffffffffffffffffffffff1916600160a060020a0383161790555b505600a165627a7a723058201cf747ccd8128fda471593fe1c914bde25ea0f33a3efa5ca7c7311b1618080760029a165627a7a723058205a71615f3605fb7ebd3f3efa155c553e4db3da7e21d68752b483cf1c215740de00296060604052341561000f57600080fd5b60405161088c38038061088c83398101604052808051919060200180518201919060200180519190602001805160008054600160a060020a033316600160a060020a03199091168117825581526002602052604090208690556001869055909101905060048380516100859291602001906100b2565b506005805460ff191660ff841617905560068180516100a89291602001906100b2565b505050505061014d565b828054600181600116156101000203166002900490600052602060002090601f016020900481019282601f106100f357805160ff1916838001178555610120565b82800160010185558215610120579182015b82811115610120578251825591602001919060010190610105565b5061012c929150610130565b5090565b61014a91905b8082111561012c5760008155600101610136565b90565b6107308061015c6000396000f3006060604052600436106100c45763ffffffff7c010000000000000000000000000000000000000000000000000000000060003504166306fdde0381146100c9578063095ea7b31461015357806318160ddd1461018957806323b872dd146101ae57806327e235e3146101d6578063313ce567146101f55780635c6581651461021e57806370a08231146102435780638da5cb5b1461026257806395d89b4114610291578063a9059cbb146102a4578063dd62ed3e146102c6578063f2fde38b146102eb575b600080fd5b34156100d457600080fd5b6100dc61030c565b60405160208082528190810183818151815260200191508051906020019080838360005b83811015610118578082015183820152602001610100565b50505050905090810190601f1680156101455780820380516001836020036101000a031916815260200191505b509250505060405180910390f35b341561015e57600080fd5b610175600160a060020a03600435166024356103aa565b604051901515815260200160405180910390f35b341561019457600080fd5b61019c610416565b60405190815260200160405180910390f35b34156101b957600080fd5b610175600160a060020a036004358116906024351660443561041c565b34156101e157600080fd5b61019c600160a060020a0360043516610522565b341561020057600080fd5b610208610534565b60405160ff909116815260200160405180910390f35b341561022957600080fd5b61019c600160a060020a036004358116906024351661053d565b341561024e57600080fd5b61019c600160a060020a036004351661055a565b341561026d57600080fd5b610275610575565b604051600160a060020a03909116815260200160405180910390f35b341561029c57600080fd5b6100dc610584565b34156102af57600080fd5b610175600160a060020a03600435166024356105ef565b34156102d157600080fd5b61019c600160a060020a0360043581169060243516610683565b34156102f657600080fd5b61030a600160a060020a03600435166106ae565b005b60048054600181600116156101000203166002900480601f0160208091040260200160405190810160405280929190818152602001828054600181600116156101000203166002900480156103a25780601f10610377576101008083540402835291602001916103a2565b820191906000526020600020905b81548152906001019060200180831161038557829003601f168201915b505050505081565b600160a060020a03338116600081815260036020908152604080832094871680845294909152808220859055909291907f8c5be1e5ebec7d5bd14f71427d1e84f3dd0314c0f7b2291e5b200ac8c7c3b9259085905190815260200160405180910390a350600192915050565b60015481565b600160a060020a0380841660008181526003602090815260408083203390951683529381528382205492825260029052918220548390108015906104605750828110155b151561046b57600080fd5b600160a060020a03808516600090815260026020526040808220805487019055918716815220805484900390556000198110156104d057600160a060020a03808616600090815260036020908152604080832033909416835292905220805484900390555b83600160a060020a031685600160a060020a03167fddf252ad1be2c89b69c2b068fc378daa952ba7f163c4a11628f55a4df523b3ef8560405190815260200160405180910390a3506001949350505050565b60026020526000908152604090205481565b60055460ff1681565b600360209081526000928352604080842090915290825290205481565b600160a060020a031660009081526002602052604090205490565b600054600160a060020a031681565b60068054600181600116156101000203166002900480601f0160208091040260200160405190810160405280929190818152602001828054600181600116156101000203166002900480156103a25780601f10610377576101008083540402835291602001916103a2565b600160a060020a0333166000908152600260205260408120548290101561061557600080fd5b600160a060020a033381166000818152600260205260408082208054879003905592861680825290839020805486019055917fddf252ad1be2c89b69c2b068fc378daa952ba7f163c4a11628f55a4df523b3ef9085905190815260200160405180910390a350600192915050565b600160a060020a03918216600090815260036020908152604080832093909416825291909152205490565b60005433600160a060020a039081169116146106c957600080fd5b600160a060020a03811615610701576000805473ffffffffffffffffffffffffffffffffffffffff1916600160a060020a0383161790555b505600a165627a7a723058201cf747ccd8128fda471593fe1c914bde25ea0f33a3efa5ca7c7311b1618080760029",
  "source": "import \"./EIP20.sol\";\n\npragma solidity ^0.4.21;\n\n\ncontract EIP20Factory {\n\n    mapping(address => address[]) public created;\n    mapping(address => bool) public isEIP20; //verify without having to do a bytecode check.\n    bytes public EIP20ByteCode; // solhint-disable-line var-name-mixedcase\n\n    function EIP20Factory() public {\n        //upon creation of the factory, deploy a EIP20 (parameters are meaningless) and store the bytecode provably.\n        address verifiedToken = createEIP20(10000, \"Verify Token\", 3, \"VTX\");\n        EIP20ByteCode = codeAt(verifiedToken);\n    }\n\n    //verifies if a contract that has been deployed is a Human Standard Token.\n    //NOTE: This is a very expensive function, and should only be used in an eth_call. ~800k gas\n    function verifyEIP20(address _tokenContract) public view returns (bool) {\n        bytes memory fetchedTokenByteCode = codeAt(_tokenContract);\n\n        if (fetchedTokenByteCode.length != EIP20ByteCode.length) {\n            return false; //clear mismatch\n        }\n\n      //starting iterating through it if lengths match\n        for (uint i = 0; i < fetchedTokenByteCode.length; i++) {\n            if (fetchedTokenByteCode[i] != EIP20ByteCode[i]) {\n                return false;\n            }\n        }\n        return true;\n    }\n\n    function createEIP20(uint256 _initialAmount, string _name, uint8 _decimals, string _symbol)\n        public\n    returns (address) {\n\n        EIP20 newToken = (new EIP20(_initialAmount, _name, _decimals, _symbol));\n        created[msg.sender].push(address(newToken));\n        isEIP20[address(newToken)] = true;\n        //the factory will own the created tokens. You must transfer them.\n        newToken.transfer(msg.sender, _initialAmount);\n        return address(newToken);\n    }\n\n    //for now, keeping this internal. Ideally there should also be a live version of this that\n    // any contract can use, lib-style.\n    //retrieves the bytecode at a specific address.\n    function codeAt(address _addr) internal view returns (bytes outputCode) {\n        assembly { // solhint-disable-line no-inline-assembly\n            // retrieve the size of the code, this needs assembly\n            let size := extcodesize(_addr)\n            // allocate output byte array - this could also be done without assembly\n            // by using outputCode = new bytes(size)\n            outputCode := mload(0x40)\n            // new \"memory end\" including padding\n            mstore(0x40, add(outputCode, and(add(add(size, 0x20), 0x1f), not(0x1f))))\n            // store length in memory\n            mstore(outputCode, size)\n            // actually retrieve the code, this needs assembly\n            extcodecopy(_addr, add(outputCode, 0x20), 0, size)\n        }\n    }\n}\n",
  "sourcePath": "/home/mdkardaev/exchange/laborx.exchange.contracts/contracts/eip20/EIP20Factory.sol",
  "compiler": {
    "name": "solc",
    "version": "0.4.21+commit.dfe3193c.Emscripten.clang"
  },
  "schemaVersion": "2.0.0",
  "updatedAt": "2018-06-04T17:35:47.667Z"
}