{
  "contractName": "Exchange",
  "abi": [
    {
      "constant": true,
      "inputs": [
        {
          "name": "",
          "type": "bytes32"
        }
      ],
      "name": "filled",
      "outputs": [
        {
          "name": "",
          "type": "uint256"
        }
      ],
      "payable": false,
      "stateMutability": "view",
      "type": "function"
    },
    {
      "constant": true,
      "inputs": [
        {
          "name": "",
          "type": "bytes32"
        }
      ],
      "name": "cancelled",
      "outputs": [
        {
          "name": "",
          "type": "uint256"
        }
      ],
      "payable": false,
      "stateMutability": "view",
      "type": "function"
    },
    {
      "constant": true,
      "inputs": [],
      "name": "ZRX_TOKEN_CONTRACT",
      "outputs": [
        {
          "name": "",
          "type": "address"
        }
      ],
      "payable": false,
      "stateMutability": "view",
      "type": "function"
    },
    {
      "constant": true,
      "inputs": [],
      "name": "TOKEN_TRANSFER_PROXY_CONTRACT",
      "outputs": [
        {
          "name": "",
          "type": "address"
        }
      ],
      "payable": false,
      "stateMutability": "view",
      "type": "function"
    },
    {
      "constant": true,
      "inputs": [],
      "name": "EXTERNAL_QUERY_GAS_LIMIT",
      "outputs": [
        {
          "name": "",
          "type": "uint16"
        }
      ],
      "payable": false,
      "stateMutability": "view",
      "type": "function"
    },
    {
      "constant": true,
      "inputs": [],
      "name": "VERSION",
      "outputs": [
        {
          "name": "",
          "type": "string"
        }
      ],
      "payable": false,
      "stateMutability": "view",
      "type": "function"
    },
    {
      "inputs": [
        {
          "name": "_zrxToken",
          "type": "address"
        },
        {
          "name": "_tokenTransferProxy",
          "type": "address"
        }
      ],
      "payable": false,
      "stateMutability": "nonpayable",
      "type": "constructor"
    },
    {
      "anonymous": false,
      "inputs": [
        {
          "indexed": true,
          "name": "maker",
          "type": "address"
        },
        {
          "indexed": false,
          "name": "taker",
          "type": "address"
        },
        {
          "indexed": true,
          "name": "feeRecipient",
          "type": "address"
        },
        {
          "indexed": false,
          "name": "makerToken",
          "type": "address"
        },
        {
          "indexed": false,
          "name": "takerToken",
          "type": "address"
        },
        {
          "indexed": false,
          "name": "filledMakerTokenAmount",
          "type": "uint256"
        },
        {
          "indexed": false,
          "name": "filledTakerTokenAmount",
          "type": "uint256"
        },
        {
          "indexed": false,
          "name": "paidMakerFee",
          "type": "uint256"
        },
        {
          "indexed": false,
          "name": "paidTakerFee",
          "type": "uint256"
        },
        {
          "indexed": true,
          "name": "tokens",
          "type": "bytes32"
        },
        {
          "indexed": false,
          "name": "orderHash",
          "type": "bytes32"
        }
      ],
      "name": "LogFill",
      "type": "event"
    },
    {
      "anonymous": false,
      "inputs": [
        {
          "indexed": true,
          "name": "maker",
          "type": "address"
        },
        {
          "indexed": true,
          "name": "feeRecipient",
          "type": "address"
        },
        {
          "indexed": false,
          "name": "makerToken",
          "type": "address"
        },
        {
          "indexed": false,
          "name": "takerToken",
          "type": "address"
        },
        {
          "indexed": false,
          "name": "cancelledMakerTokenAmount",
          "type": "uint256"
        },
        {
          "indexed": false,
          "name": "cancelledTakerTokenAmount",
          "type": "uint256"
        },
        {
          "indexed": true,
          "name": "tokens",
          "type": "bytes32"
        },
        {
          "indexed": false,
          "name": "orderHash",
          "type": "bytes32"
        }
      ],
      "name": "LogCancel",
      "type": "event"
    },
    {
      "anonymous": false,
      "inputs": [
        {
          "indexed": true,
          "name": "errorId",
          "type": "uint8"
        },
        {
          "indexed": true,
          "name": "orderHash",
          "type": "bytes32"
        }
      ],
      "name": "LogError",
      "type": "event"
    },
    {
      "constant": false,
      "inputs": [
        {
          "name": "orderAddresses",
          "type": "address[5]"
        },
        {
          "name": "orderValues",
          "type": "uint256[6]"
        },
        {
          "name": "fillTakerTokenAmount",
          "type": "uint256"
        },
        {
          "name": "shouldThrowOnInsufficientBalanceOrAllowance",
          "type": "bool"
        },
        {
          "name": "v",
          "type": "uint8"
        },
        {
          "name": "r",
          "type": "bytes32"
        },
        {
          "name": "s",
          "type": "bytes32"
        }
      ],
      "name": "fillOrder",
      "outputs": [
        {
          "name": "filledTakerTokenAmount",
          "type": "uint256"
        }
      ],
      "payable": false,
      "stateMutability": "nonpayable",
      "type": "function"
    },
    {
      "constant": false,
      "inputs": [
        {
          "name": "orderAddresses",
          "type": "address[5]"
        },
        {
          "name": "orderValues",
          "type": "uint256[6]"
        },
        {
          "name": "cancelTakerTokenAmount",
          "type": "uint256"
        }
      ],
      "name": "cancelOrder",
      "outputs": [
        {
          "name": "",
          "type": "uint256"
        }
      ],
      "payable": false,
      "stateMutability": "nonpayable",
      "type": "function"
    },
    {
      "constant": false,
      "inputs": [
        {
          "name": "orderAddresses",
          "type": "address[5]"
        },
        {
          "name": "orderValues",
          "type": "uint256[6]"
        },
        {
          "name": "fillTakerTokenAmount",
          "type": "uint256"
        },
        {
          "name": "v",
          "type": "uint8"
        },
        {
          "name": "r",
          "type": "bytes32"
        },
        {
          "name": "s",
          "type": "bytes32"
        }
      ],
      "name": "fillOrKillOrder",
      "outputs": [],
      "payable": false,
      "stateMutability": "nonpayable",
      "type": "function"
    },
    {
      "constant": false,
      "inputs": [
        {
          "name": "orderAddresses",
          "type": "address[5][]"
        },
        {
          "name": "orderValues",
          "type": "uint256[6][]"
        },
        {
          "name": "fillTakerTokenAmounts",
          "type": "uint256[]"
        },
        {
          "name": "shouldThrowOnInsufficientBalanceOrAllowance",
          "type": "bool"
        },
        {
          "name": "v",
          "type": "uint8[]"
        },
        {
          "name": "r",
          "type": "bytes32[]"
        },
        {
          "name": "s",
          "type": "bytes32[]"
        }
      ],
      "name": "batchFillOrders",
      "outputs": [],
      "payable": false,
      "stateMutability": "nonpayable",
      "type": "function"
    },
    {
      "constant": false,
      "inputs": [
        {
          "name": "orderAddresses",
          "type": "address[5][]"
        },
        {
          "name": "orderValues",
          "type": "uint256[6][]"
        },
        {
          "name": "fillTakerTokenAmounts",
          "type": "uint256[]"
        },
        {
          "name": "v",
          "type": "uint8[]"
        },
        {
          "name": "r",
          "type": "bytes32[]"
        },
        {
          "name": "s",
          "type": "bytes32[]"
        }
      ],
      "name": "batchFillOrKillOrders",
      "outputs": [],
      "payable": false,
      "stateMutability": "nonpayable",
      "type": "function"
    },
    {
      "constant": false,
      "inputs": [
        {
          "name": "orderAddresses",
          "type": "address[5][]"
        },
        {
          "name": "orderValues",
          "type": "uint256[6][]"
        },
        {
          "name": "fillTakerTokenAmount",
          "type": "uint256"
        },
        {
          "name": "shouldThrowOnInsufficientBalanceOrAllowance",
          "type": "bool"
        },
        {
          "name": "v",
          "type": "uint8[]"
        },
        {
          "name": "r",
          "type": "bytes32[]"
        },
        {
          "name": "s",
          "type": "bytes32[]"
        }
      ],
      "name": "fillOrdersUpTo",
      "outputs": [
        {
          "name": "",
          "type": "uint256"
        }
      ],
      "payable": false,
      "stateMutability": "nonpayable",
      "type": "function"
    },
    {
      "constant": false,
      "inputs": [
        {
          "name": "orderAddresses",
          "type": "address[5][]"
        },
        {
          "name": "orderValues",
          "type": "uint256[6][]"
        },
        {
          "name": "cancelTakerTokenAmounts",
          "type": "uint256[]"
        }
      ],
      "name": "batchCancelOrders",
      "outputs": [],
      "payable": false,
      "stateMutability": "nonpayable",
      "type": "function"
    },
    {
      "constant": true,
      "inputs": [
        {
          "name": "orderAddresses",
          "type": "address[5]"
        },
        {
          "name": "orderValues",
          "type": "uint256[6]"
        }
      ],
      "name": "getOrderHash",
      "outputs": [
        {
          "name": "",
          "type": "bytes32"
        }
      ],
      "payable": false,
      "stateMutability": "view",
      "type": "function"
    },
    {
      "constant": true,
      "inputs": [
        {
          "name": "signer",
          "type": "address"
        },
        {
          "name": "hash",
          "type": "bytes32"
        },
        {
          "name": "v",
          "type": "uint8"
        },
        {
          "name": "r",
          "type": "bytes32"
        },
        {
          "name": "s",
          "type": "bytes32"
        }
      ],
      "name": "isValidSignature",
      "outputs": [
        {
          "name": "",
          "type": "bool"
        }
      ],
      "payable": false,
      "stateMutability": "pure",
      "type": "function"
    },
    {
      "constant": true,
      "inputs": [
        {
          "name": "numerator",
          "type": "uint256"
        },
        {
          "name": "denominator",
          "type": "uint256"
        },
        {
          "name": "target",
          "type": "uint256"
        }
      ],
      "name": "isRoundingError",
      "outputs": [
        {
          "name": "",
          "type": "bool"
        }
      ],
      "payable": false,
      "stateMutability": "pure",
      "type": "function"
    },
    {
      "constant": true,
      "inputs": [
        {
          "name": "numerator",
          "type": "uint256"
        },
        {
          "name": "denominator",
          "type": "uint256"
        },
        {
          "name": "target",
          "type": "uint256"
        }
      ],
      "name": "getPartialAmount",
      "outputs": [
        {
          "name": "",
          "type": "uint256"
        }
      ],
      "payable": false,
      "stateMutability": "pure",
      "type": "function"
    },
    {
      "constant": true,
      "inputs": [
        {
          "name": "orderHash",
          "type": "bytes32"
        }
      ],
      "name": "getUnavailableTakerTokenAmount",
      "outputs": [
        {
          "name": "",
          "type": "uint256"
        }
      ],
      "payable": false,
      "stateMutability": "view",
      "type": "function"
    }
  ],
  "bytecode": "0x608060405234801561001057600080fd5b50604051604080611d7e83398101604052805160209091015160008054600160a060020a03938416600160a060020a03199182161790915560018054939092169216919091179055611d17806100676000396000f3006080604052600436106100fb5763ffffffff7c010000000000000000000000000000000000000000000000000000000060003504166314df96ee8114610100578063288cdc91146101325780632ac126221461015c578063363349be14610174578063394c21e7146103285780633b30ba59146103935780634f150787146103c4578063741bcc93146105ab5780637e9abb50146106285780638163681e1461064057806398024a8b14610670578063add1cbc51461068e578063b7b2c7d6146106a3578063baa0181d14610891578063bc61394a146109cb578063cfc4d0ec14610a50578063f06bbf7514610ab9578063ffa1ad7414610ae5575b600080fd5b34801561010c57600080fd5b5061011e600435602435604435610b6f565b604080519115158252519081900360200190f35b34801561013e57600080fd5b5061014a600435610bc5565b60408051918252519081900360200190f35b34801561016857600080fd5b5061014a600435610bd7565b34801561018057600080fd5b5060408051600480358082013560208181028501810190955280845261014a943694602493909290840191819060009085015b828210156101ef576040805160a081810190925290808402870190600590839083908082843750505091835250506001909101906020016101b3565b50506040805186358801803560208181028401810190945280835296999897830196919550820193509150819060009085015b8282101561025e576040805160c08181019092529080840287019060069083908390808284375050509183525050600190910190602001610222565b505060408051602087830135890180358281028085018401909552808452979a89359a838b013515159a919990985060609091019650929450810192829185019084908082843750506040805187358901803560208181028481018201909552818452989b9a998901989297509082019550935083925085019084908082843750506040805187358901803560208181028481018201909552818452989b9a998901989297509082019550935083925085019084908082843750949750610be99650505050505050565b34801561033457600080fd5b506040805160a081810190925261014a91369160049160a491908390600590839083908082843750506040805160c0818101909252949796958181019594509250600691508390839080828437509396505092359350610d0892505050565b34801561039f57600080fd5b506103a8610f82565b60408051600160a060020a039092168252519081900360200190f35b3480156103d057600080fd5b506040805160048035808201356020818102850181019095528084526105a9943694602493909290840191819060009085015b8282101561043f576040805160a08181019092529080840287019060059083908390808284375050509183525050600190910190602001610403565b50506040805186358801803560208181028401810190945280835296999897830196919550820193509150819060009085015b828210156104ae576040805160c08181019092529080840287019060069083908390808284375050509183525050600190910190602001610472565b50505050509192919290803590602001908201803590602001908080602002602001604051908101604052809392919081815260200183836020028082843750506040805187358901803560208181028481018201909552818452989b9a998901989297509082019550935083925085019084908082843750506040805187358901803560208181028481018201909552818452989b9a998901989297509082019550935083925085019084908082843750506040805187358901803560208181028481018201909552818452989b9a998901989297509082019550935083925085019084908082843750949750610f919650505050505050565b005b3480156105b757600080fd5b506040805160a08181019092526105a991369160049160a491908390600590839083908082843750506040805160c0818101909252949796958181019594509250600691508390839080828437509396505083359450505050602081013560ff169060408101359060600135611046565b34801561063457600080fd5b5061014a600435611069565b34801561064c57600080fd5b5061011e600160a060020a036004351660243560ff60443516606435608435611093565b34801561067c57600080fd5b5061014a60043560243560443561114a565b34801561069a57600080fd5b506103a8611167565b3480156106af57600080fd5b506040805160048035808201356020818102850181019095528084526105a9943694602493909290840191819060009085015b8282101561071e576040805160a081810190925290808402870190600590839083908082843750505091835250506001909101906020016106e2565b50506040805186358801803560208181028401810190945280835296999897830196919550820193509150819060009085015b8282101561078d576040805160c08181019092529080840287019060069083908390808284375050509183525050600190910190602001610751565b5050505050919291929080359060200190820180359060200190808060200260200160405190810160405280939291908181526020018383602002808284375050604080516020808901358a01803580830284810184018652818552999c8b3515159c909b909a950198509296508101945090925082919085019084908082843750506040805187358901803560208181028481018201909552818452989b9a998901989297509082019550935083925085019084908082843750506040805187358901803560208181028481018201909552818452989b9a9989019892975090820195509350839250850190849080828437509497506111769650505050505050565b34801561089d57600080fd5b506040805160048035808201356020818102850181019095528084526105a9943694602493909290840191819060009085015b8282101561090c576040805160a081810190925290808402870190600590839083908082843750505091835250506001909101906020016108d0565b50506040805186358801803560208181028401810190945280835296999897830196919550820193509150819060009085015b8282101561097b576040805160c0818101909252908084028701906006908390839080828437505050918352505060019091019060200161093f565b5050505050919291929080359060200190820180359060200190808060200260200160405190810160405280939291908181526020018383602002808284375094975061121f9650505050505050565b3480156109d757600080fd5b506040805160a081810190925261014a91369160049160a491908390600590839083908082843750506040805160c0818101909252949796958181019594509250600691508390839080828437509396505083359450505050602081013515159060ff604082013516906060810135906080013561128a565b348015610a5c57600080fd5b506040805160a081810190925261014a91369160049160a491908390600590839083908082843750506040805160c0818101909252949796958181019594509250600691508390839080828437509396506116e895505050505050565b348015610ac557600080fd5b50610ace6117a9565b6040805161ffff9092168252519081900360200190f35b348015610af157600080fd5b50610afa6117af565b6040805160208082528351818301528351919283929083019185019080838360005b83811015610b34578181015183820152602001610b1c565b50505050905090810190601f168015610b615780820380516001836020036101000a031916815260200191505b509250505060405180910390f35b600080600084801515610b7e57fe5b8685099150811515610b935760009250610bbc565b610bb2610ba383620f42406117e6565b610bad88876117e6565b611811565b90506103e8811192505b50509392505050565b60026020526000908152604090205481565b60036020526000908152604090205481565b600080805b8951811015610cfb57896000815181101515610c0657fe5b6020908102909101015160036020020151600160a060020a03168a82815181101515610c2e57fe5b602090810291909101015160600151600160a060020a031614610c5057600080fd5b610ce482610cdf8c84815181101515610c6557fe5b906020019060200201518c85815181101515610c7d57fe5b90602001906020020151610c918d88611828565b8c8c88815181101515610ca057fe5b906020019060200201518c89815181101515610cb857fe5b906020019060200201518c8a815181101515610cd057fe5b9060200190602002015161128a565b61183a565b915087821415610cf357610cfb565b600101610bee565b5098975050505050505050565b6000610d12611c8f565b60408051610160810182528651600160a060020a039081168252602080890151821681840152888401518216838501526060808a01518316818501526080808b015190931683850152885160a08501529088015160c08401529287015160e0830152918601516101008201529085015161012082015260009081906101408101610d9c89896116e8565b90528051909350600160a060020a03163314610db757600080fd5b60008360a00151118015610dcf575060008360c00151115b8015610ddb5750600085115b1515610de657600080fd5b6101208301514210610e335761014083015160005b60ff167f36d86c59e00bd73dc19ba3adfe068e4b64ac7e92be35546adeddf1b956a87e9060405160405180910390a360009350610f78565b610e4e8360c00151610e49856101400151611069565b611828565b9150610e5a8583611849565b9050801515610e70576101408301516001610dfb565b610140830151600090815260036020526040902054610e8f908261183a565b6101408401516000908152600360205260409081902091909155808401805160608601805184516c01000000000000000000000000600160a060020a03948516810282529184169091026014820152935193849003602801909320608087015187519351945160c089015160a08a0151939692851695909416937f67d66f160bc93d925d05dae1794c90d2d6d6688b29b84ff069398a9b0458713193610f3691899161114a565b6101408a015160408051600160a060020a0395861681529390941660208401528284019190915260608201889052608082015290519081900360a00190a48093505b5050509392505050565b600054600160a060020a031681565b60005b865181101561103d576110358782815181101515610fae57fe5b906020019060200201518783815181101515610fc657fe5b906020019060200201518784815181101515610fde57fe5b906020019060200201518785815181101515610ff657fe5b90602001906020020151878681518110151561100e57fe5b90602001906020020151878781518110151561102657fe5b90602001906020020151611046565b600101610f94565b50505050505050565b83611057878787600088888861128a565b1461106157600080fd5b505050505050565b600081815260026020908152604080832054600390925282205461108d919061183a565b92915050565b604080517f19457468657265756d205369676e6564204d6573736167653a0a3332000000008152601c8101869052815190819003603c018120600080835260208381018086529290925260ff8716838501526060830186905260808301859052925160019260a08082019392601f198101928190039091019086865af1158015611121573d6000803e3d6000fd5b50505060206040510351600160a060020a031686600160a060020a031614905095945050505050565b600061115f61115985846117e6565b84611811565b949350505050565b600154600160a060020a031681565b60005b87518110156112155761120c888281518110151561119357fe5b9060200190602002015188838151811015156111ab57fe5b9060200190602002015188848151811015156111c357fe5b906020019060200201518888868151811015156111dc57fe5b9060200190602002015188878151811015156111f457fe5b906020019060200201518888815181101515610cd057fe5b50600101611179565b5050505050505050565b60005b83518110156112845761127b848281518110151561123c57fe5b90602001906020020151848381518110151561125457fe5b90602001906020020151848481518110151561126c57fe5b90602001906020020151610d08565b50600101611222565b50505050565b6000611294611c8f565b600080600080610160604051908101604052808e60006005811015156112b657fe5b60209081029190910151600160a060020a03168252018e600160209081029190910151600160a060020a03168252018e600260209081029190910151600160a060020a03168252018e600360209081029190910151600160a060020a03168252018e600460209081029190910151600160a060020a03168252018d6000602090810291909101518252018d6001602090810291909101518252018d6002602090810291909101518252018d6003602090810291909101518252018d6004602002015181526020016113878f8f6116e8565b90526020810151909550600160a060020a031615806113b257506020850151600160a060020a031633145b15156113bd57600080fd5b60008560a001511180156113d5575060008560c00151115b80156113e1575060008b115b15156113ec57600080fd5b61140285600001518661014001518b8b8b611093565b151561140d57600080fd5b610120850151421061145a5761014085015160005b60ff167f36d86c59e00bd73dc19ba3adfe068e4b64ac7e92be35546adeddf1b956a87e9060405160405180910390a3600095506116d8565b6114708560c00151610e49876101400151611069565b935061147c8b85611849565b9550851515611492576101408501516001611422565b6114a5868660c001518760a00151610b6f565b156114b7576101408501516002611422565b891580156114cc57506114ca858761185f565b155b156114de576101408501516003611422565b6114f1868660c001518760a0015161114a565b610140860151600090815260026020526040902054909350611513908761183a565b6101408601516000908152600260205260409081902091909155850151855161153e91903386611ab2565b151561154957600080fd5b61155d856060015133876000015189611ab2565b151561156857600080fd5b6080850151600160a060020a0316156116195760008560e0015111156115c95761159b868660c001518760e0015161114a565b600054865160808801519294506115be92600160a060020a039092169185611ab2565b15156115c957600080fd5b60008561010001511115611619576115eb868660c0015187610100015161114a565b600054608087015191925061160e91600160a060020a0390911690339084611ab2565b151561161957600080fd5b604080860180516060808901805185516c01000000000000000000000000600160a060020a0395861681028252918516909102601482015285519081900360280181206080808d01518d51975194516101408f015133865295881660208601528716848a01529483018b905282018d905260a0820189905260c0820188905260e08201929092529451909491831693909216917f0d0b9391970d9a25552f37d436d2aae2925e2bfe1b2a923754bada030c498cb3918190036101000190a45b5050505050979650505050505050565b815160208084015160408086015160608088015160809889015188519689015189860151938a01519a8a015160a0909a01518651306c010000000000000000000000009081028252600160a060020a039b8c1681026014830152988b1689026028820152958a168802603c87015292891687026050860152971690940260648301526078820194909452609881019490945260b884019290925260d883019490945260f8820192909252610118810192909252519081900361013801902090565b61138781565b60408051808201909152600581527f312e302e30000000000000000000000000000000000000000000000000000000602082015281565b600082820283158061180257508284828115156117ff57fe5b04145b151561180a57fe5b9392505050565b600080828481151561181f57fe5b04949350505050565b60008282111561183457fe5b50900390565b60008282018381101561180a57fe5b6000818310611858578161180a565b5090919050565b60008060008060008060008060003397506118838a8c60c001518d60a0015161114a565b60808c0151909750600160a060020a031615611a345760005460408c015160608d015160c08e015160e08f0151600160a060020a0394851693851684149a509390911690911496506118d7918c919061114a565b93506118ed8a8c60c001518d610100015161114a565b9250856118fa5783611904565b611904878561183a565b915084611911578261191b565b61191b8a8461183a565b6000548c51919250839161193891600160a060020a031690611b69565b108061195d57506000548b51839161195b91600160a060020a0390911690611c1a565b105b8061197d5750600054819061197b90600160a060020a03168a611b69565b105b8061199d5750600054819061199b90600160a060020a03168a611c1a565b105b156119ab5760009850611aa4565b851580156119e35750866119c78c604001518d60000151611b69565b10806119e35750866119e18c604001518d60000151611c1a565b105b156119f15760009850611aa4565b84158015611a21575089611a098c606001518a611b69565b1080611a21575089611a1f8c606001518a611c1a565b105b15611a2f5760009850611aa4565b611a9f565b86611a478c604001518d60000151611b69565b1080611a63575086611a618c604001518d60000151611c1a565b105b80611a7a575089611a788c606001518a611b69565b105b80611a91575089611a8f8c606001518a611c1a565b105b15611a9f5760009850611aa4565b600198505b505050505050505092915050565b600154604080517f15dacbea000000000000000000000000000000000000000000000000000000008152600160a060020a0387811660048301528681166024830152858116604483015260648201859052915160009392909216916315dacbea9160848082019260209290919082900301818787803b158015611b3457600080fd5b505af1158015611b48573d6000803e3d6000fd5b505050506040513d6020811015611b5e57600080fd5b505195945050505050565b600082600160a060020a03166370a0823161138761ffff16846040518363ffffffff167c01000000000000000000000000000000000000000000000000000000000281526004018082600160a060020a0316600160a060020a03168152602001915050602060405180830381600088803b158015611be657600080fd5b5087f1158015611bfa573d6000803e3d6000fd5b50505050506040513d6020811015611c1157600080fd5b50519392505050565b600154604080517fdd62ed3e000000000000000000000000000000000000000000000000000000008152600160a060020a0384811660048301529283166024820152905160009285169163dd62ed3e916113879160448082019260209290919082900301818888803b158015611be657600080fd5b6040805161016081018252600080825260208201819052918101829052606081018290526080810182905260a0810182905260c0810182905260e0810182905261010081018290526101208101829052610140810191909152905600a165627a7a72305820992f3284a0be00838dbd663a36e14c0a7ab3a124a7d7a2d183f5f607c54766870029",
  "source": "/*\n\n  Copyright 2017 ZeroEx Intl.\n\n  Licensed under the Apache License, Version 2.0 (the \"License\");\n  you may not use this file except in compliance with the License.\n  You may obtain a copy of the License at\n\n    http://www.apache.org/licenses/LICENSE-2.0\n\n  Unless required by applicable law or agreed to in writing, software\n  distributed under the License is distributed on an \"AS IS\" BASIS,\n  WITHOUT WARRANTIES OR CONDITIONS OF ANY KIND, either express or implied.\n  See the License for the specific language governing permissions and\n  limitations under the License.\n\n*/\n\npragma solidity ^0.4.14;\n\nimport { TokenTransferProxy } from \"../TokenTransferProxy/TokenTransferProxy.sol\";\nimport { EIP20Interface as Token } from \"../../eip20/EIP20Interface.sol\";\nimport { SafeMath } from \"../../utils/SafeMath/SafeMath.sol\";\n\n/// @title Exchange - Facilitates exchange of ERC20 tokens.\n/// @author Amir Bandeali - <amir@0xProject.com>, Will Warren - <will@0xProject.com>\ncontract Exchange is SafeMath {\n\n    // Error Codes\n    enum Errors {\n        ORDER_EXPIRED,                    // Order has already expired\n        ORDER_FULLY_FILLED_OR_CANCELLED,  // Order has already been fully filled or cancelled\n        ROUNDING_ERROR_TOO_LARGE,         // Rounding error too large\n        INSUFFICIENT_BALANCE_OR_ALLOWANCE // Insufficient balance or allowance for token transfer\n    }\n\n    string constant public VERSION = \"1.0.0\";\n    uint16 constant public EXTERNAL_QUERY_GAS_LIMIT = 4999;    // Changes to state require at least 5000 gas\n\n    address public ZRX_TOKEN_CONTRACT;\n    address public TOKEN_TRANSFER_PROXY_CONTRACT;\n\n    // Mappings of orderHash => amounts of takerTokenAmount filled or cancelled.\n    mapping (bytes32 => uint) public filled;\n    mapping (bytes32 => uint) public cancelled;\n\n    event LogFill(\n        address indexed maker,\n        address taker,\n        address indexed feeRecipient,\n        address makerToken,\n        address takerToken,\n        uint filledMakerTokenAmount,\n        uint filledTakerTokenAmount,\n        uint paidMakerFee,\n        uint paidTakerFee,\n        bytes32 indexed tokens, // keccak256(makerToken, takerToken), allows subscribing to a token pair\n        bytes32 orderHash\n    );\n\n    event LogCancel(\n        address indexed maker,\n        address indexed feeRecipient,\n        address makerToken,\n        address takerToken,\n        uint cancelledMakerTokenAmount,\n        uint cancelledTakerTokenAmount,\n        bytes32 indexed tokens,\n        bytes32 orderHash\n    );\n\n    event LogError(uint8 indexed errorId, bytes32 indexed orderHash);\n\n    struct Order {\n        address maker;\n        address taker;\n        address makerToken;\n        address takerToken;\n        address feeRecipient;\n        uint makerTokenAmount;\n        uint takerTokenAmount;\n        uint makerFee;\n        uint takerFee;\n        uint expirationTimestampInSec;\n        bytes32 orderHash;\n    }\n\n    constructor(address _zrxToken, address _tokenTransferProxy) public {\n        ZRX_TOKEN_CONTRACT = _zrxToken;\n        TOKEN_TRANSFER_PROXY_CONTRACT = _tokenTransferProxy;\n    }\n\n    /*\n    * Core exchange functions\n    */\n\n    /// @dev Fills the input order.\n    /// @param orderAddresses Array of order's maker, taker, makerToken, takerToken, and feeRecipient.\n    /// @param orderValues Array of order's makerTokenAmount, takerTokenAmount, makerFee, takerFee, expirationTimestampInSec, and salt.\n    /// @param fillTakerTokenAmount Desired amount of takerToken to fill.\n    /// @param shouldThrowOnInsufficientBalanceOrAllowance Test if transfer will fail before attempting.\n    /// @param v ECDSA signature parameter v.\n    /// @param r ECDSA signature parameters r.\n    /// @param s ECDSA signature parameters s.\n    /// @return Total amount of takerToken filled in trade.\n    function fillOrder(\n          address[5] orderAddresses,\n          uint[6] orderValues,\n          uint fillTakerTokenAmount,\n          bool shouldThrowOnInsufficientBalanceOrAllowance,\n          uint8 v,\n          bytes32 r,\n          bytes32 s)\n          public\n          returns (uint filledTakerTokenAmount)\n    {\n        Order memory order = Order({\n            maker: orderAddresses[0],\n            taker: orderAddresses[1],\n            makerToken: orderAddresses[2],\n            takerToken: orderAddresses[3],\n            feeRecipient: orderAddresses[4],\n            makerTokenAmount: orderValues[0],\n            takerTokenAmount: orderValues[1],\n            makerFee: orderValues[2],\n            takerFee: orderValues[3],\n            expirationTimestampInSec: orderValues[4],\n            orderHash: getOrderHash(orderAddresses, orderValues)\n        });\n\n        require(order.taker == address(0) || order.taker == msg.sender);\n        require(order.makerTokenAmount > 0 && order.takerTokenAmount > 0 && fillTakerTokenAmount > 0);\n        require(isValidSignature(\n            order.maker,\n            order.orderHash,\n            v,\n            r,\n            s\n        ));\n\n        if (block.timestamp >= order.expirationTimestampInSec) {\n            emit LogError(uint8(Errors.ORDER_EXPIRED), order.orderHash);\n            return 0;\n        }\n\n        uint remainingTakerTokenAmount = safeSub(order.takerTokenAmount, getUnavailableTakerTokenAmount(order.orderHash));\n        filledTakerTokenAmount = min256(fillTakerTokenAmount, remainingTakerTokenAmount);\n        if (filledTakerTokenAmount == 0) {\n            emit LogError(uint8(Errors.ORDER_FULLY_FILLED_OR_CANCELLED), order.orderHash);\n            return 0;\n        }\n\n        if (isRoundingError(filledTakerTokenAmount, order.takerTokenAmount, order.makerTokenAmount)) {\n            emit LogError(uint8(Errors.ROUNDING_ERROR_TOO_LARGE), order.orderHash);\n            return 0;\n        }\n\n        if (!shouldThrowOnInsufficientBalanceOrAllowance && !isTransferable(order, filledTakerTokenAmount)) {\n            emit LogError(uint8(Errors.INSUFFICIENT_BALANCE_OR_ALLOWANCE), order.orderHash);\n            return 0;\n        }\n\n        uint filledMakerTokenAmount = getPartialAmount(filledTakerTokenAmount, order.takerTokenAmount, order.makerTokenAmount);\n        uint paidMakerFee;\n        uint paidTakerFee;\n        filled[order.orderHash] = safeAdd(filled[order.orderHash], filledTakerTokenAmount);\n        require(transferViaTokenTransferProxy(\n            order.makerToken,\n            order.maker,\n            msg.sender,\n            filledMakerTokenAmount\n        ));\n        require(transferViaTokenTransferProxy(\n            order.takerToken,\n            msg.sender,\n            order.maker,\n            filledTakerTokenAmount\n        ));\n        if (order.feeRecipient != address(0)) {\n            if (order.makerFee > 0) {\n                paidMakerFee = getPartialAmount(filledTakerTokenAmount, order.takerTokenAmount, order.makerFee);\n                require(transferViaTokenTransferProxy(\n                    ZRX_TOKEN_CONTRACT,\n                    order.maker,\n                    order.feeRecipient,\n                    paidMakerFee\n                ));\n            }\n            if (order.takerFee > 0) {\n                paidTakerFee = getPartialAmount(filledTakerTokenAmount, order.takerTokenAmount, order.takerFee);\n                require(transferViaTokenTransferProxy(\n                    ZRX_TOKEN_CONTRACT,\n                    msg.sender,\n                    order.feeRecipient,\n                    paidTakerFee\n                ));\n            }\n        }\n\n        emit LogFill(\n            order.maker,\n            msg.sender,\n            order.feeRecipient,\n            order.makerToken,\n            order.takerToken,\n            filledMakerTokenAmount,\n            filledTakerTokenAmount,\n            paidMakerFee,\n            paidTakerFee,\n            keccak256(order.makerToken, order.takerToken),\n            order.orderHash\n        );\n        return filledTakerTokenAmount;\n    }\n\n    /// @dev Cancels the input order.\n    /// @param orderAddresses Array of order's maker, taker, makerToken, takerToken, and feeRecipient.\n    /// @param orderValues Array of order's makerTokenAmount, takerTokenAmount, makerFee, takerFee, expirationTimestampInSec, and salt.\n    /// @param cancelTakerTokenAmount Desired amount of takerToken to cancel in order.\n    /// @return Amount of takerToken cancelled.\n    function cancelOrder(\n        address[5] orderAddresses,\n        uint[6] orderValues,\n        uint cancelTakerTokenAmount)\n        public\n        returns (uint)\n    {\n        Order memory order = Order({\n            maker: orderAddresses[0],\n            taker: orderAddresses[1],\n            makerToken: orderAddresses[2],\n            takerToken: orderAddresses[3],\n            feeRecipient: orderAddresses[4],\n            makerTokenAmount: orderValues[0],\n            takerTokenAmount: orderValues[1],\n            makerFee: orderValues[2],\n            takerFee: orderValues[3],\n            expirationTimestampInSec: orderValues[4],\n            orderHash: getOrderHash(orderAddresses, orderValues)\n        });\n\n        require(order.maker == msg.sender);\n        require(order.makerTokenAmount > 0 && order.takerTokenAmount > 0 && cancelTakerTokenAmount > 0);\n\n        if (block.timestamp >= order.expirationTimestampInSec) {\n            emit LogError(uint8(Errors.ORDER_EXPIRED), order.orderHash);\n            return 0;\n        }\n\n        uint remainingTakerTokenAmount = safeSub(order.takerTokenAmount, getUnavailableTakerTokenAmount(order.orderHash));\n        uint cancelledTakerTokenAmount = min256(cancelTakerTokenAmount, remainingTakerTokenAmount);\n        if (cancelledTakerTokenAmount == 0) {\n            emit LogError(uint8(Errors.ORDER_FULLY_FILLED_OR_CANCELLED), order.orderHash);\n            return 0;\n        }\n\n        cancelled[order.orderHash] = safeAdd(cancelled[order.orderHash], cancelledTakerTokenAmount);\n\n        emit LogCancel(\n            order.maker,\n            order.feeRecipient,\n            order.makerToken,\n            order.takerToken,\n            getPartialAmount(cancelledTakerTokenAmount, order.takerTokenAmount, order.makerTokenAmount),\n            cancelledTakerTokenAmount,\n            keccak256(order.makerToken, order.takerToken),\n            order.orderHash\n        );\n        return cancelledTakerTokenAmount;\n    }\n\n    /*\n    * Wrapper functions\n    */\n\n    /// @dev Fills an order with specified parameters and ECDSA signature, throws if specified amount not filled entirely.\n    /// @param orderAddresses Array of order's maker, taker, makerToken, takerToken, and feeRecipient.\n    /// @param orderValues Array of order's makerTokenAmount, takerTokenAmount, makerFee, takerFee, expirationTimestampInSec, and salt.\n    /// @param fillTakerTokenAmount Desired amount of takerToken to fill.\n    /// @param v ECDSA signature parameter v.\n    /// @param r ECDSA signature parameters r.\n    /// @param s ECDSA signature parameters s.\n    function fillOrKillOrder(\n        address[5] orderAddresses,\n        uint[6] orderValues,\n        uint fillTakerTokenAmount,\n        uint8 v,\n        bytes32 r,\n        bytes32 s)\n        public\n    {\n        require(fillOrder(\n            orderAddresses,\n            orderValues,\n            fillTakerTokenAmount,\n            false,\n            v,\n            r,\n            s\n        ) == fillTakerTokenAmount);\n    }\n\n    /// @dev Synchronously executes multiple fill orders in a single transaction.\n    /// @param orderAddresses Array of address arrays containing individual order addresses.\n    /// @param orderValues Array of uint arrays containing individual order values.\n    /// @param fillTakerTokenAmounts Array of desired amounts of takerToken to fill in orders.\n    /// @param shouldThrowOnInsufficientBalanceOrAllowance Test if transfers will fail before attempting.\n    /// @param v Array ECDSA signature v parameters.\n    /// @param r Array of ECDSA signature r parameters.\n    /// @param s Array of ECDSA signature s parameters.\n    function batchFillOrders(\n        address[5][] orderAddresses,\n        uint[6][] orderValues,\n        uint[] fillTakerTokenAmounts,\n        bool shouldThrowOnInsufficientBalanceOrAllowance,\n        uint8[] v,\n        bytes32[] r,\n        bytes32[] s)\n        public\n    {\n        for (uint i = 0; i < orderAddresses.length; i++) {\n            fillOrder(\n                orderAddresses[i],\n                orderValues[i],\n                fillTakerTokenAmounts[i],\n                shouldThrowOnInsufficientBalanceOrAllowance,\n                v[i],\n                r[i],\n                s[i]\n            );\n        }\n    }\n\n    /// @dev Synchronously executes multiple fillOrKill orders in a single transaction.\n    /// @param orderAddresses Array of address arrays containing individual order addresses.\n    /// @param orderValues Array of uint arrays containing individual order values.\n    /// @param fillTakerTokenAmounts Array of desired amounts of takerToken to fill in orders.\n    /// @param v Array ECDSA signature v parameters.\n    /// @param r Array of ECDSA signature r parameters.\n    /// @param s Array of ECDSA signature s parameters.\n    function batchFillOrKillOrders(\n        address[5][] orderAddresses,\n        uint[6][] orderValues,\n        uint[] fillTakerTokenAmounts,\n        uint8[] v,\n        bytes32[] r,\n        bytes32[] s)\n        public\n    {\n        for (uint i = 0; i < orderAddresses.length; i++) {\n            fillOrKillOrder(\n                orderAddresses[i],\n                orderValues[i],\n                fillTakerTokenAmounts[i],\n                v[i],\n                r[i],\n                s[i]\n            );\n        }\n    }\n\n    /// @dev Synchronously executes multiple fill orders in a single transaction until total fillTakerTokenAmount filled.\n    /// @param orderAddresses Array of address arrays containing individual order addresses.\n    /// @param orderValues Array of uint arrays containing individual order values.\n    /// @param fillTakerTokenAmount Desired total amount of takerToken to fill in orders.\n    /// @param shouldThrowOnInsufficientBalanceOrAllowance Test if transfers will fail before attempting.\n    /// @param v Array ECDSA signature v parameters.\n    /// @param r Array of ECDSA signature r parameters.\n    /// @param s Array of ECDSA signature s parameters.\n    /// @return Total amount of fillTakerTokenAmount filled in orders.\n    function fillOrdersUpTo(\n        address[5][] orderAddresses,\n        uint[6][] orderValues,\n        uint fillTakerTokenAmount,\n        bool shouldThrowOnInsufficientBalanceOrAllowance,\n        uint8[] v,\n        bytes32[] r,\n        bytes32[] s)\n        public\n        returns (uint)\n    {\n        uint filledTakerTokenAmount = 0;\n        for (uint i = 0; i < orderAddresses.length; i++) {\n            require(orderAddresses[i][3] == orderAddresses[0][3]); // takerToken must be the same for each order\n            filledTakerTokenAmount = safeAdd(filledTakerTokenAmount, fillOrder(\n                orderAddresses[i],\n                orderValues[i],\n                safeSub(fillTakerTokenAmount, filledTakerTokenAmount),\n                shouldThrowOnInsufficientBalanceOrAllowance,\n                v[i],\n                r[i],\n                s[i]\n            ));\n            if (filledTakerTokenAmount == fillTakerTokenAmount) break;\n        }\n        return filledTakerTokenAmount;\n    }\n\n    /// @dev Synchronously cancels multiple orders in a single transaction.\n    /// @param orderAddresses Array of address arrays containing individual order addresses.\n    /// @param orderValues Array of uint arrays containing individual order values.\n    /// @param cancelTakerTokenAmounts Array of desired amounts of takerToken to cancel in orders.\n    function batchCancelOrders(\n        address[5][] orderAddresses,\n        uint[6][] orderValues,\n        uint[] cancelTakerTokenAmounts)\n        public\n    {\n        for (uint i = 0; i < orderAddresses.length; i++) {\n            cancelOrder(\n                orderAddresses[i],\n                orderValues[i],\n                cancelTakerTokenAmounts[i]\n            );\n        }\n    }\n\n    /*\n    * Constant public functions\n    */\n\n    /// @dev Calculates Keccak-256 hash of order with specified parameters.\n    /// @param orderAddresses Array of order's maker, taker, makerToken, takerToken, and feeRecipient.\n    /// @param orderValues Array of order's makerTokenAmount, takerTokenAmount, makerFee, takerFee, expirationTimestampInSec, and salt.\n    /// @return Keccak-256 hash of order.\n    function getOrderHash(address[5] orderAddresses, uint[6] orderValues)\n        public\n        constant\n        returns (bytes32)\n    {\n        return keccak256(\n            address(this),\n            orderAddresses[0], // maker\n            orderAddresses[1], // taker\n            orderAddresses[2], // makerToken\n            orderAddresses[3], // takerToken\n            orderAddresses[4], // feeRecipient\n            orderValues[0],    // makerTokenAmount\n            orderValues[1],    // takerTokenAmount\n            orderValues[2],    // makerFee\n            orderValues[3],    // takerFee\n            orderValues[4],    // expirationTimestampInSec\n            orderValues[5]     // salt\n        );\n    }\n\n    /// @dev Verifies that an order signature is valid.\n    /// @param signer address of signer.\n    /// @param hash Signed Keccak-256 hash.\n    /// @param v ECDSA signature parameter v.\n    /// @param r ECDSA signature parameters r.\n    /// @param s ECDSA signature parameters s.\n    /// @return Validity of order signature.\n    function isValidSignature(\n        address signer,\n        bytes32 hash,\n        uint8 v,\n        bytes32 r,\n        bytes32 s)\n        public\n        pure\n        returns (bool)\n    {\n        return signer == ecrecover(\n            keccak256(\"\\x19Ethereum Signed Message:\\n32\", hash),\n            v,\n            r,\n            s\n        );\n    }\n\n    /// @dev Checks if rounding error > 0.1%.\n    /// @param numerator Numerator.\n    /// @param denominator Denominator.\n    /// @param target Value to multiply with numerator/denominator.\n    /// @return Rounding error is present.\n    function isRoundingError(uint numerator, uint denominator, uint target)\n        public\n        pure\n        returns (bool)\n    {\n        uint remainder = mulmod(target, numerator, denominator);\n        if (remainder == 0) return false; // No rounding error.\n\n        uint errPercentageTimes1000000 = safeDiv(\n            safeMul(remainder, 1000000),\n            safeMul(numerator, target)\n        );\n        return errPercentageTimes1000000 > 1000;\n    }\n\n    /// @dev Calculates partial value given a numerator and denominator.\n    /// @param numerator Numerator.\n    /// @param denominator Denominator.\n    /// @param target Value to calculate partial of.\n    /// @return Partial value of target.\n    function getPartialAmount(uint numerator, uint denominator, uint target)\n        public\n        pure\n        returns (uint)\n    {\n        return safeDiv(safeMul(numerator, target), denominator);\n    }\n\n    /// @dev Calculates the sum of values already filled and cancelled for a given order.\n    /// @param orderHash The Keccak-256 hash of the given order.\n    /// @return Sum of values already filled and cancelled.\n    function getUnavailableTakerTokenAmount(bytes32 orderHash)\n        public\n        constant\n        returns (uint)\n    {\n        return safeAdd(filled[orderHash], cancelled[orderHash]);\n    }\n\n\n    /*\n    * Internal functions\n    */\n\n    /// @dev Transfers a token using TokenTransferProxy transferFrom function.\n    /// @param token Address of token to transferFrom.\n    /// @param from Address transfering token.\n    /// @param to Address receiving token.\n    /// @param value Amount of token to transfer.\n    /// @return Success of token transfer.\n    function transferViaTokenTransferProxy(\n        address token,\n        address from,\n        address to,\n        uint value)\n        internal\n        returns (bool)\n    {\n        return TokenTransferProxy(TOKEN_TRANSFER_PROXY_CONTRACT).transferFrom(token, from, to, value);\n    }\n\n    /// @dev Checks if any order transfers will fail.\n    /// @param order Order struct of params that will be checked.\n    /// @param fillTakerTokenAmount Desired amount of takerToken to fill.\n    /// @return Predicted result of transfers.\n    function isTransferable(Order order, uint fillTakerTokenAmount)\n        internal\n        constant  // The called token contracts may attempt to change state, but will not be able to due to gas limits on getBalance and getAllowance.\n        returns (bool)\n    {\n        address taker = msg.sender;\n        uint fillMakerTokenAmount = getPartialAmount(fillTakerTokenAmount, order.takerTokenAmount, order.makerTokenAmount);\n\n        if (order.feeRecipient != address(0)) {\n            bool isMakerTokenZRX = order.makerToken == ZRX_TOKEN_CONTRACT;\n            bool isTakerTokenZRX = order.takerToken == ZRX_TOKEN_CONTRACT;\n            uint paidMakerFee = getPartialAmount(fillTakerTokenAmount, order.takerTokenAmount, order.makerFee);\n            uint paidTakerFee = getPartialAmount(fillTakerTokenAmount, order.takerTokenAmount, order.takerFee);\n            uint requiredMakerZRX = isMakerTokenZRX ? safeAdd(fillMakerTokenAmount, paidMakerFee) : paidMakerFee;\n            uint requiredTakerZRX = isTakerTokenZRX ? safeAdd(fillTakerTokenAmount, paidTakerFee) : paidTakerFee;\n\n            if (   getBalance(ZRX_TOKEN_CONTRACT, order.maker) < requiredMakerZRX\n                || getAllowance(ZRX_TOKEN_CONTRACT, order.maker) < requiredMakerZRX\n                || getBalance(ZRX_TOKEN_CONTRACT, taker) < requiredTakerZRX\n                || getAllowance(ZRX_TOKEN_CONTRACT, taker) < requiredTakerZRX\n            ) return false;\n\n            if (!isMakerTokenZRX && (   getBalance(order.makerToken, order.maker) < fillMakerTokenAmount // Don't double check makerToken if ZRX\n                                     || getAllowance(order.makerToken, order.maker) < fillMakerTokenAmount)\n            ) return false;\n            if (!isTakerTokenZRX && (   getBalance(order.takerToken, taker) < fillTakerTokenAmount // Don't double check takerToken if ZRX\n                                     || getAllowance(order.takerToken, taker) < fillTakerTokenAmount)\n            ) return false;\n        } else if (   getBalance(order.makerToken, order.maker) < fillMakerTokenAmount\n                   || getAllowance(order.makerToken, order.maker) < fillMakerTokenAmount\n                   || getBalance(order.takerToken, taker) < fillTakerTokenAmount\n                   || getAllowance(order.takerToken, taker) < fillTakerTokenAmount\n        ) return false;\n\n        return true;\n    }\n\n    /// @dev Get token balance of an address.\n    /// @param token Address of token.\n    /// @param owner Address of owner.\n    /// @return Token balance of owner.\n    function getBalance(address token, address owner)\n        internal\n        constant  // The called token contract may attempt to change state, but will not be able to due to an added gas limit.\n        returns (uint)\n    {\n        return Token(token).balanceOf.gas(EXTERNAL_QUERY_GAS_LIMIT)(owner); // Limit gas to prevent reentrancy\n    }\n\n    /// @dev Get allowance of token given to TokenTransferProxy by an address.\n    /// @param token Address of token.\n    /// @param owner Address of owner.\n    /// @return Allowance of token given to TokenTransferProxy by owner.\n    function getAllowance(address token, address owner)\n        internal\n        constant  // The called token contract may attempt to change state, but will not be able to due to an added gas limit.\n        returns (uint)\n    {\n        return Token(token).allowance.gas(EXTERNAL_QUERY_GAS_LIMIT)(owner, TOKEN_TRANSFER_PROXY_CONTRACT); // Limit gas to prevent reentrancy\n    }\n}\n",
  "sourcePath": "/home/ipavlenko/Projects/Exchange/laborx.exchange/laborx.exchange.contracts/contracts/0xproject/Exchange/Exchange.sol",
  "compiler": {
    "name": "solc",
    "version": "0.4.24+commit.e67f0147.Emscripten.clang"
  },
  "schemaVersion": "2.0.1",
  "updatedAt": "2018-07-09T12:14:41.605Z"
}