{
  "contractName": "MintableAndBurnableToken",
  "abi": [
    {
      "constant": true,
      "inputs": [],
      "name": "name",
      "outputs": [
        {
          "name": "",
          "type": "string"
        }
      ],
      "payable": false,
      "stateMutability": "view",
      "type": "function"
    },
    {
      "constant": false,
      "inputs": [
        {
          "name": "_spender",
          "type": "address"
        },
        {
          "name": "_value",
          "type": "uint256"
        }
      ],
      "name": "approve",
      "outputs": [
        {
          "name": "success",
          "type": "bool"
        }
      ],
      "payable": false,
      "stateMutability": "nonpayable",
      "type": "function"
    },
    {
      "constant": true,
      "inputs": [],
      "name": "totalSupply",
      "outputs": [
        {
          "name": "",
          "type": "uint256"
        }
      ],
      "payable": false,
      "stateMutability": "view",
      "type": "function"
    },
    {
      "constant": false,
      "inputs": [
        {
          "name": "_from",
          "type": "address"
        },
        {
          "name": "_to",
          "type": "address"
        },
        {
          "name": "_value",
          "type": "uint256"
        }
      ],
      "name": "transferFrom",
      "outputs": [
        {
          "name": "success",
          "type": "bool"
        }
      ],
      "payable": false,
      "stateMutability": "nonpayable",
      "type": "function"
    },
    {
      "constant": true,
      "inputs": [
        {
          "name": "",
          "type": "address"
        }
      ],
      "name": "balances",
      "outputs": [
        {
          "name": "",
          "type": "uint256"
        }
      ],
      "payable": false,
      "stateMutability": "view",
      "type": "function"
    },
    {
      "constant": true,
      "inputs": [],
      "name": "decimals",
      "outputs": [
        {
          "name": "",
          "type": "uint8"
        }
      ],
      "payable": false,
      "stateMutability": "view",
      "type": "function"
    },
    {
      "constant": true,
      "inputs": [
        {
          "name": "",
          "type": "address"
        },
        {
          "name": "",
          "type": "address"
        }
      ],
      "name": "allowed",
      "outputs": [
        {
          "name": "",
          "type": "uint256"
        }
      ],
      "payable": false,
      "stateMutability": "view",
      "type": "function"
    },
    {
      "constant": true,
      "inputs": [
        {
          "name": "_owner",
          "type": "address"
        }
      ],
      "name": "balanceOf",
      "outputs": [
        {
          "name": "balance",
          "type": "uint256"
        }
      ],
      "payable": false,
      "stateMutability": "view",
      "type": "function"
    },
    {
      "constant": true,
      "inputs": [],
      "name": "owner",
      "outputs": [
        {
          "name": "",
          "type": "address"
        }
      ],
      "payable": false,
      "stateMutability": "view",
      "type": "function"
    },
    {
      "constant": true,
      "inputs": [],
      "name": "symbol",
      "outputs": [
        {
          "name": "",
          "type": "string"
        }
      ],
      "payable": false,
      "stateMutability": "view",
      "type": "function"
    },
    {
      "constant": false,
      "inputs": [
        {
          "name": "_to",
          "type": "address"
        },
        {
          "name": "_value",
          "type": "uint256"
        }
      ],
      "name": "transfer",
      "outputs": [
        {
          "name": "success",
          "type": "bool"
        }
      ],
      "payable": false,
      "stateMutability": "nonpayable",
      "type": "function"
    },
    {
      "constant": true,
      "inputs": [
        {
          "name": "_owner",
          "type": "address"
        },
        {
          "name": "_spender",
          "type": "address"
        }
      ],
      "name": "allowance",
      "outputs": [
        {
          "name": "remaining",
          "type": "uint256"
        }
      ],
      "payable": false,
      "stateMutability": "view",
      "type": "function"
    },
    {
      "constant": false,
      "inputs": [
        {
          "name": "newOwner",
          "type": "address"
        }
      ],
      "name": "transferOwnership",
      "outputs": [],
      "payable": false,
      "stateMutability": "nonpayable",
      "type": "function"
    },
    {
      "inputs": [
        {
          "name": "_initialAmount",
          "type": "uint256"
        },
        {
          "name": "_tokenName",
          "type": "string"
        },
        {
          "name": "_decimalUnits",
          "type": "uint8"
        },
        {
          "name": "_tokenSymbol",
          "type": "string"
        }
      ],
      "payable": false,
      "stateMutability": "nonpayable",
      "type": "constructor"
    },
    {
      "anonymous": false,
      "inputs": [
        {
          "indexed": true,
          "name": "from",
          "type": "address"
        },
        {
          "indexed": false,
          "name": "value",
          "type": "uint256"
        }
      ],
      "name": "Burn",
      "type": "event"
    },
    {
      "anonymous": false,
      "inputs": [
        {
          "indexed": true,
          "name": "from",
          "type": "address"
        },
        {
          "indexed": false,
          "name": "value",
          "type": "uint256"
        },
        {
          "indexed": false,
          "name": "externalAddress",
          "type": "string"
        }
      ],
      "name": "WithdrawBurn",
      "type": "event"
    },
    {
      "anonymous": false,
      "inputs": [
        {
          "indexed": true,
          "name": "to",
          "type": "address"
        },
        {
          "indexed": false,
          "name": "amount",
          "type": "uint256"
        }
      ],
      "name": "Mint",
      "type": "event"
    },
    {
      "anonymous": false,
      "inputs": [
        {
          "indexed": true,
          "name": "_from",
          "type": "address"
        },
        {
          "indexed": true,
          "name": "_to",
          "type": "address"
        },
        {
          "indexed": false,
          "name": "_value",
          "type": "uint256"
        }
      ],
      "name": "Transfer",
      "type": "event"
    },
    {
      "anonymous": false,
      "inputs": [
        {
          "indexed": true,
          "name": "_owner",
          "type": "address"
        },
        {
          "indexed": true,
          "name": "_spender",
          "type": "address"
        },
        {
          "indexed": false,
          "name": "_value",
          "type": "uint256"
        }
      ],
      "name": "Approval",
      "type": "event"
    },
    {
      "constant": false,
      "inputs": [
        {
          "name": "_who",
          "type": "address"
        },
        {
          "name": "_value",
          "type": "uint256"
        }
      ],
      "name": "burn",
      "outputs": [],
      "payable": false,
      "stateMutability": "nonpayable",
      "type": "function"
    },
    {
      "constant": false,
      "inputs": [
        {
          "name": "_value",
          "type": "uint256"
        },
        {
          "name": "externalAddress",
          "type": "string"
        }
      ],
      "name": "withdrawBurn",
      "outputs": [],
      "payable": false,
      "stateMutability": "nonpayable",
      "type": "function"
    },
    {
      "constant": false,
      "inputs": [
        {
          "name": "_to",
          "type": "address"
        },
        {
          "name": "_amount",
          "type": "uint256"
        }
      ],
      "name": "mint",
      "outputs": [
        {
          "name": "",
          "type": "bool"
        }
      ],
      "payable": false,
      "stateMutability": "nonpayable",
      "type": "function"
    }
  ],
  "bytecode": "0x608060405234801561001057600080fd5b50604051610cd0380380610cd0833981016040908152815160208084015183850151606086015160008054600160a060020a03191633908117825581526002855295909520849055600184905590850180519395909491939101918591859185918591610082916004918601906100b3565b506005805460ff191660ff841617905580516100a59060069060208401906100b3565b50505050505050505061014e565b828054600181600116156101000203166002900490600052602060002090601f016020900481019282601f106100f457805160ff1916838001178555610121565b82800160010185558215610121579182015b82811115610121578251825591602001919060010190610106565b5061012d929150610131565b5090565b61014b91905b8082111561012d5760008155600101610137565b90565b610b738061015d6000396000f3006080604052600436106100e55763ffffffff7c010000000000000000000000000000000000000000000000000000000060003504166306fdde0381146100ea578063095ea7b31461017457806318160ddd146101ac57806323b872dd146101d357806327e235e3146101fd578063313ce5671461021e57806340c10f19146102495780635c6581651461026d57806370a08231146102945780638da5cb5b146102b557806395d89b41146102e65780639dc29fac146102fb578063a9059cbb14610321578063d9809c5214610345578063dd62ed3e146103a3578063f2fde38b146103ca575b600080fd5b3480156100f657600080fd5b506100ff6103eb565b6040805160208082528351818301528351919283929083019185019080838360005b83811015610139578181015183820152602001610121565b50505050905090810190601f1680156101665780820380516001836020036101000a031916815260200191505b509250505060405180910390f35b34801561018057600080fd5b50610198600160a060020a0360043516602435610479565b604080519115158252519081900360200190f35b3480156101b857600080fd5b506101c16104df565b60408051918252519081900360200190f35b3480156101df57600080fd5b50610198600160a060020a03600435811690602435166044356104e5565b34801561020957600080fd5b506101c1600160a060020a03600435166105d7565b34801561022a57600080fd5b506102336105e9565b6040805160ff9092168252519081900360200190f35b34801561025557600080fd5b50610198600160a060020a03600435166024356105f2565b34801561027957600080fd5b506101c1600160a060020a03600435811690602435166106d3565b3480156102a057600080fd5b506101c1600160a060020a03600435166106f0565b3480156102c157600080fd5b506102ca61070b565b60408051600160a060020a039092168252519081900360200190f35b3480156102f257600080fd5b506100ff61071a565b34801561030757600080fd5b5061031f600160a060020a0360043516602435610775565b005b34801561032d57600080fd5b50610198600160a060020a036004351660243561087b565b34801561035157600080fd5b5060408051602060046024803582810135601f810185900485028601850190965285855261031f9583359536956044949193909101919081908401838280828437509497506108f39650505050505050565b3480156103af57600080fd5b506101c1600160a060020a0360043581169060243516610a85565b3480156103d657600080fd5b5061031f600160a060020a0360043516610ab0565b6004805460408051602060026001851615610100026000190190941693909304601f810184900484028201840190925281815292918301828280156104715780601f1061044657610100808354040283529160200191610471565b820191906000526020600020905b81548152906001019060200180831161045457829003601f168201915b505050505081565b336000818152600360209081526040808320600160a060020a038716808552908352818420869055815186815291519394909390927f8c5be1e5ebec7d5bd14f71427d1e84f3dd0314c0f7b2291e5b200ac8c7c3b925928290030190a350600192915050565b60015481565b600160a060020a0383166000818152600360209081526040808320338452825280832054938352600290915281205490919083118015906105265750828110155b151561053157600080fd5b600160a060020a038085166000908152600260205260408082208054870190559187168152208054849003905560001981101561059357600160a060020a03851660009081526003602090815260408083203384529091529020805484900390555b83600160a060020a031685600160a060020a0316600080516020610b28833981519152856040518082815260200191505060405180910390a3506001949350505050565b60026020526000908152604090205481565b60055460ff1681565b60008054600160a060020a0316331461060a57600080fd5b60015461061d908363ffffffff610b0216565b600155600160a060020a038316600090815260026020526040902054610649908363ffffffff610b0216565b600160a060020a038416600081815260026020908152604091829020939093558051858152905191927f0f6798a560793a54c3bcfe86a93cde1e73087d944c0ea20544137d412139688592918290030190a2604080518381529051600160a060020a03851691600091600080516020610b288339815191529181900360200190a350600192915050565b600360209081526000928352604080842090915290825290205481565b600160a060020a031660009081526002602052604090205490565b600054600160a060020a031681565b6006805460408051602060026001851615610100026000190190941693909304601f810184900484028201840190925281815292918301828280156104715780601f1061044657610100808354040283529160200191610471565b600054600160a060020a0316331461078c57600080fd5b600160a060020a0382166000908152600260205260409020548111156107b157600080fd5b600160a060020a0382166000908152600260205260409020546107da908263ffffffff610b1516565b600160a060020a038316600090815260026020526040902055600154610806908263ffffffff610b1516565b600155604080518281529051600160a060020a038416917fcc16f5dbb4873280815c1ee09dbd06736cffcc184412cf7a71a0fdb75d397ca5919081900360200190a2604080518281529051600091600160a060020a03851691600080516020610b288339815191529181900360200190a35050565b3360009081526002602052604081205482111561089757600080fd5b33600081815260026020908152604080832080548790039055600160a060020a0387168084529281902080548701905580518681529051929392600080516020610b28833981519152929181900390910190a350600192915050565b3360008181526002602052604090205483111561090f57600080fd5b600160a060020a038116600090815260026020526040902054610938908463ffffffff610b1516565b600160a060020a038216600090815260026020526040902055600154610964908463ffffffff610b1516565b600155604080518481529051600160a060020a038316917fcc16f5dbb4873280815c1ee09dbd06736cffcc184412cf7a71a0fdb75d397ca5919081900360200190a280600160a060020a03167f3ec65af752d43e6114d775a2e90b69804505448ec3f1b5e0e5aeab3b4781dd6684846040518083815260200180602001828103825283818151815260200191508051906020019080838360005b83811015610a165781810151838201526020016109fe565b50505050905090810190601f168015610a435780820380516001836020036101000a031916815260200191505b50935050505060405180910390a2604080518481529051600091600160a060020a03841691600080516020610b288339815191529181900360200190a3505050565b600160a060020a03918216600090815260036020908152604080832093909416825291909152205490565b600054600160a060020a03163314610ac757600080fd5b600160a060020a03811615610aff576000805473ffffffffffffffffffffffffffffffffffffffff1916600160a060020a0383161790555b50565b81810182811015610b0f57fe5b92915050565b600082821115610b2157fe5b509003905600ddf252ad1be2c89b69c2b068fc378daa952ba7f163c4a11628f55a4df523b3efa165627a7a723058207675dfd8e13faf5210ea4085abb343d34b7a7b9dd93866e832924cc205d120a00029",
  "source": "pragma solidity ^0.4.11;\n\nimport \"./EIP20.sol\";\n\ncontract MintableAndBurnableToken is EIP20 {\n\n  function MintableAndBurnableToken(\n          uint256 _initialAmount,\n          string _tokenName,\n          uint8 _decimalUnits,\n          string _tokenSymbol\n      ) EIP20(_initialAmount, _tokenName, _decimalUnits, _tokenSymbol) {\n\n      }\n\n  event Burn(address indexed from, uint256 value);\n  event WithdrawBurn(address indexed from, uint256 value, string externalAddress);\n\n  event Mint(address indexed to, uint256 amount);\n\n  /**\n  * @dev Burns a specific amount of tokens.\n  * @param _value The amount of token to be burned.\n  */\n  function burn(address _who, uint256 _value) onlyOwner public {\n    require(_value <= balances[_who]);\n    // no need to require value <= totalSupply, since that would imply the\n    // sender's balance is greater than the totalSupply, which *should* be an assertion failure\n\n    balances[_who] = balances[_who].sub(_value);\n    totalSupply = totalSupply.sub(_value);\n    emit Burn(_who, _value);\n    emit Transfer(_who, address(0), _value);\n  }\n\n  /**\n  * @dev Burns a specific amount of tokens for withdraw\n  */\n  function withdrawBurn(uint256 _value, string externalAddress) public {\n    address _who = msg.sender;\n    require(_value <= balances[_who]);\n    // no need to require value <= totalSupply, since that would imply the\n    // sender's balance is greater than the totalSupply, which *should* be an assertion failure\n\n    balances[_who] = balances[_who].sub(_value);\n    totalSupply = totalSupply.sub(_value);\n    emit Burn(_who, _value);\n    emit WithdrawBurn(_who, _value, externalAddress);\n    emit Transfer(_who, address(0), _value);\n  }\n\n\n  /**\n   * @dev Function to mint tokens\n   * @param _to The address that will receive the minted tokens.\n   * @param _amount The amount of tokens to mint.\n   * @return A boolean that indicates if the operation was successful.\n   */\n  function mint (address _to, uint256 _amount) public onlyOwner returns (bool)\n  {\n    totalSupply = totalSupply.add(_amount);\n    balances[_to] = balances[_to].add(_amount);\n    emit Mint(_to, _amount);\n    emit Transfer(address(0), _to, _amount);\n    return true;\n  }\n}\n",
  "sourcePath": "/home/mdkardaev/exchange/laborx.exchange.contracts/contracts/eip20/MintableAndBurnableToken.sol",
  "compiler": {
    "name": "solc",
    "version": "0.4.24+commit.e67f0147.Emscripten.clang"
  },
  "schemaVersion": "2.0.0",
  "updatedAt": "2018-07-09T10:21:06.003Z"
}