{
  "contractName": "MintableAndBurnableToken",
  "abi": [
    {
      "constant": true,
      "inputs": [],
      "name": "name",
      "outputs": [
        {
          "name": "",
          "type": "string"
        }
      ],
      "payable": false,
      "stateMutability": "view",
      "type": "function"
    },
    {
      "constant": false,
      "inputs": [
        {
          "name": "_spender",
          "type": "address"
        },
        {
          "name": "_value",
          "type": "uint256"
        }
      ],
      "name": "approve",
      "outputs": [
        {
          "name": "success",
          "type": "bool"
        }
      ],
      "payable": false,
      "stateMutability": "nonpayable",
      "type": "function"
    },
    {
      "constant": true,
      "inputs": [],
      "name": "totalSupply",
      "outputs": [
        {
          "name": "",
          "type": "uint256"
        }
      ],
      "payable": false,
      "stateMutability": "view",
      "type": "function"
    },
    {
      "constant": false,
      "inputs": [
        {
          "name": "_from",
          "type": "address"
        },
        {
          "name": "_to",
          "type": "address"
        },
        {
          "name": "_value",
          "type": "uint256"
        }
      ],
      "name": "transferFrom",
      "outputs": [
        {
          "name": "success",
          "type": "bool"
        }
      ],
      "payable": false,
      "stateMutability": "nonpayable",
      "type": "function"
    },
    {
      "constant": true,
      "inputs": [
        {
          "name": "",
          "type": "address"
        }
      ],
      "name": "balances",
      "outputs": [
        {
          "name": "",
          "type": "uint256"
        }
      ],
      "payable": false,
      "stateMutability": "view",
      "type": "function"
    },
    {
      "constant": true,
      "inputs": [],
      "name": "decimals",
      "outputs": [
        {
          "name": "",
          "type": "uint8"
        }
      ],
      "payable": false,
      "stateMutability": "view",
      "type": "function"
    },
    {
      "constant": true,
      "inputs": [
        {
          "name": "",
          "type": "address"
        },
        {
          "name": "",
          "type": "address"
        }
      ],
      "name": "allowed",
      "outputs": [
        {
          "name": "",
          "type": "uint256"
        }
      ],
      "payable": false,
      "stateMutability": "view",
      "type": "function"
    },
    {
      "constant": true,
      "inputs": [
        {
          "name": "_owner",
          "type": "address"
        }
      ],
      "name": "balanceOf",
      "outputs": [
        {
          "name": "balance",
          "type": "uint256"
        }
      ],
      "payable": false,
      "stateMutability": "view",
      "type": "function"
    },
    {
      "constant": true,
      "inputs": [],
      "name": "owner",
      "outputs": [
        {
          "name": "",
          "type": "address"
        }
      ],
      "payable": false,
      "stateMutability": "view",
      "type": "function"
    },
    {
      "constant": true,
      "inputs": [],
      "name": "symbol",
      "outputs": [
        {
          "name": "",
          "type": "string"
        }
      ],
      "payable": false,
      "stateMutability": "view",
      "type": "function"
    },
    {
      "constant": false,
      "inputs": [
        {
          "name": "_to",
          "type": "address"
        },
        {
          "name": "_value",
          "type": "uint256"
        }
      ],
      "name": "transfer",
      "outputs": [
        {
          "name": "success",
          "type": "bool"
        }
      ],
      "payable": false,
      "stateMutability": "nonpayable",
      "type": "function"
    },
    {
      "constant": true,
      "inputs": [
        {
          "name": "_owner",
          "type": "address"
        },
        {
          "name": "_spender",
          "type": "address"
        }
      ],
      "name": "allowance",
      "outputs": [
        {
          "name": "remaining",
          "type": "uint256"
        }
      ],
      "payable": false,
      "stateMutability": "view",
      "type": "function"
    },
    {
      "constant": false,
      "inputs": [
        {
          "name": "newOwner",
          "type": "address"
        }
      ],
      "name": "transferOwnership",
      "outputs": [],
      "payable": false,
      "stateMutability": "nonpayable",
      "type": "function"
    },
    {
      "inputs": [
        {
          "name": "_initialAmount",
          "type": "uint256"
        },
        {
          "name": "_tokenName",
          "type": "string"
        },
        {
          "name": "_decimalUnits",
          "type": "uint8"
        },
        {
          "name": "_tokenSymbol",
          "type": "string"
        }
      ],
      "payable": false,
      "stateMutability": "nonpayable",
      "type": "constructor"
    },
    {
      "anonymous": false,
      "inputs": [
        {
          "indexed": true,
          "name": "_from",
          "type": "address"
        },
        {
          "indexed": false,
          "name": "_value",
          "type": "uint256"
        }
      ],
      "name": "Burn",
      "type": "event"
    },
    {
      "anonymous": false,
      "inputs": [
        {
          "indexed": true,
          "name": "_from",
          "type": "address"
        },
        {
          "indexed": false,
          "name": "_value",
          "type": "uint256"
        },
        {
          "indexed": false,
          "name": "externalAddress",
          "type": "string"
        }
      ],
      "name": "WithdrawalBurn",
      "type": "event"
    },
    {
      "anonymous": false,
      "inputs": [
        {
          "indexed": true,
          "name": "_to",
          "type": "address"
        },
        {
          "indexed": false,
          "name": "_value",
          "type": "uint256"
        }
      ],
      "name": "Mint",
      "type": "event"
    },
    {
      "anonymous": false,
      "inputs": [
        {
          "indexed": true,
          "name": "_from",
          "type": "address"
        },
        {
          "indexed": true,
          "name": "_to",
          "type": "address"
        },
        {
          "indexed": false,
          "name": "_value",
          "type": "uint256"
        }
      ],
      "name": "Transfer",
      "type": "event"
    },
    {
      "anonymous": false,
      "inputs": [
        {
          "indexed": true,
          "name": "_owner",
          "type": "address"
        },
        {
          "indexed": true,
          "name": "_spender",
          "type": "address"
        },
        {
          "indexed": false,
          "name": "_value",
          "type": "uint256"
        }
      ],
      "name": "Approval",
      "type": "event"
    },
    {
      "constant": false,
      "inputs": [
        {
          "name": "_who",
          "type": "address"
        },
        {
          "name": "_value",
          "type": "uint256"
        }
      ],
      "name": "burn",
      "outputs": [],
      "payable": false,
      "stateMutability": "nonpayable",
      "type": "function"
    },
    {
      "constant": false,
      "inputs": [
        {
          "name": "_value",
          "type": "uint256"
        },
        {
          "name": "externalAddress",
          "type": "string"
        }
      ],
      "name": "withdrawBurn",
      "outputs": [],
      "payable": false,
      "stateMutability": "nonpayable",
      "type": "function"
    },
    {
      "constant": false,
      "inputs": [
        {
          "name": "_to",
          "type": "address"
        },
        {
          "name": "_amount",
          "type": "uint256"
        }
      ],
      "name": "mint",
      "outputs": [
        {
          "name": "",
          "type": "bool"
        }
      ],
      "payable": false,
      "stateMutability": "nonpayable",
      "type": "function"
    }
  ],
  "bytecode": "0x6060604052341561000f57600080fd5b604051610c33380380610c3383398101604052808051919060200180518201919060200180519190602001805160008054600160a060020a033316600160a060020a0319909116811782558152600260205260409020869055600186905590910190508383838360048380516100899291602001906100ba565b506005805460ff191660ff841617905560068180516100ac9291602001906100ba565b505050505050505050610155565b828054600181600116156101000203166002900490600052602060002090601f016020900481019282601f106100fb57805160ff1916838001178555610128565b82800160010185558215610128579182015b8281111561012857825182559160200191906001019061010d565b50610134929150610138565b5090565b61015291905b80821115610134576000815560010161013e565b90565b610acf806101646000396000f3006060604052600436106100e55763ffffffff7c010000000000000000000000000000000000000000000000000000000060003504166306fdde0381146100ea578063095ea7b31461017457806318160ddd146101aa57806323b872dd146101cf57806327e235e3146101f7578063313ce5671461021657806340c10f191461023f5780635c6581651461026157806370a08231146102865780638da5cb5b146102a557806395d89b41146102d45780639dc29fac146102e7578063a9059cbb1461030b578063d9809c521461032d578063dd62ed3e14610383578063f2fde38b146103a8575b600080fd5b34156100f557600080fd5b6100fd6103c7565b60405160208082528190810183818151815260200191508051906020019080838360005b83811015610139578082015183820152602001610121565b50505050905090810190601f1680156101665780820380516001836020036101000a031916815260200191505b509250505060405180910390f35b341561017f57600080fd5b610196600160a060020a0360043516602435610465565b604051901515815260200160405180910390f35b34156101b557600080fd5b6101bd6104d1565b60405190815260200160405180910390f35b34156101da57600080fd5b610196600160a060020a03600435811690602435166044356104d7565b341561020257600080fd5b6101bd600160a060020a03600435166105dd565b341561022157600080fd5b6102296105ef565b60405160ff909116815260200160405180910390f35b341561024a57600080fd5b610196600160a060020a03600435166024356105f8565b341561026c57600080fd5b6101bd600160a060020a03600435811690602435166106ae565b341561029157600080fd5b6101bd600160a060020a03600435166106cb565b34156102b057600080fd5b6102b86106e6565b604051600160a060020a03909116815260200160405180910390f35b34156102df57600080fd5b6100fd6106f5565b34156102f257600080fd5b610309600160a060020a0360043516602435610760565b005b341561031657600080fd5b610196600160a060020a0360043516602435610839565b341561033857600080fd5b610309600480359060446024803590810190830135806020601f820181900481020160405190810160405281815292919060208401838380828437509496506108cd95505050505050565b341561038e57600080fd5b6101bd600160a060020a03600435811690602435166109fa565b34156103b357600080fd5b610309600160a060020a0360043516610a25565b60048054600181600116156101000203166002900480601f01602080910402602001604051908101604052809291908181526020018280546001816001161561010002031660029004801561045d5780601f106104325761010080835404028352916020019161045d565b820191906000526020600020905b81548152906001019060200180831161044057829003601f168201915b505050505081565b600160a060020a03338116600081815260036020908152604080832094871680845294909152808220859055909291907f8c5be1e5ebec7d5bd14f71427d1e84f3dd0314c0f7b2291e5b200ac8c7c3b9259085905190815260200160405180910390a350600192915050565b60015481565b600160a060020a03808416600081815260036020908152604080832033909516835293815283822054928252600290529182205483901080159061051b5750828110155b151561052657600080fd5b600160a060020a038085166000908152600260205260408082208054870190559187168152208054849003905560001981101561058b57600160a060020a03808616600090815260036020908152604080832033909416835292905220805484900390555b83600160a060020a031685600160a060020a03167fddf252ad1be2c89b69c2b068fc378daa952ba7f163c4a11628f55a4df523b3ef8560405190815260200160405180910390a3506001949350505050565b60026020526000908152604090205481565b60055460ff1681565b6000805433600160a060020a0390811691161461061457600080fd5b600154610627908363ffffffff610a7b16565b600155600160a060020a038316600090815260026020526040902054610653908363ffffffff610a7b16565b600160a060020a0384166000818152600260205260409081902092909255907f0f6798a560793a54c3bcfe86a93cde1e73087d944c0ea20544137d41213968859084905190815260200160405180910390a250600192915050565b600360209081526000928352604080842090915290825290205481565b600160a060020a031660009081526002602052604090205490565b600054600160a060020a031681565b60068054600181600116156101000203166002900480601f01602080910402602001604051908101604052809291908181526020018280546001816001161561010002031660029004801561045d5780601f106104325761010080835404028352916020019161045d565b60005433600160a060020a0390811691161461077b57600080fd5b600160a060020a0382166000908152600260205260409020548111156107a057600080fd5b600160a060020a0382166000908152600260205260409020546107c9908263ffffffff610a9116565b600160a060020a0383166000908152600260205260409020556001546107f5908263ffffffff610a9116565b600155600160a060020a0382167fcc16f5dbb4873280815c1ee09dbd06736cffcc184412cf7a71a0fdb75d397ca58260405190815260200160405180910390a25050565b600160a060020a0333166000908152600260205260408120548290101561085f57600080fd5b600160a060020a033381166000818152600260205260408082208054879003905592861680825290839020805486019055917fddf252ad1be2c89b69c2b068fc378daa952ba7f163c4a11628f55a4df523b3ef9085905190815260200160405180910390a350600192915050565b33600160a060020a0381166000908152600260205260409020548311156108f357600080fd5b600160a060020a03811660009081526002602052604090205461091c908463ffffffff610a9116565b600160a060020a038216600090815260026020526040902055600154610948908463ffffffff610a9116565b600155600160a060020a0381167fd43a511032f092665d159d5a47c496af52ab6c46b6dd05e740c7f80fad2f06dd848460405182815260406020820181815290820183818151815260200191508051906020019080838360005b838110156109ba5780820151838201526020016109a2565b50505050905090810190601f1680156109e75780820380516001836020036101000a031916815260200191505b50935050505060405180910390a2505050565b600160a060020a03918216600090815260036020908152604080832093909416825291909152205490565b60005433600160a060020a03908116911614610a4057600080fd5b600160a060020a03811615610a78576000805473ffffffffffffffffffffffffffffffffffffffff1916600160a060020a0383161790555b50565b600082820183811015610a8a57fe5b9392505050565b600082821115610a9d57fe5b509003905600a165627a7a72305820da40946ffb8b652cf7775400652f9755053444e271bfe4fd2902bdfb1b53b9c30029",
  "source": "pragma solidity 0.4.21;\n\nimport \"./EIP20.sol\";\nimport \"../utils/SafeMathLibrary.sol\";\n\n\ncontract MintableAndBurnableToken is EIP20 {\n    using SafeMathLibrary for uint256;\n\n    function MintableAndBurnableToken(\n        uint256 _initialAmount,\n        string _tokenName,\n        uint8 _decimalUnits,\n        string _tokenSymbol\n        // solhint-disable-next-line visibility-modifier-order\n    ) EIP20(\n        _initialAmount,\n        _tokenName,\n        _decimalUnits,\n        _tokenSymbol\n    ) public {\n    }\n\n    event Burn(address indexed _from, uint256 _value);\n    event WithdrawalBurn(address indexed _from, uint256 _value, string externalAddress);\n    event Mint(address indexed _to, uint256 _value);\n\n    /**\n     * @dev Burns a specific amount of tokens.\n     * @param _value The amount of token to be burned.\n     */\n    function burn(address _who, uint256 _value) public onlyOwner {\n        require(_value <= balances[_who]);\n        // no need to require value <= totalSupply, since that would imply the\n        // sender's balance is greater than the totalSupply, which *should* be an assertion failure\n\n        balances[_who] = balances[_who].safeSub(_value);\n        totalSupply = totalSupply.safeSub(_value);\n        emit Burn(_who, _value);\n    }\n\n    /**\n     * @dev Burns a specific amount of tokens for withdraw\n     */\n    function withdrawBurn(uint256 _value, string externalAddress) public {\n        address _who = msg.sender;\n        require(_value <= balances[_who]);\n        // no need to require value <= totalSupply, since that would imply the\n        // sender's balance is greater than the totalSupply, which *should* be an assertion failure\n\n        balances[_who] = balances[_who].safeSub(_value);\n        totalSupply = totalSupply.safeSub(_value);\n        emit WithdrawalBurn(_who, _value, externalAddress);\n    }\n\n    /**\n     * @dev Function to mint tokens\n     * @param _to The address that will receive the minted tokens.\n     * @param _amount The amount of tokens to mint.\n     * @return A boolean that indicates if the operation was successful.\n     */\n    function mint (address _to, uint256 _amount) public onlyOwner returns (bool) {\n        totalSupply = totalSupply.safeAdd(_amount);\n        balances[_to] = balances[_to].safeAdd(_amount);\n        emit Mint(_to, _amount);\n        return true;\n    }\n}\n",
  "sourcePath": "/home/mdkardaev/exchange/laborx.exchange.contracts/contracts/tokens/MintableAndBurnableToken.sol",
  "compiler": {
    "name": "solc",
    "version": "0.4.21+commit.dfe3193c.Emscripten.clang"
  },
  "schemaVersion": "2.0.0",
  "updatedAt": "2018-08-03T09:59:25.842Z"
}