{
  "contractName": "MultiEventsHistoryAdapter",
  "abi": [
    {
      "anonymous": false,
      "inputs": [
        {
          "indexed": true,
          "name": "self",
          "type": "address"
        },
        {
          "indexed": false,
          "name": "errorCode",
          "type": "uint256"
        }
      ],
      "name": "ErrorCode",
      "type": "event"
    },
    {
      "constant": true,
      "inputs": [],
      "name": "getEventsHistory",
      "outputs": [
        {
          "name": "",
          "type": "address"
        }
      ],
      "payable": false,
      "stateMutability": "view",
      "type": "function"
    },
    {
      "constant": false,
      "inputs": [
        {
          "name": "_errorCode",
          "type": "uint256"
        }
      ],
      "name": "emitErrorCode",
      "outputs": [],
      "payable": false,
      "stateMutability": "nonpayable",
      "type": "function"
    }
  ],
  "bytecode": "0x6060604052341561000f57600080fd5b6101578061001e6000396000f30060606040526004361061004b5763ffffffff7c01000000000000000000000000000000000000000000000000000000006000350416638834277e8114610050578063fff10aba14610068575b600080fd5b341561005b57600080fd5b6100666004356100a4565b005b341561007357600080fd5b61007b6100f8565b60405173ffffffffffffffffffffffffffffffffffffffff909116815260200160405180910390f35b6100ac610127565b73ffffffffffffffffffffffffffffffffffffffff167f09e0713b45664e161c202b19bb4574ee83dfa056f9bfdee56847b3971d9682218260405190815260200160405180910390a250565b6000805473ffffffffffffffffffffffffffffffffffffffff1680151561011f5730610121565b805b91505090565b33905600a165627a7a723058200f584b7624e44082e53f81f83c43408d60251998659aa4fb6c7b676fc69e8b7a0029",
  "source": "/**\n* Copyright 2017–2018, LaborX PTY\n* Licensed under the AGPL Version 3 license.\n*/\n\npragma solidity ^0.4.21;\n\n\n/**\n * @title General MultiEventsHistory user.\n */\ncontract MultiEventsHistoryAdapter {\n\n    address internal localEventsHistory;\n\n    event ErrorCode(address indexed self, uint errorCode);\n\n    function getEventsHistory() \n    public \n    view \n    returns (address) \n    {\n        address _eventsHistory = localEventsHistory;\n        return _eventsHistory != 0x0 ? _eventsHistory : this;\n    }\n\n    function emitErrorCode(uint _errorCode) public {\n        emit ErrorCode(_self(), _errorCode);\n    }\n\n    function _setEventsHistory(address _eventsHistory) internal returns (bool) {\n        localEventsHistory = _eventsHistory;\n        return true;\n    }\n\n    // It is address of MultiEventsHistory caller assuming we are inside of delegate call.\n    function _self() \n    internal \n    view \n    returns (address) \n    {\n        return msg.sender;\n    }\n\n    function _emitErrorCode(uint _errorCode) internal returns (uint) {\n        MultiEventsHistoryAdapter(getEventsHistory()).emitErrorCode(_errorCode);\n        return _errorCode;\n    }\n}\n",
  "sourcePath": "solidity-eventshistory-lib/contracts/MultiEventsHistoryAdapter.sol",
  "compiler": {
    "name": "solc",
    "version": "0.4.21+commit.dfe3193c.Emscripten.clang"
  },
  "schemaVersion": "2.0.0",
  "updatedAt": "2018-07-20T10:27:52.278Z"
}