{
  "contractName": "MultiSig",
  "abi": [
    {
      "constant": true,
      "inputs": [
        {
          "name": "",
          "type": "address"
        }
      ],
      "name": "isOwner",
      "outputs": [
        {
          "name": "",
          "type": "bool"
        }
      ],
      "payable": false,
      "stateMutability": "view",
      "type": "function"
    },
    {
      "constant": true,
      "inputs": [
        {
          "name": "",
          "type": "uint256"
        },
        {
          "name": "",
          "type": "address"
        }
      ],
      "name": "confirmations",
      "outputs": [
        {
          "name": "",
          "type": "bool"
        }
      ],
      "payable": false,
      "stateMutability": "view",
      "type": "function"
    },
    {
      "constant": true,
      "inputs": [
        {
          "name": "",
          "type": "uint256"
        }
      ],
      "name": "transactions",
      "outputs": [
        {
          "name": "destination",
          "type": "address"
        },
        {
          "name": "value",
          "type": "uint256"
        },
        {
          "name": "data",
          "type": "bytes"
        },
        {
          "name": "executed",
          "type": "bool"
        }
      ],
      "payable": false,
      "stateMutability": "view",
      "type": "function"
    },
    {
      "constant": true,
      "inputs": [],
      "name": "transactionCount",
      "outputs": [
        {
          "name": "",
          "type": "uint256"
        }
      ],
      "payable": false,
      "stateMutability": "view",
      "type": "function"
    },
    {
      "constant": true,
      "inputs": [],
      "name": "MAX_OWNER_COUNT",
      "outputs": [
        {
          "name": "",
          "type": "uint256"
        }
      ],
      "payable": false,
      "stateMutability": "view",
      "type": "function"
    },
    {
      "constant": true,
      "inputs": [],
      "name": "required",
      "outputs": [
        {
          "name": "",
          "type": "uint256"
        }
      ],
      "payable": false,
      "stateMutability": "view",
      "type": "function"
    },
    {
      "inputs": [],
      "payable": false,
      "stateMutability": "nonpayable",
      "type": "constructor"
    },
    {
      "payable": true,
      "stateMutability": "payable",
      "type": "fallback"
    },
    {
      "anonymous": false,
      "inputs": [
        {
          "indexed": true,
          "name": "sender",
          "type": "address"
        },
        {
          "indexed": true,
          "name": "transactionId",
          "type": "uint256"
        }
      ],
      "name": "Confirmation",
      "type": "event"
    },
    {
      "anonymous": false,
      "inputs": [
        {
          "indexed": true,
          "name": "sender",
          "type": "address"
        },
        {
          "indexed": true,
          "name": "transactionId",
          "type": "uint256"
        }
      ],
      "name": "Revocation",
      "type": "event"
    },
    {
      "anonymous": false,
      "inputs": [
        {
          "indexed": true,
          "name": "transactionId",
          "type": "uint256"
        }
      ],
      "name": "Submission",
      "type": "event"
    },
    {
      "anonymous": false,
      "inputs": [
        {
          "indexed": true,
          "name": "transactionId",
          "type": "uint256"
        }
      ],
      "name": "Execution",
      "type": "event"
    },
    {
      "anonymous": false,
      "inputs": [
        {
          "indexed": true,
          "name": "transactionId",
          "type": "uint256"
        }
      ],
      "name": "ExecutionFailure",
      "type": "event"
    },
    {
      "anonymous": false,
      "inputs": [
        {
          "indexed": true,
          "name": "sender",
          "type": "address"
        },
        {
          "indexed": false,
          "name": "value",
          "type": "uint256"
        }
      ],
      "name": "Deposit",
      "type": "event"
    },
    {
      "anonymous": false,
      "inputs": [
        {
          "indexed": true,
          "name": "owner",
          "type": "address"
        }
      ],
      "name": "OwnerAddition",
      "type": "event"
    },
    {
      "anonymous": false,
      "inputs": [
        {
          "indexed": true,
          "name": "owner",
          "type": "address"
        }
      ],
      "name": "OwnerRemoval",
      "type": "event"
    },
    {
      "anonymous": false,
      "inputs": [
        {
          "indexed": false,
          "name": "required",
          "type": "uint256"
        }
      ],
      "name": "RequirementChange",
      "type": "event"
    },
    {
      "constant": false,
      "inputs": [
        {
          "name": "owner",
          "type": "address"
        }
      ],
      "name": "addOwner",
      "outputs": [],
      "payable": false,
      "stateMutability": "nonpayable",
      "type": "function"
    },
    {
      "constant": false,
      "inputs": [
        {
          "name": "owner",
          "type": "address"
        }
      ],
      "name": "removeOwner",
      "outputs": [],
      "payable": false,
      "stateMutability": "nonpayable",
      "type": "function"
    },
    {
      "constant": false,
      "inputs": [
        {
          "name": "owner",
          "type": "address"
        },
        {
          "name": "newOwner",
          "type": "address"
        }
      ],
      "name": "replaceOwner",
      "outputs": [],
      "payable": false,
      "stateMutability": "nonpayable",
      "type": "function"
    },
    {
      "constant": false,
      "inputs": [
        {
          "name": "_required",
          "type": "uint256"
        }
      ],
      "name": "changeRequirement",
      "outputs": [],
      "payable": false,
      "stateMutability": "nonpayable",
      "type": "function"
    },
    {
      "constant": false,
      "inputs": [
        {
          "name": "destination",
          "type": "address"
        },
        {
          "name": "value",
          "type": "uint256"
        },
        {
          "name": "data",
          "type": "bytes"
        }
      ],
      "name": "submitTransaction",
      "outputs": [
        {
          "name": "transactionId",
          "type": "uint256"
        }
      ],
      "payable": false,
      "stateMutability": "nonpayable",
      "type": "function"
    },
    {
      "constant": false,
      "inputs": [
        {
          "name": "transactionId",
          "type": "uint256"
        }
      ],
      "name": "confirmTransaction",
      "outputs": [],
      "payable": false,
      "stateMutability": "nonpayable",
      "type": "function"
    },
    {
      "constant": false,
      "inputs": [
        {
          "name": "transactionId",
          "type": "uint256"
        }
      ],
      "name": "revokeConfirmation",
      "outputs": [],
      "payable": false,
      "stateMutability": "nonpayable",
      "type": "function"
    },
    {
      "constant": false,
      "inputs": [
        {
          "name": "transactionId",
          "type": "uint256"
        }
      ],
      "name": "executeTransaction",
      "outputs": [],
      "payable": false,
      "stateMutability": "nonpayable",
      "type": "function"
    },
    {
      "constant": true,
      "inputs": [
        {
          "name": "transactionId",
          "type": "uint256"
        }
      ],
      "name": "isConfirmed",
      "outputs": [
        {
          "name": "",
          "type": "bool"
        }
      ],
      "payable": false,
      "stateMutability": "view",
      "type": "function"
    },
    {
      "constant": true,
      "inputs": [
        {
          "name": "transactionId",
          "type": "uint256"
        }
      ],
      "name": "getConfirmationCount",
      "outputs": [
        {
          "name": "count",
          "type": "uint256"
        }
      ],
      "payable": false,
      "stateMutability": "view",
      "type": "function"
    },
    {
      "constant": true,
      "inputs": [
        {
          "name": "pending",
          "type": "bool"
        },
        {
          "name": "executed",
          "type": "bool"
        }
      ],
      "name": "getTransactionCount",
      "outputs": [
        {
          "name": "count",
          "type": "uint256"
        }
      ],
      "payable": false,
      "stateMutability": "view",
      "type": "function"
    },
    {
      "constant": true,
      "inputs": [],
      "name": "getOwners",
      "outputs": [
        {
          "name": "",
          "type": "address[]"
        }
      ],
      "payable": false,
      "stateMutability": "view",
      "type": "function"
    },
    {
      "constant": true,
      "inputs": [
        {
          "name": "transactionId",
          "type": "uint256"
        }
      ],
      "name": "getConfirmations",
      "outputs": [
        {
          "name": "_confirmations",
          "type": "address[]"
        }
      ],
      "payable": false,
      "stateMutability": "view",
      "type": "function"
    },
    {
      "constant": true,
      "inputs": [
        {
          "name": "from",
          "type": "uint256"
        },
        {
          "name": "to",
          "type": "uint256"
        },
        {
          "name": "pending",
          "type": "bool"
        },
        {
          "name": "executed",
          "type": "bool"
        }
      ],
      "name": "getTransactionIds",
      "outputs": [
        {
          "name": "_transactionIds",
          "type": "uint256[]"
        }
      ],
      "payable": false,
      "stateMutability": "view",
      "type": "function"
    }
  ],
  "bytecode": "0x6060604052341561000f57600080fd5b6114648061001e6000396000f3006060604052600436106101115763ffffffff7c0100000000000000000000000000000000000000000000000000000000600035041663173825d9811461015a57806320ea8d86146101795780632f54bf6e1461018f5780633411c81c146101c257806354741525146101e45780637065cb4814610213578063784547a7146102325780638b51d13f146102485780639ace38c21461025e578063a0e67e2b1461030c578063a8abe69a14610372578063b5dc40c314610395578063b77bf600146103ab578063ba51a6df146103be578063c01a8c84146103d4578063c6427474146103ea578063d74f8edd1461044f578063dc8452cd14610462578063e20056e614610475578063ee22610b1461049a575b60003411156101585733600160a060020a03167fe1fffcc4923d04b559f4d29a8bfc6cda04eb5b0d3c460751c2402c5c5cc9109c3460405190815260200160405180910390a25b005b341561016557600080fd5b610158600160a060020a03600435166104b0565b341561018457600080fd5b610158600435610645565b341561019a57600080fd5b6101ae600160a060020a0360043516610723565b604051901515815260200160405180910390f35b34156101cd57600080fd5b6101ae600435600160a060020a0360243516610738565b34156101ef57600080fd5b61020160043515156024351515610758565b60405190815260200160405180910390f35b341561021e57600080fd5b610158600160a060020a03600435166107c4565b341561023d57600080fd5b6101ae6004356108f8565b341561025357600080fd5b61020160043561097c565b341561026957600080fd5b6102746004356109eb565b604051600160a060020a038516815260208101849052811515606082015260806040820181815290820184818151815260200191508051906020019080838360005b838110156102ce5780820151838201526020016102b6565b50505050905090810190601f1680156102fb5780820380516001836020036101000a031916815260200191505b509550505050505060405180910390f35b341561031757600080fd5b61031f610ac9565b60405160208082528190810183818151815260200191508051906020019060200280838360005b8381101561035e578082015183820152602001610346565b505050509050019250505060405180910390f35b341561037d57600080fd5b61031f60043560243560443515156064351515610b32565b34156103a057600080fd5b61031f600435610c5a565b34156103b657600080fd5b610201610dbe565b34156103c957600080fd5b610158600435610dc4565b34156103df57600080fd5b610158600435610e4f565b34156103f557600080fd5b61020160048035600160a060020a03169060248035919060649060443590810190830135806020601f82018190048102016040519081016040528181529291906020840183838082843750949650610f3d95505050505050565b341561045a57600080fd5b610201610f5c565b341561046d57600080fd5b610201610f61565b341561048057600080fd5b610158600160a060020a0360043581169060243516610f67565b34156104a557600080fd5b610158600435611115565b600030600160a060020a031633600160a060020a03161415156104d257600080fd5b600160a060020a038216600090815260026020526040902054829060ff1615156104fb57600080fd5b600160a060020a0383166000908152600260205260408120805460ff1916905591505b600354600019018210156105de5782600160a060020a031660038381548110151561054557fe5b600091825260209091200154600160a060020a031614156105d35760038054600019810190811061057257fe5b60009182526020909120015460038054600160a060020a03909216918490811061059857fe5b6000918252602090912001805473ffffffffffffffffffffffffffffffffffffffff1916600160a060020a03929092169190911790556105de565b81600101915061051e565b6003805460001901906105f1908261136a565b50600354600454111561060a5760035461060a90610dc4565b82600160a060020a03167f8001553a916ef2f495d26a907cc54d96ed840d7bda71e73194bf5a9df7a76b9060405160405180910390a2505050565b33600160a060020a03811660009081526002602052604090205460ff16151561066d57600080fd5b600082815260016020908152604080832033600160a060020a038116855292529091205483919060ff1615156106a257600080fd5b600084815260208190526040902060030154849060ff16156106c357600080fd5b6000858152600160209081526040808320600160a060020a033316808552925291829020805460ff1916905586917ff6a317157440607f36269043eb55f1287a5a19ba2216afeab88cd46cbcfb88e9905160405180910390a35050505050565b60026020526000908152604090205460ff1681565b600160209081526000928352604080842090915290825290205460ff1681565b6000805b6005548110156107bd57838015610785575060008181526020819052604090206003015460ff16155b806107a957508280156107a9575060008181526020819052604090206003015460ff165b156107b5576001820191505b60010161075c565b5092915050565b30600160a060020a031633600160a060020a03161415156107e457600080fd5b600160a060020a038116600090815260026020526040902054819060ff161561080c57600080fd5b81600160a060020a038116151561082257600080fd5b600380549050600101600454603282118061083c57508181115b80610845575080155b8061084e575081155b1561085857600080fd5b600160a060020a0385166000908152600260205260409020805460ff191660019081179091556003805490918101610890838261136a565b506000918252602090912001805473ffffffffffffffffffffffffffffffffffffffff1916600160a060020a0387169081179091557ff39e6e1eb0edcf53c221607b54b00cd28f3196fed0a24994dc308b8f611b682d60405160405180910390a25050505050565b600080805b600354811015610975576000848152600160205260408120600380549192918490811061092657fe5b6000918252602080832090910154600160a060020a0316835282019290925260400190205460ff161561095a576001820191505b60045482141561096d5760019250610975565b6001016108fd565b5050919050565b6000805b6003548110156109e557600083815260016020526040812060038054919291849081106109a957fe5b6000918252602080832090910154600160a060020a0316835282019290925260400190205460ff16156109dd576001820191505b600101610980565b50919050565b60006020528060005260406000206000915090508060000160009054906101000a9004600160a060020a031690806001015490806002018054600181600116156101000203166002900480601f016020809104026020016040519081016040528092919081815260200182805460018160011615610100020316600290048015610ab65780601f10610a8b57610100808354040283529160200191610ab6565b820191906000526020600020905b815481529060010190602001808311610a9957829003601f168201915b5050506003909301549192505060ff1684565b610ad161138e565b6003805480602002602001604051908101604052809291908181526020018280548015610b2757602002820191906000526020600020905b8154600160a060020a03168152600190910190602001808311610b09575b505050505090505b90565b610b3a61138e565b610b4261138e565b600080600554604051805910610b555750595b9080825280602002602001820160405250925060009150600090505b600554811015610bea57858015610b9a575060008181526020819052604090206003015460ff16155b80610bbe5750848015610bbe575060008181526020819052604090206003015460ff165b15610be25780838381518110610bd057fe5b60209081029091010152600191909101905b600101610b71565b878703604051805910610bfa5750595b908082528060200260200182016040525093508790505b86811015610c4f57828181518110610c2557fe5b906020019060200201518489830381518110610c3d57fe5b60209081029091010152600101610c11565b505050949350505050565b610c6261138e565b610c6a61138e565b6003546000908190604051805910610c7f5750595b9080825280602002602001820160405250925060009150600090505b600354811015610d475760008581526001602052604081206003805491929184908110610cc457fe5b6000918252602080832090910154600160a060020a0316835282019290925260400190205460ff1615610d3f576003805482908110610cff57fe5b600091825260209091200154600160a060020a0316838381518110610d2057fe5b600160a060020a03909216602092830290910190910152600191909101905b600101610c9b565b81604051805910610d555750595b90808252806020026020018201604052509350600090505b81811015610db657828181518110610d8157fe5b90602001906020020151848281518110610d9757fe5b600160a060020a03909216602092830290910190910152600101610d6d565b505050919050565b60055481565b30600160a060020a031633600160a060020a0316141515610de457600080fd5b600354816032821180610df657508181115b80610dff575080155b80610e08575081155b15610e1257600080fd5b60048390557fa3f1ee9126a074d9326c682f561767f710e927faa811f7a99829d49dc421797a8360405190815260200160405180910390a1505050565b33600160a060020a03811660009081526002602052604090205460ff161515610e7757600080fd5b6000828152602081905260409020548290600160a060020a03161515610e9c57600080fd5b600083815260016020908152604080832033600160a060020a038116855292529091205484919060ff1615610ed057600080fd5b6000858152600160208181526040808420600160a060020a033316808652925292839020805460ff191690921790915586917f4a504a94899432a9846e1aa406dceb1bcfd538bb839071d49d1e5e23f5be30ef905160405180910390a3610f3685611115565b5050505050565b6000610f4a84848461126d565b9050610f5581610e4f565b9392505050565b603281565b60045481565b600030600160a060020a031633600160a060020a0316141515610f8957600080fd5b600160a060020a038316600090815260026020526040902054839060ff161515610fb257600080fd5b600160a060020a038316600090815260026020526040902054839060ff1615610fda57600080fd5b600092505b6003548310156110735784600160a060020a031660038481548110151561100257fe5b600091825260209091200154600160a060020a03161415611068578360038481548110151561102d57fe5b6000918252602090912001805473ffffffffffffffffffffffffffffffffffffffff1916600160a060020a0392909216919091179055611073565b826001019250610fdf565b600160a060020a03808616600081815260026020526040808220805460ff199081169091559388168252908190208054909316600117909255907f8001553a916ef2f495d26a907cc54d96ed840d7bda71e73194bf5a9df7a76b90905160405180910390a283600160a060020a03167ff39e6e1eb0edcf53c221607b54b00cd28f3196fed0a24994dc308b8f611b682d60405160405180910390a25050505050565b600081815260208190526040812060030154829060ff161561113657600080fd5b61113f836108f8565b15611268576000838152602081905260409081902060038101805460ff19166001908117909155815490820154919450600160a060020a03169160028501905180828054600181600116156101000203166002900480156111e15780601f106111b6576101008083540402835291602001916111e1565b820191906000526020600020905b8154815290600101906020018083116111c457829003601f168201915b505091505060006040518083038185875af1925050501561122e57827f33e13ecb54c3076d8e8bb8c2881800a4d972b792045ffae98fdf46df365fed7560405160405180910390a2611268565b827f526441bb6c1aba3c9a4a6ca1d6545da9c2333c8c48343ef398eb858d72b7923660405160405180910390a260038201805460ff191690555b505050565b600083600160a060020a038116151561128557600080fd5b600554915060806040519081016040908152600160a060020a0387168252602080830187905281830186905260006060840181905285815290819052208151815473ffffffffffffffffffffffffffffffffffffffff1916600160a060020a0391909116178155602082015181600101556040820151816002019080516113109291602001906113a0565b506060820151600391909101805460ff191691151591909117905550600580546001019055817fc0ba8fe4b176c1714197d43b9cc6bcf797a4a7461c5fe8d0ef6e184ae7601e5160405160405180910390a2509392505050565b8154818355818115116112685760008381526020902061126891810190830161141e565b60206040519081016040526000815290565b828054600181600116156101000203166002900490600052602060002090601f016020900481019282601f106113e157805160ff191683800117855561140e565b8280016001018555821561140e579182015b8281111561140e5782518255916020019190600101906113f3565b5061141a92915061141e565b5090565b610b2f91905b8082111561141a57600081556001016114245600a165627a7a72305820ddeb33372a2b961772181795d7cc32321fd7283aef8dc99cddaf024770f7ff5a0029",
  "source": "pragma solidity ^0.4.21;\n\n\n/// @title Multisignature wallet - Allows multiple parties to agree on transactions before execution.\n/// @author Stefan George - <stefan.george@consensys.net>\ncontract MultiSig {\n\n    uint constant public MAX_OWNER_COUNT = 50;\n\n    event Confirmation(address indexed sender, uint indexed transactionId);\n    event Revocation(address indexed sender, uint indexed transactionId);\n    event Submission(uint indexed transactionId);\n    event Execution(uint indexed transactionId);\n    event ExecutionFailure(uint indexed transactionId);\n    event Deposit(address indexed sender, uint value);\n    event OwnerAddition(address indexed owner);\n    event OwnerRemoval(address indexed owner);\n    event RequirementChange(uint required);\n\n    mapping (uint => Transaction) public transactions;\n    mapping (uint => mapping (address => bool)) public confirmations;\n    mapping (address => bool) public isOwner;\n    address[] internal owners;\n    uint public required;\n    uint public transactionCount;\n\n    struct Transaction {\n        address destination;\n        uint value;\n        bytes data;\n        bool executed;\n    }\n\n    modifier onlySelf() {\n        if (msg.sender != address(this)) {\n            revert();\n        }\n        _;\n    }\n\n    modifier ownerDoesNotExist(address owner) {\n        if (isOwner[owner]) {\n            revert();\n        }\n        _;\n    }\n\n    modifier ownerExists(address owner) {\n        if (!isOwner[owner]) {\n            revert();\n        }\n        _;\n    }\n\n    modifier transactionExists(uint transactionId) {\n        if (transactions[transactionId].destination == 0) {\n            revert();\n        }\n        _;\n    }\n\n    modifier confirmed(uint transactionId, address owner) {\n        if (!confirmations[transactionId][owner]) {\n            revert();\n        }\n        _;\n    }\n\n    modifier notConfirmed(uint transactionId, address owner) {\n        if (confirmations[transactionId][owner]) {\n            revert();\n        }\n        _;\n    }\n\n    modifier notExecuted(uint transactionId) {\n        if (transactions[transactionId].executed) {\n            revert();\n        }\n        _;\n    }\n\n    modifier notNull(address _address) {\n        if (_address == 0x0) {\n            revert();\n        }\n        _;\n    }\n\n    modifier validRequirement(uint ownerCount, uint _required) {\n        if (ownerCount > MAX_OWNER_COUNT\n            || _required > ownerCount\n            || _required == 0\n            || ownerCount == 0\n        ) {\n            revert();\n        }\n        _;\n    }\n\n    /// @dev Fallback function allows to deposit ether.\n    function()\n    payable\n    external\n    {\n        if (msg.value > 0) {\n            emit Deposit(msg.sender, msg.value);\n        }\n    }\n\n    /*\n     * Public functions\n     */\n    /// @dev Contract constructor sets initial owners and required number of confirmations.\n    function MultiSig() public {\n\n    }\n\n    /// @param _owners List of initial owners.\n    /// @param _required Number of required confirmations.\n    function _initMultiSig(address[] _owners, uint _required)\n    validRequirement(_owners.length, _required)\n    internal\n    {\n        require(required == 0);\n        owners.length = 0;\n\n        for (uint i = 0; i < _owners.length; ++i) {\n            if (isOwner[_owners[i]] || _owners[i] == 0) {\n                revert();\n            }\n            isOwner[_owners[i]] = true;\n        }\n        owners = _owners;\n        required = _required;\n    }\n\n    /// @dev Allows to add a new owner. Transaction has to be sent by wallet.\n    /// @param owner Address of new owner.\n    function addOwner(address owner)\n    onlySelf\n    ownerDoesNotExist(owner)\n    notNull(owner)\n    validRequirement(owners.length + 1, required)\n    public\n    {\n        isOwner[owner] = true;\n        owners.push(owner);\n        emit OwnerAddition(owner);\n    }\n\n    /// @dev Allows to remove an owner. Transaction has to be sent by wallet.\n    /// @param owner Address of owner.\n    function removeOwner(address owner)\n    onlySelf\n    ownerExists(owner)\n    public\n    {\n        isOwner[owner] = false;\n        for (uint i = 0; i < owners.length - 1; ++i) {\n            if (owners[i] == owner) {\n                owners[i] = owners[owners.length - 1];\n                break;\n            }\n        }\n\n        owners.length -= 1;\n        if (required > owners.length) {\n            changeRequirement(owners.length);\n        }\n        emit OwnerRemoval(owner);\n    }\n\n    /// @dev Allows to replace an owner with a new owner. Transaction has to be sent by wallet.\n    /// @param owner Address of owner to be replaced.\n    /// @param owner Address of new owner.\n    function replaceOwner(address owner, address newOwner)\n    onlySelf\n    ownerExists(owner)\n    ownerDoesNotExist(newOwner)\n    public\n    {\n        for (uint i = 0; i < owners.length; ++i) {\n            if (owners[i] == owner) {\n                owners[i] = newOwner;\n                break;\n            }\n        }\n        isOwner[owner] = false;\n        isOwner[newOwner] = true;\n\n        emit OwnerRemoval(owner);\n        emit OwnerAddition(newOwner);\n    }\n\n    /// @dev Allows to change the number of required confirmations. Transaction has to be sent by wallet.\n    /// @param _required Number of required confirmations.\n    function changeRequirement(uint _required)\n    onlySelf\n    validRequirement(owners.length, _required)\n    public\n    {\n        required = _required;\n        emit RequirementChange(_required);\n    }\n\n    /// @dev Allows an owner to submit and confirm a transaction.\n    /// @param destination Transaction target address.\n    /// @param value Transaction ether value.\n    /// @param data Transaction data payload.\n    /// @return Returns transaction ID.\n    function submitTransaction(address destination, uint value, bytes data)\n    public\n    returns (uint transactionId)\n    {\n        transactionId = addTransaction(destination, value, data);\n        confirmTransaction(transactionId);\n    }\n\n    /// @dev Allows an owner to confirm a transaction.\n    /// @param transactionId Transaction ID.\n    function confirmTransaction(uint transactionId)\n    ownerExists(msg.sender)\n    transactionExists(transactionId)\n    notConfirmed(transactionId, msg.sender)\n    public\n    {\n        confirmations[transactionId][msg.sender] = true;\n        emit Confirmation(msg.sender, transactionId);\n        executeTransaction(transactionId);\n    }\n\n    /// @dev Allows an owner to revoke a confirmation for a transaction.\n    /// @param transactionId Transaction ID.\n    function revokeConfirmation(uint transactionId)\n    ownerExists(msg.sender)\n    confirmed(transactionId, msg.sender)\n    notExecuted(transactionId)\n    public\n    {\n        delete confirmations[transactionId][msg.sender];\n        emit Revocation(msg.sender, transactionId);\n    }\n\n    /// @dev Allows anyone to execute a confirmed transaction.\n    /// @param transactionId Transaction ID.\n    function executeTransaction(uint transactionId)\n    notExecuted(transactionId)\n    public\n    {\n        if (isConfirmed(transactionId)) {\n            Transaction storage _tx = transactions[transactionId];\n            _tx.executed = true;\n            // solium-disable security/no-call-value\n            if (_tx.destination.call.value(_tx.value)(_tx.data)) {\n                emit Execution(transactionId);\n            }\n            else {\n                emit ExecutionFailure(transactionId);\n                _tx.executed = false;\n            }\n        }\n    }\n\n    /// @dev Returns the confirmation status of a transaction.\n    /// @param transactionId Transaction ID.\n    /// @return Confirmation status.\n    function isConfirmed(uint transactionId)\n    public\n    view\n    returns (bool)\n    {\n        uint count = 0;\n        for (uint i = 0; i < owners.length; ++i) {\n            if (confirmations[transactionId][owners[i]]) {\n                count += 1;\n            }\n\n            if (count == required) {\n                return true;\n            }\n        }\n    }\n\n    /*\n     * Internal functions\n     */\n    /// @dev Adds a new transaction to the transaction mapping, if transaction does not exist yet.\n    /// @param destination Transaction target address.\n    /// @param value Transaction ether value.\n    /// @param data Transaction data payload.\n    /// @return Returns transaction ID.\n    function addTransaction(address destination, uint value, bytes data)\n    notNull(destination)\n    internal\n    returns (uint transactionId)\n    {\n        transactionId = transactionCount;\n        transactions[transactionId] = Transaction({\n            destination: destination,\n            value: value,\n            data: data,\n            executed: false\n        });\n        transactionCount += 1;\n        emit Submission(transactionId);\n    }\n\n    /*\n     * Web3 call functions\n     */\n    /// @dev Returns number of confirmations of a transaction.\n    /// @param transactionId Transaction ID.\n    /// @return Number of confirmations.\n    function getConfirmationCount(uint transactionId)\n    public\n    view\n    returns (uint count)\n    {\n        for (uint i = 0; i < owners.length; ++i) {\n            if (confirmations[transactionId][owners[i]]) {\n                count += 1;\n            }\n        }\n    }\n\n    /// @dev Returns total number of transactions after filers are applied.\n    /// @param pending Include pending transactions.\n    /// @param executed Include executed transactions.\n    /// @return Total number of transactions after filters are applied.\n    function getTransactionCount(bool pending, bool executed)\n    public\n    view\n    returns (uint count)\n    {\n        for (uint i = 0; i < transactionCount; ++i)\n            if (pending && !transactions[i].executed\n                || executed && transactions[i].executed\n            ) {\n                count += 1;\n            }\n    }\n\n    /// @dev Returns list of owners.\n    /// @return List of owner addresses.\n    function getOwners()\n    public\n    view\n    returns (address[])\n    {\n        return owners;\n    }\n\n    /// @dev Returns array with owner addresses, which confirmed transaction.\n    /// @param transactionId Transaction ID.\n    /// @return Returns array of owner addresses.\n    function getConfirmations(uint transactionId)\n    public\n    view\n    returns (address[] _confirmations)\n    {\n        address[] memory confirmationsTemp = new address[](owners.length);\n        uint count = 0;\n        uint i;\n        for (i = 0; i < owners.length; ++i) {\n            if (confirmations[transactionId][owners[i]]) {\n                confirmationsTemp[count] = owners[i];\n                count += 1;\n            }\n        }\n\n        _confirmations = new address[](count);\n        for (i = 0; i < count; ++i) {\n            _confirmations[i] = confirmationsTemp[i];\n        }\n    }\n\n    /// @dev Returns list of transaction IDs in defined range.\n    /// @param from Index start position of transaction array.\n    /// @param to Index end position of transaction array.\n    /// @param pending Include pending transactions.\n    /// @param executed Include executed transactions.\n    /// @return Returns array of transaction IDs.\n    function getTransactionIds(uint from, uint to, bool pending, bool executed)\n    public\n    view\n    returns (uint[] _transactionIds)\n    {\n        uint[] memory transactionIdsTemp = new uint[](transactionCount);\n        uint count = 0;\n        uint i;\n        for (i = 0; i < transactionCount; ++i) {\n            if (pending && !transactions[i].executed\n                || executed && transactions[i].executed\n            ) {\n                transactionIdsTemp[count] = i;\n                count += 1;\n            }\n        }\n\n        _transactionIds = new uint[](to - from);\n        for (i = from; i < to; ++i) {\n            _transactionIds[i - from] = transactionIdsTemp[i];\n        }\n    }\n}",
  "sourcePath": "solidity-user-lib/contracts/MultiSig.sol",
  "compiler": {
    "name": "solc",
    "version": "0.4.21+commit.dfe3193c.Emscripten.clang"
  },
  "schemaVersion": "2.0.0",
  "updatedAt": "2018-07-19T09:10:23.295Z"
}