{
  "contractName": "MultiSig",
  "abi": [
    {
      "constant": true,
      "inputs": [
        {
          "name": "",
          "type": "address"
        }
      ],
      "name": "isOwner",
      "outputs": [
        {
          "name": "",
          "type": "bool"
        }
      ],
      "payable": false,
      "stateMutability": "view",
      "type": "function"
    },
    {
      "constant": true,
      "inputs": [
        {
          "name": "",
          "type": "uint256"
        },
        {
          "name": "",
          "type": "address"
        }
      ],
      "name": "confirmations",
      "outputs": [
        {
          "name": "",
          "type": "bool"
        }
      ],
      "payable": false,
      "stateMutability": "view",
      "type": "function"
    },
    {
      "constant": true,
      "inputs": [
        {
          "name": "",
          "type": "uint256"
        }
      ],
      "name": "transactions",
      "outputs": [
        {
          "name": "destination",
          "type": "address"
        },
        {
          "name": "value",
          "type": "uint256"
        },
        {
          "name": "data",
          "type": "bytes"
        },
        {
          "name": "executed",
          "type": "bool"
        }
      ],
      "payable": false,
      "stateMutability": "view",
      "type": "function"
    },
    {
      "constant": true,
      "inputs": [],
      "name": "transactionCount",
      "outputs": [
        {
          "name": "",
          "type": "uint256"
        }
      ],
      "payable": false,
      "stateMutability": "view",
      "type": "function"
    },
    {
      "constant": true,
      "inputs": [],
      "name": "MAX_OWNER_COUNT",
      "outputs": [
        {
          "name": "",
          "type": "uint256"
        }
      ],
      "payable": false,
      "stateMutability": "view",
      "type": "function"
    },
    {
      "constant": true,
      "inputs": [],
      "name": "required",
      "outputs": [
        {
          "name": "",
          "type": "uint256"
        }
      ],
      "payable": false,
      "stateMutability": "view",
      "type": "function"
    },
    {
      "inputs": [],
      "payable": false,
      "stateMutability": "nonpayable",
      "type": "constructor"
    },
    {
      "payable": true,
      "stateMutability": "payable",
      "type": "fallback"
    },
    {
      "anonymous": false,
      "inputs": [
        {
          "indexed": true,
          "name": "sender",
          "type": "address"
        },
        {
          "indexed": true,
          "name": "transactionId",
          "type": "uint256"
        }
      ],
      "name": "Confirmation",
      "type": "event"
    },
    {
      "anonymous": false,
      "inputs": [
        {
          "indexed": true,
          "name": "sender",
          "type": "address"
        },
        {
          "indexed": true,
          "name": "transactionId",
          "type": "uint256"
        }
      ],
      "name": "Revocation",
      "type": "event"
    },
    {
      "anonymous": false,
      "inputs": [
        {
          "indexed": true,
          "name": "transactionId",
          "type": "uint256"
        }
      ],
      "name": "Submission",
      "type": "event"
    },
    {
      "anonymous": false,
      "inputs": [
        {
          "indexed": true,
          "name": "transactionId",
          "type": "uint256"
        }
      ],
      "name": "Execution",
      "type": "event"
    },
    {
      "anonymous": false,
      "inputs": [
        {
          "indexed": true,
          "name": "transactionId",
          "type": "uint256"
        }
      ],
      "name": "ExecutionFailure",
      "type": "event"
    },
    {
      "anonymous": false,
      "inputs": [
        {
          "indexed": true,
          "name": "sender",
          "type": "address"
        },
        {
          "indexed": false,
          "name": "value",
          "type": "uint256"
        }
      ],
      "name": "Deposit",
      "type": "event"
    },
    {
      "anonymous": false,
      "inputs": [
        {
          "indexed": true,
          "name": "owner",
          "type": "address"
        }
      ],
      "name": "OwnerAddition",
      "type": "event"
    },
    {
      "anonymous": false,
      "inputs": [
        {
          "indexed": true,
          "name": "owner",
          "type": "address"
        }
      ],
      "name": "OwnerRemoval",
      "type": "event"
    },
    {
      "anonymous": false,
      "inputs": [
        {
          "indexed": false,
          "name": "required",
          "type": "uint256"
        }
      ],
      "name": "RequirementChange",
      "type": "event"
    },
    {
      "constant": false,
      "inputs": [
        {
          "name": "owner",
          "type": "address"
        }
      ],
      "name": "addOwner",
      "outputs": [],
      "payable": false,
      "stateMutability": "nonpayable",
      "type": "function"
    },
    {
      "constant": false,
      "inputs": [
        {
          "name": "owner",
          "type": "address"
        }
      ],
      "name": "removeOwner",
      "outputs": [],
      "payable": false,
      "stateMutability": "nonpayable",
      "type": "function"
    },
    {
      "constant": false,
      "inputs": [
        {
          "name": "owner",
          "type": "address"
        },
        {
          "name": "newOwner",
          "type": "address"
        }
      ],
      "name": "replaceOwner",
      "outputs": [],
      "payable": false,
      "stateMutability": "nonpayable",
      "type": "function"
    },
    {
      "constant": false,
      "inputs": [
        {
          "name": "_required",
          "type": "uint256"
        }
      ],
      "name": "changeRequirement",
      "outputs": [],
      "payable": false,
      "stateMutability": "nonpayable",
      "type": "function"
    },
    {
      "constant": false,
      "inputs": [
        {
          "name": "destination",
          "type": "address"
        },
        {
          "name": "value",
          "type": "uint256"
        },
        {
          "name": "data",
          "type": "bytes"
        }
      ],
      "name": "submitTransaction",
      "outputs": [
        {
          "name": "transactionId",
          "type": "uint256"
        }
      ],
      "payable": false,
      "stateMutability": "nonpayable",
      "type": "function"
    },
    {
      "constant": false,
      "inputs": [
        {
          "name": "transactionId",
          "type": "uint256"
        }
      ],
      "name": "confirmTransaction",
      "outputs": [],
      "payable": false,
      "stateMutability": "nonpayable",
      "type": "function"
    },
    {
      "constant": false,
      "inputs": [
        {
          "name": "transactionId",
          "type": "uint256"
        }
      ],
      "name": "revokeConfirmation",
      "outputs": [],
      "payable": false,
      "stateMutability": "nonpayable",
      "type": "function"
    },
    {
      "constant": false,
      "inputs": [
        {
          "name": "transactionId",
          "type": "uint256"
        }
      ],
      "name": "executeTransaction",
      "outputs": [],
      "payable": false,
      "stateMutability": "nonpayable",
      "type": "function"
    },
    {
      "constant": true,
      "inputs": [
        {
          "name": "transactionId",
          "type": "uint256"
        }
      ],
      "name": "isConfirmed",
      "outputs": [
        {
          "name": "",
          "type": "bool"
        }
      ],
      "payable": false,
      "stateMutability": "view",
      "type": "function"
    },
    {
      "constant": true,
      "inputs": [
        {
          "name": "transactionId",
          "type": "uint256"
        }
      ],
      "name": "getConfirmationCount",
      "outputs": [
        {
          "name": "count",
          "type": "uint256"
        }
      ],
      "payable": false,
      "stateMutability": "view",
      "type": "function"
    },
    {
      "constant": true,
      "inputs": [
        {
          "name": "pending",
          "type": "bool"
        },
        {
          "name": "executed",
          "type": "bool"
        }
      ],
      "name": "getTransactionCount",
      "outputs": [
        {
          "name": "count",
          "type": "uint256"
        }
      ],
      "payable": false,
      "stateMutability": "view",
      "type": "function"
    },
    {
      "constant": true,
      "inputs": [],
      "name": "getOwners",
      "outputs": [
        {
          "name": "",
          "type": "address[]"
        }
      ],
      "payable": false,
      "stateMutability": "view",
      "type": "function"
    },
    {
      "constant": true,
      "inputs": [
        {
          "name": "transactionId",
          "type": "uint256"
        }
      ],
      "name": "getConfirmations",
      "outputs": [
        {
          "name": "_confirmations",
          "type": "address[]"
        }
      ],
      "payable": false,
      "stateMutability": "view",
      "type": "function"
    },
    {
      "constant": true,
      "inputs": [
        {
          "name": "from",
          "type": "uint256"
        },
        {
          "name": "to",
          "type": "uint256"
        },
        {
          "name": "pending",
          "type": "bool"
        },
        {
          "name": "executed",
          "type": "bool"
        }
      ],
      "name": "getTransactionIds",
      "outputs": [
        {
          "name": "_transactionIds",
          "type": "uint256[]"
        }
      ],
      "payable": false,
      "stateMutability": "view",
      "type": "function"
    }
  ],
  "bytecode": "0x608060405234801561001057600080fd5b50611af9806100206000396000f3006080604052600436106101115763ffffffff7c0100000000000000000000000000000000000000000000000000000000600035041663173825d9811461015357806320ea8d86146101745780632f54bf6e1461018c5780633411c81c146101c157806354741525146101e55780637065cb4814610216578063784547a7146102375780638b51d13f1461024f5780639ace38c214610267578063a0e67e2b14610322578063a8abe69a14610387578063b5dc40c3146103ac578063b77bf600146103c4578063ba51a6df146103d9578063c01a8c84146103f1578063c642747414610409578063d74f8edd14610472578063dc8452cd14610487578063e20056e61461049c578063ee22610b146104c3575b60003411156101515760408051348152905133917fe1fffcc4923d04b559f4d29a8bfc6cda04eb5b0d3c460751c2402c5c5cc9109c919081900360200190a25b005b34801561015f57600080fd5b50610151600160a060020a03600435166104db565b34801561018057600080fd5b506101516004356106e6565b34801561019857600080fd5b506101ad600160a060020a03600435166108c9565b604080519115158252519081900360200190f35b3480156101cd57600080fd5b506101ad600435600160a060020a03602435166108de565b3480156101f157600080fd5b50610204600435151560243515156108fe565b60408051918252519081900360200190f35b34801561022257600080fd5b50610151600160a060020a036004351661096a565b34801561024357600080fd5b506101ad600435610c0f565b34801561025b57600080fd5b50610204600435610c93565b34801561027357600080fd5b5061027f600435610d02565b6040518085600160a060020a0316600160a060020a031681526020018481526020018060200183151515158152602001828103825284818151815260200191508051906020019080838360005b838110156102e45781810151838201526020016102cc565b50505050905090810190601f1680156103115780820380516001836020036101000a031916815260200191505b509550505050505060405180910390f35b34801561032e57600080fd5b50610337610dc0565b60408051602080825283518183015283519192839290830191858101910280838360005b8381101561037357818101518382015260200161035b565b505050509050019250505060405180910390f35b34801561039357600080fd5b5061033760043560243560443515156064351515610e23565b3480156103b857600080fd5b50610337600435610f5c565b3480156103d057600080fd5b506102046110d5565b3480156103e557600080fd5b506101516004356110db565b3480156103fd57600080fd5b50610151600435611210565b34801561041557600080fd5b50604080516020600460443581810135601f8101849004840285018401909552848452610204948235600160a060020a03169460248035953695946064949201919081908401838280828437509497506113de9650505050505050565b34801561047e57600080fd5b506102046113fd565b34801561049357600080fd5b50610204611402565b3480156104a857600080fd5b50610151600160a060020a0360043581169060243516611408565b3480156104cf57600080fd5b5061015160043561167f565b6000333014610536576040805160e560020a62461bcd0281526020600482015260276024820152600080516020611a8e8339815191526044820152600080516020611aae833981519152606482015290519081900360840190fd5b600160a060020a038216600090815260026020526040902054829060ff1615156105a6576040805160e560020a62461bcd0281526020600482015260226024820152600080516020611a6e833981519152604482015260f260020a611cdd02606482015290519081900360840190fd5b600160a060020a0383166000908152600260205260408120805460ff1916905591505b600354600019018210156106815782600160a060020a03166003838154811015156105f057fe5b600091825260209091200154600160a060020a031614156106765760038054600019810190811061061d57fe5b60009182526020909120015460038054600160a060020a03909216918490811061064357fe5b9060005260206000200160006101000a815481600160a060020a030219169083600160a060020a03160217905550610681565b8160010191506105c9565b60038054600019019061069490826119b1565b5060035460045411156106ad576003546106ad906110db565b604051600160a060020a038416907f8001553a916ef2f495d26a907cc54d96ed840d7bda71e73194bf5a9df7a76b9090600090a2505050565b3360008181526002602052604090205460ff16151561074b576040805160e560020a62461bcd0281526020600482015260226024820152600080516020611a6e833981519152604482015260f260020a611cdd02606482015290519081900360840190fd5b60008281526001602090815260408083203380855292529091205483919060ff1615156107e8576040805160e560020a62461bcd02815260206004820152602260248201527f5b4d756c74695369675d3a2074782073686f756c6420626520636f6e6669726d60448201527f6564000000000000000000000000000000000000000000000000000000000000606482015290519081900360840190fd5b600084815260208190526040902060030154849060ff161561087a576040805160e560020a62461bcd02815260206004820152602560248201527f5b4d756c74695369675d3a2074782073686f756c64206e6f742062652065786560448201527f6375746564000000000000000000000000000000000000000000000000000000606482015290519081900360840190fd5b6000858152600160209081526040808320338085529252808320805460ff191690555187927ff6a317157440607f36269043eb55f1287a5a19ba2216afeab88cd46cbcfb88e991a35050505050565b60026020526000908152604090205460ff1681565b600160209081526000928352604080842090915290825290205460ff1681565b6000805b6005548110156109635783801561092b575060008181526020819052604090206003015460ff16155b8061094f575082801561094f575060008181526020819052604090206003015460ff165b1561095b576001820191505b600101610902565b5092915050565b3330146109c3576040805160e560020a62461bcd0281526020600482015260276024820152600080516020611a8e8339815191526044820152600080516020611aae833981519152606482015290519081900360840190fd5b600160a060020a038116600090815260026020526040902054819060ff1615610a44576040805160e560020a62461bcd02815260206004820152602260248201527f5b4d756c74695369675d3a204f776e65722073686f756c64206e6f7420657869604482015260f260020a611cdd02606482015290519081900360840190fd5b81600160a060020a0381161515610acb576040805160e560020a62461bcd02815260206004820152602560248201527f5b4d756c74695369675d3a20616464726573732073686f756c64206e6f74206260448201527f6520307830000000000000000000000000000000000000000000000000000000606482015290519081900360840190fd5b6003805490506001016004546032821180610ae557508181115b80610aee575080155b80610af7575081155b15610b72576040805160e560020a62461bcd02815260206004820152603160248201527f5b4d756c74695369675d3a2076616c6964206d756c746973696720726571756960448201527f72656d656e74206973206e6f74206d6574000000000000000000000000000000606482015290519081900360840190fd5b600160a060020a038516600081815260026020526040808220805460ff1916600190811790915560038054918201815583527fc2575a0e9e593c00f959f8c92f12db2869c3395a3b0502d05e2516446f71f85b01805473ffffffffffffffffffffffffffffffffffffffff191684179055517ff39e6e1eb0edcf53c221607b54b00cd28f3196fed0a24994dc308b8f611b682d9190a25050505050565b600080805b600354811015610c8c5760008481526001602052604081206003805491929184908110610c3d57fe5b6000918252602080832090910154600160a060020a0316835282019290925260400190205460ff1615610c71576001820191505b600454821415610c845760019250610c8c565b600101610c14565b5050919050565b6000805b600354811015610cfc5760008381526001602052604081206003805491929184908110610cc057fe5b6000918252602080832090910154600160a060020a0316835282019290925260400190205460ff1615610cf4576001820191505b600101610c97565b50919050565b6000602081815291815260409081902080546001808301546002808501805487516101009582161595909502600019011691909104601f8101889004880284018801909652858352600160a060020a0390931695909491929190830182828015610dad5780601f10610d8257610100808354040283529160200191610dad565b820191906000526020600020905b815481529060010190602001808311610d9057829003601f168201915b5050506003909301549192505060ff1684565b60606003805480602002602001604051908101604052809291908181526020018280548015610e1857602002820191906000526020600020905b8154600160a060020a03168152600190910190602001808311610dfa575b505050505090505b90565b606080600080600554604051908082528060200260200182016040528015610e55578160200160208202803883390190505b50925060009150600090505b600554811015610edc57858015610e8a575060008181526020819052604090206003015460ff16155b80610eae5750848015610eae575060008181526020819052604090206003015460ff165b15610ed457808383815181101515610ec257fe5b60209081029091010152600191909101905b600101610e61565b878703604051908082528060200260200182016040528015610f08578160200160208202803883390190505b5093508790505b86811015610f51578281815181101515610f2557fe5b9060200190602002015184898303815181101515610f3f57fe5b60209081029091010152600101610f0f565b505050949350505050565b606080600080600380549050604051908082528060200260200182016040528015610f91578160200160208202803883390190505b50925060009150600090505b60035481101561104e5760008581526001602052604081206003805491929184908110610fc657fe5b6000918252602080832090910154600160a060020a0316835282019290925260400190205460ff161561104657600380548290811061100157fe5b6000918252602090912001548351600160a060020a039091169084908490811061102757fe5b600160a060020a03909216602092830290910190910152600191909101905b600101610f9d565b81604051908082528060200260200182016040528015611078578160200160208202803883390190505b509350600090505b818110156110cd57828181518110151561109657fe5b9060200190602002015184828151811015156110ae57fe5b600160a060020a03909216602092830290910190910152600101611080565b505050919050565b60055481565b333014611134576040805160e560020a62461bcd0281526020600482015260276024820152600080516020611a8e8339815191526044820152600080516020611aae833981519152606482015290519081900360840190fd5b60035481603282118061114657508181115b8061114f575080155b80611158575081155b156111d3576040805160e560020a62461bcd02815260206004820152603160248201527f5b4d756c74695369675d3a2076616c6964206d756c746973696720726571756960448201527f72656d656e74206973206e6f74206d6574000000000000000000000000000000606482015290519081900360840190fd5b60048390556040805184815290517fa3f1ee9126a074d9326c682f561767f710e927faa811f7a99829d49dc421797a9181900360200190a1505050565b3360008181526002602052604090205460ff161515611275576040805160e560020a62461bcd0281526020600482015260226024820152600080516020611a6e833981519152604482015260f260020a611cdd02606482015290519081900360840190fd5b6000828152602081905260409020548290600160a060020a031615156112e5576040805160e560020a62461bcd02815260206004820152601b60248201527f5b4d756c74695369675d3a2074782073686f756c642065786973740000000000604482015290519081900360640190fd5b60008381526001602090815260408083203380855292529091205484919060ff1615611381576040805160e560020a62461bcd02815260206004820152602660248201527f5b4d756c74695369675d3a2074782073686f756c64206e6f7420626520636f6e60448201527f6669726d65640000000000000000000000000000000000000000000000000000606482015290519081900360840190fd5b6000858152600160208181526040808420338086529252808420805460ff1916909317909255905187927f4a504a94899432a9846e1aa406dceb1bcfd538bb839071d49d1e5e23f5be30ef91a36113d78561167f565b5050505050565b60006113eb848484611850565b90506113f681611210565b9392505050565b603281565b60045481565b6000333014611463576040805160e560020a62461bcd0281526020600482015260276024820152600080516020611a8e8339815191526044820152600080516020611aae833981519152606482015290519081900360840190fd5b600160a060020a038316600090815260026020526040902054839060ff1615156114d3576040805160e560020a62461bcd0281526020600482015260226024820152600080516020611a6e833981519152604482015260f260020a611cdd02606482015290519081900360840190fd5b600160a060020a038316600090815260026020526040902054839060ff1615611554576040805160e560020a62461bcd02815260206004820152602260248201527f5b4d756c74695369675d3a204f776e65722073686f756c64206e6f7420657869604482015260f260020a611cdd02606482015290519081900360840190fd5b600092505b6003548310156115e55784600160a060020a031660038481548110151561157c57fe5b600091825260209091200154600160a060020a031614156115da57836003848154811015156115a757fe5b9060005260206000200160006101000a815481600160a060020a030219169083600160a060020a031602179055506115e5565b826001019250611559565b600160a060020a03808616600081815260026020526040808220805460ff1990811690915593881682528082208054909416600117909355915190917f8001553a916ef2f495d26a907cc54d96ed840d7bda71e73194bf5a9df7a76b9091a2604051600160a060020a038516907ff39e6e1eb0edcf53c221607b54b00cd28f3196fed0a24994dc308b8f611b682d90600090a25050505050565b600081815260208190526040812060030154829060ff1615611711576040805160e560020a62461bcd02815260206004820152602560248201527f5b4d756c74695369675d3a2074782073686f756c64206e6f742062652065786560448201527f6375746564000000000000000000000000000000000000000000000000000000606482015290519081900360840190fd5b61171a83610c0f565b1561184b576000838152602081905260409081902060038101805460ff19166001908117909155815481830154935160028085018054959850600160a060020a03909316959492939192839285926000199183161561010002919091019091160480156117c85780601f1061179d576101008083540402835291602001916117c8565b820191906000526020600020905b8154815290600101906020018083116117ab57829003601f168201915b505091505060006040518083038185875af192505050156118135760405183907f33e13ecb54c3076d8e8bb8c2881800a4d972b792045ffae98fdf46df365fed7590600090a261184b565b60405183907f526441bb6c1aba3c9a4a6ca1d6545da9c2333c8c48343ef398eb858d72b7923690600090a260038201805460ff191690555b505050565b600083600160a060020a03811615156118d9576040805160e560020a62461bcd02815260206004820152602560248201527f5b4d756c74695369675d3a20616464726573732073686f756c64206e6f74206260448201527f6520307830000000000000000000000000000000000000000000000000000000606482015290519081900360840190fd5b60055460408051608081018252600160a060020a0388811682526020808301898152838501898152600060608601819052878152808452959095208451815473ffffffffffffffffffffffffffffffffffffffff1916941693909317835551600183015592518051949650919390926119599260028501929101906119d5565b50606091909101516003909101805460ff191691151591909117905560058054600101905560405182907fc0ba8fe4b176c1714197d43b9cc6bcf797a4a7461c5fe8d0ef6e184ae7601e5190600090a2509392505050565b81548183558181111561184b5760008381526020902061184b918101908301611a53565b828054600181600116156101000203166002900490600052602060002090601f016020900481019282601f10611a1657805160ff1916838001178555611a43565b82800160010185558215611a43579182015b82811115611a43578251825591602001919060010190611a28565b50611a4f929150611a53565b5090565b610e2091905b80821115611a4f5760008155600101611a5956005b4d756c74695369675d3a206f776e65722073686f756c64206e6f74206578695b4d756c74695369675d3a204f6e6c792027746869732720616c6c6f77656420746f2063616c6c00000000000000000000000000000000000000000000000000a165627a7a72305820dfe8cc940d5fb8a749ef6d911881bb2adcc90c877d29b168dc89c25249a149740029",
  "source": "pragma solidity ^0.4.21;\n\n\n/// @title Multisignature wallet - Allows multiple parties to agree on transactions before execution.\n/// @author Stefan George - <stefan.george@consensys.net>\ncontract MultiSig {\n\n    uint constant public MAX_OWNER_COUNT = 50;\n\n    event Confirmation(address indexed sender, uint indexed transactionId);\n    event Revocation(address indexed sender, uint indexed transactionId);\n    event Submission(uint indexed transactionId);\n    event Execution(uint indexed transactionId);\n    event ExecutionFailure(uint indexed transactionId);\n    event Deposit(address indexed sender, uint value);\n    event OwnerAddition(address indexed owner);\n    event OwnerRemoval(address indexed owner);\n    event RequirementChange(uint required);\n\n    mapping (uint => Transaction) public transactions;\n    mapping (uint => mapping (address => bool)) public confirmations;\n    mapping (address => bool) public isOwner;\n    address[] internal owners;\n    uint public required;\n    uint public transactionCount;\n\n    struct Transaction {\n        address destination;\n        uint value;\n        bytes data;\n        bool executed;\n    }\n\n    modifier onlySelf() {\n        if (msg.sender != address(this)) {\n            revert(\"[MultiSig]: Only 'this' allowed to call\");\n        }\n        _;\n    }\n\n    modifier ownerDoesNotExist(address owner) {\n        if (isOwner[owner]) {\n            revert(\"[MultiSig]: Owner should not exist\");\n        }\n        _;\n    }\n\n    modifier ownerExists(address owner) {\n        if (!isOwner[owner]) {\n            revert(\"[MultiSig]: owner should not exist\");\n        }\n        _;\n    }\n\n    modifier transactionExists(uint transactionId) {\n        if (transactions[transactionId].destination == 0) {\n            revert(\"[MultiSig]: tx should exist\");\n        }\n        _;\n    }\n\n    modifier confirmed(uint transactionId, address owner) {\n        if (!confirmations[transactionId][owner]) {\n            revert(\"[MultiSig]: tx should be confirmed\");\n        }\n        _;\n    }\n\n    modifier notConfirmed(uint transactionId, address owner) {\n        if (confirmations[transactionId][owner]) {\n            revert(\"[MultiSig]: tx should not be confirmed\");\n        }\n        _;\n    }\n\n    modifier notExecuted(uint transactionId) {\n        if (transactions[transactionId].executed) {\n            revert(\"[MultiSig]: tx should not be executed\");\n        }\n        _;\n    }\n\n    modifier notNull(address _address) {\n        if (_address == 0x0) {\n            revert(\"[MultiSig]: address should not be 0x0\");\n        }\n        _;\n    }\n\n    modifier validRequirement(uint ownerCount, uint _required) {\n        if (ownerCount > MAX_OWNER_COUNT\n            || _required > ownerCount\n            || _required == 0\n            || ownerCount == 0\n        ) {\n            revert(\"[MultiSig]: valid multisig requirement is not met\");\n        }\n        _;\n    }\n\n    /// @dev Fallback function allows to deposit ether.\n    function()\n    payable\n    external\n    {\n        if (msg.value > 0) {\n            emit Deposit(msg.sender, msg.value);\n        }\n    }\n\n    /*\n     * Public functions\n     */\n    /// @dev Contract constructor sets initial owners and required number of confirmations.\n    constructor() public {\n\n    }\n\n    /// @param _owners List of initial owners.\n    /// @param _required Number of required confirmations.\n    function _initMultiSig(address[] _owners, uint _required)\n    validRequirement(_owners.length, _required)\n    internal\n    {\n        require(required == 0, \"[MultiSig]: 'required' should not be initialized\");\n        owners.length = 0;\n\n        for (uint i = 0; i < _owners.length; ++i) {\n            if (isOwner[_owners[i]] || _owners[i] == 0) {\n                revert(\"[MultiSig]: owner should not be skipped\");\n            }\n            isOwner[_owners[i]] = true;\n        }\n        owners = _owners;\n        required = _required;\n    }\n\n    /// @dev Allows to add a new owner. Transaction has to be sent by wallet.\n    /// @param owner Address of new owner.\n    function addOwner(address owner)\n    onlySelf\n    ownerDoesNotExist(owner)\n    notNull(owner)\n    validRequirement(owners.length + 1, required)\n    public\n    {\n        isOwner[owner] = true;\n        owners.push(owner);\n        emit OwnerAddition(owner);\n    }\n\n    /// @dev Allows to remove an owner. Transaction has to be sent by wallet.\n    /// @param owner Address of owner.\n    function removeOwner(address owner)\n    onlySelf\n    ownerExists(owner)\n    public\n    {\n        isOwner[owner] = false;\n        for (uint i = 0; i < owners.length - 1; ++i) {\n            if (owners[i] == owner) {\n                owners[i] = owners[owners.length - 1];\n                break;\n            }\n        }\n\n        owners.length -= 1;\n        if (required > owners.length) {\n            changeRequirement(owners.length);\n        }\n        emit OwnerRemoval(owner);\n    }\n\n    /// @dev Allows to replace an owner with a new owner. Transaction has to be sent by wallet.\n    /// @param owner Address of owner to be replaced.\n    /// @param owner Address of new owner.\n    function replaceOwner(address owner, address newOwner)\n    onlySelf\n    ownerExists(owner)\n    ownerDoesNotExist(newOwner)\n    public\n    {\n        for (uint i = 0; i < owners.length; ++i) {\n            if (owners[i] == owner) {\n                owners[i] = newOwner;\n                break;\n            }\n        }\n        isOwner[owner] = false;\n        isOwner[newOwner] = true;\n\n        emit OwnerRemoval(owner);\n        emit OwnerAddition(newOwner);\n    }\n\n    /// @dev Allows to change the number of required confirmations. Transaction has to be sent by wallet.\n    /// @param _required Number of required confirmations.\n    function changeRequirement(uint _required)\n    onlySelf\n    validRequirement(owners.length, _required)\n    public\n    {\n        required = _required;\n        emit RequirementChange(_required);\n    }\n\n    /// @dev Allows an owner to submit and confirm a transaction.\n    /// @param destination Transaction target address.\n    /// @param value Transaction ether value.\n    /// @param data Transaction data payload.\n    /// @return Returns transaction ID.\n    function submitTransaction(address destination, uint value, bytes data)\n    public\n    returns (uint transactionId)\n    {\n        transactionId = addTransaction(destination, value, data);\n        confirmTransaction(transactionId);\n    }\n\n    /// @dev Allows an owner to confirm a transaction.\n    /// @param transactionId Transaction ID.\n    function confirmTransaction(uint transactionId)\n    ownerExists(msg.sender)\n    transactionExists(transactionId)\n    notConfirmed(transactionId, msg.sender)\n    public\n    {\n        confirmations[transactionId][msg.sender] = true;\n        emit Confirmation(msg.sender, transactionId);\n        executeTransaction(transactionId);\n    }\n\n    /// @dev Allows an owner to revoke a confirmation for a transaction.\n    /// @param transactionId Transaction ID.\n    function revokeConfirmation(uint transactionId)\n    ownerExists(msg.sender)\n    confirmed(transactionId, msg.sender)\n    notExecuted(transactionId)\n    public\n    {\n        delete confirmations[transactionId][msg.sender];\n        emit Revocation(msg.sender, transactionId);\n    }\n\n    /// @dev Allows anyone to execute a confirmed transaction.\n    /// @param transactionId Transaction ID.\n    function executeTransaction(uint transactionId)\n    notExecuted(transactionId)\n    public\n    {\n        if (isConfirmed(transactionId)) {\n            Transaction storage _tx = transactions[transactionId];\n            _tx.executed = true;\n            // solium-disable security/no-call-value\n            if (_tx.destination.call.value(_tx.value)(_tx.data)) {\n                emit Execution(transactionId);\n            }\n            else {\n                emit ExecutionFailure(transactionId);\n                _tx.executed = false;\n            }\n        }\n    }\n\n    /// @dev Returns the confirmation status of a transaction.\n    /// @param transactionId Transaction ID.\n    /// @return Confirmation status.\n    function isConfirmed(uint transactionId)\n    public\n    view\n    returns (bool)\n    {\n        uint count = 0;\n        for (uint i = 0; i < owners.length; ++i) {\n            if (confirmations[transactionId][owners[i]]) {\n                count += 1;\n            }\n\n            if (count == required) {\n                return true;\n            }\n        }\n    }\n\n    /*\n     * Internal functions\n     */\n    /// @dev Adds a new transaction to the transaction mapping, if transaction does not exist yet.\n    /// @param destination Transaction target address.\n    /// @param value Transaction ether value.\n    /// @param data Transaction data payload.\n    /// @return Returns transaction ID.\n    function addTransaction(address destination, uint value, bytes data)\n    notNull(destination)\n    internal\n    returns (uint transactionId)\n    {\n        transactionId = transactionCount;\n        transactions[transactionId] = Transaction({\n            destination: destination,\n            value: value,\n            data: data,\n            executed: false\n        });\n        transactionCount += 1;\n        emit Submission(transactionId);\n    }\n\n    /*\n     * Web3 call functions\n     */\n    /// @dev Returns number of confirmations of a transaction.\n    /// @param transactionId Transaction ID.\n    /// @return Number of confirmations.\n    function getConfirmationCount(uint transactionId)\n    public\n    view\n    returns (uint count)\n    {\n        for (uint i = 0; i < owners.length; ++i) {\n            if (confirmations[transactionId][owners[i]]) {\n                count += 1;\n            }\n        }\n    }\n\n    /// @dev Returns total number of transactions after filers are applied.\n    /// @param pending Include pending transactions.\n    /// @param executed Include executed transactions.\n    /// @return Total number of transactions after filters are applied.\n    function getTransactionCount(bool pending, bool executed)\n    public\n    view\n    returns (uint count)\n    {\n        for (uint i = 0; i < transactionCount; ++i)\n            if (pending && !transactions[i].executed\n                || executed && transactions[i].executed\n            ) {\n                count += 1;\n            }\n    }\n\n    /// @dev Returns list of owners.\n    /// @return List of owner addresses.\n    function getOwners()\n    public\n    view\n    returns (address[])\n    {\n        return owners;\n    }\n\n    /// @dev Returns array with owner addresses, which confirmed transaction.\n    /// @param transactionId Transaction ID.\n    /// @return Returns array of owner addresses.\n    function getConfirmations(uint transactionId)\n    public\n    view\n    returns (address[] _confirmations)\n    {\n        address[] memory confirmationsTemp = new address[](owners.length);\n        uint count = 0;\n        uint i;\n        for (i = 0; i < owners.length; ++i) {\n            if (confirmations[transactionId][owners[i]]) {\n                confirmationsTemp[count] = owners[i];\n                count += 1;\n            }\n        }\n\n        _confirmations = new address[](count);\n        for (i = 0; i < count; ++i) {\n            _confirmations[i] = confirmationsTemp[i];\n        }\n    }\n\n    /// @dev Returns list of transaction IDs in defined range.\n    /// @param from Index start position of transaction array.\n    /// @param to Index end position of transaction array.\n    /// @param pending Include pending transactions.\n    /// @param executed Include executed transactions.\n    /// @return Returns array of transaction IDs.\n    function getTransactionIds(uint from, uint to, bool pending, bool executed)\n    public\n    view\n    returns (uint[] _transactionIds)\n    {\n        uint[] memory transactionIdsTemp = new uint[](transactionCount);\n        uint count = 0;\n        uint i;\n        for (i = 0; i < transactionCount; ++i) {\n            if (pending && !transactions[i].executed\n                || executed && transactions[i].executed\n            ) {\n                transactionIdsTemp[count] = i;\n                count += 1;\n            }\n        }\n\n        _transactionIds = new uint[](to - from);\n        for (i = from; i < to; ++i) {\n            _transactionIds[i - from] = transactionIdsTemp[i];\n        }\n    }\n}",
  "sourcePath": "solidity-user-lib/contracts/MultiSig.sol",
  "compiler": {
    "name": "solc",
    "version": "0.4.24+commit.e67f0147.Emscripten.clang"
  },
  "schemaVersion": "2.0.1",
  "updatedAt": "2018-07-09T12:14:01.205Z"
}