{
  "contractName": "MultiSig",
  "abi": [
    {
      "constant": true,
      "inputs": [
        {
          "name": "",
          "type": "address"
        }
      ],
      "name": "isOwner",
      "outputs": [
        {
          "name": "",
          "type": "bool"
        }
      ],
      "payable": false,
      "stateMutability": "view",
      "type": "function"
    },
    {
      "constant": true,
      "inputs": [
        {
          "name": "",
          "type": "uint256"
        },
        {
          "name": "",
          "type": "address"
        }
      ],
      "name": "confirmations",
      "outputs": [
        {
          "name": "",
          "type": "bool"
        }
      ],
      "payable": false,
      "stateMutability": "view",
      "type": "function"
    },
    {
      "constant": true,
      "inputs": [
        {
          "name": "",
          "type": "uint256"
        }
      ],
      "name": "transactions",
      "outputs": [
        {
          "name": "destination",
          "type": "address"
        },
        {
          "name": "value",
          "type": "uint256"
        },
        {
          "name": "data",
          "type": "bytes"
        },
        {
          "name": "status",
          "type": "uint8"
        }
      ],
      "payable": false,
      "stateMutability": "view",
      "type": "function"
    },
    {
      "constant": true,
      "inputs": [],
      "name": "transactionCount",
      "outputs": [
        {
          "name": "",
          "type": "uint256"
        }
      ],
      "payable": false,
      "stateMutability": "view",
      "type": "function"
    },
    {
      "constant": true,
      "inputs": [],
      "name": "MAX_OWNER_COUNT",
      "outputs": [
        {
          "name": "",
          "type": "uint256"
        }
      ],
      "payable": false,
      "stateMutability": "view",
      "type": "function"
    },
    {
      "constant": true,
      "inputs": [],
      "name": "required",
      "outputs": [
        {
          "name": "",
          "type": "uint256"
        }
      ],
      "payable": false,
      "stateMutability": "view",
      "type": "function"
    },
    {
      "inputs": [],
      "payable": false,
      "stateMutability": "nonpayable",
      "type": "constructor"
    },
    {
      "payable": true,
      "stateMutability": "payable",
      "type": "fallback"
    },
    {
      "anonymous": false,
      "inputs": [
        {
          "indexed": true,
          "name": "sender",
          "type": "address"
        },
        {
          "indexed": true,
          "name": "transactionId",
          "type": "uint256"
        }
      ],
      "name": "Confirmation",
      "type": "event"
    },
    {
      "anonymous": false,
      "inputs": [
        {
          "indexed": true,
          "name": "sender",
          "type": "address"
        },
        {
          "indexed": true,
          "name": "transactionId",
          "type": "uint256"
        }
      ],
      "name": "Revocation",
      "type": "event"
    },
    {
      "anonymous": false,
      "inputs": [
        {
          "indexed": true,
          "name": "transactionId",
          "type": "uint256"
        }
      ],
      "name": "Submission",
      "type": "event"
    },
    {
      "anonymous": false,
      "inputs": [
        {
          "indexed": true,
          "name": "transactionId",
          "type": "uint256"
        }
      ],
      "name": "Execution",
      "type": "event"
    },
    {
      "anonymous": false,
      "inputs": [
        {
          "indexed": true,
          "name": "transactionId",
          "type": "uint256"
        }
      ],
      "name": "ExecutionFailure",
      "type": "event"
    },
    {
      "anonymous": false,
      "inputs": [
        {
          "indexed": true,
          "name": "transactionId",
          "type": "uint256"
        }
      ],
      "name": "Cancelled",
      "type": "event"
    },
    {
      "anonymous": false,
      "inputs": [
        {
          "indexed": true,
          "name": "sender",
          "type": "address"
        },
        {
          "indexed": false,
          "name": "value",
          "type": "uint256"
        }
      ],
      "name": "Deposit",
      "type": "event"
    },
    {
      "anonymous": false,
      "inputs": [
        {
          "indexed": true,
          "name": "owner",
          "type": "address"
        }
      ],
      "name": "OwnerAddition",
      "type": "event"
    },
    {
      "anonymous": false,
      "inputs": [
        {
          "indexed": true,
          "name": "owner",
          "type": "address"
        }
      ],
      "name": "OwnerRemoval",
      "type": "event"
    },
    {
      "anonymous": false,
      "inputs": [
        {
          "indexed": false,
          "name": "required",
          "type": "uint256"
        }
      ],
      "name": "RequirementChange",
      "type": "event"
    },
    {
      "constant": false,
      "inputs": [
        {
          "name": "owner",
          "type": "address"
        }
      ],
      "name": "addOwner",
      "outputs": [],
      "payable": false,
      "stateMutability": "nonpayable",
      "type": "function"
    },
    {
      "constant": false,
      "inputs": [
        {
          "name": "owner",
          "type": "address"
        }
      ],
      "name": "removeOwner",
      "outputs": [],
      "payable": false,
      "stateMutability": "nonpayable",
      "type": "function"
    },
    {
      "constant": false,
      "inputs": [
        {
          "name": "owner",
          "type": "address"
        },
        {
          "name": "newOwner",
          "type": "address"
        }
      ],
      "name": "replaceOwner",
      "outputs": [],
      "payable": false,
      "stateMutability": "nonpayable",
      "type": "function"
    },
    {
      "constant": false,
      "inputs": [
        {
          "name": "_required",
          "type": "uint256"
        }
      ],
      "name": "changeRequirement",
      "outputs": [],
      "payable": false,
      "stateMutability": "nonpayable",
      "type": "function"
    },
    {
      "constant": false,
      "inputs": [
        {
          "name": "destination",
          "type": "address"
        },
        {
          "name": "value",
          "type": "uint256"
        },
        {
          "name": "data",
          "type": "bytes"
        }
      ],
      "name": "submitTransaction",
      "outputs": [
        {
          "name": "transactionId",
          "type": "uint256"
        }
      ],
      "payable": false,
      "stateMutability": "nonpayable",
      "type": "function"
    },
    {
      "constant": false,
      "inputs": [
        {
          "name": "transactionId",
          "type": "uint256"
        }
      ],
      "name": "confirmTransaction",
      "outputs": [],
      "payable": false,
      "stateMutability": "nonpayable",
      "type": "function"
    },
    {
      "constant": false,
      "inputs": [
        {
          "name": "transactionId",
          "type": "uint256"
        },
        {
          "name": "pass",
          "type": "bytes"
        },
        {
          "name": "v",
          "type": "uint8"
        },
        {
          "name": "r",
          "type": "bytes32"
        },
        {
          "name": "s",
          "type": "bytes32"
        }
      ],
      "name": "confirmTransactionWithVRS",
      "outputs": [],
      "payable": false,
      "stateMutability": "nonpayable",
      "type": "function"
    },
    {
      "constant": false,
      "inputs": [
        {
          "name": "transactionId",
          "type": "uint256"
        }
      ],
      "name": "revokeConfirmation",
      "outputs": [],
      "payable": false,
      "stateMutability": "nonpayable",
      "type": "function"
    },
    {
      "constant": false,
      "inputs": [
        {
          "name": "transactionId",
          "type": "uint256"
        }
      ],
      "name": "executeTransaction",
      "outputs": [],
      "payable": false,
      "stateMutability": "nonpayable",
      "type": "function"
    },
    {
      "constant": true,
      "inputs": [
        {
          "name": "transactionId",
          "type": "uint256"
        }
      ],
      "name": "isConfirmed",
      "outputs": [
        {
          "name": "",
          "type": "bool"
        }
      ],
      "payable": false,
      "stateMutability": "view",
      "type": "function"
    },
    {
      "constant": true,
      "inputs": [
        {
          "name": "transactionId",
          "type": "uint256"
        }
      ],
      "name": "getConfirmationCount",
      "outputs": [
        {
          "name": "count",
          "type": "uint256"
        }
      ],
      "payable": false,
      "stateMutability": "view",
      "type": "function"
    },
    {
      "constant": true,
      "inputs": [
        {
          "name": "statusMask",
          "type": "uint8"
        }
      ],
      "name": "getTransactionCount",
      "outputs": [
        {
          "name": "count",
          "type": "uint256"
        }
      ],
      "payable": false,
      "stateMutability": "view",
      "type": "function"
    },
    {
      "constant": true,
      "inputs": [],
      "name": "getOwners",
      "outputs": [
        {
          "name": "",
          "type": "address[]"
        }
      ],
      "payable": false,
      "stateMutability": "view",
      "type": "function"
    },
    {
      "constant": true,
      "inputs": [
        {
          "name": "transactionId",
          "type": "uint256"
        }
      ],
      "name": "getConfirmations",
      "outputs": [
        {
          "name": "_confirmations",
          "type": "address[]"
        }
      ],
      "payable": false,
      "stateMutability": "view",
      "type": "function"
    },
    {
      "constant": true,
      "inputs": [
        {
          "name": "from",
          "type": "uint256"
        },
        {
          "name": "to",
          "type": "uint256"
        },
        {
          "name": "statusMask",
          "type": "uint8"
        }
      ],
      "name": "getTransactionIds",
      "outputs": [
        {
          "name": "_transactionIds",
          "type": "uint256[]"
        }
      ],
      "payable": false,
      "stateMutability": "view",
      "type": "function"
    }
  ],
  "bytecode": "0x6060604052341561000f57600080fd5b6116d18061001e6000396000f30060606040526004361061011c5763ffffffff7c0100000000000000000000000000000000000000000000000000000000600035041663173825d9811461016557806320ea8d86146101845780632f54bf6e1461019a57806331246b89146101cd5780633411c81c146101f85780637065cb481461021a578063784547a7146102395780638b51d13f1461024f5780639ace38c2146102655780639ebfddee14610314578063a0e67e2b14610386578063b5dc40c314610399578063b77bf600146103af578063ba51a6df146103c2578063be083f6d146103d8578063c01a8c841461043e578063c642747414610454578063d74f8edd146104b9578063dc8452cd146104cc578063e20056e6146104df578063ee22610b14610504575b60003411156101635733600160a060020a03167fe1fffcc4923d04b559f4d29a8bfc6cda04eb5b0d3c460751c2402c5c5cc9109c3460405190815260200160405180910390a25b005b341561017057600080fd5b610163600160a060020a036004351661051a565b341561018f57600080fd5b6101636004356106af565b34156101a557600080fd5b6101b9600160a060020a03600435166107fa565b604051901515815260200160405180910390f35b34156101d857600080fd5b6101e660ff6004351661080f565b60405190815260200160405180910390f35b341561020357600080fd5b6101b9600435600160a060020a036024351661084e565b341561022557600080fd5b610163600160a060020a036004351661086e565b341561024457600080fd5b6101b96004356109a2565b341561025a57600080fd5b6101e66004356109c3565b341561027057600080fd5b61027b600435610a2c565b604051600160a060020a03851681526020810184905260ff8216606082015260806040820181815290820184818151815260200191508051906020019080838360005b838110156102d65780820151838201526020016102be565b50505050905090810190601f1680156103035780820380516001836020036101000a031916815260200191505b509550505050505060405180910390f35b341561031f57600080fd5b61033360043560243560ff60443516610b0a565b60405160208082528190810183818151815260200191508051906020019060200280838360005b8381101561037257808201518382015260200161035a565b505050509050019250505060405180910390f35b341561039157600080fd5b610333610c05565b34156103a457600080fd5b610333600435610c6e565b34156103ba57600080fd5b6101e6610dd2565b34156103cd57600080fd5b610163600435610dd8565b34156103e357600080fd5b610163600480359060446024803590810190830135806020601f820181900481020160405190810160405281815292919060208401838380828437509496505060ff8535169460208101359450604001359250610e63915050565b341561044957600080fd5b6101636004356110b1565b341561045f57600080fd5b6101e660048035600160a060020a03169060248035919060649060443590810190830135806020601f8201819004810201604051908101604052818152929190602084018383808284375094965061119c95505050505050565b34156104c457600080fd5b6101e66111bb565b34156104d757600080fd5b6101e66111c0565b34156104ea57600080fd5b610163600160a060020a03600435811690602435166111c6565b341561050f57600080fd5b610163600435611374565b600030600160a060020a031633600160a060020a031614151561053c57600080fd5b600160a060020a038216600090815260026020526040902054829060ff16151561056557600080fd5b600160a060020a0383166000908152600260205260408120805460ff1916905591505b600354600019018210156106485782600160a060020a03166003838154811015156105af57fe5b600091825260209091200154600160a060020a0316141561063d576003805460001981019081106105dc57fe5b60009182526020909120015460038054600160a060020a03909216918490811061060257fe5b6000918252602090912001805473ffffffffffffffffffffffffffffffffffffffff1916600160a060020a0392909216919091179055610648565b816001019150610588565b60038054600019019061065b90826115d2565b5060035460045411156106745760035461067490610dd8565b82600160a060020a03167f8001553a916ef2f495d26a907cc54d96ed840d7bda71e73194bf5a9df7a76b9060405160405180910390a2505050565b33600160a060020a0381166000908152600260205260408120549091829160ff1615156106db57600080fd5b600084815260016020908152604080832033600160a060020a038116855292529091205485919060ff16151561071057600080fd5b600086815260208190526040902060030154869060ff811690600c161561073657600080fd5b6000888152600160209081526040808320600160a060020a033316808552925291829020805460ff1916905589917ff6a317157440607f36269043eb55f1287a5a19ba2216afeab88cd46cbcfb88e9905160405180910390a3610798886109c3565b96508615156107f0576000888152602081905260409081902060038101805460ff19166008179055965088907fc41d93b8bfbf9fd7cf5bfe271fd649ab6a6fec0ea101c23b82a2a28eca2533a9905160405180910390a25b5050505050505050565b60026020526000908152604090205460ff1681565b6000805b60055481101561084857600081815260208190526040902060030154831660ff1615610840576001820191505b600101610813565b50919050565b600160209081526000928352604080842090915290825290205460ff1681565b30600160a060020a031633600160a060020a031614151561088e57600080fd5b600160a060020a038116600090815260026020526040902054819060ff16156108b657600080fd5b81600160a060020a03811615156108cc57600080fd5b60038054905060010160045460328211806108e657508181115b806108ef575080155b806108f8575081155b1561090257600080fd5b600160a060020a0385166000908152600260205260409020805460ff19166001908117909155600380549091810161093a83826115d2565b506000918252602090912001805473ffffffffffffffffffffffffffffffffffffffff1916600160a060020a0387169081179091557ff39e6e1eb0edcf53c221607b54b00cd28f3196fed0a24994dc308b8f611b682d60405160405180910390a25050505050565b6000806109ae836109c3565b90506004548114156108485760019150610848565b6000805b60035481101561084857600083815260016020526040812060038054919291849081106109f057fe5b6000918252602080832090910154600160a060020a0316835282019290925260400190205460ff1615610a24576001820191505b6001016109c7565b60006020528060005260406000206000915090508060000160009054906101000a9004600160a060020a031690806001015490806002018054600181600116156101000203166002900480601f016020809104026020016040519081016040528092919081815260200182805460018160011615610100020316600290048015610af75780601f10610acc57610100808354040283529160200191610af7565b820191906000526020600020905b815481529060010190602001808311610ada57829003601f168201915b5050506003909301549192505060ff1684565b610b126115fb565b610b1a6115fb565b600080600554604051805910610b2d5750595b9080825280602002602001820160405250925060009150600090505b600554811015610b9657600081815260208190526040902060030154851660ff1615610b8e5780838381518110610b7c57fe5b60209081029091010152600191909101905b600101610b49565b868603604051805910610ba65750595b908082528060200260200182016040525093508690505b85811015610bfb57828181518110610bd157fe5b906020019060200201518488830381518110610be957fe5b60209081029091010152600101610bbd565b5050509392505050565b610c0d6115fb565b6003805480602002602001604051908101604052809291908181526020018280548015610c6357602002820191906000526020600020905b8154600160a060020a03168152600190910190602001808311610c45575b505050505090505b90565b610c766115fb565b610c7e6115fb565b6003546000908190604051805910610c935750595b9080825280602002602001820160405250925060009150600090505b600354811015610d5b5760008581526001602052604081206003805491929184908110610cd857fe5b6000918252602080832090910154600160a060020a0316835282019290925260400190205460ff1615610d53576003805482908110610d1357fe5b600091825260209091200154600160a060020a0316838381518110610d3457fe5b600160a060020a03909216602092830290910190910152600191909101905b600101610caf565b81604051805910610d695750595b90808252806020026020018201604052509350600090505b81811015610dca57828181518110610d9557fe5b90602001906020020151848281518110610dab57fe5b600160a060020a03909216602092830290910190910152600101610d81565b505050919050565b60055481565b30600160a060020a031633600160a060020a0316141515610df857600080fd5b600354816032821180610e0a57508181115b80610e13575080155b80610e1c575081155b15610e2657600080fd5b60048390557fa3f1ee9126a074d9326c682f561767f710e927faa811f7a99829d49dc421797a8360405190815260200160405180910390a1505050565b610e6b6115fb565b6000868152602081905260408120600301548190889060ff161515610e8f57600080fd5b6040805190810160405280601c81526020017f19457468657265756d205369676e6564204d6573736167653a0a33320000000081525093508789306040518084805190602001908083835b60208310610ef95780518252601f199092019160209182019101610eda565b6001836020036101000a0380198251168184511617909252505050919091019384525050600160a060020a03166c01000000000000000000000000026020820152603401905060405180910390209250600184846040518083805190602001908083835b60208310610f7c5780518252601f199092019160209182019101610f5d565b6001836020036101000a0380198251168184511617909252505050919091019283525050602001905060405180910390208888886040516000815260200160405260405193845260ff9092166020808501919091526040808501929092526060840192909252608090920191516020810390808403906000865af1151561100257600080fd5b505060206040510351600160a060020a03811660009081526002602052604090205490925060ff16151561103557600080fd5b6000898152600160209081526040808320600160a060020a038616845290915290205460ff16151561106657600080fd5b8882600160a060020a03167f4a504a94899432a9846e1aa406dceb1bcfd538bb839071d49d1e5e23f5be30ef60405160405180910390a36110a689611374565b505050505050505050565b33600160a060020a03811660009081526002602052604090205460ff1615156110d957600080fd5b600082815260208190526040902060030154829060ff1615156110fb57600080fd5b600083815260016020908152604080832033600160a060020a038116855292529091205484919060ff161561112f57600080fd5b6000858152600160208181526040808420600160a060020a033316808652925292839020805460ff191690921790915586917f4a504a94899432a9846e1aa406dceb1bcfd538bb839071d49d1e5e23f5be30ef905160405180910390a361119585611374565b5050505050565b60006111a98484846114d3565b90506111b4816110b1565b9392505050565b603281565b60045481565b600030600160a060020a031633600160a060020a03161415156111e857600080fd5b600160a060020a038316600090815260026020526040902054839060ff16151561121157600080fd5b600160a060020a038316600090815260026020526040902054839060ff161561123957600080fd5b600092505b6003548310156112d25784600160a060020a031660038481548110151561126157fe5b600091825260209091200154600160a060020a031614156112c7578360038481548110151561128c57fe5b6000918252602090912001805473ffffffffffffffffffffffffffffffffffffffff1916600160a060020a03929092169190911790556112d2565b82600101925061123e565b600160a060020a03808616600081815260026020526040808220805460ff199081169091559388168252908190208054909316600117909255907f8001553a916ef2f495d26a907cc54d96ed840d7bda71e73194bf5a9df7a76b90905160405180910390a283600160a060020a03167ff39e6e1eb0edcf53c221607b54b00cd28f3196fed0a24994dc308b8f611b682d60405160405180910390a25050505050565b600081815260208190526040812060030154829060ff811690600c161561139a57600080fd5b6113a3846109a2565b156114cd576000848152602081905260409081902060038101805460ff1916600417905580546001820154919550600160a060020a03169160028601905180828054600181600116156101000203166002900480156114435780601f1061141857610100808354040283529160200191611443565b820191906000526020600020905b81548152906001019060200180831161142657829003601f168201915b505091505060006040518083038185875af1925050501561149057837f33e13ecb54c3076d8e8bb8c2881800a4d972b792045ffae98fdf46df365fed7560405160405180910390a26114cd565b837f526441bb6c1aba3c9a4a6ca1d6545da9c2333c8c48343ef398eb858d72b7923660405160405180910390a260038301805460ff191660021790555b50505050565b600083600160a060020a03811615156114eb57600080fd5b600554915060806040519081016040908152600160a060020a0387168252602080830187905281830186905260016060840152600085815290819052208151815473ffffffffffffffffffffffffffffffffffffffff1916600160a060020a03919091161781556020820151816001015560408201518160020190805161157692916020019061160d565b506060820151600391909101805460ff191660ff90921691909117905550600580546001019055817fc0ba8fe4b176c1714197d43b9cc6bcf797a4a7461c5fe8d0ef6e184ae7601e5160405160405180910390a2509392505050565b8154818355818115116115f6576000838152602090206115f691810190830161168b565b505050565b60206040519081016040526000815290565b828054600181600116156101000203166002900490600052602060002090601f016020900481019282601f1061164e57805160ff191683800117855561167b565b8280016001018555821561167b579182015b8281111561167b578251825591602001919060010190611660565b5061168792915061168b565b5090565b610c6b91905b8082111561168757600081556001016116915600a165627a7a723058205fdc2b2453c613ca6728e6ba18ae5b7b4e1565901b92dd78c871a37aa49f1f5a0029",
  "source": "pragma solidity ^0.4.21;\n\n\n/// @title Multisignature wallet - Allows multiple parties to agree on transactions before execution.\n/// @author Stefan George - <stefan.george@consensys.net>\ncontract MultiSig {\n\n    uint constant public MAX_OWNER_COUNT = 50;\n\n    event Confirmation(address indexed sender, uint indexed transactionId);\n    event Revocation(address indexed sender, uint indexed transactionId);\n    event Submission(uint indexed transactionId);\n    event Execution(uint indexed transactionId);\n    event ExecutionFailure(uint indexed transactionId);\n    event Cancelled(uint indexed transactionId);\n    event Deposit(address indexed sender, uint value);\n    event OwnerAddition(address indexed owner);\n    event OwnerRemoval(address indexed owner);\n    event RequirementChange(uint required);\n\n    uint8 constant STATUS_NOT_INITIALIZED = 0;\n    uint8 constant STATUS_PENDING = 1 << 0;\n    uint8 constant STATUS_READY = 1 << 1;\n    uint8 constant STATUS_EXECUTED = 1 << 2;\n    uint8 constant STATUS_CANCELLED = 1 << 3;\n\n    mapping (uint => Transaction) public transactions;\n    mapping (uint => mapping (address => bool)) public confirmations;\n    mapping (address => bool) public isOwner;\n    address[] internal owners;\n    uint public required;\n    uint public transactionCount;\n\n    struct Transaction {\n        address destination;\n        uint value;\n        bytes data;\n        uint8 status;\n    }\n\n    modifier onlySelf() {\n        if (msg.sender != address(this)) {\n            revert();\n        }\n        _;\n    }\n\n    modifier ownerDoesNotExist(address owner) {\n        if (isOwner[owner]) {\n            revert();\n        }\n        _;\n    }\n\n    modifier ownerExists(address owner) {\n        if (!isOwner[owner]) {\n            revert();\n        }\n        _;\n    }\n\n    modifier transactionExists(uint transactionId) {\n        if (transactions[transactionId].status == STATUS_NOT_INITIALIZED) {\n            revert();\n        }\n        _;\n    }\n\n    modifier confirmed(uint transactionId, address owner) {\n        if (!confirmations[transactionId][owner]) {\n            revert();\n        }\n        _;\n    }\n\n    modifier notConfirmed(uint transactionId, address owner) {\n        if (confirmations[transactionId][owner]) {\n            revert();\n        }\n        _;\n    }\n\n    modifier notExecuted(uint transactionId) {\n        uint8 _status = transactions[transactionId].status;\n        if ((_status & (STATUS_EXECUTED | STATUS_CANCELLED)) != 0) {\n            revert();\n        }\n        _;\n    }\n\n    modifier notNull(address _address) {\n        if (_address == 0x0) {\n            revert();\n        }\n        _;\n    }\n\n    modifier validRequirement(uint ownerCount, uint _required) {\n        if (ownerCount > MAX_OWNER_COUNT\n            || _required > ownerCount\n            || _required == 0\n            || ownerCount == 0\n        ) {\n            revert();\n        }\n        _;\n    }\n\n    /// @dev Fallback function allows to deposit ether.\n    function()\n    payable\n    external\n    {\n        if (msg.value > 0) {\n            emit Deposit(msg.sender, msg.value);\n        }\n    }\n\n    /*\n     * Public functions\n     */\n    /// @dev Contract constructor sets initial owners and required number of confirmations.\n    function MultiSig() public {\n\n    }\n\n    /// @param _owners List of initial owners.\n    /// @param _required Number of required confirmations.\n    function _initMultiSig(address[] _owners, uint _required)\n    validRequirement(_owners.length, _required)\n    internal\n    {\n        require(required == 0);\n        owners.length = 0;\n\n        for (uint i = 0; i < _owners.length; ++i) {\n            if (isOwner[_owners[i]] || _owners[i] == 0) {\n                revert();\n            }\n            isOwner[_owners[i]] = true;\n        }\n        owners = _owners;\n        required = _required;\n    }\n\n    /// @dev Allows to add a new owner. Transaction has to be sent by wallet.\n    /// @param owner Address of new owner.\n    function addOwner(address owner)\n    onlySelf\n    ownerDoesNotExist(owner)\n    notNull(owner)\n    validRequirement(owners.length + 1, required)\n    public\n    {\n        isOwner[owner] = true;\n        owners.push(owner);\n        emit OwnerAddition(owner);\n    }\n\n    /// @dev Allows to remove an owner. Transaction has to be sent by wallet.\n    /// @param owner Address of owner.\n    function removeOwner(address owner)\n    onlySelf\n    ownerExists(owner)\n    public\n    {\n        isOwner[owner] = false;\n        for (uint i = 0; i < owners.length - 1; ++i) {\n            if (owners[i] == owner) {\n                owners[i] = owners[owners.length - 1];\n                break;\n            }\n        }\n\n        owners.length -= 1;\n        if (required > owners.length) {\n            changeRequirement(owners.length);\n        }\n        emit OwnerRemoval(owner);\n    }\n\n    /// @dev Allows to replace an owner with a new owner. Transaction has to be sent by wallet.\n    /// @param owner Address of owner to be replaced.\n    /// @param owner Address of new owner.\n    function replaceOwner(address owner, address newOwner)\n    onlySelf\n    ownerExists(owner)\n    ownerDoesNotExist(newOwner)\n    public\n    {\n        for (uint i = 0; i < owners.length; ++i) {\n            if (owners[i] == owner) {\n                owners[i] = newOwner;\n                break;\n            }\n        }\n        isOwner[owner] = false;\n        isOwner[newOwner] = true;\n\n        emit OwnerRemoval(owner);\n        emit OwnerAddition(newOwner);\n    }\n\n    /// @dev Allows to change the number of required confirmations. Transaction has to be sent by wallet.\n    /// @param _required Number of required confirmations.\n    function changeRequirement(uint _required)\n    onlySelf\n    validRequirement(owners.length, _required)\n    public\n    {\n        required = _required;\n        emit RequirementChange(_required);\n    }\n\n    /// @dev Allows an owner to submit and confirm a transaction.\n    /// @param destination Transaction target address.\n    /// @param value Transaction ether value.\n    /// @param data Transaction data payload.\n    /// @return Returns transaction ID.\n    function submitTransaction(address destination, uint value, bytes data)\n    public\n    returns (uint transactionId)\n    {\n        transactionId = addTransaction(destination, value, data);\n        confirmTransaction(transactionId);\n    }\n\n    /// @dev Allows an owner to confirm a transaction.\n    /// @param transactionId Transaction ID.\n    function confirmTransaction(uint transactionId)\n    ownerExists(msg.sender)\n    transactionExists(transactionId)\n    notConfirmed(transactionId, msg.sender)\n    public\n    {\n        confirmations[transactionId][msg.sender] = true;\n        emit Confirmation(msg.sender, transactionId);\n        executeTransaction(transactionId);\n    }\n\n    function confirmTransactionWithVRS(uint transactionId, bytes pass, uint8 v, bytes32 r, bytes32 s)\n    transactionExists(transactionId)\n    public\n    {\n        bytes memory _prefix = \"\\x19Ethereum Signed Message:\\n32\";\n        bytes32 _message = keccak256(pass, transactionId, address(this));\n        address _owner = ecrecover(keccak256(_prefix, _message), v, r, s);\n        require(isOwner[_owner]);\n        require(confirmations[transactionId][_owner]);\n\n        emit Confirmation(_owner, transactionId);\n        executeTransaction(transactionId);\n    }\n\n    /// @dev Allows an owner to revoke a confirmation for a transaction.\n    /// @param transactionId Transaction ID.\n    function revokeConfirmation(uint transactionId)\n    ownerExists(msg.sender)\n    confirmed(transactionId, msg.sender)\n    notExecuted(transactionId)\n    public\n    {\n        delete confirmations[transactionId][msg.sender];\n        emit Revocation(msg.sender, transactionId);\n        uint _count = getConfirmationCount(transactionId);\n        if (_count == 0) {\n            Transaction storage _tx = transactions[transactionId];\n            _tx.status = STATUS_CANCELLED;\n            emit Cancelled(transactionId);\n        }\n    }\n\n    /// @dev Allows anyone to execute a confirmed transaction.\n    /// @param transactionId Transaction ID.\n    function executeTransaction(uint transactionId)\n    notExecuted(transactionId)\n    public\n    {\n        if (isConfirmed(transactionId)) {\n            Transaction storage _tx = transactions[transactionId];\n            _tx.status = STATUS_EXECUTED;\n            // solium-disable security/no-call-value\n            if (_tx.destination.call.value(_tx.value)(_tx.data)) {\n                emit Execution(transactionId);\n            }\n            else {\n                emit ExecutionFailure(transactionId);\n                _tx.status = STATUS_READY;\n            }\n        }\n    }\n\n    /// @dev Returns the confirmation status of a transaction.\n    /// @param transactionId Transaction ID.\n    /// @return Confirmation status.\n    function isConfirmed(uint transactionId)\n    public\n    view\n    returns (bool)\n    {\n        uint count = getConfirmationCount(transactionId);\n        if (count == required) {\n            return true;\n        }\n    }\n\n    /*\n     * Internal functions\n     */\n    /// @dev Adds a new transaction to the transaction mapping, if transaction does not exist yet.\n    /// @param destination Transaction target address.\n    /// @param value Transaction ether value.\n    /// @param data Transaction data payload.\n    /// @return Returns transaction ID.\n    function addTransaction(address destination, uint value, bytes data)\n    notNull(destination)\n    internal\n    returns (uint transactionId)\n    {\n        transactionId = transactionCount;\n        transactions[transactionId] = Transaction({\n            destination: destination,\n            value: value,\n            data: data,\n            status: STATUS_PENDING\n        });\n        transactionCount += 1;\n        emit Submission(transactionId);\n    }\n\n    /*\n     * Web3 call functions\n     */\n    /// @dev Returns number of confirmations of a transaction.\n    /// @param transactionId Transaction ID.\n    /// @return Number of confirmations.\n    function getConfirmationCount(uint transactionId)\n    public\n    view\n    returns (uint count)\n    {\n        for (uint i = 0; i < owners.length; ++i) {\n            if (confirmations[transactionId][owners[i]]) {\n                count += 1;\n            }\n        }\n    }\n\n    /// @dev Returns total number of transactions after filers are applied.\n    /// @param statusMask mask of statuses that should be included in a fetch\n    /// @return Total number of transactions after filters are applied.\n    function getTransactionCount(uint8 statusMask)\n    public\n    view\n    returns (uint count)\n    {\n        for (uint i = 0; i < transactionCount; ++i) {\n            if ((transactions[i].status & statusMask) != 0) {\n                count += 1;\n            }\n        }\n    }\n\n    /// @dev Returns list of owners.\n    /// @return List of owner addresses.\n    function getOwners()\n    public\n    view\n    returns (address[])\n    {\n        return owners;\n    }\n\n    /// @dev Returns array with owner addresses, which confirmed transaction.\n    /// @param transactionId Transaction ID.\n    /// @return Returns array of owner addresses.\n    function getConfirmations(uint transactionId)\n    public\n    view\n    returns (address[] _confirmations)\n    {\n        address[] memory confirmationsTemp = new address[](owners.length);\n        uint count = 0;\n        uint i;\n        for (i = 0; i < owners.length; ++i) {\n            if (confirmations[transactionId][owners[i]]) {\n                confirmationsTemp[count] = owners[i];\n                count += 1;\n            }\n        }\n\n        _confirmations = new address[](count);\n        for (i = 0; i < count; ++i) {\n            _confirmations[i] = confirmationsTemp[i];\n        }\n    }\n\n    /// @dev Returns list of transaction IDs in defined range.\n    /// @param from Index start position of transaction array.\n    /// @param to Index end position of transaction array.\n    /// @param statusMask mask of statuses that should be included in a fetch\n    /// @return Returns array of transaction IDs.\n    function getTransactionIds(uint from, uint to, uint8 statusMask)\n    public\n    view\n    returns (uint[] _transactionIds)\n    {\n        uint[] memory transactionIdsTemp = new uint[](transactionCount);\n        uint count = 0;\n        uint i;\n        for (i = 0; i < transactionCount; ++i) {\n            if ((transactions[i].status & statusMask) != 0) {\n                transactionIdsTemp[count] = i;\n                count += 1;\n            }\n        }\n\n        _transactionIds = new uint[](to - from);\n        for (i = from; i < to; ++i) {\n            _transactionIds[i - from] = transactionIdsTemp[i];\n        }\n    }\n}",
  "sourcePath": "solidity-user-lib/contracts/MultiSig.sol",
  "compiler": {
    "name": "solc",
    "version": "0.4.21+commit.dfe3193c.Emscripten.clang"
  },
  "schemaVersion": "2.0.0",
  "updatedAt": "2018-08-03T14:09:06.332Z"
}