{
  "contractName": "Owned",
  "abi": [
    {
      "constant": true,
      "inputs": [],
      "name": "pendingContractOwner",
      "outputs": [
        {
          "name": "",
          "type": "address"
        }
      ],
      "payable": false,
      "stateMutability": "view",
      "type": "function"
    },
    {
      "constant": true,
      "inputs": [],
      "name": "contractOwner",
      "outputs": [
        {
          "name": "",
          "type": "address"
        }
      ],
      "payable": false,
      "stateMutability": "view",
      "type": "function"
    },
    {
      "inputs": [],
      "payable": false,
      "stateMutability": "nonpayable",
      "type": "constructor"
    },
    {
      "anonymous": false,
      "inputs": [
        {
          "indexed": true,
          "name": "previousOwner",
          "type": "address"
        },
        {
          "indexed": true,
          "name": "newOwner",
          "type": "address"
        }
      ],
      "name": "OwnershipTransferred",
      "type": "event"
    },
    {
      "constant": false,
      "inputs": [
        {
          "name": "_to",
          "type": "address"
        }
      ],
      "name": "changeContractOwnership",
      "outputs": [
        {
          "name": "",
          "type": "bool"
        }
      ],
      "payable": false,
      "stateMutability": "nonpayable",
      "type": "function"
    },
    {
      "constant": false,
      "inputs": [],
      "name": "claimContractOwnership",
      "outputs": [
        {
          "name": "",
          "type": "bool"
        }
      ],
      "payable": false,
      "stateMutability": "nonpayable",
      "type": "function"
    },
    {
      "constant": false,
      "inputs": [
        {
          "name": "newOwner",
          "type": "address"
        }
      ],
      "name": "transferOwnership",
      "outputs": [
        {
          "name": "",
          "type": "bool"
        }
      ],
      "payable": false,
      "stateMutability": "nonpayable",
      "type": "function"
    },
    {
      "constant": false,
      "inputs": [
        {
          "name": "tokens",
          "type": "address[]"
        }
      ],
      "name": "withdrawTokens",
      "outputs": [],
      "payable": false,
      "stateMutability": "nonpayable",
      "type": "function"
    },
    {
      "constant": false,
      "inputs": [],
      "name": "withdrawEther",
      "outputs": [],
      "payable": false,
      "stateMutability": "nonpayable",
      "type": "function"
    }
  ],
  "bytecode": "0x6060604052341561000f57600080fd5b60008054600160a060020a033316600160a060020a03199091161790556104e38061003b6000396000f3006060604052600436106100695763ffffffff60e060020a6000350416634592cd1d811461006e578063557f4bc9146100955780635aa77d3c146100b45780635ecb16cd146100e35780637362377b14610134578063ce606ee014610147578063f2fde38b1461015a575b600080fd5b341561007957600080fd5b610081610179565b604051901515815260200160405180910390f35b34156100a057600080fd5b610081600160a060020a0360043516610210565b34156100bf57600080fd5b6100c761026f565b604051600160a060020a03909116815260200160405180910390f35b34156100ee57600080fd5b610132600460248135818101908301358060208181020160405190810160405280939291908181526020018383602002808284375094965061027e95505050505050565b005b341561013f57600080fd5b6101326103a9565b341561015257600080fd5b6100c761040a565b341561016557600080fd5b610081600160a060020a0360043516610419565b60015460009033600160a060020a0390811691161461019a5750600061020d565b600154600054600160a060020a0391821691167f8be0079c531659141344cd1fd0a4f28419497f9722a3daafe3b4186f6b6457e060405160405180910390a350600180546000805473ffffffffffffffffffffffffffffffffffffffff19908116600160a060020a038416179091551681555b90565b6000805433600160a060020a039081169116141561026a57600160a060020a03821615156102405750600061026a565b506001805473ffffffffffffffffffffffffffffffffffffffff1916600160a060020a0383161781555b919050565b600154600160a060020a031681565b600080548190819033600160a060020a03908116911614156103a357600092505b83518310156103a3578383815181106102b457fe5b90602001906020020151915081600160a060020a03166370a082313060405160e060020a63ffffffff8416028152600160a060020a039091166004820152602401602060405180830381600087803b151561030e57600080fd5b5af1151561031b57600080fd5b505050604051805191505080156103985781600160a060020a031663a9059cbb338360405160e060020a63ffffffff8516028152600160a060020a0390921660048301526024820152604401602060405180830381600087803b151561038057600080fd5b5af1151561038d57600080fd5b505050604051805150505b60019092019161029f565b50505050565b6000805433600160a060020a03908116911614156104075750600160a060020a03301631600081111561040757600160a060020a03331681156108fc0282604051600060405180830381858888f19350505050151561040757600080fd5b50565b600054600160a060020a031681565b6000805433600160a060020a039081169116141561026a57600160a060020a03821615156104495750600061026a565b600054600160a060020a0380841691167f8be0079c531659141344cd1fd0a4f28419497f9722a3daafe3b4186f6b6457e060405160405180910390a35060008054600160a060020a03831673ffffffffffffffffffffffffffffffffffffffff1990911617905560019190505600a165627a7a723058205ff9670f68f80507c017c68075459f64f527b2a1afe737f340604a80d549dbb50029",
  "source": "/**\n * Copyright 2017–2018, LaborX PTY\n * Licensed under the AGPL Version 3 license.\n */\n\npragma solidity ^0.4.21;\n\n\nimport \"./ERC20Interface.sol\";\n\n\n/// @title Owned contract with safe ownership pass.\n///\n/// Note: all the non constant functions return false instead of throwing in case if state change\n/// didn't happen yet.\ncontract Owned {\n\n    event OwnershipTransferred(address indexed previousOwner, address indexed newOwner);\n\n    address public contractOwner;\n    address public pendingContractOwner;\n\n    modifier onlyContractOwner {\n        if (msg.sender == contractOwner) {\n            _;\n        }\n    }\n\n    function Owned() public {\n        contractOwner = msg.sender;\n    }\n\n    /// @notice Prepares ownership pass.\n    /// Can only be called by current owner.\n    /// @param _to address of the next owner.\n    /// @return success.\n    function changeContractOwnership(address _to) \n    onlyContractOwner \n    public \n    returns (bool) \n    {\n        if (_to == 0x0) {\n            return false;\n        }\n        pendingContractOwner = _to;\n        return true;\n    }\n\n    /// @notice Finalize ownership pass.\n    /// Can only be called by pending owner.\n    /// @return success.\n    function claimContractOwnership() \n    public \n    returns (bool) \n    {\n        if (msg.sender != pendingContractOwner) {\n            return false;\n        }\n\n        emit OwnershipTransferred(contractOwner, pendingContractOwner);\n        contractOwner = pendingContractOwner;\n        delete pendingContractOwner;\n        return true;\n    }\n\n\t/// @notice Allows the current owner to transfer control of the contract to a newOwner.\n\t/// @param newOwner The address to transfer ownership to.\n    function transferOwnership(address newOwner) \n    onlyContractOwner \n    public \n    returns (bool) \n    {\n        if (newOwner == 0x0) {\n            return false;\n        }\n\n        emit OwnershipTransferred(contractOwner, newOwner);\n        contractOwner = newOwner;\n        return true;\n    }\n\n    /// @notice Withdraw given tokens from contract to owner.\n    /// This method is only allowed for contact owner.\n    function withdrawTokens(address[] tokens) \n    onlyContractOwner \n    public \n    {\n        for (uint i = 0; i < tokens.length; i++) {\n            ERC20Interface token = ERC20Interface(tokens[i]);\n            uint balance = token.balanceOf(this);\n            if (balance != 0) {\n                token.transfer(msg.sender, balance);\n            }\n        }\n    }\n\n    /// @notice Withdraw ether from contract to owner.\n    /// This method is only allowed for contact owner.\n    function withdrawEther() \n    onlyContractOwner \n    external \n    {\n        uint balance = address(this).balance;\n        if (balance > 0)  {\n            msg.sender.transfer(balance);\n        }\n    }\n}\n",
  "sourcePath": "solidity-shared-lib/contracts/Owned.sol",
  "compiler": {
    "name": "solc",
    "version": "0.4.21+commit.dfe3193c.Emscripten.clang"
  },
  "schemaVersion": "2.0.0",
  "updatedAt": "2018-08-03T09:55:59.748Z"
}