{
  "contractName": "Recovery",
  "abi": [
    {
      "constant": false,
      "inputs": [
        {
          "name": "_roles2Library",
          "type": "address"
        }
      ],
      "name": "setRoles2Library",
      "outputs": [
        {
          "name": "",
          "type": "uint256"
        }
      ],
      "payable": false,
      "stateMutability": "nonpayable",
      "type": "function"
    },
    {
      "inputs": [
        {
          "name": "_roles2Library",
          "type": "address"
        }
      ],
      "payable": false,
      "stateMutability": "nonpayable",
      "type": "constructor"
    },
    {
      "anonymous": false,
      "inputs": [
        {
          "indexed": false,
          "name": "prevUser",
          "type": "address"
        },
        {
          "indexed": false,
          "name": "newUser",
          "type": "address"
        },
        {
          "indexed": false,
          "name": "userContract",
          "type": "address"
        }
      ],
      "name": "UserRecovered",
      "type": "event"
    },
    {
      "anonymous": false,
      "inputs": [
        {
          "indexed": false,
          "name": "code",
          "type": "address"
        },
        {
          "indexed": false,
          "name": "sender",
          "type": "address"
        },
        {
          "indexed": false,
          "name": "sig",
          "type": "bytes4"
        }
      ],
      "name": "AuthFailedError",
      "type": "event"
    },
    {
      "constant": false,
      "inputs": [
        {
          "name": "_userContract",
          "type": "address"
        },
        {
          "name": "_newAddress",
          "type": "address"
        }
      ],
      "name": "recoverUser",
      "outputs": [
        {
          "name": "",
          "type": "uint256"
        }
      ],
      "payable": false,
      "stateMutability": "nonpayable",
      "type": "function"
    }
  ],
  "bytecode": "0x6060604052341561000f57600080fd5b604051602080610461833981016040528080519150819050600160a060020a038116151561003c57600080fd5b60008054600160a060020a03909216600160a060020a0319909216919091179055506103f48061006d6000396000f3006060604052600436106100325763ffffffff60e060020a6000350416632637cd7d8114610037578063722c180914610068575b600080fd5b341561004257600080fd5b610056600160a060020a036004351661008d565b60405190815260200160405180910390f35b341561007357600080fd5b610056600160a060020a036004358116906024351661014b565b60006100a533600035600160e060020a0319166102ff565b151561011a577f5133a133185f1023427a2e90f18506b27db994977ce0c0faafd514a7dd109ae03033600035600160e060020a031916604051600160a060020a039384168152919092166020820152600160e060020a03199091166040808301919091526060909101905180910390a1610146565b506000805473ffffffffffffffffffffffffffffffffffffffff1916600160a060020a03831617905560015b919050565b60008061016433600035600160e060020a0319166102ff565b15156101d9577f5133a133185f1023427a2e90f18506b27db994977ce0c0faafd514a7dd109ae03033600035600160e060020a031916604051600160a060020a039384168152919092166020820152600160e060020a03199091166040808301919091526060909101905180910390a16102f8565b83600160a060020a031663ce606ee06040518163ffffffff1660e060020a028152600401602060405180830381600087803b151561021657600080fd5b5af1151561022357600080fd5b5050506040518051915050600160a060020a0384166335f2507f8460405160e060020a63ffffffff8416028152600160a060020a039091166004820152602401602060405180830381600087803b151561027c57600080fd5b5af1151561028957600080fd5b5050506040518051600114905061029f57600080fd5b7f1bc347db794ec96af040fff840bc12e98879673178c6772929e57cc5abc6a571818486604051600160a060020a03938416815291831660208301529091166040808301919091526060909101905180910390a1600191505b5092915050565b600030600160a060020a031683600160a060020a03161415610323575060016103c2565b600054600160a060020a0316151561033d575060006103c2565b600054600160a060020a031663b700961384308560405160e060020a63ffffffff8616028152600160a060020a039384166004820152919092166024820152600160e060020a03199091166044820152606401602060405180830381600087803b15156103a957600080fd5b5af115156103b657600080fd5b50505060405180519150505b929150505600a165627a7a7230582096bd77bdfb3bd69724c32a65187a3f3b2cb79bb643d840476cce19086a5656330029",
  "source": "/**\n * Copyright 2017–2018, LaborX PTY\n * Licensed under the AGPL Version 3 license.\n */\n\npragma solidity ^0.4.21;\n\n\nimport \"solidity-shared-lib/contracts/Owned.sol\";\nimport \"solidity-roles-lib/contracts/Roles2LibraryAdapter.sol\";\nimport \"./UserInterface.sol\";\n\n\n/// @title Provides centralized point to recovery function through smart contract functionality.\n/// Instead of using different recovery addresses for each user Recovery organizes moderated\n/// way (with the help of Roles2Library contract) to recover users.\ncontract Recovery is Roles2LibraryAdapter {\n\n    uint constant RECOVERY_SCOPE = 19000;\n\n    event UserRecovered(address prevUser, address newUser, UserInterface userContract);\n\n    function Recovery(address _roles2Library) Roles2LibraryAdapter(_roles2Library) public {}\n\n    /// @notice Recovers provided user to a new contract owner\n    /// Allowed only for authorized roles.\n    /// Emits UserRecovered event.\n    /// @param _userContract user contract address that is compatible with UserInterface interface\n    /// @param _newAddress address of a new contract owner\n    /// @return result of an operation\n    function recoverUser(UserInterface _userContract, address _newAddress) \n    auth \n    public \n    returns (uint) \n    {\n        address prev = Owned(_userContract).contractOwner();\n        if (OK != _userContract.recoverUser(_newAddress)) {\n            revert();\n        }\n\n        emit UserRecovered(prev, _newAddress, _userContract);\n        return OK;\n    }\n\n}\n",
  "sourcePath": "solidity-user-lib/contracts/Recovery.sol",
  "compiler": {
    "name": "solc",
    "version": "0.4.21+commit.dfe3193c.Emscripten.clang"
  },
  "schemaVersion": "2.0.0",
  "updatedAt": "2018-08-06T06:04:03.329Z"
}