{
  "contractName": "RewardService",
  "abi": [
    {
      "constant": false,
      "inputs": [
        {
          "name": "token",
          "type": "address"
        },
        {
          "name": "from",
          "type": "address"
        },
        {
          "name": "to",
          "type": "address"
        },
        {
          "name": "value",
          "type": "uint256"
        }
      ],
      "name": "transferFrom",
      "outputs": [
        {
          "name": "",
          "type": "bool"
        }
      ],
      "payable": false,
      "stateMutability": "nonpayable",
      "type": "function"
    },
    {
      "constant": true,
      "inputs": [
        {
          "name": "",
          "type": "address"
        }
      ],
      "name": "balances",
      "outputs": [
        {
          "name": "",
          "type": "uint256"
        }
      ],
      "payable": false,
      "stateMutability": "view",
      "type": "function"
    },
    {
      "constant": true,
      "inputs": [],
      "name": "rateMultiplier",
      "outputs": [
        {
          "name": "",
          "type": "uint256"
        }
      ],
      "payable": false,
      "stateMutability": "view",
      "type": "function"
    },
    {
      "constant": false,
      "inputs": [
        {
          "name": "target",
          "type": "address"
        }
      ],
      "name": "addAuthorizedAddress",
      "outputs": [],
      "payable": false,
      "stateMutability": "nonpayable",
      "type": "function"
    },
    {
      "constant": true,
      "inputs": [
        {
          "name": "",
          "type": "uint256"
        }
      ],
      "name": "authorities",
      "outputs": [
        {
          "name": "",
          "type": "address"
        }
      ],
      "payable": false,
      "stateMutability": "view",
      "type": "function"
    },
    {
      "constant": false,
      "inputs": [
        {
          "name": "target",
          "type": "address"
        }
      ],
      "name": "removeAuthorizedAddress",
      "outputs": [],
      "payable": false,
      "stateMutability": "nonpayable",
      "type": "function"
    },
    {
      "constant": true,
      "inputs": [],
      "name": "owner",
      "outputs": [
        {
          "name": "",
          "type": "address"
        }
      ],
      "payable": false,
      "stateMutability": "view",
      "type": "function"
    },
    {
      "constant": true,
      "inputs": [
        {
          "name": "",
          "type": "address"
        }
      ],
      "name": "authorized",
      "outputs": [
        {
          "name": "",
          "type": "bool"
        }
      ],
      "payable": false,
      "stateMutability": "view",
      "type": "function"
    },
    {
      "constant": true,
      "inputs": [],
      "name": "getAuthorizedAddresses",
      "outputs": [
        {
          "name": "",
          "type": "address[]"
        }
      ],
      "payable": false,
      "stateMutability": "view",
      "type": "function"
    },
    {
      "constant": true,
      "inputs": [],
      "name": "rateDivider",
      "outputs": [
        {
          "name": "",
          "type": "uint256"
        }
      ],
      "payable": false,
      "stateMutability": "view",
      "type": "function"
    },
    {
      "constant": false,
      "inputs": [
        {
          "name": "newOwner",
          "type": "address"
        }
      ],
      "name": "transferOwnership",
      "outputs": [],
      "payable": false,
      "stateMutability": "nonpayable",
      "type": "function"
    },
    {
      "constant": true,
      "inputs": [],
      "name": "token",
      "outputs": [
        {
          "name": "",
          "type": "address"
        }
      ],
      "payable": false,
      "stateMutability": "view",
      "type": "function"
    },
    {
      "inputs": [
        {
          "name": "_token",
          "type": "address"
        },
        {
          "name": "_rateMultiplier",
          "type": "uint256"
        },
        {
          "name": "_rateDivider",
          "type": "uint256"
        }
      ],
      "payable": false,
      "stateMutability": "nonpayable",
      "type": "constructor"
    },
    {
      "anonymous": false,
      "inputs": [
        {
          "indexed": false,
          "name": "to",
          "type": "address"
        },
        {
          "indexed": false,
          "name": "value",
          "type": "uint256"
        }
      ],
      "name": "Deposit",
      "type": "event"
    },
    {
      "anonymous": false,
      "inputs": [
        {
          "indexed": false,
          "name": "from",
          "type": "address"
        },
        {
          "indexed": false,
          "name": "to",
          "type": "address"
        },
        {
          "indexed": false,
          "name": "value",
          "type": "uint256"
        }
      ],
      "name": "Withdraw",
      "type": "event"
    },
    {
      "anonymous": false,
      "inputs": [
        {
          "indexed": true,
          "name": "target",
          "type": "address"
        },
        {
          "indexed": true,
          "name": "caller",
          "type": "address"
        }
      ],
      "name": "LogAuthorizedAddressAdded",
      "type": "event"
    },
    {
      "anonymous": false,
      "inputs": [
        {
          "indexed": true,
          "name": "target",
          "type": "address"
        },
        {
          "indexed": true,
          "name": "caller",
          "type": "address"
        }
      ],
      "name": "LogAuthorizedAddressRemoved",
      "type": "event"
    },
    {
      "constant": true,
      "inputs": [
        {
          "name": "_owner",
          "type": "address"
        }
      ],
      "name": "balanceOf",
      "outputs": [
        {
          "name": "balance",
          "type": "uint256"
        }
      ],
      "payable": false,
      "stateMutability": "view",
      "type": "function"
    },
    {
      "constant": false,
      "inputs": [
        {
          "name": "_to",
          "type": "address"
        },
        {
          "name": "_value",
          "type": "uint256"
        }
      ],
      "name": "deposit",
      "outputs": [
        {
          "name": "success",
          "type": "bool"
        }
      ],
      "payable": false,
      "stateMutability": "nonpayable",
      "type": "function"
    },
    {
      "constant": false,
      "inputs": [
        {
          "name": "_to",
          "type": "address"
        },
        {
          "name": "_value",
          "type": "uint256"
        }
      ],
      "name": "reward",
      "outputs": [
        {
          "name": "success",
          "type": "bool"
        }
      ],
      "payable": false,
      "stateMutability": "nonpayable",
      "type": "function"
    }
  ],
  "bytecode": "0x6060604052341561000f57600080fd5b604051606080610a9b83398101604052808051919060200180519190602001805160008054600160a060020a03338116600160a060020a03199283161790925560038054979092169616959095179094555050600555600455610a24806100776000396000f3006060604052600436106100c15763ffffffff60e060020a60003504166315dacbea81146100c657806321670f221461010857806327e235e31461012a578063330691ac1461015b57806342f1181e1461016e57806347e7ef241461018f578063494503d4146101b157806370712939146101e357806370a08231146102025780638da5cb5b14610221578063b918161114610234578063d39de6e914610253578063e0d7e1a4146102b9578063f2fde38b146102cc578063fc0c546a146102eb575b600080fd5b34156100d157600080fd5b6100f4600160a060020a03600435811690602435811690604435166064356102fe565b604051901515815260200160405180910390f35b341561011357600080fd5b6100f4600160a060020a03600435166024356103a5565b341561013557600080fd5b610149600160a060020a03600435166104b0565b60405190815260200160405180910390f35b341561016657600080fd5b6101496104c2565b341561017957600080fd5b61018d600160a060020a03600435166104c8565b005b341561019a57600080fd5b6100f4600160a060020a03600435166024356105ad565b34156101bc57600080fd5b6101c7600435610696565b604051600160a060020a03909116815260200160405180910390f35b34156101ee57600080fd5b61018d600160a060020a03600435166106be565b341561020d57600080fd5b610149600160a060020a036004351661083b565b341561022c57600080fd5b6101c7610856565b341561023f57600080fd5b6100f4600160a060020a0360043516610865565b341561025e57600080fd5b61026661087a565b60405160208082528190810183818151815260200191508051906020019060200280838360005b838110156102a557808201518382015260200161028d565b505050509050019250505060405180910390f35b34156102c457600080fd5b6101496108e3565b34156102d757600080fd5b61018d600160a060020a03600435166108e9565b34156102f657600080fd5b6101c761093f565b600160a060020a03331660009081526001602052604081205460ff16151561032557600080fd5b84600160a060020a03166323b872dd85858560405160e060020a63ffffffff8616028152600160a060020a0393841660048201529190921660248201526044810191909152606401602060405180830381600087803b151561038657600080fd5b5af1151561039357600080fd5b50505060405180519695505050505050565b600160a060020a033316600090815260066020526040812054829010156103cb57600080fd5b600160a060020a0333811660009081526006602052604090819020805485900390556003549091169063a9059cbb90859085905160e060020a63ffffffff8516028152600160a060020a0390921660048301526024820152604401602060405180830381600087803b151561043f57600080fd5b5af1151561044c57600080fd5b50505060405180519050507f9b1bfa7fa9ee420a16e124f794c35ac9f90472acc99140eb2f6447c714cad8eb338484604051600160a060020a039384168152919092166020820152604080820192909252606001905180910390a150600192915050565b60066020526000908152604090205481565b60055481565b60005433600160a060020a039081169116146104e357600080fd5b600160a060020a038116600090815260016020526040902054819060ff161561050b57600080fd5b600160a060020a0382166000908152600160208190526040909120805460ff1916821790556002805490918101610542838261099f565b506000918252602090912001805473ffffffffffffffffffffffffffffffffffffffff1916600160a060020a0384811691821790925533909116907f94bb87f4c15c4587ff559a7584006fa01ddf9299359be6b512b94527aa961aca60405160405180910390a35050565b600160a060020a033316600090815260016020526040812054819060ff1615156105d657600080fd5b6105fd6004546105f16005548661094e90919063ffffffff16565b9063ffffffff61097916565b600160a060020a038516600090815260066020526040902054909150610629908263ffffffff61099016565b600160a060020a03851660009081526006602052604090819020919091557fe1fffcc4923d04b559f4d29a8bfc6cda04eb5b0d3c460751c2402c5c5cc9109c908590839051600160a060020a03909216825260208201526040908101905180910390a15060019392505050565b60028054829081106106a457fe5b600091825260209091200154600160a060020a0316905081565b6000805433600160a060020a039081169116146106da57600080fd5b600160a060020a038216600090815260016020526040902054829060ff16151561070357600080fd5b600160a060020a0383166000908152600160205260408120805460ff1916905591505b6002548210156107f65782600160a060020a031660028381548110151561074957fe5b600091825260209091200154600160a060020a031614156107eb5760028054600019810190811061077657fe5b60009182526020909120015460028054600160a060020a03909216918490811061079c57fe5b6000918252602090912001805473ffffffffffffffffffffffffffffffffffffffff1916600160a060020a03929092169190911790556002805460001901906107e5908261099f565b506107f6565b600190910190610726565b33600160a060020a031683600160a060020a03167ff5b347a1e40749dd050f5f07fbdbeb7e3efa9756903044dd29401fd1d4bb4a1c60405160405180910390a3505050565b600160a060020a031660009081526006602052604090205490565b600054600160a060020a031681565b60016020526000908152604090205460ff1681565b6108826109c8565b60028054806020026020016040519081016040528092919081815260200182805480156108d857602002820191906000526020600020905b8154600160a060020a031681526001909101906020018083116108ba575b505050505090505b90565b60045481565b60005433600160a060020a0390811691161461090457600080fd5b600160a060020a0381161561093c576000805473ffffffffffffffffffffffffffffffffffffffff1916600160a060020a0383161790555b50565b600354600160a060020a031681565b600082820283158061096a575082848281151561096757fe5b04145b151561097257fe5b9392505050565b600080828481151561098757fe5b04949350505050565b60008282018381101561097257fe5b8154818355818115116109c3576000838152602090206109c39181019083016109da565b505050565b60206040519081016040526000815290565b6108e091905b808211156109f457600081556001016109e0565b50905600a165627a7a72305820cb6b5d03db9b7f37f58fc25927f869e61bc95a884d6d36183ddf169cbd83ad7a0029",
  "source": "pragma solidity 0.4.21;\n\nimport \"../exchange/TokenTransferProxy.sol\";\nimport \"../utils/SafeMathLibrary.sol\";\n\ncontract RewardService is TokenTransferProxy {\n\n  using SafeMathLibrary for uint;\n\n  address public token;\n  uint public rateDivider;\n  uint public rateMultiplier;\n\n  mapping (address => uint) public balances;\n\n  event Deposit(address to, uint256 value);\n  event Withdraw(address from, address to, uint256 value);\n\n  function RewardService(address _token, uint _rateMultiplier, uint _rateDivider) public {\n    token = _token;\n    rateMultiplier = _rateMultiplier;\n    rateDivider = _rateDivider;\n  }\n\n  function balanceOf(address _owner) public view returns (uint balance) {\n      return balances[_owner];\n  }\n\n  function deposit(address _to, uint _value) public onlyAuthorized returns (bool success) {\n    uint amount = _value.safeMul(rateMultiplier).safeDiv(rateDivider);\n    balances[_to] = balances[_to].safeAdd(amount);\n    emit Deposit(_to, amount);\n    return true;\n  }\n\n  function reward(address _to, uint _value) public returns (bool success) {\n    require(balances[msg.sender] >= _value);\n    balances[msg.sender] -= _value;\n\n    Token(token).transfer(_to, _value);\n\n    emit Withdraw(msg.sender, _to, _value);\n    return true;\n  }\n}\n",
  "sourcePath": "/home/mdkardaev/exchange/laborx.exchange.contracts/contracts/tokens/RewardService.sol",
  "compiler": {
    "name": "solc",
    "version": "0.4.21+commit.dfe3193c.Emscripten.clang"
  },
  "schemaVersion": "2.0.0",
  "updatedAt": "2018-07-19T09:10:55.094Z"
}