{
  "contractName": "RewardService",
  "abi": [
    {
      "constant": false,
      "inputs": [
        {
          "name": "token",
          "type": "address"
        },
        {
          "name": "from",
          "type": "address"
        },
        {
          "name": "to",
          "type": "address"
        },
        {
          "name": "value",
          "type": "uint256"
        }
      ],
      "name": "transferFrom",
      "outputs": [
        {
          "name": "",
          "type": "bool"
        }
      ],
      "payable": false,
      "stateMutability": "nonpayable",
      "type": "function"
    },
    {
      "constant": true,
      "inputs": [
        {
          "name": "",
          "type": "address"
        }
      ],
      "name": "balances",
      "outputs": [
        {
          "name": "",
          "type": "uint256"
        }
      ],
      "payable": false,
      "stateMutability": "view",
      "type": "function"
    },
    {
      "constant": true,
      "inputs": [],
      "name": "rateMultiplier",
      "outputs": [
        {
          "name": "",
          "type": "uint256"
        }
      ],
      "payable": false,
      "stateMutability": "view",
      "type": "function"
    },
    {
      "constant": false,
      "inputs": [
        {
          "name": "target",
          "type": "address"
        }
      ],
      "name": "addAuthorizedAddress",
      "outputs": [],
      "payable": false,
      "stateMutability": "nonpayable",
      "type": "function"
    },
    {
      "constant": true,
      "inputs": [
        {
          "name": "",
          "type": "uint256"
        }
      ],
      "name": "authorities",
      "outputs": [
        {
          "name": "",
          "type": "address"
        }
      ],
      "payable": false,
      "stateMutability": "view",
      "type": "function"
    },
    {
      "constant": false,
      "inputs": [
        {
          "name": "target",
          "type": "address"
        }
      ],
      "name": "removeAuthorizedAddress",
      "outputs": [],
      "payable": false,
      "stateMutability": "nonpayable",
      "type": "function"
    },
    {
      "constant": true,
      "inputs": [],
      "name": "owner",
      "outputs": [
        {
          "name": "",
          "type": "address"
        }
      ],
      "payable": false,
      "stateMutability": "view",
      "type": "function"
    },
    {
      "constant": true,
      "inputs": [
        {
          "name": "",
          "type": "address"
        }
      ],
      "name": "authorized",
      "outputs": [
        {
          "name": "",
          "type": "bool"
        }
      ],
      "payable": false,
      "stateMutability": "view",
      "type": "function"
    },
    {
      "constant": true,
      "inputs": [],
      "name": "getAuthorizedAddresses",
      "outputs": [
        {
          "name": "",
          "type": "address[]"
        }
      ],
      "payable": false,
      "stateMutability": "view",
      "type": "function"
    },
    {
      "constant": true,
      "inputs": [],
      "name": "rateDivider",
      "outputs": [
        {
          "name": "",
          "type": "uint256"
        }
      ],
      "payable": false,
      "stateMutability": "view",
      "type": "function"
    },
    {
      "constant": false,
      "inputs": [
        {
          "name": "newOwner",
          "type": "address"
        }
      ],
      "name": "transferOwnership",
      "outputs": [],
      "payable": false,
      "stateMutability": "nonpayable",
      "type": "function"
    },
    {
      "constant": true,
      "inputs": [],
      "name": "token",
      "outputs": [
        {
          "name": "",
          "type": "address"
        }
      ],
      "payable": false,
      "stateMutability": "view",
      "type": "function"
    },
    {
      "inputs": [
        {
          "name": "_token",
          "type": "address"
        },
        {
          "name": "_rateMultiplier",
          "type": "uint256"
        },
        {
          "name": "_rateDivider",
          "type": "uint256"
        }
      ],
      "payable": false,
      "stateMutability": "nonpayable",
      "type": "constructor"
    },
    {
      "anonymous": false,
      "inputs": [
        {
          "indexed": true,
          "name": "_to",
          "type": "address"
        },
        {
          "indexed": false,
          "name": "_value",
          "type": "uint256"
        }
      ],
      "name": "RewardDeposit",
      "type": "event"
    },
    {
      "anonymous": false,
      "inputs": [
        {
          "indexed": true,
          "name": "_from",
          "type": "address"
        },
        {
          "indexed": true,
          "name": "_to",
          "type": "address"
        },
        {
          "indexed": false,
          "name": "_value",
          "type": "uint256"
        }
      ],
      "name": "RewardWithdraw",
      "type": "event"
    },
    {
      "anonymous": false,
      "inputs": [
        {
          "indexed": true,
          "name": "target",
          "type": "address"
        },
        {
          "indexed": true,
          "name": "caller",
          "type": "address"
        }
      ],
      "name": "TokenTransferProxyLogAuthorizedAddressAdded",
      "type": "event"
    },
    {
      "anonymous": false,
      "inputs": [
        {
          "indexed": true,
          "name": "target",
          "type": "address"
        },
        {
          "indexed": true,
          "name": "caller",
          "type": "address"
        }
      ],
      "name": "TokenTransferProxyLogAuthorizedAddressRemoved",
      "type": "event"
    },
    {
      "constant": false,
      "inputs": [
        {
          "name": "_rateMultiplier",
          "type": "uint256"
        },
        {
          "name": "_rateDivider",
          "type": "uint256"
        }
      ],
      "name": "setRate",
      "outputs": [],
      "payable": false,
      "stateMutability": "nonpayable",
      "type": "function"
    },
    {
      "constant": true,
      "inputs": [
        {
          "name": "_owner",
          "type": "address"
        }
      ],
      "name": "balanceOf",
      "outputs": [
        {
          "name": "balance",
          "type": "uint256"
        }
      ],
      "payable": false,
      "stateMutability": "view",
      "type": "function"
    },
    {
      "constant": false,
      "inputs": [
        {
          "name": "_to",
          "type": "address"
        },
        {
          "name": "_value",
          "type": "uint256"
        }
      ],
      "name": "deposit",
      "outputs": [
        {
          "name": "success",
          "type": "bool"
        }
      ],
      "payable": false,
      "stateMutability": "nonpayable",
      "type": "function"
    },
    {
      "constant": false,
      "inputs": [
        {
          "name": "_to",
          "type": "address"
        },
        {
          "name": "_value",
          "type": "uint256"
        }
      ],
      "name": "reward",
      "outputs": [
        {
          "name": "success",
          "type": "bool"
        }
      ],
      "payable": false,
      "stateMutability": "nonpayable",
      "type": "function"
    }
  ],
  "bytecode": "0x6060604052341561000f57600080fd5b604051606080610ad583398101604052808051919060200180519190602001805160008054600160a060020a03338116600160a060020a03199283161790925560038054979092169616959095179094555050600555600455610a5e806100776000396000f3006060604052600436106100cc5763ffffffff60e060020a60003504166315dacbea81146100d157806321670f221461011357806327e235e314610135578063330691ac1461016657806342f1181e1461017957806346df2ccb1461019a57806347e7ef24146101b3578063494503d4146101d5578063707129391461020757806370a08231146102265780638da5cb5b14610245578063b918161114610258578063d39de6e914610277578063e0d7e1a4146102dd578063f2fde38b146102f0578063fc0c546a1461030f575b600080fd5b34156100dc57600080fd5b6100ff600160a060020a0360043581169060243581169060443516606435610322565b604051901515815260200160405180910390f35b341561011e57600080fd5b6100ff600160a060020a03600435166024356103c9565b341561014057600080fd5b610154600160a060020a03600435166104d5565b60405190815260200160405180910390f35b341561017157600080fd5b6101546104e7565b341561018457600080fd5b610198600160a060020a03600435166104ed565b005b34156101a557600080fd5b6101986004356024356105d2565b34156101be57600080fd5b6100ff600160a060020a03600435166024356105f8565b34156101e057600080fd5b6101eb6004356106d0565b604051600160a060020a03909116815260200160405180910390f35b341561021257600080fd5b610198600160a060020a03600435166106f8565b341561023157600080fd5b610154600160a060020a0360043516610875565b341561025057600080fd5b6101eb610890565b341561026357600080fd5b6100ff600160a060020a036004351661089f565b341561028257600080fd5b61028a6108b4565b60405160208082528190810183818151815260200191508051906020019060200280838360005b838110156102c95780820151838201526020016102b1565b505050509050019250505060405180910390f35b34156102e857600080fd5b61015461091d565b34156102fb57600080fd5b610198600160a060020a0360043516610923565b341561031a57600080fd5b6101eb610979565b600160a060020a03331660009081526001602052604081205460ff16151561034957600080fd5b84600160a060020a03166323b872dd85858560405160e060020a63ffffffff8616028152600160a060020a0393841660048201529190921660248201526044810191909152606401602060405180830381600087803b15156103aa57600080fd5b5af115156103b757600080fd5b50505060405180519695505050505050565b600160a060020a033316600090815260066020526040812054829010156103ef57600080fd5b600160a060020a0333811660009081526006602052604090819020805485900390556003549091169063a9059cbb90859085905160e060020a63ffffffff8516028152600160a060020a0390921660048301526024820152604401602060405180830381600087803b151561046357600080fd5b5af1151561047057600080fd5b50505060405180519050151561048557600080fd5b82600160a060020a031633600160a060020a03167fe7062738465eeb94a11a1c866287066f7856dc0f5456df494663dfd4483b4c598460405190815260200160405180910390a350600192915050565b60066020526000908152604090205481565b60055481565b60005433600160a060020a0390811691161461050857600080fd5b600160a060020a038116600090815260016020526040902054819060ff161561053057600080fd5b600160a060020a0382166000908152600160208190526040909120805460ff191682179055600280549091810161056783826109d9565b506000918252602090912001805473ffffffffffffffffffffffffffffffffffffffff1916600160a060020a0384811691821790925533909116907fcb2a82f604ef325679a07317431ac755205e09f76b6ef06cfadaceb307e6fa6a60405160405180910390a35050565b60005433600160a060020a039081169116146105ed57600080fd5b600591909155600455565b600160a060020a033316600090815260016020526040812054819060ff16151561062157600080fd5b61064860045461063c6005548661098890919063ffffffff16565b9063ffffffff6109b316565b600160a060020a038516600090815260066020526040902054909150610674908263ffffffff6109ca16565b600160a060020a0385166000818152600660205260409081902092909255907f95bf5847357310d24f8d03d8bad76c8ee329dfd3a3cb200df21c7bd1619e93bd9083905190815260200160405180910390a25060019392505050565b60028054829081106106de57fe5b600091825260209091200154600160a060020a0316905081565b6000805433600160a060020a0390811691161461071457600080fd5b600160a060020a038216600090815260016020526040902054829060ff16151561073d57600080fd5b600160a060020a0383166000908152600160205260408120805460ff1916905591505b6002548210156108305782600160a060020a031660028381548110151561078357fe5b600091825260209091200154600160a060020a03161415610825576002805460001981019081106107b057fe5b60009182526020909120015460028054600160a060020a0390921691849081106107d657fe5b6000918252602090912001805473ffffffffffffffffffffffffffffffffffffffff1916600160a060020a039290921691909117905560028054600019019061081f90826109d9565b50610830565b600190910190610760565b33600160a060020a031683600160a060020a03167f8a7f7e536e54052ac946939f3456c13a126bf28505e67e3979d62bb749beff6e60405160405180910390a3505050565b600160a060020a031660009081526006602052604090205490565b600054600160a060020a031681565b60016020526000908152604090205460ff1681565b6108bc610a02565b600280548060200260200160405190810160405280929190818152602001828054801561091257602002820191906000526020600020905b8154600160a060020a031681526001909101906020018083116108f4575b505050505090505b90565b60045481565b60005433600160a060020a0390811691161461093e57600080fd5b600160a060020a03811615610976576000805473ffffffffffffffffffffffffffffffffffffffff1916600160a060020a0383161790555b50565b600354600160a060020a031681565b60008282028315806109a457508284828115156109a157fe5b04145b15156109ac57fe5b9392505050565b60008082848115156109c157fe5b04949350505050565b6000828201838110156109ac57fe5b8154818355818115116109fd576000838152602090206109fd918101908301610a14565b505050565b60206040519081016040526000815290565b61091a91905b80821115610a2e5760008155600101610a1a565b50905600a165627a7a72305820e084a0aea0821cb2b0a07cc157aa1533b187dd57a6dc2239b6bdff1ecf63ef450029",
  "source": "pragma solidity 0.4.21;\n\nimport \"../exchange/TokenTransferProxy.sol\";\nimport \"../utils/SafeMathLibrary.sol\";\n\ncontract RewardService is TokenTransferProxy {\n\n  using SafeMathLibrary for uint;\n\n  address public token;\n  uint public rateDivider;\n  uint public rateMultiplier;\n\n  mapping (address => uint) public balances;\n\n  event RewardDeposit(address indexed _to, uint256 _value);\n  event RewardWithdraw(address indexed _from, address indexed _to, uint256 _value);\n\n  function RewardService(address _token, uint _rateMultiplier, uint _rateDivider) public {\n    token = _token;\n    rateMultiplier = _rateMultiplier;\n    rateDivider = _rateDivider;\n  }\n\n  function setRate(uint _rateMultiplier, uint _rateDivider) public onlyOwner {\n    rateMultiplier = _rateMultiplier;\n    rateDivider = _rateDivider;\n  }\n\n  function balanceOf(address _owner) public view returns (uint balance) {\n      return balances[_owner];\n  }\n\n  function deposit(address _to, uint _value) public onlyAuthorized returns (bool success) {\n    uint amount = _value.safeMul(rateMultiplier).safeDiv(rateDivider);\n    balances[_to] = balances[_to].safeAdd(amount);\n    emit RewardDeposit(_to, amount);\n    return true;\n  }\n\n  function reward(address _to, uint _value) public returns (bool success) {\n    require(balances[msg.sender] >= _value);\n    balances[msg.sender] -= _value;\n\n    require(Token(token).transfer(_to, _value));\n\n    emit RewardWithdraw(msg.sender, _to, _value);\n    return true;\n  }\n}\n",
  "sourcePath": "/home/mdkardaev/exchange/laborx.exchange.contracts/contracts/tokens/RewardService.sol",
  "compiler": {
    "name": "solc",
    "version": "0.4.21+commit.dfe3193c.Emscripten.clang"
  },
  "schemaVersion": "2.0.0",
  "updatedAt": "2018-08-03T14:15:26.387Z"
}