{
  "contractName": "Roles2Library",
  "abi": [
    {
      "constant": false,
      "inputs": [],
      "name": "claimContractOwnership",
      "outputs": [
        {
          "name": "",
          "type": "bool"
        }
      ],
      "payable": false,
      "stateMutability": "nonpayable",
      "type": "function"
    },
    {
      "constant": false,
      "inputs": [
        {
          "name": "_to",
          "type": "address"
        }
      ],
      "name": "changeContractOwnership",
      "outputs": [
        {
          "name": "",
          "type": "bool"
        }
      ],
      "payable": false,
      "stateMutability": "nonpayable",
      "type": "function"
    },
    {
      "constant": true,
      "inputs": [],
      "name": "pendingContractOwner",
      "outputs": [
        {
          "name": "",
          "type": "address"
        }
      ],
      "payable": false,
      "stateMutability": "view",
      "type": "function"
    },
    {
      "constant": false,
      "inputs": [
        {
          "name": "tokens",
          "type": "address[]"
        }
      ],
      "name": "withdrawTokens",
      "outputs": [],
      "payable": false,
      "stateMutability": "nonpayable",
      "type": "function"
    },
    {
      "constant": false,
      "inputs": [],
      "name": "withdrawEther",
      "outputs": [],
      "payable": false,
      "stateMutability": "nonpayable",
      "type": "function"
    },
    {
      "constant": false,
      "inputs": [
        {
          "name": "_errorCode",
          "type": "uint256"
        }
      ],
      "name": "emitErrorCode",
      "outputs": [],
      "payable": false,
      "stateMutability": "nonpayable",
      "type": "function"
    },
    {
      "constant": true,
      "inputs": [],
      "name": "contractOwner",
      "outputs": [
        {
          "name": "",
          "type": "address"
        }
      ],
      "payable": false,
      "stateMutability": "view",
      "type": "function"
    },
    {
      "constant": false,
      "inputs": [
        {
          "name": "newOwner",
          "type": "address"
        }
      ],
      "name": "transferOwnership",
      "outputs": [
        {
          "name": "",
          "type": "bool"
        }
      ],
      "payable": false,
      "stateMutability": "nonpayable",
      "type": "function"
    },
    {
      "constant": true,
      "inputs": [],
      "name": "getEventsHistory",
      "outputs": [
        {
          "name": "",
          "type": "address"
        }
      ],
      "payable": false,
      "stateMutability": "view",
      "type": "function"
    },
    {
      "inputs": [
        {
          "name": "_store",
          "type": "address"
        },
        {
          "name": "_crate",
          "type": "bytes32"
        }
      ],
      "payable": false,
      "stateMutability": "nonpayable",
      "type": "constructor"
    },
    {
      "anonymous": false,
      "inputs": [
        {
          "indexed": true,
          "name": "self",
          "type": "address"
        },
        {
          "indexed": false,
          "name": "errorCode",
          "type": "uint256"
        }
      ],
      "name": "Error",
      "type": "event"
    },
    {
      "anonymous": false,
      "inputs": [
        {
          "indexed": true,
          "name": "self",
          "type": "address"
        },
        {
          "indexed": true,
          "name": "user",
          "type": "address"
        },
        {
          "indexed": true,
          "name": "role",
          "type": "uint8"
        }
      ],
      "name": "RoleAdded",
      "type": "event"
    },
    {
      "anonymous": false,
      "inputs": [
        {
          "indexed": true,
          "name": "self",
          "type": "address"
        },
        {
          "indexed": true,
          "name": "user",
          "type": "address"
        },
        {
          "indexed": true,
          "name": "role",
          "type": "uint8"
        }
      ],
      "name": "RoleRemoved",
      "type": "event"
    },
    {
      "anonymous": false,
      "inputs": [
        {
          "indexed": true,
          "name": "self",
          "type": "address"
        },
        {
          "indexed": true,
          "name": "code",
          "type": "address"
        },
        {
          "indexed": false,
          "name": "sig",
          "type": "bytes4"
        },
        {
          "indexed": true,
          "name": "role",
          "type": "uint8"
        }
      ],
      "name": "CapabilityAdded",
      "type": "event"
    },
    {
      "anonymous": false,
      "inputs": [
        {
          "indexed": true,
          "name": "self",
          "type": "address"
        },
        {
          "indexed": true,
          "name": "code",
          "type": "address"
        },
        {
          "indexed": false,
          "name": "sig",
          "type": "bytes4"
        },
        {
          "indexed": true,
          "name": "role",
          "type": "uint8"
        }
      ],
      "name": "CapabilityRemoved",
      "type": "event"
    },
    {
      "anonymous": false,
      "inputs": [
        {
          "indexed": true,
          "name": "self",
          "type": "address"
        },
        {
          "indexed": true,
          "name": "code",
          "type": "address"
        },
        {
          "indexed": false,
          "name": "sig",
          "type": "bytes4"
        }
      ],
      "name": "PublicCapabilityAdded",
      "type": "event"
    },
    {
      "anonymous": false,
      "inputs": [
        {
          "indexed": true,
          "name": "self",
          "type": "address"
        },
        {
          "indexed": true,
          "name": "code",
          "type": "address"
        },
        {
          "indexed": false,
          "name": "sig",
          "type": "bytes4"
        }
      ],
      "name": "PublicCapabilityRemoved",
      "type": "event"
    },
    {
      "anonymous": false,
      "inputs": [
        {
          "indexed": true,
          "name": "self",
          "type": "address"
        },
        {
          "indexed": false,
          "name": "errorCode",
          "type": "uint256"
        }
      ],
      "name": "ErrorCode",
      "type": "event"
    },
    {
      "anonymous": false,
      "inputs": [
        {
          "indexed": true,
          "name": "previousOwner",
          "type": "address"
        },
        {
          "indexed": true,
          "name": "newOwner",
          "type": "address"
        }
      ],
      "name": "OwnershipTransferred",
      "type": "event"
    },
    {
      "constant": true,
      "inputs": [
        {
          "name": "_user",
          "type": "address"
        },
        {
          "name": "_code",
          "type": "address"
        },
        {
          "name": "_sig",
          "type": "bytes4"
        }
      ],
      "name": "canCall",
      "outputs": [
        {
          "name": "",
          "type": "bool"
        }
      ],
      "payable": false,
      "stateMutability": "view",
      "type": "function"
    },
    {
      "constant": false,
      "inputs": [
        {
          "name": "_eventsHistory",
          "type": "address"
        }
      ],
      "name": "setupEventsHistory",
      "outputs": [
        {
          "name": "",
          "type": "uint256"
        }
      ],
      "payable": false,
      "stateMutability": "nonpayable",
      "type": "function"
    },
    {
      "constant": true,
      "inputs": [
        {
          "name": "_user",
          "type": "address"
        }
      ],
      "name": "getUserRoles",
      "outputs": [
        {
          "name": "",
          "type": "bytes32"
        }
      ],
      "payable": false,
      "stateMutability": "view",
      "type": "function"
    },
    {
      "constant": true,
      "inputs": [
        {
          "name": "_user",
          "type": "address"
        }
      ],
      "name": "isUserRoot",
      "outputs": [
        {
          "name": "",
          "type": "bool"
        }
      ],
      "payable": false,
      "stateMutability": "view",
      "type": "function"
    },
    {
      "constant": true,
      "inputs": [
        {
          "name": "_user",
          "type": "address"
        },
        {
          "name": "_role",
          "type": "uint8"
        }
      ],
      "name": "hasUserRole",
      "outputs": [
        {
          "name": "",
          "type": "bool"
        }
      ],
      "payable": false,
      "stateMutability": "view",
      "type": "function"
    },
    {
      "constant": true,
      "inputs": [
        {
          "name": "_code",
          "type": "address"
        },
        {
          "name": "_sig",
          "type": "bytes4"
        }
      ],
      "name": "getCapabilityRoles",
      "outputs": [
        {
          "name": "",
          "type": "bytes32"
        }
      ],
      "payable": false,
      "stateMutability": "view",
      "type": "function"
    },
    {
      "constant": true,
      "inputs": [
        {
          "name": "_code",
          "type": "address"
        },
        {
          "name": "_sig",
          "type": "bytes4"
        }
      ],
      "name": "isCapabilityPublic",
      "outputs": [
        {
          "name": "",
          "type": "bool"
        }
      ],
      "payable": false,
      "stateMutability": "view",
      "type": "function"
    },
    {
      "constant": false,
      "inputs": [
        {
          "name": "_user",
          "type": "address"
        },
        {
          "name": "_enabled",
          "type": "bool"
        }
      ],
      "name": "setRootUser",
      "outputs": [
        {
          "name": "",
          "type": "uint256"
        }
      ],
      "payable": false,
      "stateMutability": "nonpayable",
      "type": "function"
    },
    {
      "constant": false,
      "inputs": [
        {
          "name": "_user",
          "type": "address"
        },
        {
          "name": "_role",
          "type": "uint8"
        }
      ],
      "name": "addUserRole",
      "outputs": [
        {
          "name": "",
          "type": "uint256"
        }
      ],
      "payable": false,
      "stateMutability": "nonpayable",
      "type": "function"
    },
    {
      "constant": false,
      "inputs": [
        {
          "name": "_user",
          "type": "address"
        },
        {
          "name": "_role",
          "type": "uint8"
        }
      ],
      "name": "removeUserRole",
      "outputs": [
        {
          "name": "",
          "type": "uint256"
        }
      ],
      "payable": false,
      "stateMutability": "nonpayable",
      "type": "function"
    },
    {
      "constant": false,
      "inputs": [
        {
          "name": "_code",
          "type": "address"
        },
        {
          "name": "_sig",
          "type": "bytes4"
        },
        {
          "name": "_enabled",
          "type": "bool"
        }
      ],
      "name": "setPublicCapability",
      "outputs": [
        {
          "name": "",
          "type": "uint256"
        }
      ],
      "payable": false,
      "stateMutability": "nonpayable",
      "type": "function"
    },
    {
      "constant": false,
      "inputs": [
        {
          "name": "_role",
          "type": "uint8"
        },
        {
          "name": "_code",
          "type": "address"
        },
        {
          "name": "_sig",
          "type": "bytes4"
        }
      ],
      "name": "addRoleCapability",
      "outputs": [
        {
          "name": "",
          "type": "uint256"
        }
      ],
      "payable": false,
      "stateMutability": "nonpayable",
      "type": "function"
    },
    {
      "constant": false,
      "inputs": [
        {
          "name": "_role",
          "type": "uint8"
        },
        {
          "name": "_code",
          "type": "address"
        },
        {
          "name": "_sig",
          "type": "bytes4"
        }
      ],
      "name": "removeRoleCapability",
      "outputs": [
        {
          "name": "",
          "type": "uint256"
        }
      ],
      "payable": false,
      "stateMutability": "nonpayable",
      "type": "function"
    },
    {
      "constant": false,
      "inputs": [
        {
          "name": "_errorCode",
          "type": "uint256"
        }
      ],
      "name": "emitError",
      "outputs": [],
      "payable": false,
      "stateMutability": "nonpayable",
      "type": "function"
    },
    {
      "constant": false,
      "inputs": [
        {
          "name": "_user",
          "type": "address"
        },
        {
          "name": "_role",
          "type": "uint8"
        }
      ],
      "name": "emitRoleAdded",
      "outputs": [],
      "payable": false,
      "stateMutability": "nonpayable",
      "type": "function"
    },
    {
      "constant": false,
      "inputs": [
        {
          "name": "_user",
          "type": "address"
        },
        {
          "name": "_role",
          "type": "uint8"
        }
      ],
      "name": "emitRoleRemoved",
      "outputs": [],
      "payable": false,
      "stateMutability": "nonpayable",
      "type": "function"
    },
    {
      "constant": false,
      "inputs": [
        {
          "name": "_code",
          "type": "address"
        },
        {
          "name": "_sig",
          "type": "bytes4"
        },
        {
          "name": "_role",
          "type": "uint8"
        }
      ],
      "name": "emitCapabilityAdded",
      "outputs": [],
      "payable": false,
      "stateMutability": "nonpayable",
      "type": "function"
    },
    {
      "constant": false,
      "inputs": [
        {
          "name": "_code",
          "type": "address"
        },
        {
          "name": "_sig",
          "type": "bytes4"
        },
        {
          "name": "_role",
          "type": "uint8"
        }
      ],
      "name": "emitCapabilityRemoved",
      "outputs": [],
      "payable": false,
      "stateMutability": "nonpayable",
      "type": "function"
    },
    {
      "constant": false,
      "inputs": [
        {
          "name": "_code",
          "type": "address"
        },
        {
          "name": "_sig",
          "type": "bytes4"
        }
      ],
      "name": "emitPublicCapabilityAdded",
      "outputs": [],
      "payable": false,
      "stateMutability": "nonpayable",
      "type": "function"
    },
    {
      "constant": false,
      "inputs": [
        {
          "name": "_code",
          "type": "address"
        },
        {
          "name": "_sig",
          "type": "bytes4"
        }
      ],
      "name": "emitPublicCapabilityRemoved",
      "outputs": [],
      "payable": false,
      "stateMutability": "nonpayable",
      "type": "function"
    }
  ],
  "bytecode": "0x606060405234156200001057600080fd5b6040516040806200181383398101604052808051919060200180519150829050816200004d600083836401000000006200157c6200015e82021704565b505060028054600160a060020a03191633600160a060020a0316179055620000a560057f726f6f7455736572730000000000000000000000000000000000000000000000640100000000620001848102620015af1704565b620000e060067f75736572526f6c65730000000000000000000000000000000000000000000000640100000000620015af6200018482021704565b6200011b60077f6361706162696c697479526f6c65730000000000000000000000000000000000640100000000620015af6200018482021704565b6200015660087f7075626c69634361706162696c69746965730000000000000000000000000000640100000000620015af6200018482021704565b5050620001da565b8254600160a060020a031916600160a060020a0392909216919091178255600190910155565b6200019e8282640100000000620015d7620001a282021704565b5050565b8154620001be9082640100000000620015e7620001c282021704565b9055565b81151580620001cf575080155b156200019e57600080fd5b61162980620001ea6000396000f30060606040526004361061015a5763ffffffff60e060020a600035041662a81ef6811461015f57806302927d201461018657806306a36aee146101b75780630a7a2fef146101d657806327538e90146102085780632f47571f146102345780634592cd1d14610274578063557f4bc914610287578063588cff4c146102a65780635aa77d3c146102d25780635ecb16cd146103015780637362377b146103505780637977f708146103635780638834277e1461039557806395725d8a146103ab5780639a75aa06146103d05780639ae0140c146103fc578063a078f7371461042e578063b44f794f14610453578063b700961314610478578063c6b0263e146104aa578063ce606ee0146104db578063d0d9e21d146104ee578063d381ba7c14610520578063df26ca0814610544578063e1e092991461055a578063f2fde38b1461057f578063fbf807731461059e578063fff10aba146105bd575b600080fd5b341561016a57600080fd5b610184600160a060020a036004351660ff602435166105d0565b005b341561019157600080fd5b6101a5600160a060020a036004351661061f565b60405190815260200160405180910390f35b34156101c257600080fd5b6101a5600160a060020a036004351661064d565b34156101e157600080fd5b610184600160a060020a0360043516600160e060020a03196024351660ff60443516610667565b341561021357600080fd5b6101a5600160a060020a0360043516600160e060020a0319602435166106c9565b341561023f57600080fd5b610260600160a060020a0360043516600160e060020a0319602435166106e5565b604051901515815260200160405180910390f35b341561027f57600080fd5b6102606106fa565b341561029257600080fd5b610260600160a060020a0360043516610793565b34156102b157600080fd5b610184600160a060020a0360043516600160e060020a0319602435166107f7565b34156102dd57600080fd5b6102e5610854565b604051600160a060020a03909116815260200160405180910390f35b341561030c57600080fd5b610184600460248135818101908301358060208181020160405190810160405280939291908181526020018383602002808284375094965061086395505050505050565b341561035b57600080fd5b610184610990565b341561036e57600080fd5b6101a560ff60043516600160a060020a0360243516600160e060020a0319604435166109f3565b34156103a057600080fd5b610184600435610a22565b34156103b657600080fd5b610184600160a060020a036004351660ff60243516610a69565b34156103db57600080fd5b610184600160a060020a0360043516600160e060020a031960243516610ab8565b341561040757600080fd5b6101a560ff60043516600160a060020a0360243516600160e060020a031960443516610b15565b341561043957600080fd5b610260600160a060020a036004351660ff60243516610b5e565b341561045e57600080fd5b6101a5600160a060020a036004351660ff60243516610b7c565b341561048357600080fd5b610260600160a060020a0360043581169060243516600160e060020a031960443516610bea565b34156104b557600080fd5b6101a5600160a060020a0360043516600160e060020a0319602435166044351515610c30565b34156104e657600080fd5b6102e5610d5f565b34156104f957600080fd5b610184600160a060020a0360043516600160e060020a03196024351660ff60443516610d6e565b341561052b57600080fd5b6101a5600160a060020a03600435166024351515610dd0565b341561054f57600080fd5b610184600435610e07565b341561056557600080fd5b6101a5600160a060020a036004351660ff60243516610e4e565b341561058a57600080fd5b610260600160a060020a0360043516610eb4565b34156105a957600080fd5b610260600160a060020a0360043516610f54565b34156105c857600080fd5b6102e5610f68565b8060ff1682600160a060020a03166105e6610f8c565b600160a060020a03167f7577662ae5b32920f85a4b61fb99f5f5b9fd3f8e937ac15fe8b8a0a19e90fa0f60405160405180910390a45050565b60025460009033600160a060020a03908116911614156106485761064282610f90565b50600190505b919050565b60006106618160068463ffffffff610fc116565b92915050565b8060ff1683600160a060020a031661067d610f8c565b600160a060020a03167ff820011dd31265ef4cfb8740f75367415191173d0f08b32fb5401d2a0dc1847b85604051600160e060020a0319909116815260200160405180910390a4505050565b60006106de816007858563ffffffff610fd716565b9392505050565b60006106de816008858563ffffffff61100116565b60035460009033600160a060020a0390811691161461071b57506000610790565b600354600254600160a060020a0391821691167f8be0079c531659141344cd1fd0a4f28419497f9722a3daafe3b4186f6b6457e060405160405180910390a350600380546002805473ffffffffffffffffffffffffffffffffffffffff19908116600160a060020a0384161790915516905560015b90565b60025460009033600160a060020a039081169116141561064857600160a060020a03821615156107c557506000610648565b5060038054600160a060020a03831673ffffffffffffffffffffffffffffffffffffffff199091161790556001919050565b81600160a060020a0316610809610f8c565b600160a060020a03167fe74cc03efe60f26af9bb6b27883577bbbd981555b1a070b15aace44960d0ef1f83604051600160e060020a0319909116815260200160405180910390a35050565b600354600160a060020a031681565b6002546000908190819033600160a060020a039081169116141561098a57600092505b835183101561098a5783838151811061089b57fe5b90602001906020020151915081600160a060020a03166370a082313060405160e060020a63ffffffff8416028152600160a060020a039091166004820152602401602060405180830381600087803b15156108f557600080fd5b5af1151561090257600080fd5b5050506040518051915050801561097f5781600160a060020a031663a9059cbb338360405160e060020a63ffffffff8516028152600160a060020a0390921660048301526024820152604401602060405180830381600087803b151561096757600080fd5b5af1151561097457600080fd5b505050604051805150505b600190920191610886565b50505050565b60025460009033600160a060020a03908116911614156109f05750600160a060020a0330163160008111156109f057600160a060020a03331681156108fc0282604051600060405180830381858888f1935050505015156109f057600080fd5b50565b60025460009033600160a060020a03908116911614156106de57610a1a848484600161102a565b949350505050565b610a2a610f8c565b600160a060020a03167f09e0713b45664e161c202b19bb4574ee83dfa056f9bfdee56847b3971d9682218260405190815260200160405180910390a250565b8060ff1682600160a060020a0316610a7f610f8c565b600160a060020a03167faefc6303247f6e535a84463aeb8ae70719e1d40a8d6800dc8efa455b1e1fb33f60405160405180910390a45050565b81600160a060020a0316610aca610f8c565b600160a060020a03167f67813b7923deedd38ecb1624185361da00646f2a5066850b99e5fddcec1708b483604051600160e060020a0319909116815260200160405180910390a35050565b60025460009033600160a060020a03908116911614156106de57610b3983836106c9565b1515610b5157610b4a614e23611199565b90506106de565b610a1a848484600061102a565b6000610b69826111fe565b610b728461064d565b1615159392505050565b60025460009033600160a060020a03908116911614801590610bb25750610bb03330600035600160e060020a031916610bea565b155b15610bbc57610661565b610bc68383610b5e565b1515610bde57610bd7614e23611199565b9050610661565b6106de83836000611207565b6000610bf584610f54565b80610c055750610c0583836106e5565b15610c12575060016106de565b610c1c83836106c9565b610c258561064d565b161515949350505050565b60025460009033600160a060020a03908116911614156106de57610c5f6000600886868663ffffffff61135116565b8115610cdf57610c6d611380565b600160a060020a0316639a75aa06858560405160e060020a63ffffffff8516028152600160a060020a039092166004830152600160e060020a0319166024820152604401600060405180830381600087803b1515610cca57600080fd5b5af11515610cd757600080fd5b505050610d55565b610ce7611380565b600160a060020a031663588cff4c858560405160e060020a63ffffffff8516028152600160a060020a039092166004830152600160e060020a0319166024820152604401600060405180830381600087803b1515610d4457600080fd5b5af11515610d5157600080fd5b5050505b5060019392505050565b600254600160a060020a031681565b8060ff1683600160a060020a0316610d84610f8c565b600160a060020a03167facf87e9240a04c36449fb09028711a68d4e3a4df32931c5df0dfc54acae5202385604051600160e060020a0319909116815260200160405180910390a4505050565b60025460009033600160a060020a039081169116141561066157610dfe60006005858563ffffffff61138f16565b50600192915050565b610e0f610f8c565b600160a060020a03167f9cf38cf2dbf9139f5c32639950507b10775fbbe0421f3e168bc2d1bb1ae3208c8260405190815260200160405180910390a250565b60025460009033600160a060020a03908116911614801590610e845750610e823330600035600160e060020a031916610bea565b155b15610e8e57610661565b610e988383610b5e565b15610ea857610bd7614e21611199565b6106de83836001611207565b60025460009033600160a060020a039081169116141561064857600160a060020a0382161515610ee657506000610648565b600254600160a060020a0380841691167f8be0079c531659141344cd1fd0a4f28419497f9722a3daafe3b4186f6b6457e060405160405180910390a35060028054600160a060020a03831673ffffffffffffffffffffffffffffffffffffffff199091161790556001919050565b60006106618160058463ffffffff6113ac16565b600454600090600160a060020a0316801515610f845730610f86565b805b91505090565b3390565b60048054600160a060020a03831673ffffffffffffffffffffffffffffffffffffffff199091161790556001919050565b6000610a1a8484600160a060020a0385166113c1565b6000610ff88585600160a060020a038616600160e060020a0319861661144e565b95945050505050565b6000610ff86110258686600160a060020a038716600160e060020a0319871661144e565b611473565b600080600061103986866106c9565b9150611044876111fe565b905083156110e85761106360006007888886861763ffffffff61147816565b61106b611380565b600160a060020a031663d0d9e21d87878a60405160e060020a63ffffffff8616028152600160a060020a039093166004840152600160e060020a0319909116602483015260ff166044820152606401600060405180830381600087803b15156110d357600080fd5b5af115156110e057600080fd5b50505061118c565b61110b600787876110f885611498565b600093929190871663ffffffff61147816565b611113611380565b600160a060020a0316630a7a2fef87878a60405160e060020a63ffffffff8616028152600160a060020a039093166004840152600160e060020a0319909116602483015260ff166044820152606401600060405180830381600087803b151561117b57600080fd5b5af1151561118857600080fd5b5050505b5060019695505050505050565b60006111a3611380565b600160a060020a031663df26ca088360405160e060020a63ffffffff84160281526004810191909152602401600060405180830381600087803b15156111e857600080fd5b5af115156111f557600080fd5b50929392505050565b60ff1660020a90565b60008060006112158661064d565b9150611220856111fe565b905083156112b55761123e600060068885851763ffffffff61149f16565b611246611380565b600160a060020a03166395725d8a878760405160e060020a63ffffffff8516028152600160a060020a03909216600483015260ff166024820152604401600060405180830381600087803b151561129c57600080fd5b5af115156112a957600080fd5b50505060019250611348565b6112d66006876112c484611498565b6000929190861663ffffffff61149f16565b6112de611380565b600160a060020a031662a81ef6878760405160e060020a63ffffffff8516028152600160a060020a03909216600483015260ff166024820152604401600060405180830381600087803b151561133357600080fd5b5af1151561134057600080fd5b505050600192505b50509392505050565b6113798585600160a060020a038616600160e060020a03198616611374866114b4565b6114ce565b5050505050565b600061138a610f68565b905090565b61098a8484600160a060020a0385166113a7856114b4565b6114ee565b6000610a1a6110258585600160a060020a0386165b825460018401548354600092600160a060020a0316916337d9d7fc9185604051918252602082015260409081019051809103902060405160e060020a63ffffffff851602815260048101929092526024820152604401602060405180830381600087803b151561143057600080fd5b5af1151561143d57600080fd5b505050604051805195945050505050565b6000610ff88585858560405191825260208201526040908101905180910390206113c1565b151590565b6113798585600160a060020a038616600160e060020a03198616856114ce565b6000191890565b61098a8484600160a060020a038516846114ee565b6000816114c25760006114c5565b60015b60ff1692915050565b611379858585856040519182526020820152604090810190518091039020845b835460018501548454600160a060020a039092169163a14ff85791908560405191825260208201526040908101905180910390208460405160e060020a63ffffffff8616028152600481019390935260248301919091526044820152606401600060405180830381600087803b151561156657600080fd5b5af1151561157357600080fd5b50505050505050565b825473ffffffffffffffffffffffffffffffffffffffff1916600160a060020a0392909216919091178255600190910155565b6115b982826115d7565b5050565b6115b982826115d7565b6115b982826115d7565b6115b982825b81546115e390826115e7565b9055565b811515806115f3575080155b156115b957600080fd00a165627a7a72305820cf32661da198f7ab31f3b3eca485cc22056972a409b78c9fa4117cda607253580029",
  "source": "/**\n * Copyright 20172018, LaborX PTY\n * Licensed under the AGPL Version 3 license.\n */\n\npragma solidity ^0.4.21;\n\n\nimport \"solidity-storage-lib/contracts/StorageAdapter.sol\";\nimport \"solidity-shared-lib/contracts/Owned.sol\";\nimport \"solidity-eventshistory-lib/contracts/MultiEventsHistoryAdapter.sol\";\n\n\ncontract Roles2Library is StorageAdapter, Owned, MultiEventsHistoryAdapter {\n\n    uint constant OK = 1;\n\n    uint constant ROLES_SCOPE = 20000;\n    uint constant ROLES_ALREADY_EXISTS = ROLES_SCOPE + 1;\n    uint constant ROLES_INVALID_INVOCATION = ROLES_SCOPE + 2;\n    uint constant ROLES_NOT_FOUND = ROLES_SCOPE + 3;\n\n    event Error(address indexed self, uint errorCode);\n    event RoleAdded(address indexed self, address indexed user, uint8 indexed role);\n    event RoleRemoved(address indexed self, address indexed user, uint8 indexed role);\n    event CapabilityAdded(address indexed self, address indexed code, bytes4 sig, uint8 indexed role);\n    event CapabilityRemoved(address indexed self, address indexed code, bytes4 sig, uint8 indexed role);\n    event PublicCapabilityAdded(address indexed self, address indexed code, bytes4 sig);\n    event PublicCapabilityRemoved(address indexed self, address indexed code, bytes4 sig);\n\n    StorageInterface.AddressBoolMapping internal rootUsers;\n    StorageInterface.AddressBytes32Mapping internal userRoles;\n    StorageInterface.AddressBytes4Bytes32Mapping internal capabilityRoles;\n    StorageInterface.AddressBytes4BoolMapping internal publicCapabilities;\n\n    modifier authorized {\n        if (msg.sender != contractOwner && !canCall(msg.sender, this, msg.sig)) {\n            return;\n        }\n        _;\n    }\n\n    function Roles2Library(Storage _store, bytes32 _crate) StorageAdapter(_store, _crate) public {\n        rootUsers.init(\"rootUsers\");\n        userRoles.init(\"userRoles\");\n        capabilityRoles.init(\"capabilityRoles\");\n        publicCapabilities.init(\"publicCapabilities\");\n    }\n\n    function canCall(\n        address _user, \n        address _code, \n        bytes4 _sig\n    ) \n    public \n    view \n    returns (bool) \n    {\n        if (isUserRoot(_user) || isCapabilityPublic(_code, _sig)) {\n            return true;\n        }\n        return bytes32(0) != getUserRoles(_user) & getCapabilityRoles(_code, _sig);\n    }\n\n    function setupEventsHistory(address _eventsHistory) \n    onlyContractOwner \n    external \n    returns (uint) \n    {\n        _setEventsHistory(_eventsHistory);\n        return OK;        \n    }\n\n    function getUserRoles(address _user) \n    public \n    view \n    returns (bytes32) \n    {\n        return store.get(userRoles, _user);\n    }\n\n    function isUserRoot(address _user) \n    public \n    view \n    returns (bool) \n    {\n        return store.get(rootUsers, _user);\n    }\n\n    function hasUserRole(address _user, uint8 _role) \n    public \n    view \n    returns (bool) \n    {\n        return bytes32(0) != (getUserRoles(_user) & _shift(_role));\n    }\n\n    function getCapabilityRoles(\n        address _code, \n        bytes4 _sig\n    ) \n    public \n    view \n    returns (bytes32) \n    {\n        return store.get(capabilityRoles, _code, _sig);\n    }\n\n    function isCapabilityPublic(\n        address _code, \n        bytes4 _sig\n    ) \n    public \n    view \n    returns (bool) \n    {\n        return store.get(publicCapabilities, _code, _sig);\n    }\n\n    function setRootUser(\n        address _user, \n        bool _enabled\n    ) \n    onlyContractOwner \n    external \n    returns (uint) \n    {\n        store.set(rootUsers, _user, _enabled);\n        return OK;\n    }\n\n    function addUserRole(\n        address _user, \n        uint8 _role\n    ) \n    authorized \n    external \n    returns (uint) \n    {\n        if (hasUserRole(_user, _role)) {\n            return _emitErrorCode(ROLES_ALREADY_EXISTS);\n        }\n\n        return _setUserRole(_user, _role, true);\n    }\n\n    function removeUserRole(\n        address _user, \n        uint8 _role\n    ) \n    authorized \n    external \n    returns (uint) \n    {\n        if (!hasUserRole(_user, _role)) {\n            return _emitErrorCode(ROLES_NOT_FOUND);\n        }\n\n        return _setUserRole(_user, _role, false);\n    }\n\n    function setPublicCapability(\n        address _code, \n        bytes4 _sig, \n        bool _enabled\n    ) \n    onlyContractOwner \n    external \n    returns (uint) \n    {\n        store.set(publicCapabilities, _code, _sig, _enabled);\n\n        if (_enabled) {\n            _getEmitter().emitPublicCapabilityAdded(_code, _sig);\n        } else {\n            _getEmitter().emitPublicCapabilityRemoved(_code, _sig);\n        }\n        return OK;\n    }\n\n    function addRoleCapability(\n        uint8 _role, \n        address _code, \n        bytes4 _sig\n    ) \n    onlyContractOwner \n    public \n    returns (uint) \n    {\n        return _setRoleCapability(_role, _code, _sig, true);\n    }\n\n    function removeRoleCapability(\n        uint8 _role, \n        address _code, \n        bytes4 _sig\n    ) \n    onlyContractOwner \n    public \n    returns (uint) \n    {\n        if (getCapabilityRoles(_code, _sig) == 0) {\n            return _emitErrorCode(ROLES_NOT_FOUND);\n        }\n\n        return _setRoleCapability(_role, _code, _sig, false);\n    }\n\n    function _setUserRole(\n        address _user, \n        uint8 _role, \n        bool _enabled\n    ) \n    internal \n    returns (uint) \n    {\n        bytes32 lastRoles = getUserRoles(_user);\n        bytes32 shifted = _shift(_role);\n\n        if (_enabled) {\n            store.set(userRoles, _user, lastRoles | shifted);\n            _getEmitter().emitRoleAdded(_user, _role);\n            return OK;\n        }\n\n        store.set(userRoles, _user, lastRoles & _bitNot(shifted));\n        _getEmitter().emitRoleRemoved(_user, _role);\n        return OK;\n    }\n\n    function _setRoleCapability(\n        uint8 _role, \n        address _code, \n        bytes4 _sig, \n        bool _enabled\n    ) \n    internal \n    returns (uint) \n    {\n        bytes32 lastRoles = getCapabilityRoles(_code, _sig);\n        bytes32 shifted = _shift(_role);\n\n        if (_enabled) {\n            store.set(capabilityRoles, _code, _sig, lastRoles | shifted);\n            _getEmitter().emitCapabilityAdded(_code, _sig, _role);\n        } else {\n            store.set(capabilityRoles, _code, _sig, lastRoles & _bitNot(shifted));\n            _getEmitter().emitCapabilityRemoved(_code, _sig, _role);\n        }\n\n        return OK;\n    }\n\n    function _shift(uint8 _role) private pure returns (bytes32) {\n        return bytes32(uint(uint(2) ** uint(_role)));\n    }\n\n    function _bitNot(bytes32 _input) private pure returns (bytes32) {\n        return (_input ^ bytes32(uint(-1)));\n    }\n\n    function _getEmitter() private view returns (Roles2Library) {\n        return Roles2Library(getEventsHistory());\n    }\n\n    function _emitErrorCode(uint _errorCode) internal returns (uint) {\n        _getEmitter().emitError(_errorCode);\n        return _errorCode;\n    }\n\n    function emitError(uint _errorCode) public {\n        emit Error(_self(), _errorCode);\n    }\n\n    function emitRoleAdded(address _user, uint8 _role) public {\n        emit RoleAdded(_self(), _user, _role);\n    }\n\n    function emitRoleRemoved(address _user, uint8 _role) public {\n        emit RoleRemoved(_self(), _user, _role);\n    }\n\n    function emitCapabilityAdded(address _code, bytes4 _sig, uint8 _role) public {\n        emit CapabilityAdded(_self(), _code, _sig, _role);\n    }\n\n    function emitCapabilityRemoved(address _code, bytes4 _sig, uint8 _role) public {\n        emit CapabilityRemoved(_self(), _code, _sig, _role);\n    }\n\n    function emitPublicCapabilityAdded(address _code, bytes4 _sig) public {\n        emit PublicCapabilityAdded(_self(), _code, _sig);\n    }\n\n    function emitPublicCapabilityRemoved(address _code, bytes4 _sig) public {\n        emit PublicCapabilityRemoved(_self(), _code, _sig);\n    }\n}\n",
  "sourcePath": "solidity-roles-lib/contracts/Roles2Library.sol",
  "compiler": {
    "name": "solc",
    "version": "0.4.21+commit.dfe3193c.Emscripten.clang"
  },
  "schemaVersion": "2.0.0",
  "updatedAt": "2018-07-19T09:10:23.266Z"
}