{
  "contractName": "Roles2Library",
  "abi": [
    {
      "constant": false,
      "inputs": [],
      "name": "claimContractOwnership",
      "outputs": [
        {
          "name": "",
          "type": "bool"
        }
      ],
      "payable": false,
      "stateMutability": "nonpayable",
      "type": "function"
    },
    {
      "constant": false,
      "inputs": [
        {
          "name": "_to",
          "type": "address"
        }
      ],
      "name": "changeContractOwnership",
      "outputs": [
        {
          "name": "",
          "type": "bool"
        }
      ],
      "payable": false,
      "stateMutability": "nonpayable",
      "type": "function"
    },
    {
      "constant": true,
      "inputs": [],
      "name": "pendingContractOwner",
      "outputs": [
        {
          "name": "",
          "type": "address"
        }
      ],
      "payable": false,
      "stateMutability": "view",
      "type": "function"
    },
    {
      "constant": false,
      "inputs": [
        {
          "name": "tokens",
          "type": "address[]"
        }
      ],
      "name": "withdrawTokens",
      "outputs": [],
      "payable": false,
      "stateMutability": "nonpayable",
      "type": "function"
    },
    {
      "constant": false,
      "inputs": [],
      "name": "withdrawEther",
      "outputs": [],
      "payable": false,
      "stateMutability": "nonpayable",
      "type": "function"
    },
    {
      "constant": true,
      "inputs": [],
      "name": "contractOwner",
      "outputs": [
        {
          "name": "",
          "type": "address"
        }
      ],
      "payable": false,
      "stateMutability": "view",
      "type": "function"
    },
    {
      "constant": true,
      "inputs": [],
      "name": "eventsHistory",
      "outputs": [
        {
          "name": "",
          "type": "address"
        }
      ],
      "payable": false,
      "stateMutability": "view",
      "type": "function"
    },
    {
      "constant": false,
      "inputs": [
        {
          "name": "newOwner",
          "type": "address"
        }
      ],
      "name": "transferOwnership",
      "outputs": [
        {
          "name": "",
          "type": "bool"
        }
      ],
      "payable": false,
      "stateMutability": "nonpayable",
      "type": "function"
    },
    {
      "inputs": [
        {
          "name": "_store",
          "type": "address"
        },
        {
          "name": "_crate",
          "type": "bytes32"
        }
      ],
      "payable": false,
      "stateMutability": "nonpayable",
      "type": "constructor"
    },
    {
      "payable": true,
      "stateMutability": "payable",
      "type": "fallback"
    },
    {
      "anonymous": false,
      "inputs": [
        {
          "indexed": true,
          "name": "self",
          "type": "address"
        },
        {
          "indexed": false,
          "name": "errorCode",
          "type": "uint256"
        }
      ],
      "name": "Error",
      "type": "event"
    },
    {
      "anonymous": false,
      "inputs": [
        {
          "indexed": true,
          "name": "self",
          "type": "address"
        },
        {
          "indexed": true,
          "name": "user",
          "type": "address"
        },
        {
          "indexed": true,
          "name": "role",
          "type": "uint8"
        }
      ],
      "name": "RoleAdded",
      "type": "event"
    },
    {
      "anonymous": false,
      "inputs": [
        {
          "indexed": true,
          "name": "self",
          "type": "address"
        },
        {
          "indexed": true,
          "name": "user",
          "type": "address"
        },
        {
          "indexed": true,
          "name": "role",
          "type": "uint8"
        }
      ],
      "name": "RoleRemoved",
      "type": "event"
    },
    {
      "anonymous": false,
      "inputs": [
        {
          "indexed": true,
          "name": "self",
          "type": "address"
        },
        {
          "indexed": true,
          "name": "code",
          "type": "address"
        },
        {
          "indexed": false,
          "name": "sig",
          "type": "bytes4"
        },
        {
          "indexed": true,
          "name": "role",
          "type": "uint8"
        }
      ],
      "name": "CapabilityAdded",
      "type": "event"
    },
    {
      "anonymous": false,
      "inputs": [
        {
          "indexed": true,
          "name": "self",
          "type": "address"
        },
        {
          "indexed": true,
          "name": "code",
          "type": "address"
        },
        {
          "indexed": false,
          "name": "sig",
          "type": "bytes4"
        },
        {
          "indexed": true,
          "name": "role",
          "type": "uint8"
        }
      ],
      "name": "CapabilityRemoved",
      "type": "event"
    },
    {
      "anonymous": false,
      "inputs": [
        {
          "indexed": true,
          "name": "self",
          "type": "address"
        },
        {
          "indexed": true,
          "name": "code",
          "type": "address"
        },
        {
          "indexed": false,
          "name": "sig",
          "type": "bytes4"
        }
      ],
      "name": "PublicCapabilityAdded",
      "type": "event"
    },
    {
      "anonymous": false,
      "inputs": [
        {
          "indexed": true,
          "name": "self",
          "type": "address"
        },
        {
          "indexed": true,
          "name": "code",
          "type": "address"
        },
        {
          "indexed": false,
          "name": "sig",
          "type": "bytes4"
        }
      ],
      "name": "PublicCapabilityRemoved",
      "type": "event"
    },
    {
      "anonymous": false,
      "inputs": [
        {
          "indexed": true,
          "name": "previousOwner",
          "type": "address"
        },
        {
          "indexed": true,
          "name": "newOwner",
          "type": "address"
        }
      ],
      "name": "OwnershipTransferred",
      "type": "event"
    },
    {
      "constant": false,
      "inputs": [
        {
          "name": "_eventsHistory",
          "type": "address"
        }
      ],
      "name": "setupEventsHistory",
      "outputs": [
        {
          "name": "",
          "type": "uint256"
        }
      ],
      "payable": false,
      "stateMutability": "nonpayable",
      "type": "function"
    },
    {
      "constant": true,
      "inputs": [],
      "name": "getEventsHistory",
      "outputs": [
        {
          "name": "",
          "type": "address"
        }
      ],
      "payable": false,
      "stateMutability": "view",
      "type": "function"
    },
    {
      "constant": true,
      "inputs": [
        {
          "name": "_user",
          "type": "address"
        }
      ],
      "name": "getUserRoles",
      "outputs": [
        {
          "name": "",
          "type": "bytes32"
        }
      ],
      "payable": false,
      "stateMutability": "view",
      "type": "function"
    },
    {
      "constant": true,
      "inputs": [
        {
          "name": "_code",
          "type": "address"
        },
        {
          "name": "_sig",
          "type": "bytes4"
        }
      ],
      "name": "getCapabilityRoles",
      "outputs": [
        {
          "name": "",
          "type": "bytes32"
        }
      ],
      "payable": false,
      "stateMutability": "view",
      "type": "function"
    },
    {
      "constant": true,
      "inputs": [
        {
          "name": "_user",
          "type": "address"
        },
        {
          "name": "_code",
          "type": "address"
        },
        {
          "name": "_sig",
          "type": "bytes4"
        }
      ],
      "name": "canCall",
      "outputs": [
        {
          "name": "",
          "type": "bool"
        }
      ],
      "payable": false,
      "stateMutability": "view",
      "type": "function"
    },
    {
      "constant": true,
      "inputs": [
        {
          "name": "_input",
          "type": "bytes32"
        }
      ],
      "name": "bitNot",
      "outputs": [
        {
          "name": "",
          "type": "bytes32"
        }
      ],
      "payable": false,
      "stateMutability": "pure",
      "type": "function"
    },
    {
      "constant": false,
      "inputs": [
        {
          "name": "_user",
          "type": "address"
        },
        {
          "name": "_enabled",
          "type": "bool"
        }
      ],
      "name": "setRootUser",
      "outputs": [
        {
          "name": "",
          "type": "uint256"
        }
      ],
      "payable": false,
      "stateMutability": "nonpayable",
      "type": "function"
    },
    {
      "constant": false,
      "inputs": [
        {
          "name": "_user",
          "type": "address"
        },
        {
          "name": "_role",
          "type": "uint8"
        }
      ],
      "name": "addUserRole",
      "outputs": [
        {
          "name": "",
          "type": "uint256"
        }
      ],
      "payable": false,
      "stateMutability": "nonpayable",
      "type": "function"
    },
    {
      "constant": false,
      "inputs": [
        {
          "name": "_user",
          "type": "address"
        },
        {
          "name": "_role",
          "type": "uint8"
        }
      ],
      "name": "removeUserRole",
      "outputs": [
        {
          "name": "",
          "type": "uint256"
        }
      ],
      "payable": false,
      "stateMutability": "nonpayable",
      "type": "function"
    },
    {
      "constant": false,
      "inputs": [
        {
          "name": "_code",
          "type": "address"
        },
        {
          "name": "_sig",
          "type": "bytes4"
        },
        {
          "name": "_enabled",
          "type": "bool"
        }
      ],
      "name": "setPublicCapability",
      "outputs": [
        {
          "name": "",
          "type": "uint256"
        }
      ],
      "payable": false,
      "stateMutability": "nonpayable",
      "type": "function"
    },
    {
      "constant": false,
      "inputs": [
        {
          "name": "_role",
          "type": "uint8"
        },
        {
          "name": "_code",
          "type": "address"
        },
        {
          "name": "_sig",
          "type": "bytes4"
        }
      ],
      "name": "addRoleCapability",
      "outputs": [
        {
          "name": "",
          "type": "uint256"
        }
      ],
      "payable": false,
      "stateMutability": "nonpayable",
      "type": "function"
    },
    {
      "constant": false,
      "inputs": [
        {
          "name": "_role",
          "type": "uint8"
        },
        {
          "name": "_code",
          "type": "address"
        },
        {
          "name": "_sig",
          "type": "bytes4"
        }
      ],
      "name": "removeRoleCapability",
      "outputs": [
        {
          "name": "",
          "type": "uint256"
        }
      ],
      "payable": false,
      "stateMutability": "nonpayable",
      "type": "function"
    },
    {
      "constant": true,
      "inputs": [
        {
          "name": "_user",
          "type": "address"
        }
      ],
      "name": "isUserRoot",
      "outputs": [
        {
          "name": "",
          "type": "bool"
        }
      ],
      "payable": false,
      "stateMutability": "view",
      "type": "function"
    },
    {
      "constant": true,
      "inputs": [
        {
          "name": "_code",
          "type": "address"
        },
        {
          "name": "_sig",
          "type": "bytes4"
        }
      ],
      "name": "isCapabilityPublic",
      "outputs": [
        {
          "name": "",
          "type": "bool"
        }
      ],
      "payable": false,
      "stateMutability": "view",
      "type": "function"
    },
    {
      "constant": true,
      "inputs": [
        {
          "name": "_user",
          "type": "address"
        },
        {
          "name": "_role",
          "type": "uint8"
        }
      ],
      "name": "hasUserRole",
      "outputs": [
        {
          "name": "",
          "type": "bool"
        }
      ],
      "payable": false,
      "stateMutability": "view",
      "type": "function"
    },
    {
      "constant": false,
      "inputs": [
        {
          "name": "_errorCode",
          "type": "uint256"
        }
      ],
      "name": "emitError",
      "outputs": [],
      "payable": false,
      "stateMutability": "nonpayable",
      "type": "function"
    },
    {
      "constant": false,
      "inputs": [
        {
          "name": "_user",
          "type": "address"
        },
        {
          "name": "_role",
          "type": "uint8"
        }
      ],
      "name": "emitRoleAdded",
      "outputs": [],
      "payable": false,
      "stateMutability": "nonpayable",
      "type": "function"
    },
    {
      "constant": false,
      "inputs": [
        {
          "name": "_user",
          "type": "address"
        },
        {
          "name": "_role",
          "type": "uint8"
        }
      ],
      "name": "emitRoleRemoved",
      "outputs": [],
      "payable": false,
      "stateMutability": "nonpayable",
      "type": "function"
    },
    {
      "constant": false,
      "inputs": [
        {
          "name": "_code",
          "type": "address"
        },
        {
          "name": "_sig",
          "type": "bytes4"
        },
        {
          "name": "_role",
          "type": "uint8"
        }
      ],
      "name": "emitCapabilityAdded",
      "outputs": [],
      "payable": false,
      "stateMutability": "nonpayable",
      "type": "function"
    },
    {
      "constant": false,
      "inputs": [
        {
          "name": "_code",
          "type": "address"
        },
        {
          "name": "_sig",
          "type": "bytes4"
        },
        {
          "name": "_role",
          "type": "uint8"
        }
      ],
      "name": "emitCapabilityRemoved",
      "outputs": [],
      "payable": false,
      "stateMutability": "nonpayable",
      "type": "function"
    },
    {
      "constant": false,
      "inputs": [
        {
          "name": "_code",
          "type": "address"
        },
        {
          "name": "_sig",
          "type": "bytes4"
        }
      ],
      "name": "emitPublicCapabilityAdded",
      "outputs": [],
      "payable": false,
      "stateMutability": "nonpayable",
      "type": "function"
    },
    {
      "constant": false,
      "inputs": [
        {
          "name": "_code",
          "type": "address"
        },
        {
          "name": "_sig",
          "type": "bytes4"
        }
      ],
      "name": "emitPublicCapabilityRemoved",
      "outputs": [],
      "payable": false,
      "stateMutability": "nonpayable",
      "type": "function"
    }
  ],
  "bytecode": "0x60806040523480156200001157600080fd5b50604051604080620018db833981016040528051602090910151818162000049600083836401000000006200165f6200015182021704565b505060028054600160a060020a031916331790556200009860047f726f6f7455736572730000000000000000000000000000000000000000000000640100000000620016926200017782021704565b620000d360057f75736572526f6c65730000000000000000000000000000000000000000000000640100000000620016926200017782021704565b6200010e60067f6361706162696c697479526f6c65730000000000000000000000000000000000640100000000620016926200017782021704565b6200014960077f7075626c69634361706162696c69746965730000000000000000000000000000640100000000620016926200017782021704565b5050620001c3565b8254600160a060020a031916600160a060020a0392909216919091178255600190910155565b6200018c828264010000000062000190810204565b5050565b8154620001a79082640100000000620001ab810204565b9055565b81151580620001b8575080155b156200018c57600080fd5b61170880620001d36000396000f30060806040526004361061017e5763ffffffff7c0100000000000000000000000000000000000000000000000000000000600035041662a81ef6811461018357806302927d20146101ac57806306a36aee146101df5780630a7a2fef1461020057806327538e90146102345780632f47571f146102625780634592cd1d146102a4578063557f4bc9146102b9578063588cff4c146102da5780635aa77d3c146103085780635ecb16cd146103395780637362377b1461038e5780637977f708146103a357806395725d8a146103d75780639a75aa06146103fe5780639ae0140c1461042c578063a078f73714610460578063b44f794f14610487578063b7009613146104ae578063c6b0263e146104e2578063ce606ee014610515578063d0d9e21d1461052a578063d381ba7c1461055e578063df26ca0814610584578063e1e092991461059c578063ecdb065b146105c3578063f07629f8146105db578063f2fde38b146105f0578063fbf8077314610611578063fff10aba14610632575b600080fd5b34801561018f57600080fd5b506101aa600160a060020a036004351660ff60243516610647565b005b3480156101b857600080fd5b506101cd600160a060020a0360043516610686565b60408051918252519081900360200190f35b3480156101eb57600080fd5b506101cd600160a060020a03600435166106ca565b34801561020c57600080fd5b506101aa600160a060020a0360043516600160e060020a03196024351660ff604435166106e4565b34801561024057600080fd5b506101cd600160a060020a0360043516600160e060020a031960243516610739565b34801561026e57600080fd5b50610290600160a060020a0360043516600160e060020a031960243516610755565b604080519115158252519081900360200190f35b3480156102b057600080fd5b5061029061076a565b3480156102c557600080fd5b50610290600160a060020a03600435166107ff565b3480156102e657600080fd5b506101aa600160a060020a0360043516600160e060020a03196024351661085f565b34801561031457600080fd5b5061031d6108ad565b60408051600160a060020a039092168252519081900360200190f35b34801561034557600080fd5b50604080516020600480358082013583810280860185019096528085526101aa953695939460249493850192918291850190849080828437509497506108bc9650505050505050565b34801561039a57600080fd5b506101aa610a36565b3480156103af57600080fd5b506101cd60ff60043516600160a060020a0360243516600160e060020a031960443516610a8a565b3480156103e357600080fd5b506101aa600160a060020a036004351660ff60243516610ab5565b34801561040a57600080fd5b506101aa600160a060020a0360043516600160e060020a031960243516610af4565b34801561043857600080fd5b506101cd60ff60043516600160a060020a0360243516600160e060020a031960443516610b42565b34801561046c57600080fd5b50610290600160a060020a036004351660ff60243516610b87565b34801561049357600080fd5b506101cd600160a060020a036004351660ff60243516610ba5565b3480156104ba57600080fd5b50610290600160a060020a0360043581169060243516600160e060020a031960443516610c0f565b3480156104ee57600080fd5b506101cd600160a060020a0360043516600160e060020a0319602435166044351515610c55565b34801561052157600080fd5b5061031d610ca9565b34801561053657600080fd5b506101aa600160a060020a0360043516600160e060020a03196024351660ff60443516610cb8565b34801561056a57600080fd5b506101cd600160a060020a03600435166024351515610d0d565b34801561059057600080fd5b506101aa600435610d40565b3480156105a857600080fd5b506101cd600160a060020a036004351660ff60243516610d79565b3480156105cf57600080fd5b506101cd600435610ddb565b3480156105e757600080fd5b5061031d610de2565b3480156105fc57600080fd5b50610290600160a060020a0360043516610df1565b34801561061d57600080fd5b50610290600160a060020a0360043516610e8b565b34801561063e57600080fd5b5061031d610e9f565b60405160ff821690600160a060020a0384169033907f7577662ae5b32920f85a4b61fb99f5f5b9fd3f8e937ac15fe8b8a0a19e90fa0f90600090a45050565b600254600090600160a060020a03163314156106c5576008805473ffffffffffffffffffffffffffffffffffffffff1916600160a060020a0384161790555b919050565b60006106de8160058463ffffffff610ecc16565b92915050565b60408051600160e060020a031984168152905160ff831691600160a060020a0386169133917ff820011dd31265ef4cfb8740f75367415191173d0f08b32fb5401d2a0dc1847b919081900360200190a4505050565b600061074e816006858563ffffffff610ee216565b9392505050565b600061074e816007858563ffffffff610f0c16565b600354600090600160a060020a03163314610787575060006107fc565b600354600254604051600160a060020a0392831692909116907f8be0079c531659141344cd1fd0a4f28419497f9722a3daafe3b4186f6b6457e090600090a350600380546002805473ffffffffffffffffffffffffffffffffffffffff19908116600160a060020a0384161790915516905560015b90565b600254600090600160a060020a03163314156106c557600160a060020a038216151561082d575060006106c5565b5060038054600160a060020a03831673ffffffffffffffffffffffffffffffffffffffff199091161790556001919050565b60408051600160e060020a0319831681529051600160a060020a0384169133917fe74cc03efe60f26af9bb6b27883577bbbd981555b1a070b15aace44960d0ef1f9181900360200190a35050565b600354600160a060020a031681565b60025460009081908190600160a060020a0316331415610a3057600092505b8351831015610a305783838151811015156108f257fe5b6020908102909101810151604080517f70a082310000000000000000000000000000000000000000000000000000000081523060048201529051919450600160a060020a038516926370a08231926024808401938290030181600087803b15801561095c57600080fd5b505af1158015610970573d6000803e3d6000fd5b505050506040513d602081101561098657600080fd5b505190508015610a2557604080517fa9059cbb000000000000000000000000000000000000000000000000000000008152336004820152602481018390529051600160a060020a0384169163a9059cbb9160448083019260209291908290030181600087803b1580156109f857600080fd5b505af1158015610a0c573d6000803e3d6000fd5b505050506040513d6020811015610a2257600080fd5b50505b6001909201916108db565b50505050565b600254600090600160a060020a0316331415610a87575030316000811115610a8757604051339082156108fc029083906000818181858888f19350505050158015610a85573d6000803e3d6000fd5b505b50565b600254600090600160a060020a031633141561074e57610aad8484846001610f35565b949350505050565b60405160ff821690600160a060020a0384169033907faefc6303247f6e535a84463aeb8ae70719e1d40a8d6800dc8efa455b1e1fb33f90600090a45050565b60408051600160e060020a0319831681529051600160a060020a0384169133917f67813b7923deedd38ecb1624185361da00646f2a5066850b99e5fddcec1708b49181900360200190a35050565b600254600090600160a060020a031633141561074e57610b628383610739565b1515610b7a57610b73614e23610fb9565b905061074e565b610aad8484846000610f35565b6000610b9282611042565b610b9b846106ca565b1615159392505050565b600254600090600160a060020a03163314801590610bd75750610bd53330600035600160e060020a031916610c0f565b155b15610be1576106de565b610beb8383610b87565b1515610c0357610bfc614e23610fb9565b90506106de565b61074e8383600061104b565b6000610c1a84610e8b565b80610c2a5750610c2a8383610755565b15610c375750600161074e565b610c418383610739565b610c4a856106ca565b161515949350505050565b600254600090600160a060020a031633141561074e57610c806000600786868663ffffffff6110ce16565b8115610c9557610c9084846110fd565b610c9f565b610c9f8484611196565b5060019392505050565b600254600160a060020a031681565b60408051600160e060020a031984168152905160ff831691600160a060020a0386169133917facf87e9240a04c36449fb09028711a68d4e3a4df32931c5df0dfc54acae52023919081900360200190a4505050565b600254600090600160a060020a03163314156106de57610d3760006004858563ffffffff61121316565b50600192915050565b60408051828152905133917f9cf38cf2dbf9139f5c32639950507b10775fbbe0421f3e168bc2d1bb1ae3208c919081900360200190a250565b600254600090600160a060020a03163314801590610dab5750610da93330600035600160e060020a031916610c0f565b155b15610db5576106de565b610dbf8383610b87565b15610dcf57610bfc614e21610fb9565b61074e8383600161104b565b6000191890565b600854600160a060020a031681565b600254600090600160a060020a03163314156106c557600160a060020a0382161515610e1f575060006106c5565b600254604051600160a060020a038085169216907f8be0079c531659141344cd1fd0a4f28419497f9722a3daafe3b4186f6b6457e090600090a35060028054600160a060020a03831673ffffffffffffffffffffffffffffffffffffffff199091161790556001919050565b60006106de8160048463ffffffff61123016565b600854600090600160a060020a03161515610eba5730610ec7565b600854600160a060020a03165b905090565b6000610aad8484600160a060020a038516611245565b6000610f038585600160a060020a038616600160e060020a031986166112fe565b95945050505050565b6000610f03610f308686600160a060020a038716600160e060020a031987166112fe565b611327565b6000806000610f448686610739565b9150610f4f87611042565b90508315610f7e57610f6e60006006888886861763ffffffff61132c16565b610f7986868961134c565b610fac565b610fa160068787610f8e85610ddb565b600093929190871663ffffffff61132c16565b610fac8686896113ef565b5060019695505050505050565b6000610fc3610e9f565b600160a060020a031663df26ca08836040518263ffffffff167c010000000000000000000000000000000000000000000000000000000002815260040180828152602001915050600060405180830381600087803b15801561102457600080fd5b505af1158015611038573d6000803e3d6000fd5b5093949350505050565b60ff1660020a90565b6000806000611059866106ca565b915061106485611042565b9050831561109557611082600060058885851763ffffffff61147516565b61108c868661148a565b600192506110c5565b6110b66005876110a484610ddb565b6000929190861663ffffffff61147516565b6110c08686611500565b600192505b50509392505050565b6110f68585600160a060020a038616600160e060020a031986166110f186611574565b61158e565b5050505050565b611105610e9f565b604080517f9a75aa06000000000000000000000000000000000000000000000000000000008152600160a060020a038581166004830152600160e060020a03198516602483015291519290911691639a75aa069160448082019260009290919082900301818387803b15801561117a57600080fd5b505af115801561118e573d6000803e3d6000fd5b505050505050565b61119e610e9f565b604080517f588cff4c000000000000000000000000000000000000000000000000000000008152600160a060020a038581166004830152600160e060020a0319851660248301529151929091169163588cff4c9160448082019260009290919082900301818387803b15801561117a57600080fd5b610a308484600160a060020a03851661122b85611574565b6115b1565b6000610aad610f308585600160a060020a0386165b825460018401548354604080519182526020808301869052815192839003820183207f37d9d7fc0000000000000000000000000000000000000000000000000000000084526004840194909452602483019390935251600093600160a060020a0316926337d9d7fc926044808201939182900301818787803b1580156112ca57600080fd5b505af11580156112de573d6000803e3d6000fd5b505050506040513d60208110156112f457600080fd5b5051949350505050565b60408051838152602081018390528151908190039091019020600090610f039086908690611245565b151590565b6110f68585600160a060020a038616600160e060020a031986168561158e565b611354610e9f565b604080517fd0d9e21d000000000000000000000000000000000000000000000000000000008152600160a060020a038681166004830152600160e060020a03198616602483015260ff851660448301529151929091169163d0d9e21d9160648082019260009290919082900301818387803b1580156113d257600080fd5b505af11580156113e6573d6000803e3d6000fd5b50505050505050565b6113f7610e9f565b604080517f0a7a2fef000000000000000000000000000000000000000000000000000000008152600160a060020a038681166004830152600160e060020a03198616602483015260ff8516604483015291519290911691630a7a2fef9160648082019260009290919082900301818387803b1580156113d257600080fd5b610a308484600160a060020a038516846115b1565b611492610e9f565b604080517f95725d8a000000000000000000000000000000000000000000000000000000008152600160a060020a03858116600483015260ff85166024830152915192909116916395725d8a9160448082019260009290919082900301818387803b15801561117a57600080fd5b611508610e9f565b604080517ea81ef6000000000000000000000000000000000000000000000000000000008152600160a060020a03858116600483015260ff851660248301529151929091169162a81ef69160448082019260009290919082900301818387803b15801561117a57600080fd5b600081611582576000611585565b60015b60ff1692915050565b604080518481526020810184905281519081900390910190206110f69086908690845b8354600185015484546040805191825260208201869052805191829003810182207fa14ff85700000000000000000000000000000000000000000000000000000000835260048301939093526024820192909252604481018490529051600160a060020a039092169163a14ff8579160648082019260009290919082900301818387803b15801561164157600080fd5b505af1158015611655573d6000803e3d6000fd5b5050505050505050565b825473ffffffffffffffffffffffffffffffffffffffff1916600160a060020a0392909216919091178255600190910155565b610a8582826116b6565b610a8582826116b6565b610a8582826116b6565b610a8582825b81546116c290826116c6565b9055565b811515806116d2575080155b15610a8557600080fd00a165627a7a723058209e9945258c0243bbb58c8904c417da1b7bd7dc0ef6051ba038e292b58bf7b0910029",
  "source": "/**\n * Copyright 20172018, LaborX PTY\n * Licensed under the AGPL Version 3 license.\n */\n\npragma solidity ^0.4.21;\n\nimport 'solidity-storage-lib/contracts/StorageAdapter.sol';\nimport 'solidity-shared-lib/contracts/Owned.sol';\n\n\ncontract Roles2Library is StorageAdapter, Owned {\n\n    uint constant OK = 1;\n\n    uint constant ROLES_SCOPE = 20000;\n    uint constant ROLES_ALREADY_EXISTS = ROLES_SCOPE + 1;\n    uint constant ROLES_INVALID_INVOCATION = ROLES_SCOPE + 2;\n    uint constant ROLES_NOT_FOUND = ROLES_SCOPE + 3;\n\n    event Error(address indexed self, uint errorCode);\n    event RoleAdded(address indexed self, address indexed user, uint8 indexed role);\n    event RoleRemoved(address indexed self, address indexed user, uint8 indexed role);\n    event CapabilityAdded(address indexed self, address indexed code, bytes4 sig, uint8 indexed role);\n    event CapabilityRemoved(address indexed self, address indexed code, bytes4 sig, uint8 indexed role);\n    event PublicCapabilityAdded(address indexed self, address indexed code, bytes4 sig);\n    event PublicCapabilityRemoved(address indexed self, address indexed code, bytes4 sig);\n\n    StorageInterface.AddressBoolMapping rootUsers;\n    StorageInterface.AddressBytes32Mapping userRoles;\n    StorageInterface.AddressBytes4Bytes32Mapping capabilityRoles;\n    StorageInterface.AddressBytes4BoolMapping publicCapabilities;\n\n    address public eventsHistory;\n\n    modifier authorized {\n        if (msg.sender != contractOwner && !canCall(msg.sender, this, msg.sig)) {\n            return;\n        }\n        _;\n    }\n\n    constructor(Storage _store, bytes32 _crate) StorageAdapter(_store, _crate) public {\n        rootUsers.init('rootUsers');\n        userRoles.init('userRoles');\n        capabilityRoles.init('capabilityRoles');\n        publicCapabilities.init('publicCapabilities');\n    }\n\n    function setupEventsHistory(address _eventsHistory) onlyContractOwner external returns (uint) {\n        eventsHistory = _eventsHistory;\n    }\n\n    function getEventsHistory() public view returns (address) {\n        return eventsHistory != address(0) ? eventsHistory : address(this);\n    }\n\n    function getUserRoles(address _user) public view returns (bytes32) {\n        return store.get(userRoles, _user);\n    }\n\n    function getCapabilityRoles(address _code, bytes4 _sig) public view returns (bytes32) {\n        return store.get(capabilityRoles, _code, _sig);\n    }\n\n    function canCall(address _user, address _code, bytes4 _sig) public view returns (bool) {\n        if (isUserRoot(_user) || isCapabilityPublic(_code, _sig)) {\n            return true;\n        }\n        return bytes32(0) != getUserRoles(_user) & getCapabilityRoles(_code, _sig);\n    }\n\n    function bitNot(bytes32 _input) public pure returns (bytes32) {\n        return (_input ^ bytes32(uint(-1)));\n    }\n\n    function setRootUser(address _user, bool _enabled) onlyContractOwner external returns (uint) {\n        store.set(rootUsers, _user, _enabled);\n        return OK;\n    }\n\n    function addUserRole(address _user, uint8 _role) authorized external returns (uint) {\n        if (hasUserRole(_user, _role)) {\n            return _emitErrorCode(ROLES_ALREADY_EXISTS);\n        }\n\n        return _setUserRole(_user, _role, true);\n    }\n\n    function removeUserRole(address _user, uint8 _role) authorized external returns (uint) {\n        if (!hasUserRole(_user, _role)) {\n            return _emitErrorCode(ROLES_NOT_FOUND);\n        }\n\n        return _setUserRole(_user, _role, false);\n    }\n\n    function setPublicCapability(address _code, bytes4 _sig, bool _enabled) onlyContractOwner external returns (uint) {\n        store.set(publicCapabilities, _code, _sig, _enabled);\n\n        if (_enabled) {\n            _emitPublicCapabilityAdded(_code, _sig);\n        } else {\n            _emitPublicCapabilityRemoved(_code, _sig);\n        }\n        return OK;\n    }\n\n    function addRoleCapability(uint8 _role, address _code, bytes4 _sig) onlyContractOwner public returns (uint) {\n        return _setRoleCapability(_role, _code, _sig, true);\n    }\n\n    function removeRoleCapability(uint8 _role, address _code, bytes4 _sig) onlyContractOwner public returns (uint) {\n        if (getCapabilityRoles(_code, _sig) == 0) {\n            return _emitErrorCode(ROLES_NOT_FOUND);\n        }\n\n        return _setRoleCapability(_role, _code, _sig, false);\n    }\n\n    function isUserRoot(address _user) public view returns (bool) {\n        return store.get(rootUsers, _user);\n    }\n\n    function isCapabilityPublic(address _code, bytes4 _sig) public view returns (bool) {\n        return store.get(publicCapabilities, _code, _sig);\n    }\n\n    function hasUserRole(address _user, uint8 _role) public view returns (bool) {\n        return bytes32(0) != getUserRoles(_user) & _shift(_role);\n    }\n\n    function _setUserRole(address _user, uint8 _role, bool _enabled) internal returns (uint) {\n        bytes32 lastRoles = getUserRoles(_user);\n        bytes32 shifted = _shift(_role);\n\n        if (_enabled) {\n            store.set(userRoles, _user, lastRoles | shifted);\n            _emitRoleAdded(_user, _role);\n            return OK;\n        }\n\n        store.set(userRoles, _user, lastRoles & bitNot(shifted));\n        _emitRoleRemoved(_user, _role);\n        return OK;\n    }\n\n    function _setRoleCapability(uint8 _role, address _code, bytes4 _sig, bool _enabled) internal returns (uint) {\n        bytes32 lastRoles = getCapabilityRoles(_code, _sig);\n        bytes32 shifted = _shift(_role);\n\n        if (_enabled) {\n            store.set(capabilityRoles, _code, _sig, lastRoles | shifted);\n            _emitCapabilityAdded(_code, _sig, _role);\n        } else {\n            store.set(capabilityRoles, _code, _sig, lastRoles & bitNot(shifted));\n            _emitCapabilityRemoved(_code, _sig, _role);\n        }\n\n        return OK;\n    }\n\n    function _shift(uint8 _role) pure internal returns (bytes32) {\n        return bytes32(uint(uint(2) ** uint(_role)));\n    }\n\n    function _emitErrorCode(uint _errorCode) internal returns (uint) {\n        Roles2Library(getEventsHistory()).emitError(_errorCode);\n        return _errorCode;\n    }\n\n    function _emitRoleAdded(address _user, uint8 _role) internal {\n        Roles2Library(getEventsHistory()).emitRoleAdded(_user, _role);\n    }\n\n    function _emitRoleRemoved(address _user, uint8 _role) internal {\n        Roles2Library(getEventsHistory()).emitRoleRemoved(_user, _role);\n    }\n\n    function _emitCapabilityAdded(address _code, bytes4 _sig, uint8 _role) internal {\n        Roles2Library(getEventsHistory()).emitCapabilityAdded(_code, _sig, _role);\n    }\n\n    function _emitCapabilityRemoved(address _code, bytes4 _sig, uint8 _role) internal {\n        Roles2Library(getEventsHistory()).emitCapabilityRemoved(_code, _sig, _role);\n    }\n\n    function _emitPublicCapabilityAdded(address _code, bytes4 _sig) internal {\n        Roles2Library(getEventsHistory()).emitPublicCapabilityAdded(_code, _sig);\n    }\n\n    function _emitPublicCapabilityRemoved(address _code, bytes4 _sig) internal {\n        Roles2Library(getEventsHistory()).emitPublicCapabilityRemoved(_code, _sig);\n    }\n\n    function emitError(uint _errorCode) public {\n        emit Error(msg.sender, _errorCode);\n    }\n\n    function emitRoleAdded(address _user, uint8 _role) public {\n        emit RoleAdded(msg.sender, _user, _role);\n    }\n\n    function emitRoleRemoved(address _user, uint8 _role) public {\n        emit RoleRemoved(msg.sender, _user, _role);\n    }\n\n    function emitCapabilityAdded(address _code, bytes4 _sig, uint8 _role) public {\n        emit CapabilityAdded(msg.sender, _code, _sig, _role);\n    }\n\n    function emitCapabilityRemoved(address _code, bytes4 _sig, uint8 _role) public {\n        emit CapabilityRemoved(msg.sender, _code, _sig, _role);\n    }\n\n    function emitPublicCapabilityAdded(address _code, bytes4 _sig) public {\n        emit PublicCapabilityAdded(msg.sender, _code, _sig);\n    }\n\n    function emitPublicCapabilityRemoved(address _code, bytes4 _sig) public {\n        emit PublicCapabilityRemoved(msg.sender, _code, _sig);\n    }\n}\n",
  "sourcePath": "solidity-roles-lib/contracts/Roles2Library.sol",
  "compiler": {
    "name": "solc",
    "version": "0.4.24+commit.e67f0147.Emscripten.clang"
  },
  "schemaVersion": "2.0.1",
  "updatedAt": "2018-07-09T12:18:04.499Z"
}