{
  "contractName": "Roles2LibraryAdapter",
  "abi": [
    {
      "inputs": [
        {
          "name": "_roles2Library",
          "type": "address"
        }
      ],
      "payable": false,
      "stateMutability": "nonpayable",
      "type": "constructor"
    },
    {
      "anonymous": false,
      "inputs": [
        {
          "indexed": false,
          "name": "code",
          "type": "address"
        },
        {
          "indexed": false,
          "name": "sender",
          "type": "address"
        },
        {
          "indexed": false,
          "name": "sig",
          "type": "bytes4"
        }
      ],
      "name": "AuthFailedError",
      "type": "event"
    },
    {
      "constant": false,
      "inputs": [
        {
          "name": "_roles2Library",
          "type": "address"
        }
      ],
      "name": "setRoles2Library",
      "outputs": [
        {
          "name": "",
          "type": "uint256"
        }
      ],
      "payable": false,
      "stateMutability": "nonpayable",
      "type": "function"
    }
  ],
  "bytecode": "0x608060405234801561001057600080fd5b506040516020806102ff833981016040525160008054600160a060020a03909216600160a060020a03199092169190911790556102ad806100526000396000f3006080604052600436106100405763ffffffff7c01000000000000000000000000000000000000000000000000000000006000350416632637cd7d8114610045575b600080fd5b34801561005157600080fd5b5061007373ffffffffffffffffffffffffffffffffffffffff60043516610085565b60408051918252519081900360200190f35b60006100b2336000357bffffffffffffffffffffffffffffffffffffffffffffffffffffffff191661015a565b151561011c57604080513081523360208201527bffffffffffffffffffffffffffffffffffffffffffffffffffffffff19600035168183015290517f5133a133185f1023427a2e90f18506b27db994977ce0c0faafd514a7dd109ae09181900360600190a1610155565b506000805473ffffffffffffffffffffffffffffffffffffffff191673ffffffffffffffffffffffffffffffffffffffff831617905560015b919050565b600073ffffffffffffffffffffffffffffffffffffffff83163014156101825750600161027b565b60005473ffffffffffffffffffffffffffffffffffffffff1615156101a95750600061027b565b60008054604080517fb700961300000000000000000000000000000000000000000000000000000000815273ffffffffffffffffffffffffffffffffffffffff87811660048301523060248301527bffffffffffffffffffffffffffffffffffffffffffffffffffffffff19871660448301529151919092169263b700961392606480820193602093909283900390910190829087803b15801561024c57600080fd5b505af1158015610260573d6000803e3d6000fd5b505050506040513d602081101561027657600080fd5b505190505b929150505600a165627a7a7230582028f637c80ded8a7b8b888b0d4b2cbfe907407d497d7f72ad96330f5df6afb09f0029",
  "source": "/**\n * Copyright 2017–2018, LaborX PTY\n * Licensed under the AGPL Version 3 license.\n */\n\npragma solidity ^0.4.18;\n\n\ncontract Roles2LibraryInterface {\n    function addUserRole(address _user, uint8 _role) public returns (uint);\n    function canCall(address _src, address _code, bytes4 _sig) public view returns (bool);\n}\n\n\ncontract Roles2LibraryAdapter {\n\n    uint constant UNAUTHORIZED = 0;\n    uint constant OK = 1;\n\n    event AuthFailedError(address code, address sender, bytes4 sig);\n\n    Roles2LibraryInterface roles2Library;\n\n    modifier auth {\n        if (!_isAuthorized(msg.sender, msg.sig)) {\n            emit AuthFailedError(this, msg.sender, msg.sig);\n            return;\n        }\n        _;\n    }\n\n    constructor(address _roles2Library) public {\n        roles2Library = Roles2LibraryInterface(_roles2Library);\n    }\n\n    function setRoles2Library(Roles2LibraryInterface _roles2Library) auth external returns (uint) {\n        roles2Library = _roles2Library;\n        return OK;\n    }\n\n    function _isAuthorized(address _src, bytes4 _sig) internal view returns (bool) {\n        if (_src == address(this)) {\n            return true;\n        }\n        if (address(roles2Library) == 0) {\n            return false;\n        }\n\n        return roles2Library.canCall(_src, this, _sig);\n    }\n}\n",
  "sourcePath": "solidity-roles-lib/contracts/Roles2LibraryAdapter.sol",
  "compiler": {
    "name": "solc",
    "version": "0.4.24+commit.e67f0147.Emscripten.clang"
  },
  "schemaVersion": "2.0.1",
  "updatedAt": "2018-07-09T12:14:01.145Z"
}