{
  "contractName": "Storage",
  "abi": [
    {
      "constant": false,
      "inputs": [],
      "name": "claimContractOwnership",
      "outputs": [
        {
          "name": "",
          "type": "bool"
        }
      ],
      "payable": false,
      "stateMutability": "nonpayable",
      "type": "function"
    },
    {
      "constant": true,
      "inputs": [],
      "name": "manager",
      "outputs": [
        {
          "name": "",
          "type": "address"
        }
      ],
      "payable": false,
      "stateMutability": "view",
      "type": "function"
    },
    {
      "constant": false,
      "inputs": [
        {
          "name": "_to",
          "type": "address"
        }
      ],
      "name": "changeContractOwnership",
      "outputs": [
        {
          "name": "",
          "type": "bool"
        }
      ],
      "payable": false,
      "stateMutability": "nonpayable",
      "type": "function"
    },
    {
      "constant": true,
      "inputs": [],
      "name": "pendingContractOwner",
      "outputs": [
        {
          "name": "",
          "type": "address"
        }
      ],
      "payable": false,
      "stateMutability": "view",
      "type": "function"
    },
    {
      "constant": false,
      "inputs": [
        {
          "name": "tokens",
          "type": "address[]"
        }
      ],
      "name": "withdrawTokens",
      "outputs": [],
      "payable": false,
      "stateMutability": "nonpayable",
      "type": "function"
    },
    {
      "constant": false,
      "inputs": [],
      "name": "withdrawEther",
      "outputs": [],
      "payable": false,
      "stateMutability": "nonpayable",
      "type": "function"
    },
    {
      "constant": true,
      "inputs": [],
      "name": "contractOwner",
      "outputs": [
        {
          "name": "",
          "type": "address"
        }
      ],
      "payable": false,
      "stateMutability": "view",
      "type": "function"
    },
    {
      "constant": false,
      "inputs": [
        {
          "name": "newOwner",
          "type": "address"
        }
      ],
      "name": "transferOwnership",
      "outputs": [
        {
          "name": "",
          "type": "bool"
        }
      ],
      "payable": false,
      "stateMutability": "nonpayable",
      "type": "function"
    },
    {
      "anonymous": false,
      "inputs": [
        {
          "indexed": true,
          "name": "previousOwner",
          "type": "address"
        },
        {
          "indexed": true,
          "name": "newOwner",
          "type": "address"
        }
      ],
      "name": "OwnershipTransferred",
      "type": "event"
    },
    {
      "constant": false,
      "inputs": [
        {
          "name": "_manager",
          "type": "address"
        }
      ],
      "name": "setManager",
      "outputs": [
        {
          "name": "",
          "type": "bool"
        }
      ],
      "payable": false,
      "stateMutability": "nonpayable",
      "type": "function"
    },
    {
      "constant": false,
      "inputs": [
        {
          "name": "_crate",
          "type": "bytes32"
        },
        {
          "name": "_key",
          "type": "bytes32"
        },
        {
          "name": "_value",
          "type": "uint256"
        }
      ],
      "name": "setUInt",
      "outputs": [],
      "payable": false,
      "stateMutability": "nonpayable",
      "type": "function"
    },
    {
      "constant": true,
      "inputs": [
        {
          "name": "_crate",
          "type": "bytes32"
        },
        {
          "name": "_key",
          "type": "bytes32"
        }
      ],
      "name": "getUInt",
      "outputs": [
        {
          "name": "",
          "type": "uint256"
        }
      ],
      "payable": false,
      "stateMutability": "view",
      "type": "function"
    },
    {
      "constant": false,
      "inputs": [
        {
          "name": "_crate",
          "type": "bytes32"
        },
        {
          "name": "_key",
          "type": "bytes32"
        },
        {
          "name": "_value",
          "type": "address"
        }
      ],
      "name": "setAddress",
      "outputs": [],
      "payable": false,
      "stateMutability": "nonpayable",
      "type": "function"
    },
    {
      "constant": true,
      "inputs": [
        {
          "name": "_crate",
          "type": "bytes32"
        },
        {
          "name": "_key",
          "type": "bytes32"
        }
      ],
      "name": "getAddress",
      "outputs": [
        {
          "name": "",
          "type": "address"
        }
      ],
      "payable": false,
      "stateMutability": "view",
      "type": "function"
    },
    {
      "constant": false,
      "inputs": [
        {
          "name": "_crate",
          "type": "bytes32"
        },
        {
          "name": "_key",
          "type": "bytes32"
        },
        {
          "name": "_value",
          "type": "bool"
        }
      ],
      "name": "setBool",
      "outputs": [],
      "payable": false,
      "stateMutability": "nonpayable",
      "type": "function"
    },
    {
      "constant": true,
      "inputs": [
        {
          "name": "_crate",
          "type": "bytes32"
        },
        {
          "name": "_key",
          "type": "bytes32"
        }
      ],
      "name": "getBool",
      "outputs": [
        {
          "name": "",
          "type": "bool"
        }
      ],
      "payable": false,
      "stateMutability": "view",
      "type": "function"
    },
    {
      "constant": false,
      "inputs": [
        {
          "name": "_crate",
          "type": "bytes32"
        },
        {
          "name": "_key",
          "type": "bytes32"
        },
        {
          "name": "_value",
          "type": "int256"
        }
      ],
      "name": "setInt",
      "outputs": [],
      "payable": false,
      "stateMutability": "nonpayable",
      "type": "function"
    },
    {
      "constant": true,
      "inputs": [
        {
          "name": "_crate",
          "type": "bytes32"
        },
        {
          "name": "_key",
          "type": "bytes32"
        }
      ],
      "name": "getInt",
      "outputs": [
        {
          "name": "",
          "type": "int256"
        }
      ],
      "payable": false,
      "stateMutability": "view",
      "type": "function"
    },
    {
      "constant": false,
      "inputs": [
        {
          "name": "_crate",
          "type": "bytes32"
        },
        {
          "name": "_key",
          "type": "bytes32"
        },
        {
          "name": "_value",
          "type": "uint8"
        }
      ],
      "name": "setUInt8",
      "outputs": [],
      "payable": false,
      "stateMutability": "nonpayable",
      "type": "function"
    },
    {
      "constant": true,
      "inputs": [
        {
          "name": "_crate",
          "type": "bytes32"
        },
        {
          "name": "_key",
          "type": "bytes32"
        }
      ],
      "name": "getUInt8",
      "outputs": [
        {
          "name": "",
          "type": "uint8"
        }
      ],
      "payable": false,
      "stateMutability": "view",
      "type": "function"
    },
    {
      "constant": false,
      "inputs": [
        {
          "name": "_crate",
          "type": "bytes32"
        },
        {
          "name": "_key",
          "type": "bytes32"
        },
        {
          "name": "_value",
          "type": "bytes32"
        }
      ],
      "name": "setBytes32",
      "outputs": [],
      "payable": false,
      "stateMutability": "nonpayable",
      "type": "function"
    },
    {
      "constant": true,
      "inputs": [
        {
          "name": "_crate",
          "type": "bytes32"
        },
        {
          "name": "_key",
          "type": "bytes32"
        }
      ],
      "name": "getBytes32",
      "outputs": [
        {
          "name": "",
          "type": "bytes32"
        }
      ],
      "payable": false,
      "stateMutability": "view",
      "type": "function"
    },
    {
      "constant": false,
      "inputs": [
        {
          "name": "_crate",
          "type": "bytes32"
        },
        {
          "name": "_key",
          "type": "bytes32"
        },
        {
          "name": "_value",
          "type": "address"
        },
        {
          "name": "_value2",
          "type": "uint8"
        }
      ],
      "name": "setAddressUInt8",
      "outputs": [],
      "payable": false,
      "stateMutability": "nonpayable",
      "type": "function"
    },
    {
      "constant": true,
      "inputs": [
        {
          "name": "_crate",
          "type": "bytes32"
        },
        {
          "name": "_key",
          "type": "bytes32"
        }
      ],
      "name": "getAddressUInt8",
      "outputs": [
        {
          "name": "",
          "type": "address"
        },
        {
          "name": "",
          "type": "uint8"
        }
      ],
      "payable": false,
      "stateMutability": "view",
      "type": "function"
    }
  ],
  "bytecode": "0x606060405260008054600160a060020a033316600160a060020a0319909116179055610e1f806100306000396000f3006060604052600436106101195763ffffffff60e060020a600035041663061c8800811461011e578063252edb761461013c5780632bc40f9a1461015b57806337d9d7fc14610186578063428e357b146101b15780634592cd1d146101e0578063481c6a751461020757806353aa3f5e1461023657806353e7168b1461024f578063557f4bc91461026b5780635aa77d3c1461028a5780635ecb16cd1461029d5780637362377b146102ec57806379a7cfee146102ff57806398eaf11c14610324578063a14ff8571461033d578063a6fbf3d214610359578063ce606ee014610372578063d0ebdbe714610385578063d3a39686146103a4578063e33e5c5e146103bd578063f0f53ee4146103fb578063f2fde38b14610419575b600080fd5b341561012957600080fd5b61013a600435602435604435610438565b005b341561014757600080fd5b61013a60043560243560ff604435166104d3565b341561016657600080fd5b61013a600435602435600160a060020a036044351660ff6064351661057e565b341561019157600080fd5b61019f6004356024356106a6565b60405190815260200160405180910390f35b34156101bc57600080fd5b6101ca6004356024356106c7565b60405160ff909116815260200160405180910390f35b34156101eb57600080fd5b6101f36106eb565b604051901515815260200160405180910390f35b341561021257600080fd5b61021a610782565b604051600160a060020a03909116815260200160405180910390f35b341561024157600080fd5b61019f600435602435610791565b341561025a57600080fd5b61013a6004356024356044356107ae565b341561027657600080fd5b6101f3600160a060020a0360043516610845565b341561029557600080fd5b61021a6108a4565b34156102a857600080fd5b61013a60046024813581810190830135806020818102016040519081016040528093929190818152602001838360200280828437509496506108b395505050505050565b34156102f757600080fd5b61013a6109de565b341561030a57600080fd5b61013a600435602435600160a060020a0360443516610a3f565b341561032f57600080fd5b6101f3600435602435610b03565b341561034857600080fd5b61013a600435602435604435610b26565b341561036457600080fd5b61019f600435602435610bc1565b341561037d57600080fd5b61021a610be2565b341561039057600080fd5b6101f3600160a060020a0360043516610bf1565b34156103af57600080fd5b61021a600435602435610c3b565b34156103c857600080fd5b6103d6600435602435610c65565b604051600160a060020a03909216825260ff1660208201526040908101905180910390f35b341561040657600080fd5b61013a6004356024356044351515610cad565b341561042457600080fd5b6101f3600160a060020a0360043516610d55565b6003548390600160a060020a0316635cb8dd09338360405160e060020a63ffffffff8516028152600160a060020a0390921660048301526024820152604401602060405180830381600087803b151561049057600080fd5b5af1151561049d57600080fd5b5050506040518051905015156104b257600080fd5b50600092835260026020908152604080852093855260039093019052912055565b6003548390600160a060020a0316635cb8dd09338360405160e060020a63ffffffff8516028152600160a060020a0390921660048301526024820152604401602060405180830381600087803b151561052b57600080fd5b5af1151561053857600080fd5b50505060405180519050151561054d57600080fd5b506000928352600260209081526040808520938552600490930190529120805460ff191660ff909216919091179055565b6003548490600160a060020a0316635cb8dd09338360405160e060020a63ffffffff8516028152600160a060020a0390921660048301526024820152604401602060405180830381600087803b15156105d657600080fd5b5af115156105e357600080fd5b5050506040518051905015156105f857600080fd5b604080519081016040908152600160a060020a038516825260ff8416602080840191909152600088815260028252828120888252600601909152208151815473ffffffffffffffffffffffffffffffffffffffff1916600160a060020a03919091161781556020820151815460ff91909116740100000000000000000000000000000000000000000274ff000000000000000000000000000000000000000019909116179055505050505050565b60009182526002602090815260408084209284526005909201905290205490565b60009182526002602090815260408084209284526004909201905290205460ff1690565b60015460009033600160a060020a0390811691161461070c5750600061077f565b600154600054600160a060020a0391821691167f8be0079c531659141344cd1fd0a4f28419497f9722a3daafe3b4186f6b6457e060405160405180910390a350600180546000805473ffffffffffffffffffffffffffffffffffffffff19908116600160a060020a038416179091551681555b90565b600354600160a060020a031681565b600091825260026020908152604080842092845291905290205490565b6003548390600160a060020a0316635cb8dd09338360405160e060020a63ffffffff8516028152600160a060020a0390921660048301526024820152604401602060405180830381600087803b151561080657600080fd5b5af1151561081357600080fd5b50505060405180519050151561082857600080fd5b506000928352600260209081526040808520938552929052912055565b6000805433600160a060020a039081169116141561089f57600160a060020a03821615156108755750600061089f565b506001805473ffffffffffffffffffffffffffffffffffffffff1916600160a060020a0383161781555b919050565b600154600160a060020a031681565b600080548190819033600160a060020a03908116911614156109d857600092505b83518310156109d8578383815181106108e957fe5b90602001906020020151915081600160a060020a03166370a082313060405160e060020a63ffffffff8416028152600160a060020a039091166004820152602401602060405180830381600087803b151561094357600080fd5b5af1151561095057600080fd5b505050604051805191505080156109cd5781600160a060020a031663a9059cbb338360405160e060020a63ffffffff8516028152600160a060020a0390921660048301526024820152604401602060405180830381600087803b15156109b557600080fd5b5af115156109c257600080fd5b505050604051805150505b6001909201916108d4565b50505050565b6000805433600160a060020a0390811691161415610a3c5750600160a060020a033016316000811115610a3c57600160a060020a03331681156108fc0282604051600060405180830381858888f193505050501515610a3c57600080fd5b50565b6003548390600160a060020a0316635cb8dd09338360405160e060020a63ffffffff8516028152600160a060020a0390921660048301526024820152604401602060405180830381600087803b1515610a9757600080fd5b5af11515610aa457600080fd5b505050604051805190501515610ab957600080fd5b506000928352600260209081526040808520938552600190930190529120805473ffffffffffffffffffffffffffffffffffffffff1916600160a060020a03909216919091179055565b600091825260026020818152604080852093855292909101905290205460ff1690565b6003548390600160a060020a0316635cb8dd09338360405160e060020a63ffffffff8516028152600160a060020a0390921660048301526024820152604401602060405180830381600087803b1515610b7e57600080fd5b5af11515610b8b57600080fd5b505050604051805190501515610ba057600080fd5b50600092835260026020908152604080852093855260059093019052912055565b60009182526002602090815260408084209284526003909201905290205490565b600054600160a060020a031681565b6000805433600160a060020a039081169116141561089f575060038054600160a060020a03831673ffffffffffffffffffffffffffffffffffffffff199091161790556001919050565b600091825260026020908152604080842092845260019092019052902054600160a060020a031690565b600091825260026020908152604080842092845260069092019052902054600160a060020a038116917401000000000000000000000000000000000000000090910460ff1690565b6003548390600160a060020a0316635cb8dd09338360405160e060020a63ffffffff8516028152600160a060020a0390921660048301526024820152604401602060405180830381600087803b1515610d0557600080fd5b5af11515610d1257600080fd5b505050604051805190501515610d2757600080fd5b5060009283526002602081815260408086209486529390910190529120805460ff1916911515919091179055565b6000805433600160a060020a039081169116141561089f57600160a060020a0382161515610d855750600061089f565b600054600160a060020a0380841691167f8be0079c531659141344cd1fd0a4f28419497f9722a3daafe3b4186f6b6457e060405160405180910390a35060008054600160a060020a03831673ffffffffffffffffffffffffffffffffffffffff1990911617905560019190505600a165627a7a72305820d7fdff787597b213ec71d1b4a2696e3f9cfd805a3146e5fddc096791981e61b80029",
  "source": "/**\n * Copyright 2017–2018, LaborX PTY\n * Licensed under the AGPL Version 3 license.\n */\n\npragma solidity ^0.4.21;\n\n\nimport \"solidity-shared-lib/contracts/Owned.sol\";\n\n\ncontract Manager {\n    function isAllowed(address _actor, bytes32 _role) public view returns (bool);\n}\n\n\ncontract Storage is Owned {\n    struct Crate {\n        mapping(bytes32 => uint) uints;\n        mapping(bytes32 => address) addresses;\n        mapping(bytes32 => bool) bools;\n        mapping(bytes32 => int) ints;\n        mapping(bytes32 => uint8) uint8s;\n        mapping(bytes32 => bytes32) bytes32s;\n        mapping(bytes32 => AddressUInt8) addressUInt8s;\n    }\n\n    struct AddressUInt8 {\n        address _address;\n        uint8 _uint8;\n    }\n\n    mapping(bytes32 => Crate) internal crates;\n    Manager public manager;\n\n    modifier onlyAllowed(bytes32 _role) {\n        if (!manager.isAllowed(msg.sender, _role)) {\n            revert();\n        }\n        _;\n    }\n\n    function setManager(Manager _manager) onlyContractOwner external returns (bool) {\n        manager = _manager;\n        return true;\n    }\n\n    function setUInt(bytes32 _crate, bytes32 _key, uint _value) onlyAllowed(_crate) public {\n        crates[_crate].uints[_key] = _value;\n    }\n\n    function getUInt(bytes32 _crate, bytes32 _key) public view returns (uint) {\n        return crates[_crate].uints[_key];\n    }\n\n    function setAddress(bytes32 _crate, bytes32 _key, address _value) onlyAllowed(_crate) public {\n        crates[_crate].addresses[_key] = _value;\n    }\n\n    function getAddress(bytes32 _crate, bytes32 _key) public view returns (address) {\n        return crates[_crate].addresses[_key];\n    }\n\n    function setBool(bytes32 _crate, bytes32 _key, bool _value) onlyAllowed(_crate) public {\n        crates[_crate].bools[_key] = _value;\n    }\n\n    function getBool(bytes32 _crate, bytes32 _key) public view returns (bool) {\n        return crates[_crate].bools[_key];\n    }\n\n    function setInt(bytes32 _crate, bytes32 _key, int _value) onlyAllowed(_crate) public {\n        crates[_crate].ints[_key] = _value;\n    }\n\n    function getInt(bytes32 _crate, bytes32 _key) public view returns (int) {\n        return crates[_crate].ints[_key];\n    }\n\n    function setUInt8(bytes32 _crate, bytes32 _key, uint8 _value) onlyAllowed(_crate) public {\n        crates[_crate].uint8s[_key] = _value;\n    }\n\n    function getUInt8(bytes32 _crate, bytes32 _key) public view returns (uint8) {\n        return crates[_crate].uint8s[_key];\n    }\n\n    function setBytes32(bytes32 _crate, bytes32 _key, bytes32 _value) onlyAllowed(_crate) public {\n        crates[_crate].bytes32s[_key] = _value;\n    }\n\n    function getBytes32(bytes32 _crate, bytes32 _key) public view returns (bytes32) {\n        return crates[_crate].bytes32s[_key];\n    }\n\n    function setAddressUInt8(bytes32 _crate, bytes32 _key, address _value, uint8 _value2) onlyAllowed(_crate) public {\n        crates[_crate].addressUInt8s[_key] = AddressUInt8(_value, _value2);\n    }\n\n    function getAddressUInt8(bytes32 _crate, bytes32 _key) public view returns (address, uint8) {\n        return (crates[_crate].addressUInt8s[_key]._address, crates[_crate].addressUInt8s[_key]._uint8);\n    }\n}\n",
  "sourcePath": "solidity-storage-lib/contracts/Storage.sol",
  "compiler": {
    "name": "solc",
    "version": "0.4.21+commit.dfe3193c.Emscripten.clang"
  },
  "schemaVersion": "2.0.0",
  "updatedAt": "2018-07-12T13:24:16.239Z"
}