{
  "contractName": "StorageManager",
  "abi": [
    {
      "constant": false,
      "inputs": [],
      "name": "claimContractOwnership",
      "outputs": [
        {
          "name": "",
          "type": "bool"
        }
      ],
      "payable": false,
      "stateMutability": "nonpayable",
      "type": "function"
    },
    {
      "constant": false,
      "inputs": [
        {
          "name": "_to",
          "type": "address"
        }
      ],
      "name": "changeContractOwnership",
      "outputs": [
        {
          "name": "",
          "type": "bool"
        }
      ],
      "payable": false,
      "stateMutability": "nonpayable",
      "type": "function"
    },
    {
      "constant": true,
      "inputs": [],
      "name": "pendingContractOwner",
      "outputs": [
        {
          "name": "",
          "type": "address"
        }
      ],
      "payable": false,
      "stateMutability": "view",
      "type": "function"
    },
    {
      "constant": false,
      "inputs": [
        {
          "name": "tokens",
          "type": "address[]"
        }
      ],
      "name": "withdrawTokens",
      "outputs": [],
      "payable": false,
      "stateMutability": "nonpayable",
      "type": "function"
    },
    {
      "constant": false,
      "inputs": [],
      "name": "withdrawEther",
      "outputs": [],
      "payable": false,
      "stateMutability": "nonpayable",
      "type": "function"
    },
    {
      "constant": true,
      "inputs": [
        {
          "name": "",
          "type": "bytes32"
        }
      ],
      "name": "accessRights",
      "outputs": [
        {
          "name": "",
          "type": "bool"
        }
      ],
      "payable": false,
      "stateMutability": "view",
      "type": "function"
    },
    {
      "constant": false,
      "inputs": [
        {
          "name": "_errorCode",
          "type": "uint256"
        }
      ],
      "name": "emitErrorCode",
      "outputs": [],
      "payable": false,
      "stateMutability": "nonpayable",
      "type": "function"
    },
    {
      "constant": true,
      "inputs": [],
      "name": "contractOwner",
      "outputs": [
        {
          "name": "",
          "type": "address"
        }
      ],
      "payable": false,
      "stateMutability": "view",
      "type": "function"
    },
    {
      "constant": true,
      "inputs": [
        {
          "name": "",
          "type": "address"
        }
      ],
      "name": "authorised",
      "outputs": [
        {
          "name": "",
          "type": "uint256"
        }
      ],
      "payable": false,
      "stateMutability": "view",
      "type": "function"
    },
    {
      "constant": false,
      "inputs": [
        {
          "name": "newOwner",
          "type": "address"
        }
      ],
      "name": "transferOwnership",
      "outputs": [
        {
          "name": "",
          "type": "bool"
        }
      ],
      "payable": false,
      "stateMutability": "nonpayable",
      "type": "function"
    },
    {
      "constant": true,
      "inputs": [],
      "name": "getEventsHistory",
      "outputs": [
        {
          "name": "",
          "type": "address"
        }
      ],
      "payable": false,
      "stateMutability": "view",
      "type": "function"
    },
    {
      "anonymous": false,
      "inputs": [
        {
          "indexed": true,
          "name": "self",
          "type": "address"
        },
        {
          "indexed": false,
          "name": "actor",
          "type": "address"
        },
        {
          "indexed": false,
          "name": "role",
          "type": "bytes32"
        }
      ],
      "name": "AccessGiven",
      "type": "event"
    },
    {
      "anonymous": false,
      "inputs": [
        {
          "indexed": true,
          "name": "self",
          "type": "address"
        },
        {
          "indexed": false,
          "name": "actor",
          "type": "address"
        },
        {
          "indexed": false,
          "name": "role",
          "type": "bytes32"
        }
      ],
      "name": "AccessBlocked",
      "type": "event"
    },
    {
      "anonymous": false,
      "inputs": [
        {
          "indexed": true,
          "name": "self",
          "type": "address"
        },
        {
          "indexed": false,
          "name": "errorCode",
          "type": "uint256"
        }
      ],
      "name": "ErrorCode",
      "type": "event"
    },
    {
      "anonymous": false,
      "inputs": [
        {
          "indexed": true,
          "name": "previousOwner",
          "type": "address"
        },
        {
          "indexed": true,
          "name": "newOwner",
          "type": "address"
        }
      ],
      "name": "OwnershipTransferred",
      "type": "event"
    },
    {
      "constant": false,
      "inputs": [
        {
          "name": "_eventsHistory",
          "type": "address"
        }
      ],
      "name": "setupEventsHistory",
      "outputs": [
        {
          "name": "",
          "type": "uint256"
        }
      ],
      "payable": false,
      "stateMutability": "nonpayable",
      "type": "function"
    },
    {
      "constant": false,
      "inputs": [
        {
          "name": "_actor",
          "type": "address"
        },
        {
          "name": "_role",
          "type": "bytes32"
        }
      ],
      "name": "giveAccess",
      "outputs": [
        {
          "name": "",
          "type": "uint256"
        }
      ],
      "payable": false,
      "stateMutability": "nonpayable",
      "type": "function"
    },
    {
      "constant": false,
      "inputs": [
        {
          "name": "_actor",
          "type": "address"
        },
        {
          "name": "_role",
          "type": "bytes32"
        }
      ],
      "name": "blockAccess",
      "outputs": [
        {
          "name": "",
          "type": "uint256"
        }
      ],
      "payable": false,
      "stateMutability": "nonpayable",
      "type": "function"
    },
    {
      "constant": true,
      "inputs": [
        {
          "name": "_actor",
          "type": "address"
        },
        {
          "name": "_role",
          "type": "bytes32"
        }
      ],
      "name": "isAllowed",
      "outputs": [
        {
          "name": "",
          "type": "bool"
        }
      ],
      "payable": false,
      "stateMutability": "view",
      "type": "function"
    },
    {
      "constant": true,
      "inputs": [
        {
          "name": "_actor",
          "type": "address"
        }
      ],
      "name": "hasAccess",
      "outputs": [
        {
          "name": "",
          "type": "bool"
        }
      ],
      "payable": false,
      "stateMutability": "view",
      "type": "function"
    },
    {
      "constant": false,
      "inputs": [
        {
          "name": "_user",
          "type": "address"
        },
        {
          "name": "_role",
          "type": "bytes32"
        }
      ],
      "name": "emitAccessGiven",
      "outputs": [],
      "payable": false,
      "stateMutability": "nonpayable",
      "type": "function"
    },
    {
      "constant": false,
      "inputs": [
        {
          "name": "_user",
          "type": "address"
        },
        {
          "name": "_role",
          "type": "bytes32"
        }
      ],
      "name": "emitAccessBlocked",
      "outputs": [],
      "payable": false,
      "stateMutability": "nonpayable",
      "type": "function"
    }
  ],
  "bytecode": "0x606060405260008054600160a060020a033316600160a060020a0319909116179055610bad806100306000396000f3006060604052600436106100e25763ffffffff60e060020a60003504166302927d2081146100e7578063157fbd8d146101185780632c19d4801461013c5780634592cd1d1461015e578063557f4bc9146101855780635aa77d3c146101a45780635cb8dd09146101d35780635ecb16cd146101f55780637362377b146102445780637a7f34531461025757806385c53cf11461026d5780638834277e1461028f57806395a078e8146102a5578063bd17a9d8146102c4578063ce606ee0146102e6578063d6eb1bbf146102f9578063f2fde38b14610318578063fff10aba14610337575b600080fd5b34156100f257600080fd5b610106600160a060020a036004351661034a565b60405190815260200160405180910390f35b341561012357600080fd5b61013a600160a060020a0360043516602435610376565b005b341561014757600080fd5b61013a600160a060020a03600435166024356103cf565b341561016957600080fd5b610171610428565b604051901515815260200160405180910390f35b341561019057600080fd5b610171600160a060020a03600435166104bf565b34156101af57600080fd5b6101b761051f565b604051600160a060020a03909116815260200160405180910390f35b34156101de57600080fd5b610171600160a060020a036004351660243561052e565b341561020057600080fd5b61013a60046024813581810190830135806020818102016040519081016040528093929190818152602001838360200280828437509496506105a095505050505050565b341561024f57600080fd5b61013a6106cb565b341561026257600080fd5b61017160043561072c565b341561027857600080fd5b610106600160a060020a0360043516602435610741565b341561029a57600080fd5b61013a600435610835565b34156102b057600080fd5b610171600160a060020a036004351661087c565b34156102cf57600080fd5b610106600160a060020a03600435166024356108b1565b34156102f157600080fd5b6101b76109b4565b341561030457600080fd5b610106600160a060020a03600435166109c3565b341561032357600080fd5b610171600160a060020a03600435166109d5565b341561034257600080fd5b6101b7610a73565b6000805433600160a060020a03908116911614156103715761036b82610a82565b50600190505b919050565b61037e610ab3565b600160a060020a03167fd21adfcaa3724e99864abea371528f9aa867d0b433e7d29dd972bf8d839ce4678383604051600160a060020a03909216825260208201526040908101905180910390a25050565b6103d7610ab3565b600160a060020a03167fb6798040b2ff718946767eb5764382753f7d49017204678c8905ccbd393f48bc8383604051600160a060020a03909216825260208201526040908101905180910390a25050565b60015460009033600160a060020a03908116911614610449575060006104bc565b600154600054600160a060020a0391821691167f8be0079c531659141344cd1fd0a4f28419497f9722a3daafe3b4186f6b6457e060405160405180910390a350600180546000805473ffffffffffffffffffffffffffffffffffffffff19908116600160a060020a038416179091551681555b90565b6000805433600160a060020a039081169116141561037157600160a060020a03821615156104ef57506000610371565b5060018054600160a060020a03831673ffffffffffffffffffffffffffffffffffffffff19909116178155919050565b600154600160a060020a031681565b6000600460008484604051600160a060020a03929092166c010000000000000000000000000282526014820152603401604051908190039020815260208101919091526040016000205460ff1680610597575082600160a060020a031630600160a060020a0316145b90505b92915050565b600080548190819033600160a060020a03908116911614156106c557600092505b83518310156106c5578383815181106105d657fe5b90602001906020020151915081600160a060020a03166370a082313060405160e060020a63ffffffff8416028152600160a060020a039091166004820152602401602060405180830381600087803b151561063057600080fd5b5af1151561063d57600080fd5b505050604051805191505080156106ba5781600160a060020a031663a9059cbb338360405160e060020a63ffffffff8516028152600160a060020a0390921660048301526024820152604401602060405180830381600087803b15156106a257600080fd5b5af115156106af57600080fd5b505050604051805150505b6001909201916105c1565b50505050565b6000805433600160a060020a03908116911614156107295750600160a060020a03301631600081111561072957600160a060020a03331681156108fc0282604051600060405180830381858888f19350505050151561072957600080fd5b50565b60046020526000908152604090205460ff1681565b6000805433600160a060020a039081169116141561059a57600460008484604051600160a060020a03929092166c010000000000000000000000000282526014820152603401604051908190039020815260208101919091526040016000205460ff16151561082c576001600460008585604051600160a060020a03929092166c010000000000000000000000000282526014820152603401604051908190039020815260208082019290925260409081016000908120805460ff191694151594909417909355600160a060020a0386168352600390915290208054600101905561082c8383610ab7565b50600192915050565b61083d610ab3565b600160a060020a03167f09e0713b45664e161c202b19bb4574ee83dfa056f9bfdee56847b3971d9682218260405190815260200160405180910390a250565b600160a060020a0381166000908152600360205260408120548190118061059a57505030600160a060020a0390811691161490565b6000805433600160a060020a039081169116141561059a57600460008484604051600160a060020a03929092166c010000000000000000000000000282526014820152603401604051908190039020815260208101919091526040016000205460ff161561082c57600460008484604051600160a060020a03929092166c010000000000000000000000000282526014820152603401604051908190039020815260208082019290925260409081016000908120805460ff19169055600160a060020a0386168152600390925290208054600019019081905515156109aa57600160a060020a0383166000908152600360205260408120555b61082c8383610b26565b600054600160a060020a031681565b60036020526000908152604090205481565b6000805433600160a060020a039081169116141561037157600160a060020a0382161515610a0557506000610371565b600054600160a060020a0380841691167f8be0079c531659141344cd1fd0a4f28419497f9722a3daafe3b4186f6b6457e060405160405180910390a35060008054600160a060020a03831673ffffffffffffffffffffffffffffffffffffffff199091161790556001919050565b600254600160a060020a031690565b60028054600160a060020a03831673ffffffffffffffffffffffffffffffffffffffff199091161790556001919050565b3390565b610abf610a73565b600160a060020a0316632c19d480838360405160e060020a63ffffffff8516028152600160a060020a0390921660048301526024820152604401600060405180830381600087803b1515610b1257600080fd5b5af11515610b1f57600080fd5b5050505050565b610b2e610a73565b600160a060020a031663157fbd8d838360405160e060020a63ffffffff8516028152600160a060020a0390921660048301526024820152604401600060405180830381600087803b1515610b1257600080fd00a165627a7a723058200f1fc4380480616e0e491c9820c770236bd50be181f817ec2ef864881ce35a9b0029",
  "source": "/**\n * Copyright 2017–2018, LaborX PTY\n * Licensed under the AGPL Version 3 license.\n */\n\npragma solidity ^0.4.21;\n\n\nimport \"solidity-shared-lib/contracts/Owned.sol\";\nimport \"solidity-eventshistory-lib/contracts/MultiEventsHistoryAdapter.sol\";\n\n\ncontract StorageManager is Owned, MultiEventsHistoryAdapter {\n\n    uint constant OK = 1;\n\n    event AccessGiven(address indexed self, address actor, bytes32 role);\n    event AccessBlocked(address indexed self, address actor, bytes32 role);\n\n    mapping (address => uint) public authorised;\n    mapping (bytes32 => bool) public accessRights;\n\n    function setupEventsHistory(address _eventsHistory)\n    external\n    onlyContractOwner\n    returns (uint)\n    {\n        _setEventsHistory(_eventsHistory);\n        return OK;\n    }\n\n    function giveAccess(address _actor, bytes32 _role)\n    external\n    onlyContractOwner\n    returns (uint)\n    {\n        if (!accessRights[keccak256(_actor, _role)]) {\n            accessRights[keccak256(_actor, _role)] = true;\n            authorised[_actor] += 1;\n            _emitAccessGiven(_actor, _role);\n        }\n\n        return OK;\n    }\n\n    function blockAccess(address _actor, bytes32 _role)\n    external\n    onlyContractOwner\n    returns (uint)\n    {\n        if (accessRights[keccak256(_actor, _role)]) {\n            delete accessRights[keccak256(_actor, _role)];\n            authorised[_actor] -= 1;\n            if (authorised[_actor] == 0) {\n                delete authorised[_actor];\n            }\n            _emitAccessBlocked(_actor, _role);\n        }\n\n        return OK;\n    }\n\n    function isAllowed(address _actor, bytes32 _role)\n    public\n    view\n    returns (bool)\n    {\n        return accessRights[keccak256(_actor, _role)] || (this == _actor);\n    }\n\n    function hasAccess(address _actor)\n    public\n    view\n    returns (bool)\n    {\n        return (authorised[_actor] > 0) || (this == _actor);\n    }\n\n    function emitAccessGiven(address _user, bytes32 _role) external {\n        emit AccessGiven(_self(), _user, _role);\n    }\n\n    function emitAccessBlocked(address _user, bytes32 _role) external {\n        emit AccessBlocked(_self(), _user, _role);\n    }\n\n    function _emitAccessGiven(address _user, bytes32 _role) internal {\n        StorageManager(getEventsHistory()).emitAccessGiven(_user, _role);\n    }\n\n    function _emitAccessBlocked(address _user, bytes32 _role) internal {\n        StorageManager(getEventsHistory()).emitAccessBlocked(_user, _role);\n    }\n}\n",
  "sourcePath": "solidity-storage-lib/contracts/StorageManager.sol",
  "compiler": {
    "name": "solc",
    "version": "0.4.21+commit.dfe3193c.Emscripten.clang"
  },
  "schemaVersion": "2.0.0",
  "updatedAt": "2018-07-12T13:24:16.217Z"
}