{
  "contractName": "StorageManager",
  "abi": [
    {
      "constant": false,
      "inputs": [
        {
          "name": "_user",
          "type": "address"
        },
        {
          "name": "_role",
          "type": "bytes32"
        }
      ],
      "name": "emitAccessBlocked",
      "outputs": [],
      "payable": false,
      "stateMutability": "nonpayable",
      "type": "function"
    },
    {
      "constant": false,
      "inputs": [
        {
          "name": "_user",
          "type": "address"
        },
        {
          "name": "_role",
          "type": "bytes32"
        }
      ],
      "name": "emitAccessGiven",
      "outputs": [],
      "payable": false,
      "stateMutability": "nonpayable",
      "type": "function"
    },
    {
      "constant": false,
      "inputs": [],
      "name": "claimContractOwnership",
      "outputs": [
        {
          "name": "",
          "type": "bool"
        }
      ],
      "payable": false,
      "stateMutability": "nonpayable",
      "type": "function"
    },
    {
      "constant": false,
      "inputs": [
        {
          "name": "_to",
          "type": "address"
        }
      ],
      "name": "changeContractOwnership",
      "outputs": [
        {
          "name": "",
          "type": "bool"
        }
      ],
      "payable": false,
      "stateMutability": "nonpayable",
      "type": "function"
    },
    {
      "constant": true,
      "inputs": [],
      "name": "pendingContractOwner",
      "outputs": [
        {
          "name": "",
          "type": "address"
        }
      ],
      "payable": false,
      "stateMutability": "view",
      "type": "function"
    },
    {
      "constant": true,
      "inputs": [
        {
          "name": "_actor",
          "type": "address"
        },
        {
          "name": "_role",
          "type": "bytes32"
        }
      ],
      "name": "isAllowed",
      "outputs": [
        {
          "name": "",
          "type": "bool"
        }
      ],
      "payable": false,
      "stateMutability": "view",
      "type": "function"
    },
    {
      "constant": false,
      "inputs": [
        {
          "name": "tokens",
          "type": "address[]"
        }
      ],
      "name": "withdrawTokens",
      "outputs": [],
      "payable": false,
      "stateMutability": "nonpayable",
      "type": "function"
    },
    {
      "constant": false,
      "inputs": [],
      "name": "withdrawEther",
      "outputs": [],
      "payable": false,
      "stateMutability": "nonpayable",
      "type": "function"
    },
    {
      "constant": true,
      "inputs": [
        {
          "name": "",
          "type": "bytes32"
        }
      ],
      "name": "accessRights",
      "outputs": [
        {
          "name": "",
          "type": "bool"
        }
      ],
      "payable": false,
      "stateMutability": "view",
      "type": "function"
    },
    {
      "constant": false,
      "inputs": [
        {
          "name": "_actor",
          "type": "address"
        },
        {
          "name": "_role",
          "type": "bytes32"
        }
      ],
      "name": "giveAccess",
      "outputs": [
        {
          "name": "",
          "type": "uint256"
        }
      ],
      "payable": false,
      "stateMutability": "nonpayable",
      "type": "function"
    },
    {
      "constant": true,
      "inputs": [
        {
          "name": "_actor",
          "type": "address"
        }
      ],
      "name": "hasAccess",
      "outputs": [
        {
          "name": "",
          "type": "bool"
        }
      ],
      "payable": false,
      "stateMutability": "view",
      "type": "function"
    },
    {
      "constant": false,
      "inputs": [
        {
          "name": "_actor",
          "type": "address"
        },
        {
          "name": "_role",
          "type": "bytes32"
        }
      ],
      "name": "blockAccess",
      "outputs": [
        {
          "name": "",
          "type": "uint256"
        }
      ],
      "payable": false,
      "stateMutability": "nonpayable",
      "type": "function"
    },
    {
      "constant": true,
      "inputs": [],
      "name": "contractOwner",
      "outputs": [
        {
          "name": "",
          "type": "address"
        }
      ],
      "payable": false,
      "stateMutability": "view",
      "type": "function"
    },
    {
      "constant": true,
      "inputs": [
        {
          "name": "",
          "type": "address"
        }
      ],
      "name": "authorised",
      "outputs": [
        {
          "name": "",
          "type": "uint256"
        }
      ],
      "payable": false,
      "stateMutability": "view",
      "type": "function"
    },
    {
      "constant": false,
      "inputs": [
        {
          "name": "newOwner",
          "type": "address"
        }
      ],
      "name": "transferOwnership",
      "outputs": [
        {
          "name": "",
          "type": "bool"
        }
      ],
      "payable": false,
      "stateMutability": "nonpayable",
      "type": "function"
    },
    {
      "payable": true,
      "stateMutability": "payable",
      "type": "fallback"
    },
    {
      "anonymous": false,
      "inputs": [
        {
          "indexed": true,
          "name": "self",
          "type": "address"
        },
        {
          "indexed": false,
          "name": "actor",
          "type": "address"
        },
        {
          "indexed": false,
          "name": "role",
          "type": "bytes32"
        }
      ],
      "name": "AccessGiven",
      "type": "event"
    },
    {
      "anonymous": false,
      "inputs": [
        {
          "indexed": true,
          "name": "self",
          "type": "address"
        },
        {
          "indexed": false,
          "name": "actor",
          "type": "address"
        },
        {
          "indexed": false,
          "name": "role",
          "type": "bytes32"
        }
      ],
      "name": "AccessBlocked",
      "type": "event"
    },
    {
      "anonymous": false,
      "inputs": [
        {
          "indexed": true,
          "name": "previousOwner",
          "type": "address"
        },
        {
          "indexed": true,
          "name": "newOwner",
          "type": "address"
        }
      ],
      "name": "OwnershipTransferred",
      "type": "event"
    },
    {
      "constant": false,
      "inputs": [
        {
          "name": "_eventsHistory",
          "type": "address"
        }
      ],
      "name": "setupEventsHistory",
      "outputs": [
        {
          "name": "",
          "type": "bool"
        }
      ],
      "payable": false,
      "stateMutability": "nonpayable",
      "type": "function"
    },
    {
      "constant": true,
      "inputs": [],
      "name": "getEventsHistory",
      "outputs": [
        {
          "name": "",
          "type": "address"
        }
      ],
      "payable": false,
      "stateMutability": "view",
      "type": "function"
    }
  ],
  "bytecode": "0x608060405260008054600160a060020a03191633179055610bba806100256000396000f3006080604052600436106100f05763ffffffff7c010000000000000000000000000000000000000000000000000000000060003504166302927d2081146100f5578063157fbd8d1461012a5780632c19d480146101505780634592cd1d14610174578063557f4bc9146101895780635aa77d3c146101aa5780635cb8dd09146101db5780635ecb16cd146101ff5780637362377b146102545780637a7f34531461026957806385c53cf11461028157806395a078e8146102b7578063bd17a9d8146102d8578063ce606ee0146102fc578063d6eb1bbf14610311578063f2fde38b14610332578063fff10aba14610353575b600080fd5b34801561010157600080fd5b50610116600160a060020a0360043516610368565b604080519115158252519081900360200190f35b34801561013657600080fd5b5061014e600160a060020a03600435166024356103ae565b005b34801561015c57600080fd5b5061014e600160a060020a0360043516602435610402565b34801561018057600080fd5b50610116610456565b34801561019557600080fd5b50610116600160a060020a03600435166104e7565b3480156101b657600080fd5b506101bf610543565b60408051600160a060020a039092168252519081900360200190f35b3480156101e757600080fd5b50610116600160a060020a0360043516602435610552565b34801561020b57600080fd5b506040805160206004803580820135838102808601850190965280855261014e953695939460249493850192918291850190849080828437509497506105b09650505050505050565b34801561026057600080fd5b5061014e610728565b34801561027557600080fd5b5061011660043561077a565b34801561028d57600080fd5b506102a5600160a060020a036004351660243561078f565b60408051918252519081900360200190f35b3480156102c357600080fd5b50610116600160a060020a036004351661085f565b3480156102e457600080fd5b506102a5600160a060020a036004351660243561088f565b34801561030857600080fd5b506101bf610970565b34801561031d57600080fd5b506102a5600160a060020a036004351661097f565b34801561033e57600080fd5b50610116600160a060020a0360043516610991565b34801561035f57600080fd5b506101bf610a28565b60008054600160a060020a03163314156103a957610384610a28565b600160a060020a03161561039a575060006103a9565b6103a382610a55565b50600190505b919050565b6103b6610a86565b60408051600160a060020a0385811682526020820185905282519316927fd21adfcaa3724e99864abea371528f9aa867d0b433e7d29dd972bf8d839ce467929181900390910190a25050565b61040a610a86565b60408051600160a060020a0385811682526020820185905282519316927fb6798040b2ff718946767eb5764382753f7d49017204678c8905ccbd393f48bc929181900390910190a25050565b600154600090600160a060020a03163314610473575060006104e4565b60015460008054604051600160a060020a0393841693909116917f8be0079c531659141344cd1fd0a4f28419497f9722a3daafe3b4186f6b6457e091a350600180546000805473ffffffffffffffffffffffffffffffffffffffff19908116600160a060020a038416179091551681555b90565b60008054600160a060020a03163314156103a957600160a060020a0382161515610513575060006103a9565b5060018054600160a060020a03831673ffffffffffffffffffffffffffffffffffffffff19909116178155919050565b600154600160a060020a031681565b604080516c01000000000000000000000000600160a060020a038516028152601481018390528151908190036034019020600090815260036020529081205460ff16806105a7575030600160a060020a038416145b90505b92915050565b6000805481908190600160a060020a031633141561072257600092505b83518310156107225783838151811015156105e457fe5b6020908102909101810151604080517f70a082310000000000000000000000000000000000000000000000000000000081523060048201529051919450600160a060020a038516926370a08231926024808401938290030181600087803b15801561064e57600080fd5b505af1158015610662573d6000803e3d6000fd5b505050506040513d602081101561067857600080fd5b50519050801561071757604080517fa9059cbb000000000000000000000000000000000000000000000000000000008152336004820152602481018390529051600160a060020a0384169163a9059cbb9160448083019260209291908290030181600087803b1580156106ea57600080fd5b505af11580156106fe573d6000803e3d6000fd5b505050506040513d602081101561071457600080fd5b50505b6001909201916105cd565b50505050565b60008054600160a060020a031633141561077757503031600081111561077757604051339082156108fc029083906000818181858888f19350505050158015610775573d6000803e3d6000fd5b505b50565b60036020526000908152604090205460ff1681565b60008054600160a060020a03163314156105aa57604080516c01000000000000000000000000600160a060020a03861602815260148101849052815190819003603401902060009081526003602052205460ff16151561085657604080516c01000000000000000000000000600160a060020a038616908102825260148201859052825191829003603401909120600090815260036020908152838220805460ff191660019081179091559282526002905291909120805490910190556108568383610a8a565b50600192915050565b600160a060020a0381166000908152600260205260408120548110806105aa575050600160a060020a0316301490565b60008054600160a060020a03163314156105aa57604080516c01000000000000000000000000600160a060020a03861602815260148101849052815190819003603401902060009081526003602052205460ff161561085657604080516c01000000000000000000000000600160a060020a038616908102825260148201859052825191829003603401909120600090815260036020908152838220805460ff1916905591815260029091522080546000190190819055151561096657600160a060020a0383166000908152600260205260408120555b6108568383610b1a565b600054600160a060020a031681565b60026020526000908152604090205481565b60008054600160a060020a03163314156103a957600160a060020a03821615156109bd575060006103a9565b60008054604051600160a060020a03808616939216917f8be0079c531659141344cd1fd0a4f28419497f9722a3daafe3b4186f6b6457e091a35060008054600160a060020a03831673ffffffffffffffffffffffffffffffffffffffff199091161790556001919050565b600454600090600160a060020a03161515610a435730610a50565b600454600160a060020a03165b905090565b60048054600160a060020a03831673ffffffffffffffffffffffffffffffffffffffff199091161790556001919050565b3390565b610a92610a28565b604080517f2c19d480000000000000000000000000000000000000000000000000000000008152600160a060020a0385811660048301526024820185905291519290911691632c19d4809160448082019260009290919082900301818387803b158015610afe57600080fd5b505af1158015610b12573d6000803e3d6000fd5b505050505050565b610b22610a28565b604080517f157fbd8d000000000000000000000000000000000000000000000000000000008152600160a060020a038581166004830152602482018590529151929091169163157fbd8d9160448082019260009290919082900301818387803b158015610afe57600080fd00a165627a7a72305820aa302db7f2ef3fc5b1d74d5495beb86e763ab11a26bcdbfab0a776b82b0c43130029",
  "source": "pragma solidity ^0.4.23;\n\nimport 'solidity-storage-lib/contracts/BaseStorageManager.sol';\n\ncontract StorageManager is BaseStorageManager {\n\n\taddress eventsHistory;\n\n\tfunction setupEventsHistory(address _eventsHistory) onlyContractOwner public returns (bool) {\n        if (getEventsHistory() != 0x0) {\n            return false;\n        }\n        _setEventsHistory(_eventsHistory);\n        return true;\n    }\n\n\tfunction getEventsHistory() public view returns (address) {\n\t\treturn eventsHistory != 0x0 ? eventsHistory : this;\n\t}\n\n\tfunction _self() internal view returns (address) {\n\t\treturn msg.sender;\n\t}\n\n\tfunction _setEventsHistory(address _eventsHistory) internal returns (bool) {\n        eventsHistory = _eventsHistory;\n        return true;\n    }\n}\n",
  "sourcePath": "/home/ipavlenko/Projects/Exchange/laborx.exchange/laborx.exchange.contracts/contracts/StorageManager.sol",
  "compiler": {
    "name": "solc",
    "version": "0.4.24+commit.e67f0147.Emscripten.clang"
  },
  "schemaVersion": "2.0.1",
  "updatedAt": "2018-07-09T12:18:04.452Z"
}