{
  "contractName": "TokenTransferProxy",
  "abi": [
    {
      "constant": true,
      "inputs": [
        {
          "name": "",
          "type": "uint256"
        }
      ],
      "name": "authorities",
      "outputs": [
        {
          "name": "",
          "type": "address"
        }
      ],
      "payable": false,
      "stateMutability": "view",
      "type": "function"
    },
    {
      "constant": true,
      "inputs": [],
      "name": "owner",
      "outputs": [
        {
          "name": "",
          "type": "address"
        }
      ],
      "payable": false,
      "stateMutability": "view",
      "type": "function"
    },
    {
      "constant": true,
      "inputs": [
        {
          "name": "",
          "type": "address"
        }
      ],
      "name": "authorized",
      "outputs": [
        {
          "name": "",
          "type": "bool"
        }
      ],
      "payable": false,
      "stateMutability": "view",
      "type": "function"
    },
    {
      "constant": false,
      "inputs": [
        {
          "name": "newOwner",
          "type": "address"
        }
      ],
      "name": "transferOwnership",
      "outputs": [],
      "payable": false,
      "stateMutability": "nonpayable",
      "type": "function"
    },
    {
      "anonymous": false,
      "inputs": [
        {
          "indexed": true,
          "name": "target",
          "type": "address"
        },
        {
          "indexed": true,
          "name": "caller",
          "type": "address"
        }
      ],
      "name": "LogAuthorizedAddressAdded",
      "type": "event"
    },
    {
      "anonymous": false,
      "inputs": [
        {
          "indexed": true,
          "name": "target",
          "type": "address"
        },
        {
          "indexed": true,
          "name": "caller",
          "type": "address"
        }
      ],
      "name": "LogAuthorizedAddressRemoved",
      "type": "event"
    },
    {
      "constant": false,
      "inputs": [
        {
          "name": "target",
          "type": "address"
        }
      ],
      "name": "addAuthorizedAddress",
      "outputs": [],
      "payable": false,
      "stateMutability": "nonpayable",
      "type": "function"
    },
    {
      "constant": false,
      "inputs": [
        {
          "name": "target",
          "type": "address"
        }
      ],
      "name": "removeAuthorizedAddress",
      "outputs": [],
      "payable": false,
      "stateMutability": "nonpayable",
      "type": "function"
    },
    {
      "constant": false,
      "inputs": [
        {
          "name": "token",
          "type": "address"
        },
        {
          "name": "from",
          "type": "address"
        },
        {
          "name": "to",
          "type": "address"
        },
        {
          "name": "value",
          "type": "uint256"
        }
      ],
      "name": "transferFrom",
      "outputs": [
        {
          "name": "",
          "type": "bool"
        }
      ],
      "payable": false,
      "stateMutability": "nonpayable",
      "type": "function"
    },
    {
      "constant": true,
      "inputs": [],
      "name": "getAuthorizedAddresses",
      "outputs": [
        {
          "name": "",
          "type": "address[]"
        }
      ],
      "payable": false,
      "stateMutability": "view",
      "type": "function"
    }
  ],
  "bytecode": "0x606060405260008054600160a060020a033316600160a060020a03199091161790556106af806100306000396000f30060606040526004361061008d5763ffffffff7c010000000000000000000000000000000000000000000000000000000060003504166315dacbea811461009257806342f1181e146100d4578063494503d4146100f557806370712939146101275780638da5cb5b14610146578063b918161114610159578063d39de6e914610178578063f2fde38b146101de575b600080fd5b341561009d57600080fd5b6100c0600160a060020a03600435811690602435811690604435166064356101fd565b604051901515815260200160405180910390f35b34156100df57600080fd5b6100f3600160a060020a03600435166102bd565b005b341561010057600080fd5b61010b6004356103a2565b604051600160a060020a03909116815260200160405180910390f35b341561013257600080fd5b6100f3600160a060020a03600435166103ca565b341561015157600080fd5b61010b610547565b341561016457600080fd5b6100c0600160a060020a0360043516610556565b341561018357600080fd5b61018b61056b565b60405160208082528190810183818151815260200191508051906020019060200280838360005b838110156101ca5780820151838201526020016101b2565b505050509050019250505060405180910390f35b34156101e957600080fd5b6100f3600160a060020a03600435166105d4565b600160a060020a03331660009081526001602052604081205460ff16151561022457600080fd5b84600160a060020a03166323b872dd8585856040517c010000000000000000000000000000000000000000000000000000000063ffffffff8616028152600160a060020a0393841660048201529190921660248201526044810191909152606401602060405180830381600087803b151561029e57600080fd5b5af115156102ab57600080fd5b50505060405180519695505050505050565b60005433600160a060020a039081169116146102d857600080fd5b600160a060020a038116600090815260016020526040902054819060ff161561030057600080fd5b600160a060020a0382166000908152600160208190526040909120805460ff1916821790556002805490918101610337838261062a565b506000918252602090912001805473ffffffffffffffffffffffffffffffffffffffff1916600160a060020a0384811691821790925533909116907f94bb87f4c15c4587ff559a7584006fa01ddf9299359be6b512b94527aa961aca60405160405180910390a35050565b60028054829081106103b057fe5b600091825260209091200154600160a060020a0316905081565b6000805433600160a060020a039081169116146103e657600080fd5b600160a060020a038216600090815260016020526040902054829060ff16151561040f57600080fd5b600160a060020a0383166000908152600160205260408120805460ff1916905591505b6002548210156105025782600160a060020a031660028381548110151561045557fe5b600091825260209091200154600160a060020a031614156104f75760028054600019810190811061048257fe5b60009182526020909120015460028054600160a060020a0390921691849081106104a857fe5b6000918252602090912001805473ffffffffffffffffffffffffffffffffffffffff1916600160a060020a03929092169190911790556002805460001901906104f1908261062a565b50610502565b600190910190610432565b33600160a060020a031683600160a060020a03167ff5b347a1e40749dd050f5f07fbdbeb7e3efa9756903044dd29401fd1d4bb4a1c60405160405180910390a3505050565b600054600160a060020a031681565b60016020526000908152604090205460ff1681565b610573610653565b60028054806020026020016040519081016040528092919081815260200182805480156105c957602002820191906000526020600020905b8154600160a060020a031681526001909101906020018083116105ab575b505050505090505b90565b60005433600160a060020a039081169116146105ef57600080fd5b600160a060020a03811615610627576000805473ffffffffffffffffffffffffffffffffffffffff1916600160a060020a0383161790555b50565b81548183558181151161064e5760008381526020902061064e918101908301610665565b505050565b60206040519081016040526000815290565b6105d191905b8082111561067f576000815560010161066b565b50905600a165627a7a72305820926209c80ac8ac682dbd565018ab1d70ea61ea78c915a531793cefd86ada026e0029",
  "source": "/*\n\n  Copyright 2017 ZeroEx Intl.\n\n  Licensed under the Apache License, Version 2.0 (the \"License\");\n  you may not use this file except in compliance with the License.\n  You may obtain a copy of the License at\n\n    http://www.apache.org/licenses/LICENSE-2.0\n\n  Unless required by applicable law or agreed to in writing, software\n  distributed under the License is distributed on an \"AS IS\" BASIS,\n  WITHOUT WARRANTIES OR CONDITIONS OF ANY KIND, either express or implied.\n  See the License for the specific language governing permissions and\n  limitations under the License.\n\n*/\n\npragma solidity 0.4.21;\n\nimport { EIP20Interface as Token } from \"../tokens/EIP20Interface.sol\";\nimport \"../utils/Ownable.sol\";\n\n\n/// @title TokenTransferProxy - Transfers tokens on behalf of contracts that have been approved via decentralized governance.\n/// @author Amir Bandeali - <amir@0xProject.com>, Will Warren - <will@0xProject.com>\ncontract TokenTransferProxy is Ownable {\n\n    /// @dev Only authorized addresses can invoke functions with this modifier.\n    modifier onlyAuthorized {\n        require(authorized[msg.sender]);\n        _;\n    }\n\n    modifier targetAuthorized(address target) {\n        require(authorized[target]);\n        _;\n    }\n\n    modifier targetNotAuthorized(address target) {\n        require(!authorized[target]);\n        _;\n    }\n\n    mapping (address => bool) public authorized;\n    address[] public authorities;\n\n    event LogAuthorizedAddressAdded(address indexed target, address indexed caller);\n    event LogAuthorizedAddressRemoved(address indexed target, address indexed caller);\n\n    /*\n     * Public functions\n     */\n    /// @dev Authorizes an address.\n    /// @param target Address to authorize.\n    function addAuthorizedAddress(address target)\n        public\n        onlyOwner\n        targetNotAuthorized(target)\n    {\n        authorized[target] = true;\n        authorities.push(target);\n        emit LogAuthorizedAddressAdded(target, msg.sender);\n    }\n\n    /// @dev Removes authorizion of an address.\n    /// @param target Address to remove authorization from.\n    function removeAuthorizedAddress(address target)\n        public\n        onlyOwner\n        targetAuthorized(target)\n    {\n        delete authorized[target];\n        for (uint i = 0; i < authorities.length; i++) {\n            if (authorities[i] == target) {\n                authorities[i] = authorities[authorities.length - 1];\n                authorities.length -= 1;\n                break;\n            }\n        }\n        emit LogAuthorizedAddressRemoved(target, msg.sender);\n    }\n\n    /// @dev Calls into ERC20 Token contract, invoking transferFrom.\n    /// @param token Address of token to transfer.\n    /// @param from Address to transfer token from.\n    /// @param to Address to transfer token to.\n    /// @param value Amount of token to transfer.\n    /// @return Success of transfer.\n    function transferFrom(\n        address token,\n        address from,\n        address to,\n        uint value)\n        public\n        onlyAuthorized\n        returns (bool)\n    {\n        return Token(token).transferFrom(from, to, value);\n    }\n\n    /*\n     * Public constant functions\n     */\n    /// @dev Gets all authorized addresses.\n    /// @return Array of authorized addresses.\n    function getAuthorizedAddresses()\n        public\n        constant\n        returns (address[])\n    {\n        return authorities;\n    }\n}\n",
  "sourcePath": "/home/mdkardaev/exchange/laborx.exchange.contracts/contracts/exchange/TokenTransferProxy.sol",
  "compiler": {
    "name": "solc",
    "version": "0.4.21+commit.dfe3193c.Emscripten.clang"
  },
  "schemaVersion": "2.0.0",
  "updatedAt": "2018-07-20T10:31:35.236Z"
}