{
  "contractName": "TwoFactorAuthenticationSig",
  "abi": [
    {
      "constant": false,
      "inputs": [
        {
          "name": "owner",
          "type": "address"
        }
      ],
      "name": "removeOwner",
      "outputs": [],
      "payable": false,
      "stateMutability": "nonpayable",
      "type": "function"
    },
    {
      "constant": false,
      "inputs": [
        {
          "name": "transactionId",
          "type": "uint256"
        }
      ],
      "name": "revokeConfirmation",
      "outputs": [],
      "payable": false,
      "stateMutability": "nonpayable",
      "type": "function"
    },
    {
      "constant": true,
      "inputs": [
        {
          "name": "",
          "type": "address"
        }
      ],
      "name": "isOwner",
      "outputs": [
        {
          "name": "",
          "type": "bool"
        }
      ],
      "payable": false,
      "stateMutability": "view",
      "type": "function"
    },
    {
      "constant": true,
      "inputs": [
        {
          "name": "",
          "type": "uint256"
        },
        {
          "name": "",
          "type": "address"
        }
      ],
      "name": "confirmations",
      "outputs": [
        {
          "name": "",
          "type": "bool"
        }
      ],
      "payable": false,
      "stateMutability": "view",
      "type": "function"
    },
    {
      "constant": true,
      "inputs": [
        {
          "name": "pending",
          "type": "bool"
        },
        {
          "name": "executed",
          "type": "bool"
        }
      ],
      "name": "getTransactionCount",
      "outputs": [
        {
          "name": "count",
          "type": "uint256"
        }
      ],
      "payable": false,
      "stateMutability": "view",
      "type": "function"
    },
    {
      "constant": false,
      "inputs": [
        {
          "name": "owner",
          "type": "address"
        }
      ],
      "name": "addOwner",
      "outputs": [],
      "payable": false,
      "stateMutability": "nonpayable",
      "type": "function"
    },
    {
      "constant": true,
      "inputs": [
        {
          "name": "transactionId",
          "type": "uint256"
        }
      ],
      "name": "isConfirmed",
      "outputs": [
        {
          "name": "",
          "type": "bool"
        }
      ],
      "payable": false,
      "stateMutability": "view",
      "type": "function"
    },
    {
      "constant": true,
      "inputs": [
        {
          "name": "transactionId",
          "type": "uint256"
        }
      ],
      "name": "getConfirmationCount",
      "outputs": [
        {
          "name": "count",
          "type": "uint256"
        }
      ],
      "payable": false,
      "stateMutability": "view",
      "type": "function"
    },
    {
      "constant": true,
      "inputs": [
        {
          "name": "",
          "type": "uint256"
        }
      ],
      "name": "transactions",
      "outputs": [
        {
          "name": "destination",
          "type": "address"
        },
        {
          "name": "value",
          "type": "uint256"
        },
        {
          "name": "data",
          "type": "bytes"
        },
        {
          "name": "executed",
          "type": "bool"
        }
      ],
      "payable": false,
      "stateMutability": "view",
      "type": "function"
    },
    {
      "constant": true,
      "inputs": [],
      "name": "getOwners",
      "outputs": [
        {
          "name": "",
          "type": "address[]"
        }
      ],
      "payable": false,
      "stateMutability": "view",
      "type": "function"
    },
    {
      "constant": true,
      "inputs": [
        {
          "name": "from",
          "type": "uint256"
        },
        {
          "name": "to",
          "type": "uint256"
        },
        {
          "name": "pending",
          "type": "bool"
        },
        {
          "name": "executed",
          "type": "bool"
        }
      ],
      "name": "getTransactionIds",
      "outputs": [
        {
          "name": "_transactionIds",
          "type": "uint256[]"
        }
      ],
      "payable": false,
      "stateMutability": "view",
      "type": "function"
    },
    {
      "constant": true,
      "inputs": [
        {
          "name": "transactionId",
          "type": "uint256"
        }
      ],
      "name": "getConfirmations",
      "outputs": [
        {
          "name": "_confirmations",
          "type": "address[]"
        }
      ],
      "payable": false,
      "stateMutability": "view",
      "type": "function"
    },
    {
      "constant": true,
      "inputs": [],
      "name": "transactionCount",
      "outputs": [
        {
          "name": "",
          "type": "uint256"
        }
      ],
      "payable": false,
      "stateMutability": "view",
      "type": "function"
    },
    {
      "constant": false,
      "inputs": [
        {
          "name": "_required",
          "type": "uint256"
        }
      ],
      "name": "changeRequirement",
      "outputs": [],
      "payable": false,
      "stateMutability": "nonpayable",
      "type": "function"
    },
    {
      "constant": false,
      "inputs": [
        {
          "name": "transactionId",
          "type": "uint256"
        }
      ],
      "name": "confirmTransaction",
      "outputs": [],
      "payable": false,
      "stateMutability": "nonpayable",
      "type": "function"
    },
    {
      "constant": false,
      "inputs": [
        {
          "name": "destination",
          "type": "address"
        },
        {
          "name": "value",
          "type": "uint256"
        },
        {
          "name": "data",
          "type": "bytes"
        }
      ],
      "name": "submitTransaction",
      "outputs": [
        {
          "name": "transactionId",
          "type": "uint256"
        }
      ],
      "payable": false,
      "stateMutability": "nonpayable",
      "type": "function"
    },
    {
      "constant": true,
      "inputs": [],
      "name": "MAX_OWNER_COUNT",
      "outputs": [
        {
          "name": "",
          "type": "uint256"
        }
      ],
      "payable": false,
      "stateMutability": "view",
      "type": "function"
    },
    {
      "constant": true,
      "inputs": [],
      "name": "required",
      "outputs": [
        {
          "name": "",
          "type": "uint256"
        }
      ],
      "payable": false,
      "stateMutability": "view",
      "type": "function"
    },
    {
      "constant": false,
      "inputs": [
        {
          "name": "owner",
          "type": "address"
        },
        {
          "name": "newOwner",
          "type": "address"
        }
      ],
      "name": "replaceOwner",
      "outputs": [],
      "payable": false,
      "stateMutability": "nonpayable",
      "type": "function"
    },
    {
      "constant": false,
      "inputs": [
        {
          "name": "transactionId",
          "type": "uint256"
        }
      ],
      "name": "executeTransaction",
      "outputs": [],
      "payable": false,
      "stateMutability": "nonpayable",
      "type": "function"
    },
    {
      "payable": true,
      "stateMutability": "payable",
      "type": "fallback"
    },
    {
      "anonymous": false,
      "inputs": [
        {
          "indexed": true,
          "name": "sender",
          "type": "address"
        },
        {
          "indexed": true,
          "name": "transactionId",
          "type": "uint256"
        }
      ],
      "name": "Confirmation",
      "type": "event"
    },
    {
      "anonymous": false,
      "inputs": [
        {
          "indexed": true,
          "name": "sender",
          "type": "address"
        },
        {
          "indexed": true,
          "name": "transactionId",
          "type": "uint256"
        }
      ],
      "name": "Revocation",
      "type": "event"
    },
    {
      "anonymous": false,
      "inputs": [
        {
          "indexed": true,
          "name": "transactionId",
          "type": "uint256"
        }
      ],
      "name": "Submission",
      "type": "event"
    },
    {
      "anonymous": false,
      "inputs": [
        {
          "indexed": true,
          "name": "transactionId",
          "type": "uint256"
        }
      ],
      "name": "Execution",
      "type": "event"
    },
    {
      "anonymous": false,
      "inputs": [
        {
          "indexed": true,
          "name": "transactionId",
          "type": "uint256"
        }
      ],
      "name": "ExecutionFailure",
      "type": "event"
    },
    {
      "anonymous": false,
      "inputs": [
        {
          "indexed": true,
          "name": "sender",
          "type": "address"
        },
        {
          "indexed": false,
          "name": "value",
          "type": "uint256"
        }
      ],
      "name": "Deposit",
      "type": "event"
    },
    {
      "anonymous": false,
      "inputs": [
        {
          "indexed": true,
          "name": "owner",
          "type": "address"
        }
      ],
      "name": "OwnerAddition",
      "type": "event"
    },
    {
      "anonymous": false,
      "inputs": [
        {
          "indexed": true,
          "name": "owner",
          "type": "address"
        }
      ],
      "name": "OwnerRemoval",
      "type": "event"
    },
    {
      "anonymous": false,
      "inputs": [
        {
          "indexed": false,
          "name": "required",
          "type": "uint256"
        }
      ],
      "name": "RequirementChange",
      "type": "event"
    },
    {
      "constant": true,
      "inputs": [],
      "name": "getOracle",
      "outputs": [
        {
          "name": "",
          "type": "address"
        }
      ],
      "payable": false,
      "stateMutability": "view",
      "type": "function"
    }
  ],
  "bytecode": "0x60606040526114ca806100136000396000f30060606040526004361061011c5763ffffffff7c0100000000000000000000000000000000000000000000000000000000600035041663173825d9811461016557806320ea8d86146101845780632f54bf6e1461019a5780633411c81c146101cd57806354741525146101ef5780637065cb481461021e578063784547a71461023d578063833b1fce146102535780638b51d13f146102825780639ace38c214610298578063a0e67e2b14610346578063a8abe69a146103ac578063b5dc40c3146103cf578063b77bf600146103e5578063ba51a6df146103f8578063c01a8c841461040e578063c642747414610424578063d74f8edd14610489578063dc8452cd1461049c578063e20056e6146104af578063ee22610b146104d4575b60003411156101635733600160a060020a03167fe1fffcc4923d04b559f4d29a8bfc6cda04eb5b0d3c460751c2402c5c5cc9109c3460405190815260200160405180910390a25b005b341561017057600080fd5b610163600160a060020a03600435166104ea565b341561018f57600080fd5b61016360043561067f565b34156101a557600080fd5b6101b9600160a060020a036004351661075d565b604051901515815260200160405180910390f35b34156101d857600080fd5b6101b9600435600160a060020a0360243516610772565b34156101fa57600080fd5b61020c60043515156024351515610792565b60405190815260200160405180910390f35b341561022957600080fd5b610163600160a060020a03600435166107fe565b341561024857600080fd5b6101b9600435610932565b341561025e57600080fd5b6102666109b6565b604051600160a060020a03909116815260200160405180910390f35b341561028d57600080fd5b61020c6004356109e3565b34156102a357600080fd5b6102ae600435610a52565b604051600160a060020a038516815260208101849052811515606082015260806040820181815290820184818151815260200191508051906020019080838360005b838110156103085780820151838201526020016102f0565b50505050905090810190601f1680156103355780820380516001836020036101000a031916815260200191505b509550505050505060405180910390f35b341561035157600080fd5b610359610b30565b60405160208082528190810183818151815260200191508051906020019060200280838360005b83811015610398578082015183820152602001610380565b505050509050019250505060405180910390f35b34156103b757600080fd5b61035960043560243560443515156064351515610b98565b34156103da57600080fd5b610359600435610cc0565b34156103f057600080fd5b61020c610e24565b341561040357600080fd5b610163600435610e2a565b341561041957600080fd5b610163600435610eb5565b341561042f57600080fd5b61020c60048035600160a060020a03169060248035919060649060443590810190830135806020601f82018190048102016040519081016040528181529291906020840183838082843750949650610fa395505050505050565b341561049457600080fd5b61020c610fc2565b34156104a757600080fd5b61020c610fc7565b34156104ba57600080fd5b610163600160a060020a0360043581169060243516610fcd565b34156104df57600080fd5b61016360043561117b565b600030600160a060020a031633600160a060020a031614151561050c57600080fd5b600160a060020a038216600090815260026020526040902054829060ff16151561053557600080fd5b600160a060020a0383166000908152600260205260408120805460ff1916905591505b600354600019018210156106185782600160a060020a031660038381548110151561057f57fe5b600091825260209091200154600160a060020a0316141561060d576003805460001981019081106105ac57fe5b60009182526020909120015460038054600160a060020a0390921691849081106105d257fe5b6000918252602090912001805473ffffffffffffffffffffffffffffffffffffffff1916600160a060020a0392909216919091179055610618565b816001019150610558565b60038054600019019061062b90826113d0565b5060035460045411156106445760035461064490610e2a565b82600160a060020a03167f8001553a916ef2f495d26a907cc54d96ed840d7bda71e73194bf5a9df7a76b9060405160405180910390a2505050565b33600160a060020a03811660009081526002602052604090205460ff1615156106a757600080fd5b600082815260016020908152604080832033600160a060020a038116855292529091205483919060ff1615156106dc57600080fd5b600084815260208190526040902060030154849060ff16156106fd57600080fd5b6000858152600160209081526040808320600160a060020a033316808552925291829020805460ff1916905586917ff6a317157440607f36269043eb55f1287a5a19ba2216afeab88cd46cbcfb88e9905160405180910390a35050505050565b60026020526000908152604090205460ff1681565b600160209081526000928352604080842090915290825290205460ff1681565b6000805b6005548110156107f7578380156107bf575060008181526020819052604090206003015460ff16155b806107e357508280156107e3575060008181526020819052604090206003015460ff165b156107ef576001820191505b600101610796565b5092915050565b30600160a060020a031633600160a060020a031614151561081e57600080fd5b600160a060020a038116600090815260026020526040902054819060ff161561084657600080fd5b81600160a060020a038116151561085c57600080fd5b600380549050600101600454603282118061087657508181115b8061087f575080155b80610888575081155b1561089257600080fd5b600160a060020a0385166000908152600260205260409020805460ff1916600190811790915560038054909181016108ca83826113d0565b506000918252602090912001805473ffffffffffffffffffffffffffffffffffffffff1916600160a060020a0387169081179091557ff39e6e1eb0edcf53c221607b54b00cd28f3196fed0a24994dc308b8f611b682d60405160405180910390a25050505050565b600080805b6003548110156109af576000848152600160205260408120600380549192918490811061096057fe5b6000918252602080832090910154600160a060020a0316835282019290925260400190205460ff1615610994576001820191505b6004548214156109a757600192506109af565b600101610937565b5050919050565b6000600360018154811015156109c857fe5b600091825260209091200154600160a060020a031690505b90565b6000805b600354811015610a4c5760008381526001602052604081206003805491929184908110610a1057fe5b6000918252602080832090910154600160a060020a0316835282019290925260400190205460ff1615610a44576001820191505b6001016109e7565b50919050565b60006020528060005260406000206000915090508060000160009054906101000a9004600160a060020a031690806001015490806002018054600181600116156101000203166002900480601f016020809104026020016040519081016040528092919081815260200182805460018160011615610100020316600290048015610b1d5780601f10610af257610100808354040283529160200191610b1d565b820191906000526020600020905b815481529060010190602001808311610b0057829003601f168201915b5050506003909301549192505060ff1684565b610b386113f4565b6003805480602002602001604051908101604052809291908181526020018280548015610b8e57602002820191906000526020600020905b8154600160a060020a03168152600190910190602001808311610b70575b5050505050905090565b610ba06113f4565b610ba86113f4565b600080600554604051805910610bbb5750595b9080825280602002602001820160405250925060009150600090505b600554811015610c5057858015610c00575060008181526020819052604090206003015460ff16155b80610c245750848015610c24575060008181526020819052604090206003015460ff165b15610c485780838381518110610c3657fe5b60209081029091010152600191909101905b600101610bd7565b878703604051805910610c605750595b908082528060200260200182016040525093508790505b86811015610cb557828181518110610c8b57fe5b906020019060200201518489830381518110610ca357fe5b60209081029091010152600101610c77565b505050949350505050565b610cc86113f4565b610cd06113f4565b6003546000908190604051805910610ce55750595b9080825280602002602001820160405250925060009150600090505b600354811015610dad5760008581526001602052604081206003805491929184908110610d2a57fe5b6000918252602080832090910154600160a060020a0316835282019290925260400190205460ff1615610da5576003805482908110610d6557fe5b600091825260209091200154600160a060020a0316838381518110610d8657fe5b600160a060020a03909216602092830290910190910152600191909101905b600101610d01565b81604051805910610dbb5750595b90808252806020026020018201604052509350600090505b81811015610e1c57828181518110610de757fe5b90602001906020020151848281518110610dfd57fe5b600160a060020a03909216602092830290910190910152600101610dd3565b505050919050565b60055481565b30600160a060020a031633600160a060020a0316141515610e4a57600080fd5b600354816032821180610e5c57508181115b80610e65575080155b80610e6e575081155b15610e7857600080fd5b60048390557fa3f1ee9126a074d9326c682f561767f710e927faa811f7a99829d49dc421797a8360405190815260200160405180910390a1505050565b33600160a060020a03811660009081526002602052604090205460ff161515610edd57600080fd5b6000828152602081905260409020548290600160a060020a03161515610f0257600080fd5b600083815260016020908152604080832033600160a060020a038116855292529091205484919060ff1615610f3657600080fd5b6000858152600160208181526040808420600160a060020a033316808652925292839020805460ff191690921790915586917f4a504a94899432a9846e1aa406dceb1bcfd538bb839071d49d1e5e23f5be30ef905160405180910390a3610f9c8561117b565b5050505050565b6000610fb08484846112d3565b9050610fbb81610eb5565b9392505050565b603281565b60045481565b600030600160a060020a031633600160a060020a0316141515610fef57600080fd5b600160a060020a038316600090815260026020526040902054839060ff16151561101857600080fd5b600160a060020a038316600090815260026020526040902054839060ff161561104057600080fd5b600092505b6003548310156110d95784600160a060020a031660038481548110151561106857fe5b600091825260209091200154600160a060020a031614156110ce578360038481548110151561109357fe5b6000918252602090912001805473ffffffffffffffffffffffffffffffffffffffff1916600160a060020a03929092169190911790556110d9565b826001019250611045565b600160a060020a03808616600081815260026020526040808220805460ff199081169091559388168252908190208054909316600117909255907f8001553a916ef2f495d26a907cc54d96ed840d7bda71e73194bf5a9df7a76b90905160405180910390a283600160a060020a03167ff39e6e1eb0edcf53c221607b54b00cd28f3196fed0a24994dc308b8f611b682d60405160405180910390a25050505050565b600081815260208190526040812060030154829060ff161561119c57600080fd5b6111a583610932565b156112ce576000838152602081905260409081902060038101805460ff19166001908117909155815490820154919450600160a060020a03169160028501905180828054600181600116156101000203166002900480156112475780601f1061121c57610100808354040283529160200191611247565b820191906000526020600020905b81548152906001019060200180831161122a57829003601f168201915b505091505060006040518083038185875af1925050501561129457827f33e13ecb54c3076d8e8bb8c2881800a4d972b792045ffae98fdf46df365fed7560405160405180910390a26112ce565b827f526441bb6c1aba3c9a4a6ca1d6545da9c2333c8c48343ef398eb858d72b7923660405160405180910390a260038201805460ff191690555b505050565b600083600160a060020a03811615156112eb57600080fd5b600554915060806040519081016040908152600160a060020a0387168252602080830187905281830186905260006060840181905285815290819052208151815473ffffffffffffffffffffffffffffffffffffffff1916600160a060020a039190911617815560208201518160010155604082015181600201908051611376929160200190611406565b506060820151600391909101805460ff191691151591909117905550600580546001019055817fc0ba8fe4b176c1714197d43b9cc6bcf797a4a7461c5fe8d0ef6e184ae7601e5160405160405180910390a2509392505050565b8154818355818115116112ce576000838152602090206112ce918101908301611484565b60206040519081016040526000815290565b828054600181600116156101000203166002900490600052602060002090601f016020900481019282601f1061144757805160ff1916838001178555611474565b82800160010185558215611474579182015b82811115611474578251825591602001919060010190611459565b50611480929150611484565b5090565b6109e091905b80821115611480576000815560010161148a5600a165627a7a723058200758ef72e9ea0986561aba7f436d1bd0329a7ac07e27d52c66737817fe471e950029",
  "source": "/**\n* Copyright 2017–2018, LaborX PTY\n* Licensed under the AGPL Version 3 license.\n*/\n\npragma solidity ^0.4.21;\n\n\nimport \"./MultiSig.sol\";\n\n\ncontract TwoFactorAuthenticationSig is MultiSig {\n\n    function _init(address _initiator, address _oracle)\n    internal\n    {\n        uint _required = 2;\n        address[] memory _owners = new address[](_required);\n        _owners[0] = _initiator;\n        _owners[1] = _oracle;\n        MultiSig._initMultiSig(_owners, _required);\n    }\n\n    function _setOracle(address _oracle)\n    internal\n    {\n        require(_oracle != 0x0);\n        \n        this.replaceOwner(owners[1], _oracle);\n    }\n\n    function getOracle()\n    public\n    view\n    returns (address) \n    {\n        return owners[1];\n    }\n}",
  "sourcePath": "solidity-user-lib/contracts/TwoFactorAuthenticationSig.sol",
  "compiler": {
    "name": "solc",
    "version": "0.4.21+commit.dfe3193c.Emscripten.clang"
  },
  "schemaVersion": "2.0.0",
  "updatedAt": "2018-07-12T13:16:24.733Z"
}