{
  "contractName": "TwoFactorAuthenticationSig",
  "abi": [
    {
      "constant": false,
      "inputs": [
        {
          "name": "owner",
          "type": "address"
        }
      ],
      "name": "removeOwner",
      "outputs": [],
      "payable": false,
      "stateMutability": "nonpayable",
      "type": "function"
    },
    {
      "constant": false,
      "inputs": [
        {
          "name": "transactionId",
          "type": "uint256"
        }
      ],
      "name": "revokeConfirmation",
      "outputs": [],
      "payable": false,
      "stateMutability": "nonpayable",
      "type": "function"
    },
    {
      "constant": true,
      "inputs": [
        {
          "name": "",
          "type": "address"
        }
      ],
      "name": "isOwner",
      "outputs": [
        {
          "name": "",
          "type": "bool"
        }
      ],
      "payable": false,
      "stateMutability": "view",
      "type": "function"
    },
    {
      "constant": true,
      "inputs": [
        {
          "name": "statusMask",
          "type": "uint8"
        }
      ],
      "name": "getTransactionCount",
      "outputs": [
        {
          "name": "count",
          "type": "uint256"
        }
      ],
      "payable": false,
      "stateMutability": "view",
      "type": "function"
    },
    {
      "constant": true,
      "inputs": [
        {
          "name": "",
          "type": "uint256"
        },
        {
          "name": "",
          "type": "address"
        }
      ],
      "name": "confirmations",
      "outputs": [
        {
          "name": "",
          "type": "bool"
        }
      ],
      "payable": false,
      "stateMutability": "view",
      "type": "function"
    },
    {
      "constant": false,
      "inputs": [
        {
          "name": "owner",
          "type": "address"
        }
      ],
      "name": "addOwner",
      "outputs": [],
      "payable": false,
      "stateMutability": "nonpayable",
      "type": "function"
    },
    {
      "constant": true,
      "inputs": [
        {
          "name": "transactionId",
          "type": "uint256"
        }
      ],
      "name": "isConfirmed",
      "outputs": [
        {
          "name": "",
          "type": "bool"
        }
      ],
      "payable": false,
      "stateMutability": "view",
      "type": "function"
    },
    {
      "constant": true,
      "inputs": [
        {
          "name": "transactionId",
          "type": "uint256"
        }
      ],
      "name": "getConfirmationCount",
      "outputs": [
        {
          "name": "count",
          "type": "uint256"
        }
      ],
      "payable": false,
      "stateMutability": "view",
      "type": "function"
    },
    {
      "constant": true,
      "inputs": [
        {
          "name": "",
          "type": "uint256"
        }
      ],
      "name": "transactions",
      "outputs": [
        {
          "name": "destination",
          "type": "address"
        },
        {
          "name": "value",
          "type": "uint256"
        },
        {
          "name": "data",
          "type": "bytes"
        },
        {
          "name": "status",
          "type": "uint8"
        }
      ],
      "payable": false,
      "stateMutability": "view",
      "type": "function"
    },
    {
      "constant": true,
      "inputs": [
        {
          "name": "from",
          "type": "uint256"
        },
        {
          "name": "to",
          "type": "uint256"
        },
        {
          "name": "statusMask",
          "type": "uint8"
        }
      ],
      "name": "getTransactionIds",
      "outputs": [
        {
          "name": "_transactionIds",
          "type": "uint256[]"
        }
      ],
      "payable": false,
      "stateMutability": "view",
      "type": "function"
    },
    {
      "constant": true,
      "inputs": [],
      "name": "getOwners",
      "outputs": [
        {
          "name": "",
          "type": "address[]"
        }
      ],
      "payable": false,
      "stateMutability": "view",
      "type": "function"
    },
    {
      "constant": true,
      "inputs": [
        {
          "name": "transactionId",
          "type": "uint256"
        }
      ],
      "name": "getConfirmations",
      "outputs": [
        {
          "name": "_confirmations",
          "type": "address[]"
        }
      ],
      "payable": false,
      "stateMutability": "view",
      "type": "function"
    },
    {
      "constant": true,
      "inputs": [],
      "name": "transactionCount",
      "outputs": [
        {
          "name": "",
          "type": "uint256"
        }
      ],
      "payable": false,
      "stateMutability": "view",
      "type": "function"
    },
    {
      "constant": false,
      "inputs": [
        {
          "name": "_required",
          "type": "uint256"
        }
      ],
      "name": "changeRequirement",
      "outputs": [],
      "payable": false,
      "stateMutability": "nonpayable",
      "type": "function"
    },
    {
      "constant": false,
      "inputs": [
        {
          "name": "transactionId",
          "type": "uint256"
        },
        {
          "name": "pass",
          "type": "bytes"
        },
        {
          "name": "v",
          "type": "uint8"
        },
        {
          "name": "r",
          "type": "bytes32"
        },
        {
          "name": "s",
          "type": "bytes32"
        }
      ],
      "name": "confirmTransactionWithVRS",
      "outputs": [],
      "payable": false,
      "stateMutability": "nonpayable",
      "type": "function"
    },
    {
      "constant": false,
      "inputs": [
        {
          "name": "transactionId",
          "type": "uint256"
        }
      ],
      "name": "confirmTransaction",
      "outputs": [],
      "payable": false,
      "stateMutability": "nonpayable",
      "type": "function"
    },
    {
      "constant": false,
      "inputs": [
        {
          "name": "destination",
          "type": "address"
        },
        {
          "name": "value",
          "type": "uint256"
        },
        {
          "name": "data",
          "type": "bytes"
        }
      ],
      "name": "submitTransaction",
      "outputs": [
        {
          "name": "transactionId",
          "type": "uint256"
        }
      ],
      "payable": false,
      "stateMutability": "nonpayable",
      "type": "function"
    },
    {
      "constant": true,
      "inputs": [],
      "name": "MAX_OWNER_COUNT",
      "outputs": [
        {
          "name": "",
          "type": "uint256"
        }
      ],
      "payable": false,
      "stateMutability": "view",
      "type": "function"
    },
    {
      "constant": true,
      "inputs": [],
      "name": "required",
      "outputs": [
        {
          "name": "",
          "type": "uint256"
        }
      ],
      "payable": false,
      "stateMutability": "view",
      "type": "function"
    },
    {
      "constant": false,
      "inputs": [
        {
          "name": "owner",
          "type": "address"
        },
        {
          "name": "newOwner",
          "type": "address"
        }
      ],
      "name": "replaceOwner",
      "outputs": [],
      "payable": false,
      "stateMutability": "nonpayable",
      "type": "function"
    },
    {
      "constant": false,
      "inputs": [
        {
          "name": "transactionId",
          "type": "uint256"
        }
      ],
      "name": "executeTransaction",
      "outputs": [],
      "payable": false,
      "stateMutability": "nonpayable",
      "type": "function"
    },
    {
      "payable": true,
      "stateMutability": "payable",
      "type": "fallback"
    },
    {
      "anonymous": false,
      "inputs": [
        {
          "indexed": true,
          "name": "sender",
          "type": "address"
        },
        {
          "indexed": true,
          "name": "transactionId",
          "type": "uint256"
        }
      ],
      "name": "Confirmation",
      "type": "event"
    },
    {
      "anonymous": false,
      "inputs": [
        {
          "indexed": true,
          "name": "sender",
          "type": "address"
        },
        {
          "indexed": true,
          "name": "transactionId",
          "type": "uint256"
        }
      ],
      "name": "Revocation",
      "type": "event"
    },
    {
      "anonymous": false,
      "inputs": [
        {
          "indexed": true,
          "name": "transactionId",
          "type": "uint256"
        }
      ],
      "name": "Submission",
      "type": "event"
    },
    {
      "anonymous": false,
      "inputs": [
        {
          "indexed": true,
          "name": "transactionId",
          "type": "uint256"
        }
      ],
      "name": "Execution",
      "type": "event"
    },
    {
      "anonymous": false,
      "inputs": [
        {
          "indexed": true,
          "name": "transactionId",
          "type": "uint256"
        }
      ],
      "name": "ExecutionFailure",
      "type": "event"
    },
    {
      "anonymous": false,
      "inputs": [
        {
          "indexed": true,
          "name": "transactionId",
          "type": "uint256"
        }
      ],
      "name": "Cancelled",
      "type": "event"
    },
    {
      "anonymous": false,
      "inputs": [
        {
          "indexed": true,
          "name": "sender",
          "type": "address"
        },
        {
          "indexed": false,
          "name": "value",
          "type": "uint256"
        }
      ],
      "name": "Deposit",
      "type": "event"
    },
    {
      "anonymous": false,
      "inputs": [
        {
          "indexed": true,
          "name": "owner",
          "type": "address"
        }
      ],
      "name": "OwnerAddition",
      "type": "event"
    },
    {
      "anonymous": false,
      "inputs": [
        {
          "indexed": true,
          "name": "owner",
          "type": "address"
        }
      ],
      "name": "OwnerRemoval",
      "type": "event"
    },
    {
      "anonymous": false,
      "inputs": [
        {
          "indexed": false,
          "name": "required",
          "type": "uint256"
        }
      ],
      "name": "RequirementChange",
      "type": "event"
    },
    {
      "constant": true,
      "inputs": [],
      "name": "getOracle",
      "outputs": [
        {
          "name": "",
          "type": "address"
        }
      ],
      "payable": false,
      "stateMutability": "view",
      "type": "function"
    }
  ],
  "bytecode": "0x6060604052611737806100136000396000f3006060604052600436106101275763ffffffff7c0100000000000000000000000000000000000000000000000000000000600035041663173825d9811461017057806320ea8d861461018f5780632f54bf6e146101a557806331246b89146101d85780633411c81c146102035780637065cb4814610225578063784547a714610244578063833b1fce1461025a5780638b51d13f146102895780639ace38c21461029f5780639ebfddee1461034e578063a0e67e2b146103c0578063b5dc40c3146103d3578063b77bf600146103e9578063ba51a6df146103fc578063be083f6d14610412578063c01a8c8414610478578063c64274741461048e578063d74f8edd146104f3578063dc8452cd14610506578063e20056e614610519578063ee22610b1461053e575b600034111561016e5733600160a060020a03167fe1fffcc4923d04b559f4d29a8bfc6cda04eb5b0d3c460751c2402c5c5cc9109c3460405190815260200160405180910390a25b005b341561017b57600080fd5b61016e600160a060020a0360043516610554565b341561019a57600080fd5b61016e6004356106e9565b34156101b057600080fd5b6101c4600160a060020a0360043516610834565b604051901515815260200160405180910390f35b34156101e357600080fd5b6101f160ff60043516610849565b60405190815260200160405180910390f35b341561020e57600080fd5b6101c4600435600160a060020a0360243516610888565b341561023057600080fd5b61016e600160a060020a03600435166108a8565b341561024f57600080fd5b6101c46004356109dc565b341561026557600080fd5b61026d6109fd565b604051600160a060020a03909116815260200160405180910390f35b341561029457600080fd5b6101f1600435610a2a565b34156102aa57600080fd5b6102b5600435610a93565b604051600160a060020a03851681526020810184905260ff8216606082015260806040820181815290820184818151815260200191508051906020019080838360005b838110156103105780820151838201526020016102f8565b50505050905090810190601f16801561033d5780820380516001836020036101000a031916815260200191505b509550505050505060405180910390f35b341561035957600080fd5b61036d60043560243560ff60443516610b71565b60405160208082528190810183818151815260200191508051906020019060200280838360005b838110156103ac578082015183820152602001610394565b505050509050019250505060405180910390f35b34156103cb57600080fd5b61036d610c6c565b34156103de57600080fd5b61036d600435610cd4565b34156103f457600080fd5b6101f1610e38565b341561040757600080fd5b61016e600435610e3e565b341561041d57600080fd5b61016e600480359060446024803590810190830135806020601f820181900481020160405190810160405281815292919060208401838380828437509496505060ff8535169460208101359450604001359250610ec9915050565b341561048357600080fd5b61016e600435611117565b341561049957600080fd5b6101f160048035600160a060020a03169060248035919060649060443590810190830135806020601f8201819004810201604051908101604052818152929190602084018383808284375094965061120295505050505050565b34156104fe57600080fd5b6101f1611221565b341561051157600080fd5b6101f1611226565b341561052457600080fd5b61016e600160a060020a036004358116906024351661122c565b341561054957600080fd5b61016e6004356113da565b600030600160a060020a031633600160a060020a031614151561057657600080fd5b600160a060020a038216600090815260026020526040902054829060ff16151561059f57600080fd5b600160a060020a0383166000908152600260205260408120805460ff1916905591505b600354600019018210156106825782600160a060020a03166003838154811015156105e957fe5b600091825260209091200154600160a060020a031614156106775760038054600019810190811061061657fe5b60009182526020909120015460038054600160a060020a03909216918490811061063c57fe5b6000918252602090912001805473ffffffffffffffffffffffffffffffffffffffff1916600160a060020a0392909216919091179055610682565b8160010191506105c2565b6003805460001901906106959082611638565b5060035460045411156106ae576003546106ae90610e3e565b82600160a060020a03167f8001553a916ef2f495d26a907cc54d96ed840d7bda71e73194bf5a9df7a76b9060405160405180910390a2505050565b33600160a060020a0381166000908152600260205260408120549091829160ff16151561071557600080fd5b600084815260016020908152604080832033600160a060020a038116855292529091205485919060ff16151561074a57600080fd5b600086815260208190526040902060030154869060ff811690600c161561077057600080fd5b6000888152600160209081526040808320600160a060020a033316808552925291829020805460ff1916905589917ff6a317157440607f36269043eb55f1287a5a19ba2216afeab88cd46cbcfb88e9905160405180910390a36107d288610a2a565b965086151561082a576000888152602081905260409081902060038101805460ff19166008179055965088907fc41d93b8bfbf9fd7cf5bfe271fd649ab6a6fec0ea101c23b82a2a28eca2533a9905160405180910390a25b5050505050505050565b60026020526000908152604090205460ff1681565b6000805b60055481101561088257600081815260208190526040902060030154831660ff161561087a576001820191505b60010161084d565b50919050565b600160209081526000928352604080842090915290825290205460ff1681565b30600160a060020a031633600160a060020a03161415156108c857600080fd5b600160a060020a038116600090815260026020526040902054819060ff16156108f057600080fd5b81600160a060020a038116151561090657600080fd5b600380549050600101600454603282118061092057508181115b80610929575080155b80610932575081155b1561093c57600080fd5b600160a060020a0385166000908152600260205260409020805460ff1916600190811790915560038054909181016109748382611638565b506000918252602090912001805473ffffffffffffffffffffffffffffffffffffffff1916600160a060020a0387169081179091557ff39e6e1eb0edcf53c221607b54b00cd28f3196fed0a24994dc308b8f611b682d60405160405180910390a25050505050565b6000806109e883610a2a565b90506004548114156108825760019150610882565b600060036001815481101515610a0f57fe5b600091825260209091200154600160a060020a031690505b90565b6000805b6003548110156108825760008381526001602052604081206003805491929184908110610a5757fe5b6000918252602080832090910154600160a060020a0316835282019290925260400190205460ff1615610a8b576001820191505b600101610a2e565b60006020528060005260406000206000915090508060000160009054906101000a9004600160a060020a031690806001015490806002018054600181600116156101000203166002900480601f016020809104026020016040519081016040528092919081815260200182805460018160011615610100020316600290048015610b5e5780601f10610b3357610100808354040283529160200191610b5e565b820191906000526020600020905b815481529060010190602001808311610b4157829003601f168201915b5050506003909301549192505060ff1684565b610b79611661565b610b81611661565b600080600554604051805910610b945750595b9080825280602002602001820160405250925060009150600090505b600554811015610bfd57600081815260208190526040902060030154851660ff1615610bf55780838381518110610be357fe5b60209081029091010152600191909101905b600101610bb0565b868603604051805910610c0d5750595b908082528060200260200182016040525093508690505b85811015610c6257828181518110610c3857fe5b906020019060200201518488830381518110610c5057fe5b60209081029091010152600101610c24565b5050509392505050565b610c74611661565b6003805480602002602001604051908101604052809291908181526020018280548015610cca57602002820191906000526020600020905b8154600160a060020a03168152600190910190602001808311610cac575b5050505050905090565b610cdc611661565b610ce4611661565b6003546000908190604051805910610cf95750595b9080825280602002602001820160405250925060009150600090505b600354811015610dc15760008581526001602052604081206003805491929184908110610d3e57fe5b6000918252602080832090910154600160a060020a0316835282019290925260400190205460ff1615610db9576003805482908110610d7957fe5b600091825260209091200154600160a060020a0316838381518110610d9a57fe5b600160a060020a03909216602092830290910190910152600191909101905b600101610d15565b81604051805910610dcf5750595b90808252806020026020018201604052509350600090505b81811015610e3057828181518110610dfb57fe5b90602001906020020151848281518110610e1157fe5b600160a060020a03909216602092830290910190910152600101610de7565b505050919050565b60055481565b30600160a060020a031633600160a060020a0316141515610e5e57600080fd5b600354816032821180610e7057508181115b80610e79575080155b80610e82575081155b15610e8c57600080fd5b60048390557fa3f1ee9126a074d9326c682f561767f710e927faa811f7a99829d49dc421797a8360405190815260200160405180910390a1505050565b610ed1611661565b6000868152602081905260408120600301548190889060ff161515610ef557600080fd5b6040805190810160405280601c81526020017f19457468657265756d205369676e6564204d6573736167653a0a33320000000081525093508789306040518084805190602001908083835b60208310610f5f5780518252601f199092019160209182019101610f40565b6001836020036101000a0380198251168184511617909252505050919091019384525050600160a060020a03166c01000000000000000000000000026020820152603401905060405180910390209250600184846040518083805190602001908083835b60208310610fe25780518252601f199092019160209182019101610fc3565b6001836020036101000a0380198251168184511617909252505050919091019283525050602001905060405180910390208888886040516000815260200160405260405193845260ff9092166020808501919091526040808501929092526060840192909252608090920191516020810390808403906000865af1151561106857600080fd5b505060206040510351600160a060020a03811660009081526002602052604090205490925060ff16151561109b57600080fd5b6000898152600160209081526040808320600160a060020a038616845290915290205460ff1615156110cc57600080fd5b8882600160a060020a03167f4a504a94899432a9846e1aa406dceb1bcfd538bb839071d49d1e5e23f5be30ef60405160405180910390a361110c896113da565b505050505050505050565b33600160a060020a03811660009081526002602052604090205460ff16151561113f57600080fd5b600082815260208190526040902060030154829060ff16151561116157600080fd5b600083815260016020908152604080832033600160a060020a038116855292529091205484919060ff161561119557600080fd5b6000858152600160208181526040808420600160a060020a033316808652925292839020805460ff191690921790915586917f4a504a94899432a9846e1aa406dceb1bcfd538bb839071d49d1e5e23f5be30ef905160405180910390a36111fb856113da565b5050505050565b600061120f848484611539565b905061121a81611117565b9392505050565b603281565b60045481565b600030600160a060020a031633600160a060020a031614151561124e57600080fd5b600160a060020a038316600090815260026020526040902054839060ff16151561127757600080fd5b600160a060020a038316600090815260026020526040902054839060ff161561129f57600080fd5b600092505b6003548310156113385784600160a060020a03166003848154811015156112c757fe5b600091825260209091200154600160a060020a0316141561132d57836003848154811015156112f257fe5b6000918252602090912001805473ffffffffffffffffffffffffffffffffffffffff1916600160a060020a0392909216919091179055611338565b8260010192506112a4565b600160a060020a03808616600081815260026020526040808220805460ff199081169091559388168252908190208054909316600117909255907f8001553a916ef2f495d26a907cc54d96ed840d7bda71e73194bf5a9df7a76b90905160405180910390a283600160a060020a03167ff39e6e1eb0edcf53c221607b54b00cd28f3196fed0a24994dc308b8f611b682d60405160405180910390a25050505050565b600081815260208190526040812060030154829060ff811690600c161561140057600080fd5b611409846109dc565b15611533576000848152602081905260409081902060038101805460ff1916600417905580546001820154919550600160a060020a03169160028601905180828054600181600116156101000203166002900480156114a95780601f1061147e576101008083540402835291602001916114a9565b820191906000526020600020905b81548152906001019060200180831161148c57829003601f168201915b505091505060006040518083038185875af192505050156114f657837f33e13ecb54c3076d8e8bb8c2881800a4d972b792045ffae98fdf46df365fed7560405160405180910390a2611533565b837f526441bb6c1aba3c9a4a6ca1d6545da9c2333c8c48343ef398eb858d72b7923660405160405180910390a260038301805460ff191660021790555b50505050565b600083600160a060020a038116151561155157600080fd5b600554915060806040519081016040908152600160a060020a0387168252602080830187905281830186905260016060840152600085815290819052208151815473ffffffffffffffffffffffffffffffffffffffff1916600160a060020a0391909116178155602082015181600101556040820151816002019080516115dc929160200190611673565b506060820151600391909101805460ff191660ff90921691909117905550600580546001019055817fc0ba8fe4b176c1714197d43b9cc6bcf797a4a7461c5fe8d0ef6e184ae7601e5160405160405180910390a2509392505050565b81548183558181151161165c5760008381526020902061165c9181019083016116f1565b505050565b60206040519081016040526000815290565b828054600181600116156101000203166002900490600052602060002090601f016020900481019282601f106116b457805160ff19168380011785556116e1565b828001600101855582156116e1579182015b828111156116e15782518255916020019190600101906116c6565b506116ed9291506116f1565b5090565b610a2791905b808211156116ed57600081556001016116f75600a165627a7a7230582034846c7be0e9ba302eed7e119b8e0e7c43dd0f88dc65497264e9971d9364d1fb0029",
  "source": "/**\n* Copyright 2017–2018, LaborX PTY\n* Licensed under the AGPL Version 3 license.\n*/\n\npragma solidity ^0.4.21;\n\n\nimport \"./MultiSig.sol\";\n\n\n/// @title Intermediat contract that organizes two-factor authentication based on\n/// MultiSig smart contract. Contract should be initialized (_init() function called)\n/// before using any multisig-protected operations. It assumes that oracle will be stored\n/// as the second owner (at index 1).\ncontract TwoFactorAuthenticationSig is MultiSig {\n\n    function _init(address _initiator, address _oracle)\n    internal\n    {\n        uint _required = 2;\n        address[] memory _owners = new address[](_required);\n        _owners[0] = _initiator;\n        _owners[1] = _oracle;\n        MultiSig._initMultiSig(_owners, _required);\n    }\n\n    function _setOracle(address _oracle)\n    internal\n    {\n        require(_oracle != 0x0);\n        \n        this.replaceOwner(owners[1], _oracle);\n    }\n\n    /// @notice Gets oracle address that is used to confirm txs.\n    /// @return address of an oracle\n    function getOracle()\n    public\n    view\n    returns (address) \n    {\n        return owners[1];\n    }\n}",
  "sourcePath": "solidity-user-lib/contracts/TwoFactorAuthenticationSig.sol",
  "compiler": {
    "name": "solc",
    "version": "0.4.21+commit.dfe3193c.Emscripten.clang"
  },
  "schemaVersion": "2.0.0",
  "updatedAt": "2018-08-03T14:09:06.338Z"
}