{
  "contractName": "UnlimitedAllowanceToken",
  "abi": [
    {
      "constant": true,
      "inputs": [],
      "name": "name",
      "outputs": [
        {
          "name": "",
          "type": "string"
        }
      ],
      "payable": false,
      "stateMutability": "view",
      "type": "function"
    },
    {
      "constant": false,
      "inputs": [
        {
          "name": "_spender",
          "type": "address"
        },
        {
          "name": "_value",
          "type": "uint256"
        }
      ],
      "name": "approve",
      "outputs": [
        {
          "name": "success",
          "type": "bool"
        }
      ],
      "payable": false,
      "stateMutability": "nonpayable",
      "type": "function"
    },
    {
      "constant": true,
      "inputs": [],
      "name": "totalSupply",
      "outputs": [
        {
          "name": "",
          "type": "uint256"
        }
      ],
      "payable": false,
      "stateMutability": "view",
      "type": "function"
    },
    {
      "constant": true,
      "inputs": [
        {
          "name": "",
          "type": "address"
        }
      ],
      "name": "balances",
      "outputs": [
        {
          "name": "",
          "type": "uint256"
        }
      ],
      "payable": false,
      "stateMutability": "view",
      "type": "function"
    },
    {
      "constant": true,
      "inputs": [],
      "name": "decimals",
      "outputs": [
        {
          "name": "",
          "type": "uint8"
        }
      ],
      "payable": false,
      "stateMutability": "view",
      "type": "function"
    },
    {
      "constant": true,
      "inputs": [
        {
          "name": "",
          "type": "address"
        },
        {
          "name": "",
          "type": "address"
        }
      ],
      "name": "allowed",
      "outputs": [
        {
          "name": "",
          "type": "uint256"
        }
      ],
      "payable": false,
      "stateMutability": "view",
      "type": "function"
    },
    {
      "constant": true,
      "inputs": [
        {
          "name": "_owner",
          "type": "address"
        }
      ],
      "name": "balanceOf",
      "outputs": [
        {
          "name": "balance",
          "type": "uint256"
        }
      ],
      "payable": false,
      "stateMutability": "view",
      "type": "function"
    },
    {
      "constant": true,
      "inputs": [],
      "name": "owner",
      "outputs": [
        {
          "name": "",
          "type": "address"
        }
      ],
      "payable": false,
      "stateMutability": "view",
      "type": "function"
    },
    {
      "constant": true,
      "inputs": [],
      "name": "symbol",
      "outputs": [
        {
          "name": "",
          "type": "string"
        }
      ],
      "payable": false,
      "stateMutability": "view",
      "type": "function"
    },
    {
      "constant": false,
      "inputs": [
        {
          "name": "_to",
          "type": "address"
        },
        {
          "name": "_value",
          "type": "uint256"
        }
      ],
      "name": "transfer",
      "outputs": [
        {
          "name": "success",
          "type": "bool"
        }
      ],
      "payable": false,
      "stateMutability": "nonpayable",
      "type": "function"
    },
    {
      "constant": true,
      "inputs": [
        {
          "name": "_owner",
          "type": "address"
        },
        {
          "name": "_spender",
          "type": "address"
        }
      ],
      "name": "allowance",
      "outputs": [
        {
          "name": "remaining",
          "type": "uint256"
        }
      ],
      "payable": false,
      "stateMutability": "view",
      "type": "function"
    },
    {
      "constant": false,
      "inputs": [
        {
          "name": "newOwner",
          "type": "address"
        }
      ],
      "name": "transferOwnership",
      "outputs": [],
      "payable": false,
      "stateMutability": "nonpayable",
      "type": "function"
    },
    {
      "inputs": [
        {
          "name": "_initialAmount",
          "type": "uint256"
        },
        {
          "name": "_tokenName",
          "type": "string"
        },
        {
          "name": "_decimalUnits",
          "type": "uint8"
        },
        {
          "name": "_tokenSymbol",
          "type": "string"
        }
      ],
      "payable": false,
      "stateMutability": "nonpayable",
      "type": "constructor"
    },
    {
      "anonymous": false,
      "inputs": [
        {
          "indexed": true,
          "name": "_from",
          "type": "address"
        },
        {
          "indexed": true,
          "name": "_to",
          "type": "address"
        },
        {
          "indexed": false,
          "name": "_value",
          "type": "uint256"
        }
      ],
      "name": "Transfer",
      "type": "event"
    },
    {
      "anonymous": false,
      "inputs": [
        {
          "indexed": true,
          "name": "_owner",
          "type": "address"
        },
        {
          "indexed": true,
          "name": "_spender",
          "type": "address"
        },
        {
          "indexed": false,
          "name": "_value",
          "type": "uint256"
        }
      ],
      "name": "Approval",
      "type": "event"
    },
    {
      "constant": false,
      "inputs": [
        {
          "name": "_from",
          "type": "address"
        },
        {
          "name": "_to",
          "type": "address"
        },
        {
          "name": "_value",
          "type": "uint256"
        }
      ],
      "name": "transferFrom",
      "outputs": [
        {
          "name": "",
          "type": "bool"
        }
      ],
      "payable": false,
      "stateMutability": "nonpayable",
      "type": "function"
    }
  ],
  "bytecode": "0x6060604052341561000f57600080fd5b6040516108bf3803806108bf83398101604052808051919060200180518201919060200180519190602001805160008054600160a060020a033316600160a060020a0319909116811782558152600260205260409020869055600186905590910190508383838360048380516100899291602001906100ba565b506005805460ff191660ff841617905560068180516100ac9291602001906100ba565b505050505050505050610155565b828054600181600116156101000203166002900490600052602060002090601f016020900481019282601f106100fb57805160ff1916838001178555610128565b82800160010185558215610128579182015b8281111561012857825182559160200191906001019061010d565b50610134929150610138565b5090565b61015291905b80821115610134576000815560010161013e565b90565b61075b806101646000396000f3006060604052600436106100c45763ffffffff7c010000000000000000000000000000000000000000000000000000000060003504166306fdde0381146100c9578063095ea7b31461015357806318160ddd1461018957806323b872dd146101ae57806327e235e3146101d6578063313ce567146101f55780635c6581651461021e57806370a08231146102435780638da5cb5b1461026257806395d89b4114610291578063a9059cbb146102a4578063dd62ed3e146102c6578063f2fde38b146102eb575b600080fd5b34156100d457600080fd5b6100dc61030c565b60405160208082528190810183818151815260200191508051906020019080838360005b83811015610118578082015183820152602001610100565b50505050905090810190601f1680156101455780820380516001836020036101000a031916815260200191505b509250505060405180910390f35b341561015e57600080fd5b610175600160a060020a03600435166024356103aa565b604051901515815260200160405180910390f35b341561019457600080fd5b61019c610416565b60405190815260200160405180910390f35b34156101b957600080fd5b610175600160a060020a036004358116906024351660443561041c565b34156101e157600080fd5b61019c600160a060020a036004351661054d565b341561020057600080fd5b61020861055f565b60405160ff909116815260200160405180910390f35b341561022957600080fd5b61019c600160a060020a0360043581169060243516610568565b341561024e57600080fd5b61019c600160a060020a0360043516610585565b341561026d57600080fd5b6102756105a0565b604051600160a060020a03909116815260200160405180910390f35b341561029c57600080fd5b6100dc6105af565b34156102af57600080fd5b610175600160a060020a036004351660243561061a565b34156102d157600080fd5b61019c600160a060020a03600435811690602435166106ae565b34156102f657600080fd5b61030a600160a060020a03600435166106d9565b005b60048054600181600116156101000203166002900480601f0160208091040260200160405190810160405280929190818152602001828054600181600116156101000203166002900480156103a25780601f10610377576101008083540402835291602001916103a2565b820191906000526020600020905b81548152906001019060200180831161038557829003601f168201915b505050505081565b600160a060020a03338116600081815260036020908152604080832094871680845294909152808220859055909291907f8c5be1e5ebec7d5bd14f71427d1e84f3dd0314c0f7b2291e5b200ac8c7c3b9259085905190815260200160405180910390a350600192915050565b60015481565b600160a060020a0380841660008181526003602090815260408083203390951683529381528382205492825260029052918220548390108015906104605750828110155b80156104865750600160a060020a03841660009081526002602052604090205483810110155b1561054057600160a060020a03808516600090815260026020526040808220805487019055918716815220805484900390556000198110156104f057600160a060020a03808616600090815260036020908152604080832033909416835292905220805484900390555b83600160a060020a031685600160a060020a03167fddf252ad1be2c89b69c2b068fc378daa952ba7f163c4a11628f55a4df523b3ef8560405190815260200160405180910390a360019150610545565b600091505b509392505050565b60026020526000908152604090205481565b60055460ff1681565b600360209081526000928352604080842090915290825290205481565b600160a060020a031660009081526002602052604090205490565b600054600160a060020a031681565b60068054600181600116156101000203166002900480601f0160208091040260200160405190810160405280929190818152602001828054600181600116156101000203166002900480156103a25780601f10610377576101008083540402835291602001916103a2565b600160a060020a0333166000908152600260205260408120548290101561064057600080fd5b600160a060020a033381166000818152600260205260408082208054879003905592861680825290839020805486019055917fddf252ad1be2c89b69c2b068fc378daa952ba7f163c4a11628f55a4df523b3ef9085905190815260200160405180910390a350600192915050565b600160a060020a03918216600090815260036020908152604080832093909416825291909152205490565b60005433600160a060020a039081169116146106f457600080fd5b600160a060020a0381161561072c576000805473ffffffffffffffffffffffffffffffffffffffff1916600160a060020a0383161790555b505600a165627a7a72305820674ef33dd84a3060ea35ca182de72418102d3ddacb9d5684b611c11a099834ac0029",
  "source": "/*\n\n  Copyright 2017 ZeroEx Intl.\n\n  Licensed under the Apache License, Version 2.0 (the \"License\");\n  you may not use this file except in compliance with the License.\n  You may obtain a copy of the License at\n\n    http://www.apache.org/licenses/LICENSE-2.0\n\n  Unless required by applicable law or agreed to in writing, software\n  distributed under the License is distributed on an \"AS IS\" BASIS,\n  WITHOUT WARRANTIES OR CONDITIONS OF ANY KIND, either express or implied.\n  See the License for the specific language governing permissions and\n  limitations under the License.\n\n*/\n\npragma solidity ^0.4.11;\n\nimport \"../../eip20/EIP20.sol\";\n\ncontract UnlimitedAllowanceToken is EIP20 {\n\n    uint constant MAX_UINT = 2**256 - 1;\n\n    function UnlimitedAllowanceToken(\n      uint256 _initialAmount,\n      string _tokenName,\n      uint8 _decimalUnits,\n      string _tokenSymbol\n    ) EIP20(\n      _initialAmount,\n      _tokenName,\n      _decimalUnits,\n      _tokenSymbol\n    ) public {\n    }\n\n    /// @dev ERC20 transferFrom, modified such that an allowance of MAX_UINT represents an unlimited allowance.\n    /// @param _from Address to transfer from.\n    /// @param _to Address to transfer to.\n    /// @param _value Amount to transfer.\n    /// @return Success of transfer.\n    function transferFrom(address _from, address _to, uint _value)\n        public\n        returns (bool)\n    {\n        uint allowance = allowed[_from][msg.sender];\n        if (balances[_from] >= _value\n            && allowance >= _value\n            && balances[_to] + _value >= balances[_to]\n        ) {\n            balances[_to] += _value;\n            balances[_from] -= _value;\n            if (allowance < MAX_UINT) {\n                allowed[_from][msg.sender] -= _value;\n            }\n            emit Transfer(_from, _to, _value);\n            return true;\n        } else {\n            return false;\n        }\n    }\n}\n",
  "sourcePath": "/home/mdkardaev/exchange/laborx.exchange.contracts/contracts/0xproject/UnlimitedAllowanceToken/UnlimitedAllowanceToken.sol",
  "compiler": {
    "name": "solc",
    "version": "0.4.21+commit.dfe3193c.Emscripten.clang"
  },
  "schemaVersion": "2.0.0",
  "updatedAt": "2018-06-05T11:05:39.820Z"
}