{
  "contractName": "UserEmitter",
  "abi": [
    {
      "anonymous": false,
      "inputs": [
        {
          "indexed": true,
          "name": "self",
          "type": "address"
        },
        {
          "indexed": true,
          "name": "initiator",
          "type": "address"
        },
        {
          "indexed": false,
          "name": "user",
          "type": "address"
        },
        {
          "indexed": true,
          "name": "proxy",
          "type": "address"
        },
        {
          "indexed": false,
          "name": "enabled",
          "type": "bool"
        }
      ],
      "name": "User2FAChanged",
      "type": "event"
    },
    {
      "constant": false,
      "inputs": [
        {
          "name": "_initiator",
          "type": "address"
        },
        {
          "name": "_user",
          "type": "address"
        },
        {
          "name": "_proxy",
          "type": "address"
        },
        {
          "name": "_enabled",
          "type": "bool"
        }
      ],
      "name": "emitUser2FAChanged",
      "outputs": [],
      "payable": false,
      "stateMutability": "nonpayable",
      "type": "function"
    }
  ],
  "bytecode": "0x6060604052341561000f57600080fd5b61014e8061001e6000396000f3006060604052600436106100405763ffffffff7c01000000000000000000000000000000000000000000000000000000006000350416630a0f33af8114610045575b600080fd5b341561005057600080fd5b61008273ffffffffffffffffffffffffffffffffffffffff600435811690602435811690604435166064351515610084565b005b8173ffffffffffffffffffffffffffffffffffffffff168473ffffffffffffffffffffffffffffffffffffffff163373ffffffffffffffffffffffffffffffffffffffff167fa1b382e715ceb13e8ccfd1da722ef7d2a97de8456d269fc201c7efb7420f6e5b868560405173ffffffffffffffffffffffffffffffffffffffff9092168252151560208201526040908101905180910390a4505050505600a165627a7a7230582061ec9e93df6947c6bd0bc935126dc15b1e2366ab5832b369b30ced320446d3a60029",
  "source": "/**\n* Copyright 2017–2018, LaborX PTY\n* Licensed under the AGPL Version 3 license.\n*/\n\npragma solidity ^0.4.21;\n\n\ncontract UserEmitter {\n\n    event User2FAChanged(address indexed self, address indexed initiator, address user, address indexed proxy, bool enabled);\n\n    function emitUser2FAChanged(address _initiator, address _user, address _proxy, bool _enabled) public {\n        emit User2FAChanged(msg.sender, _initiator, _user, _proxy, _enabled);\n    }\n}",
  "sourcePath": "solidity-user-lib/contracts/UserEmitter.sol",
  "compiler": {
    "name": "solc",
    "version": "0.4.21+commit.dfe3193c.Emscripten.clang"
  },
  "schemaVersion": "2.0.0",
  "updatedAt": "2018-08-03T09:55:59.876Z"
}