{
  "contractName": "UserBackendProvider",
  "abi": [
    {
      "constant": false,
      "inputs": [
        {
          "name": "_roles2Library",
          "type": "address"
        }
      ],
      "name": "setRoles2Library",
      "outputs": [
        {
          "name": "",
          "type": "uint256"
        }
      ],
      "payable": false,
      "stateMutability": "nonpayable",
      "type": "function"
    },
    {
      "inputs": [
        {
          "name": "_roles2Library",
          "type": "address"
        }
      ],
      "payable": false,
      "stateMutability": "nonpayable",
      "type": "constructor"
    },
    {
      "anonymous": false,
      "inputs": [
        {
          "indexed": false,
          "name": "code",
          "type": "address"
        },
        {
          "indexed": false,
          "name": "sender",
          "type": "address"
        },
        {
          "indexed": false,
          "name": "sig",
          "type": "bytes4"
        }
      ],
      "name": "AuthFailedError",
      "type": "event"
    },
    {
      "constant": true,
      "inputs": [],
      "name": "getUserBackend",
      "outputs": [
        {
          "name": "",
          "type": "address"
        }
      ],
      "payable": false,
      "stateMutability": "view",
      "type": "function"
    },
    {
      "constant": false,
      "inputs": [
        {
          "name": "_userBackend",
          "type": "address"
        }
      ],
      "name": "setUserBackend",
      "outputs": [
        {
          "name": "",
          "type": "uint256"
        }
      ],
      "payable": false,
      "stateMutability": "nonpayable",
      "type": "function"
    }
  ],
  "bytecode": "0x608060405234801561001057600080fd5b50604051602080610430833981016040525160008054600160a060020a03909216600160a060020a03199092169190911790556103de806100526000396000f3006080604052600436106100565763ffffffff7c01000000000000000000000000000000000000000000000000000000006000350416632637cd7d811461005b57806359b804aa1461008e578063ff1ad72d146100bf575b600080fd5b34801561006757600080fd5b5061007c600160a060020a03600435166100e0565b60408051918252519081900360200190f35b34801561009a57600080fd5b506100a361017e565b60408051600160a060020a039092168252519081900360200190f35b3480156100cb57600080fd5b5061007c600160a060020a036004351661018d565b60006100f833600035600160e060020a0319166102c7565b151561014d5760408051308152336020820152600160e060020a0319600035168183015290517f5133a133185f1023427a2e90f18506b27db994977ce0c0faafd514a7dd109ae09181900360600190a1610179565b506000805473ffffffffffffffffffffffffffffffffffffffff1916600160a060020a03831617905560015b919050565b600154600160a060020a031690565b60006101a533600035600160e060020a0319166102c7565b15156101fa5760408051308152336020820152600160e060020a0319600035168183015290517f5133a133185f1023427a2e90f18506b27db994977ce0c0faafd514a7dd109ae09181900360600190a1610179565b600160a060020a038216151561029757604080517f08c379a000000000000000000000000000000000000000000000000000000000815260206004820152602660248201527f557365724261636b656e642073686f756c64206e6f7420626520657175616c2060448201527f746f203078300000000000000000000000000000000000000000000000000000606482015290519081900360840190fd5b5060018054600160a060020a03831673ffffffffffffffffffffffffffffffffffffffff19909116178155919050565b6000600160a060020a0383163014156102e2575060016103ac565b600054600160a060020a031615156102fc575060006103ac565b60008054604080517fb7009613000000000000000000000000000000000000000000000000000000008152600160a060020a038781166004830152306024830152600160e060020a0319871660448301529151919092169263b700961392606480820193602093909283900390910190829087803b15801561037d57600080fd5b505af1158015610391573d6000803e3d6000fd5b505050506040513d60208110156103a757600080fd5b505190505b929150505600a165627a7a723058207f856fa1ea7f2eafaf462246b656e8ace72477ab0ab2e40549361b26333e9f800029",
  "source": "/**\n* Copyright 2017–2018, LaborX PTY\n* Licensed under the AGPL Version 3 license.\n*/\n\npragma solidity ^0.4.21;\n\n\nimport \"solidity-roles-lib/contracts/Roles2LibraryAdapter.sol\";\n\n\n/// @title TODO:\ncontract UserBackendProvider is Roles2LibraryAdapter {\n\n    uint constant OK = 1;\n\n    /// @dev TODO:\n    address private userBackend;\n\n    constructor(address _roles2Library) Roles2LibraryAdapter(_roles2Library) public {\n    }\n\n    /// @notice TODO:\n    function getUserBackend() public view returns (address) {\n        return userBackend;\n    }\n\n    /// @notice TODO:\n    function setUserBackend(address _userBackend)\n    auth\n    external\n    returns (uint)\n    {\n        require(_userBackend != 0x0, \"UserBackend should not be equal to 0x0\");\n\n        userBackend = _userBackend;\n        return OK;\n    }\n}",
  "sourcePath": "solidity-user-lib/contracts/UserBackendProvider.sol",
  "compiler": {
    "name": "solc",
    "version": "0.4.24+commit.e67f0147.Emscripten.clang"
  },
  "schemaVersion": "2.0.1",
  "updatedAt": "2018-07-09T12:18:04.438Z"
}