{
  "contractName": "UserFactory",
  "abi": [
    {
      "constant": false,
      "inputs": [
        {
          "name": "_roles2Library",
          "type": "address"
        }
      ],
      "name": "setRoles2Library",
      "outputs": [
        {
          "name": "",
          "type": "uint256"
        }
      ],
      "payable": false,
      "stateMutability": "nonpayable",
      "type": "function"
    },
    {
      "constant": true,
      "inputs": [],
      "name": "oracle",
      "outputs": [
        {
          "name": "",
          "type": "address"
        }
      ],
      "payable": false,
      "stateMutability": "view",
      "type": "function"
    },
    {
      "constant": true,
      "inputs": [],
      "name": "eventsHistory",
      "outputs": [
        {
          "name": "",
          "type": "address"
        }
      ],
      "payable": false,
      "stateMutability": "view",
      "type": "function"
    },
    {
      "constant": true,
      "inputs": [],
      "name": "userBackendProvider",
      "outputs": [
        {
          "name": "",
          "type": "address"
        }
      ],
      "payable": false,
      "stateMutability": "view",
      "type": "function"
    },
    {
      "inputs": [
        {
          "name": "_roles2Library",
          "type": "address"
        }
      ],
      "payable": false,
      "stateMutability": "nonpayable",
      "type": "constructor"
    },
    {
      "anonymous": false,
      "inputs": [
        {
          "indexed": true,
          "name": "self",
          "type": "address"
        },
        {
          "indexed": true,
          "name": "user",
          "type": "address"
        },
        {
          "indexed": false,
          "name": "proxy",
          "type": "address"
        },
        {
          "indexed": false,
          "name": "recoveryContract",
          "type": "address"
        },
        {
          "indexed": false,
          "name": "owner",
          "type": "address"
        }
      ],
      "name": "UserCreated",
      "type": "event"
    },
    {
      "anonymous": false,
      "inputs": [
        {
          "indexed": false,
          "name": "code",
          "type": "address"
        },
        {
          "indexed": false,
          "name": "sender",
          "type": "address"
        },
        {
          "indexed": false,
          "name": "sig",
          "type": "bytes4"
        }
      ],
      "name": "AuthFailedError",
      "type": "event"
    },
    {
      "constant": true,
      "inputs": [],
      "name": "getEventsHistory",
      "outputs": [
        {
          "name": "",
          "type": "address"
        }
      ],
      "payable": false,
      "stateMutability": "view",
      "type": "function"
    },
    {
      "constant": false,
      "inputs": [
        {
          "name": "_eventsHistory",
          "type": "address"
        }
      ],
      "name": "setupEventsHistory",
      "outputs": [
        {
          "name": "",
          "type": "uint256"
        }
      ],
      "payable": false,
      "stateMutability": "nonpayable",
      "type": "function"
    },
    {
      "constant": false,
      "inputs": [
        {
          "name": "_newUserBackendProvider",
          "type": "address"
        }
      ],
      "name": "setUserBackendProvider",
      "outputs": [
        {
          "name": "",
          "type": "uint256"
        }
      ],
      "payable": false,
      "stateMutability": "nonpayable",
      "type": "function"
    },
    {
      "constant": false,
      "inputs": [
        {
          "name": "_oracle",
          "type": "address"
        }
      ],
      "name": "setOracleAddress",
      "outputs": [
        {
          "name": "",
          "type": "uint256"
        }
      ],
      "payable": false,
      "stateMutability": "nonpayable",
      "type": "function"
    },
    {
      "constant": false,
      "inputs": [
        {
          "name": "_owner",
          "type": "address"
        },
        {
          "name": "_recoveryContract",
          "type": "address"
        },
        {
          "name": "_use2FA",
          "type": "bool"
        }
      ],
      "name": "createUserWithProxyAndRecovery",
      "outputs": [
        {
          "name": "",
          "type": "uint256"
        }
      ],
      "payable": false,
      "stateMutability": "nonpayable",
      "type": "function"
    },
    {
      "constant": false,
      "inputs": [
        {
          "name": "_user",
          "type": "address"
        }
      ],
      "name": "updateBackendProviderForUser",
      "outputs": [
        {
          "name": "",
          "type": "uint256"
        }
      ],
      "payable": false,
      "stateMutability": "nonpayable",
      "type": "function"
    },
    {
      "constant": false,
      "inputs": [
        {
          "name": "_user",
          "type": "address"
        },
        {
          "name": "_proxy",
          "type": "address"
        },
        {
          "name": "_recoveryContract",
          "type": "address"
        },
        {
          "name": "_owner",
          "type": "address"
        }
      ],
      "name": "emitUserCreated",
      "outputs": [],
      "payable": false,
      "stateMutability": "nonpayable",
      "type": "function"
    }
  ],
  "bytecode": "0x608060405234801561001057600080fd5b506040516020806115c0833981016040525160008054600160a060020a03909216600160a060020a031992831617905560038054909116301790556115668061005a6000396000f3006080604052600436106100ae5763ffffffff7c010000000000000000000000000000000000000000000000000000000060003504166302927d2081146100b35780632637cd7d146100e6578063473b56d8146101075780634c69c00f14610128578063723d21b5146101495780637dc0d1d01461016a578063a8fe9b5c1461019b578063f07629f8146101c7578063f3a8f7dd146101dc578063ff55c4f914610211578063fff10aba14610226575b600080fd5b3480156100bf57600080fd5b506100d4600160a060020a036004351661023b565b60408051918252519081900360200190f35b3480156100f257600080fd5b506100d4600160a060020a03600435166102dc565b34801561011357600080fd5b506100d4600160a060020a0360043516610369565b34801561013457600080fd5b506100d4600160a060020a0360043516610409565b34801561015557600080fd5b506100d4600160a060020a0360043516610533565b34801561017657600080fd5b5061017f610628565b60408051600160a060020a039092168252519081900360200190f35b3480156101a757600080fd5b506100d4600160a060020a03600435811690602435166044351515610637565b3480156101d357600080fd5b5061017f6108db565b3480156101e857600080fd5b5061020f600160a060020a03600435811690602435811690604435811690606435166108ea565b005b34801561021d57600080fd5b5061017f610943565b34801561023257600080fd5b5061017f610952565b600061025333600035600160e060020a031916610961565b15156102965760408051308152336020820152600160e060020a03196000351681830152905160008051602061151b8339815191529181900360600190a16102d7565b600160a060020a03821615156102ab57600080fd5b506003805473ffffffffffffffffffffffffffffffffffffffff1916600160a060020a03831617905560015b919050565b60006102f433600035600160e060020a031916610961565b15156103375760408051308152336020820152600160e060020a03196000351681830152905160008051602061151b8339815191529181900360600190a16102d7565b5060008054600160a060020a03831673ffffffffffffffffffffffffffffffffffffffff199091161790556001919050565b600061038133600035600160e060020a031916610961565b15156103c45760408051308152336020820152600160e060020a03196000351681830152905160008051602061151b8339815191529181900360600190a16102d7565b600160a060020a03821615156103d957600080fd5b5060018054600160a060020a03831673ffffffffffffffffffffffffffffffffffffffff19909116178155919050565b600061042133600035600160e060020a031916610961565b15156104645760408051308152336020820152600160e060020a03196000351681830152905160008051602061151b8339815191529181900360600190a16102d7565b600160a060020a038216151561050157604080517f08c379a000000000000000000000000000000000000000000000000000000000815260206004820152602160248201527f4f7261636c652073686f756c64206e6f7420626520657175616c20746f20307860448201527f3000000000000000000000000000000000000000000000000000000000000000606482015290519081900360840190fd5b5060028054600160a060020a03831673ffffffffffffffffffffffffffffffffffffffff199091161790556001919050565b600061054b33600035600160e060020a031916610961565b151561058e5760408051308152336020820152600160e060020a03196000351681830152905160008051602061151b8339815191529181900360600190a16102d7565b600154604080517f2f71ed9c000000000000000000000000000000000000000000000000000000008152600160a060020a039283166004820152905191841691632f71ed9c916024808201926020929091908290030181600087803b1580156105f657600080fd5b505af115801561060a573d6000803e3d6000fd5b505050506040513d602081101561062057600080fd5b505192915050565b600254600160a060020a031681565b60008080600160a060020a03861615156106b257604080517f08c379a000000000000000000000000000000000000000000000000000000000815260206004820181905260248201527f4f776e65722073686f756c64206e6f7420626520657175616c20746f20307830604482015290519081900360640190fd5b60015486908690600160a060020a03166106ca610a4c565b600160a060020a03938416815291831660208301529091166040808301919091525190819003606001906000f080158015610709573d6000803e3d6000fd5b50600254604080517fcb9fa366000000000000000000000000000000000000000000000000000000008152600160a060020a039283166004820152871515602482015290519294509084169163cb9fa366916044808201926020929091908290030181600087803b15801561077d57600080fd5b505af1158015610791573d6000803e3d6000fd5b505050506040513d60208110156107a757600080fd5b5050604080517f89f4fd570000000000000000000000000000000000000000000000000000000081529051600160a060020a038416916389f4fd579160048083019260209291908290030181600087803b15801561080457600080fd5b505af1158015610818573d6000803e3d6000fd5b505050506040513d602081101561082e57600080fd5b5051905061083a610952565b604080517ff3a8f7dd000000000000000000000000000000000000000000000000000000008152600160a060020a0385811660048301528481166024830152888116604483015289811660648301529151929091169163f3a8f7dd9160848082019260009290919082900301818387803b1580156108b757600080fd5b505af11580156108cb573d6000803e3d6000fd5b5060019998505050505050505050565b600354600160a060020a031681565b60408051600160a060020a03858116825284811660208301528381168284015291519186169133917f3e4421caa3c2c904474750d7351099afa13fa389bfabba41d91731f64b629587919081900360600190a350505050565b600154600160a060020a031681565b600354600160a060020a031690565b6000600160a060020a03831630141561097c57506001610a46565b600054600160a060020a0316151561099657506000610a46565b60008054604080517fb7009613000000000000000000000000000000000000000000000000000000008152600160a060020a038781166004830152306024830152600160e060020a0319871660448301529151919092169263b700961392606480820193602093909283900390910190829087803b158015610a1757600080fd5b505af1158015610a2b573d6000803e3d6000fd5b505050506040513d6020811015610a4157600080fd5b505190505b92915050565b604051610abe80610a5d833901905600608060405234801561001057600080fd5b50604051606080610abe833981016040908152815160208301519190920151600160a060020a038116151561004457600080fd5b61004c6100c4565b604051809103906000f080158015610068573d6000803e3d6000fd5b5060048054600160a060020a0319908116600160a060020a0393841617909155600080548216958316959095179094556003805433908616179055600580548516938216939093179092556002805490931691161790556100d4565b6040516107a18061031d83390190565b61023a806100e36000396000f3006080604052600436106100565763ffffffff7c0100000000000000000000000000000000000000000000000000000000600035041663094780e6811461009c5780631d143848146100da5780639d2a43ad146100ef575b6000610060610118565b905060405136810160405236600082376000803683856127105a03f46040513d81016040523d6000823e816001811461009857600080fd5b3d82f35b3480156100a857600080fd5b506100b16101b5565b6040805173ffffffffffffffffffffffffffffffffffffffff9092168252519081900360200190f35b3480156100e657600080fd5b506100b16101d1565b3480156100fb57600080fd5b506101046101ed565b604080519115158252519081900360200190f35b600254604080517f59b804aa000000000000000000000000000000000000000000000000000000008152905160009273ffffffffffffffffffffffffffffffffffffffff16916359b804aa91600480830192602092919082900301818787803b15801561018457600080fd5b505af1158015610198573d6000803e3d6000fd5b505050506040513d60208110156101ae57600080fd5b5051905090565b60025473ffffffffffffffffffffffffffffffffffffffff1681565b60035473ffffffffffffffffffffffffffffffffffffffff1681565b60055474010000000000000000000000000000000000000000900460ff16815600a165627a7a72305820dc1f0881fc17f858a8ac029aa261ad4c6d902c0aee55dcfd2f51f3ec850bb7100029608060405260008054600160a060020a0319163317905561077c806100256000396000f30060806040526004361061008d5763ffffffff7c01000000000000000000000000000000000000000000000000000000006000350416634592cd1d81146100c5578063557f4bc9146100ee5780635aa77d3c1461010f5780635ecb16cd146101405780637362377b14610197578063ce606ee0146101ac578063dffdc75d146101c1578063f2fde38b14610241575b60408051348152905133917f88a5966d370b9919b20f3e2c13ff65706f196a4e32cc2c12bf57088f88525874919081900360200190a2005b3480156100d157600080fd5b506100da610262565b604080519115158252519081900360200190f35b3480156100fa57600080fd5b506100da600160a060020a03600435166102f3565b34801561011b57600080fd5b5061012461034e565b60408051600160a060020a039092168252519081900360200190f35b34801561014c57600080fd5b50604080516020600480358082013583810280860185019096528085526101959536959394602494938501929182918501908490808284375094975061035d9650505050505050565b005b3480156101a357600080fd5b506101956104d5565b3480156101b857600080fd5b50610124610527565b3480156101cd57600080fd5b5060408051602060046024803582810135601f810185900485028601850190965285855261022f958335600160a060020a0316953695604494919390910191908190840183828082843750949750508435955050505050602001351515610536565b60408051918252519081900360200190f35b34801561024d57600080fd5b506100da600160a060020a03600435166106b9565b600154600090600160a060020a0316331461027f575060006102f0565b60015460008054604051600160a060020a0393841693909116917f8be0079c531659141344cd1fd0a4f28419497f9722a3daafe3b4186f6b6457e091a350600180546000805473ffffffffffffffffffffffffffffffffffffffff19908116600160a060020a038416179091551681555b90565b60008054600160a060020a031633141561034957600160a060020a038216151561031f57506000610349565b506001805473ffffffffffffffffffffffffffffffffffffffff1916600160a060020a0383161781555b919050565b600154600160a060020a031681565b6000805481908190600160a060020a03163314156104cf57600092505b83518310156104cf57838381518110151561039157fe5b6020908102909101810151604080517f70a082310000000000000000000000000000000000000000000000000000000081523060048201529051919450600160a060020a038516926370a08231926024808401938290030181600087803b1580156103fb57600080fd5b505af115801561040f573d6000803e3d6000fd5b505050506040513d602081101561042557600080fd5b5051905080156104c457604080517fa9059cbb000000000000000000000000000000000000000000000000000000008152336004820152602481018390529051600160a060020a0384169163a9059cbb9160448083019260209291908290030181600087803b15801561049757600080fd5b505af11580156104ab573d6000803e3d6000fd5b505050506040513d60208110156104c157600080fd5b50505b60019092019161037a565b50505050565b60008054600160a060020a031633141561052457503031600081111561052457604051339082156108fc029083906000818181858888f19350505050158015610522573d6000803e3d6000fd5b505b50565b600054600160a060020a031681565b600080548190600160a060020a03163314156106b05760206000865160208801878a6040603f5a0204f1905060005191508080610571575082155b151561060457604080517f08c379a000000000000000000000000000000000000000000000000000000000815260206004820152602160248201527f5468726f77206f6e206661696c65642063616c6c20696e205573657250726f7860448201527f7900000000000000000000000000000000000000000000000000000000000000606482015290519081900360840190fd5b85600160a060020a03167fc1de93dfa06362c6a616cde73ec17d116c0d588dd1df70f27f91b500de207c4185876040518083815260200180602001828103825283818151815260200191508051906020019080838360005b8381101561067457818101518382015260200161065c565b50505050905090810190601f1680156106a15780820380516001836020036101000a031916815260200191505b50935050505060405180910390a25b50949350505050565b60008054600160a060020a031633141561034957600160a060020a03821615156106e557506000610349565b60008054604051600160a060020a03808616939216917f8be0079c531659141344cd1fd0a4f28419497f9722a3daafe3b4186f6b6457e091a35060008054600160a060020a03831673ffffffffffffffffffffffffffffffffffffffff1990911617905560019190505600a165627a7a7230582052a9b5e0592717ce1ddcdbc07f729ba65fecbace0c160054c6784af8cbc2908900295133a133185f1023427a2e90f18506b27db994977ce0c0faafd514a7dd109ae0a165627a7a7230582070419fe99c910b5ef854174db71242d206885a91f62e0e0722ae23606352c7690029",
  "source": "/**\n * Copyright 2017–2018, LaborX PTY\n * Licensed under the AGPL Version 3 license.\n */\n\npragma solidity ^0.4.21;\n\n\nimport \"solidity-roles-lib/contracts/Roles2LibraryAdapter.sol\";\nimport \"solidity-shared-lib/contracts/Owned.sol\";\nimport \"./UserRouter.sol\";\nimport \"./UserInterface.sol\";\n\n\ncontract UserFactory is Roles2LibraryAdapter {\n\n    uint constant USER_FACTORY_SCOPE = 21000;\n\n    event UserCreated(\n        address indexed self,\n        address indexed user,\n        address proxy,\n        address recoveryContract,\n        address owner\n    );\n\n    address public userBackendProvider;\n    address public oracle;\n    address public eventsHistory;\n\n    constructor(address _roles2Library) Roles2LibraryAdapter(_roles2Library) public {\n        eventsHistory = this;\n    }\n\n    function getEventsHistory() \n    public \n    view \n    returns (address) \n    {\n        return eventsHistory;\n    }\n\n    function setupEventsHistory(address _eventsHistory) \n    auth \n    external \n    returns (uint) \n    {\n        require(_eventsHistory != 0x0);\n\n        eventsHistory = _eventsHistory;\n        return OK;\n    }\n\n    function setUserBackendProvider(address _newUserBackendProvider)\n    auth\n    external\n    returns (uint)\n    {\n        require(_newUserBackendProvider != 0x0);\n\n        userBackendProvider = _newUserBackendProvider;\n        return OK;\n    }\n\n    function setOracleAddress(address _oracle)\n    auth\n    external\n    returns (uint)\n    {\n        require(_oracle != 0x0, \"Oracle should not be equal to 0x0\");\n\n        oracle = _oracle;\n        return OK;\n    }\n\n    function createUserWithProxyAndRecovery(\n        address _owner,\n        address _recoveryContract,\n        bool _use2FA\n    )\n    public\n    returns (uint) \n    {\n        require(_owner != 0x0, \"Owner should not be equal to 0x0\");\n\n        UserInterface user = UserInterface(new UserRouter(_owner, _recoveryContract, userBackendProvider));\n        user.init(oracle, _use2FA);\n\n        address proxy = user.getUserProxy();\n        UserFactory(getEventsHistory()).emitUserCreated(\n            user,\n            proxy,\n            _recoveryContract,\n            _owner\n        );\n        return OK;\n    }\n\n    function updateBackendProviderForUser(UserInterface _user) \n    auth\n    external\n    returns (uint) \n    {\n        return _user.updateBackendProvider(userBackendProvider);\n    }\n\n    function emitUserCreated(\n        address _user,\n        address _proxy,\n        address _recoveryContract,\n        address _owner\n    ) \n    external \n    {\n        emit UserCreated(\n            msg.sender,\n            _user,\n            _proxy,\n            _recoveryContract,\n            _owner\n        );\n    }\n}\n",
  "sourcePath": "solidity-user-lib/contracts/UserFactory.sol",
  "compiler": {
    "name": "solc",
    "version": "0.4.24+commit.e67f0147.Emscripten.clang"
  },
  "schemaVersion": "2.0.1",
  "updatedAt": "2018-07-09T12:18:04.458Z"
}