{
  "contractName": "UserRouter",
  "abi": [
    {
      "constant": true,
      "inputs": [],
      "name": "backendProvider",
      "outputs": [
        {
          "name": "",
          "type": "address"
        }
      ],
      "payable": false,
      "stateMutability": "view",
      "type": "function"
    },
    {
      "constant": false,
      "inputs": [
        {
          "name": "_initiator",
          "type": "address"
        },
        {
          "name": "_user",
          "type": "address"
        },
        {
          "name": "_proxy",
          "type": "address"
        },
        {
          "name": "_enabled",
          "type": "bool"
        }
      ],
      "name": "emitUser2FAChanged",
      "outputs": [],
      "payable": false,
      "stateMutability": "nonpayable",
      "type": "function"
    },
    {
      "constant": true,
      "inputs": [],
      "name": "issuer",
      "outputs": [
        {
          "name": "",
          "type": "address"
        }
      ],
      "payable": false,
      "stateMutability": "view",
      "type": "function"
    },
    {
      "constant": true,
      "inputs": [],
      "name": "use2FA",
      "outputs": [
        {
          "name": "",
          "type": "bool"
        }
      ],
      "payable": false,
      "stateMutability": "view",
      "type": "function"
    },
    {
      "inputs": [
        {
          "name": "_owner",
          "type": "address"
        },
        {
          "name": "_recoveryContract",
          "type": "address"
        },
        {
          "name": "_backendProvider",
          "type": "address"
        }
      ],
      "payable": false,
      "stateMutability": "nonpayable",
      "type": "constructor"
    },
    {
      "payable": true,
      "stateMutability": "payable",
      "type": "fallback"
    },
    {
      "anonymous": false,
      "inputs": [
        {
          "indexed": true,
          "name": "self",
          "type": "address"
        },
        {
          "indexed": true,
          "name": "initiator",
          "type": "address"
        },
        {
          "indexed": false,
          "name": "user",
          "type": "address"
        },
        {
          "indexed": true,
          "name": "proxy",
          "type": "address"
        },
        {
          "indexed": false,
          "name": "enabled",
          "type": "bool"
        }
      ],
      "name": "User2FAChanged",
      "type": "event"
    }
  ],
  "bytecode": "0x6060604052341561000f57600080fd5b604051606080610a53833981016040528080519190602001805191906020018051915050600160a060020a038316151561004857600080fd5b600160a060020a038116151561005d57600080fd5b6100656100d7565b604051809103906000f080151561007b57600080fd5b60048054600160a060020a0319908116600160a060020a039384161790915560008054821695831695909517909455600380548516338316179055600580548516938216939093179092556002805490931691161790556100e7565b6040516106d08061038383390190565b61028d806100f66000396000f3006060604052600436106100615763ffffffff7c0100000000000000000000000000000000000000000000000000000000600035041663094780e681146100a75780630a0f33af146100d65780631d143848146101085780639d2a43ad1461011b575b600061006b610142565b905060405136810160405236600082376000803683856127105a03f46040513d81016040523d6000823e81600181146100a357600080fd5b3d82f35b34156100b257600080fd5b6100ba6101b8565b604051600160a060020a03909116815260200160405180910390f35b34156100e157600080fd5b610106600160a060020a036004358116906024358116906044351660643515156101c7565b005b341561011357600080fd5b6100ba610231565b341561012657600080fd5b61012e610240565b604051901515815260200160405180910390f35b600254600090600160a060020a03166359b804aa6040518163ffffffff167c0100000000000000000000000000000000000000000000000000000000028152600401602060405180830381600087803b151561019d57600080fd5b5af115156101aa57600080fd5b505050604051805191505090565b600254600160a060020a031681565b81600160a060020a031684600160a060020a031633600160a060020a03167fa1b382e715ceb13e8ccfd1da722ef7d2a97de8456d269fc201c7efb7420f6e5b8685604051600160a060020a039092168252151560208201526040908101905180910390a450505050565b600354600160a060020a031681565b60055474010000000000000000000000000000000000000000900460ff16815600a165627a7a7230582020e808eadbd421c5afdb79b6a5faa8071d04adbb055f299d655a7242c28c2d3f0029606060405260008054600160a060020a033316600160a060020a03199091161790556106a0806100306000396000f3006060604052600436106100745763ffffffff60e060020a6000350416634592cd1d81146100b3578063557f4bc9146100da5780635aa77d3c146100f95780635ecb16cd146101285780637362377b14610179578063ce606ee01461018c578063dffdc75d1461019f578063f2fde38b14610219575b33600160a060020a03167f88a5966d370b9919b20f3e2c13ff65706f196a4e32cc2c12bf57088f885258743460405190815260200160405180910390a2005b34156100be57600080fd5b6100c6610238565b604051901515815260200160405180910390f35b34156100e557600080fd5b6100c6600160a060020a03600435166102cf565b341561010457600080fd5b61010c61032e565b604051600160a060020a03909116815260200160405180910390f35b341561013357600080fd5b610177600460248135818101908301358060208181020160405190810160405280939291908181526020018383602002808284375094965061033d95505050505050565b005b341561018457600080fd5b610177610468565b341561019757600080fd5b61010c6104c9565b34156101aa57600080fd5b61020760048035600160a060020a03169060446024803590810190830135806020601f820181900481020160405190810160405281815292919060208401838380828437509496505084359460200135151593506104d892505050565b60405190815260200160405180910390f35b341561022457600080fd5b6100c6600160a060020a03600435166105d6565b60015460009033600160a060020a03908116911614610259575060006102cc565b600154600054600160a060020a0391821691167f8be0079c531659141344cd1fd0a4f28419497f9722a3daafe3b4186f6b6457e060405160405180910390a350600180546000805473ffffffffffffffffffffffffffffffffffffffff19908116600160a060020a038416179091551681555b90565b6000805433600160a060020a039081169116141561032957600160a060020a03821615156102ff57506000610329565b506001805473ffffffffffffffffffffffffffffffffffffffff1916600160a060020a0383161781555b919050565b600154600160a060020a031681565b600080548190819033600160a060020a039081169116141561046257600092505b83518310156104625783838151811061037357fe5b90602001906020020151915081600160a060020a03166370a082313060405160e060020a63ffffffff8416028152600160a060020a039091166004820152602401602060405180830381600087803b15156103cd57600080fd5b5af115156103da57600080fd5b505050604051805191505080156104575781600160a060020a031663a9059cbb338360405160e060020a63ffffffff8516028152600160a060020a0390921660048301526024820152604401602060405180830381600087803b151561043f57600080fd5b5af1151561044c57600080fd5b505050604051805150505b60019092019161035e565b50505050565b6000805433600160a060020a03908116911614156104c65750600160a060020a0330163160008111156104c657600160a060020a03331681156108fc0282604051600060405180830381858888f1935050505015156104c657600080fd5b50565b600054600160a060020a031681565b60008054819033600160a060020a03908116911614156105cd5760206000865160208801878a6040603f5a0204f1905060005191508080610517575082155b151561052257600080fd5b85600160a060020a03167fc1de93dfa06362c6a616cde73ec17d116c0d588dd1df70f27f91b500de207c41858760405182815260406020820181815290820183818151815260200191508051906020019080838360005b83811015610591578082015183820152602001610579565b50505050905090810190601f1680156105be5780820380516001836020036101000a031916815260200191505b50935050505060405180910390a25b50949350505050565b6000805433600160a060020a039081169116141561032957600160a060020a038216151561060657506000610329565b600054600160a060020a0380841691167f8be0079c531659141344cd1fd0a4f28419497f9722a3daafe3b4186f6b6457e060405160405180910390a35060008054600160a060020a03831673ffffffffffffffffffffffffffffffffffffffff1990911617905560019190505600a165627a7a723058201573d533158766df974b274567fb249e849cc820c635e027d0323cd16607fb410029",
  "source": "/**\n* Copyright 2017–2018, LaborX PTY\n* Licensed under the AGPL Version 3 license.\n*/\n\npragma solidity ^0.4.21;\n\n\nimport \"./BaseByzantiumRouter.sol\";\nimport \"./UserBase.sol\";\nimport \"./UserEmitter.sol\";\n\n\n/// @title Provides lightweight frontend contract that uses delegatecall to pass\n/// every function call to a shared library (backend) contract. \n/// Use UserInterface to make calls to this facade.\ncontract UserRouter is BaseByzantiumRouter, UserOwned, UserBase, UserEmitter {\n\n    /// @notice UserRouter constructor\n    /// @param _owner owner of created contract\n    /// @param _recoveryContract address of recovery account/contract\n    /// @param _backendProvider address of backend provider; will be used to fetch current backend implementation\n    function UserRouter(address _owner, address _recoveryContract, address _backendProvider) \n    public\n    {\n        require(_owner != 0x0);\n        require(_backendProvider != 0x0);\n\n        userProxy = new UserProxy();\n        contractOwner = _owner;\n        issuer = msg.sender;\n        recoveryContract = _recoveryContract;\n        backendProvider = UserBackendProviderInterface(_backendProvider);\n    }\n\n    function implementation()\n    internal\n    view \n    returns (address) \n    {\n        return backendProvider.getUserBackend();\n    }\n}\n",
  "sourcePath": "solidity-user-lib/contracts/UserRouter.sol",
  "compiler": {
    "name": "solc",
    "version": "0.4.21+commit.dfe3193c.Emscripten.clang"
  },
  "schemaVersion": "2.0.0",
  "updatedAt": "2018-08-06T06:04:03.371Z"
}