{
  "contractName": "UserFactory",
  "abi": [
    {
      "constant": false,
      "inputs": [
        {
          "name": "_roles2Library",
          "type": "address"
        }
      ],
      "name": "setRoles2Library",
      "outputs": [
        {
          "name": "",
          "type": "uint256"
        }
      ],
      "payable": false,
      "stateMutability": "nonpayable",
      "type": "function"
    },
    {
      "constant": true,
      "inputs": [],
      "name": "oracle",
      "outputs": [
        {
          "name": "",
          "type": "address"
        }
      ],
      "payable": false,
      "stateMutability": "view",
      "type": "function"
    },
    {
      "constant": false,
      "inputs": [
        {
          "name": "_errorCode",
          "type": "uint256"
        }
      ],
      "name": "emitErrorCode",
      "outputs": [],
      "payable": false,
      "stateMutability": "nonpayable",
      "type": "function"
    },
    {
      "constant": true,
      "inputs": [],
      "name": "userBackendProvider",
      "outputs": [
        {
          "name": "",
          "type": "address"
        }
      ],
      "payable": false,
      "stateMutability": "view",
      "type": "function"
    },
    {
      "constant": true,
      "inputs": [],
      "name": "getEventsHistory",
      "outputs": [
        {
          "name": "",
          "type": "address"
        }
      ],
      "payable": false,
      "stateMutability": "view",
      "type": "function"
    },
    {
      "inputs": [
        {
          "name": "_roles2Library",
          "type": "address"
        }
      ],
      "payable": false,
      "stateMutability": "nonpayable",
      "type": "constructor"
    },
    {
      "anonymous": false,
      "inputs": [
        {
          "indexed": true,
          "name": "self",
          "type": "address"
        },
        {
          "indexed": true,
          "name": "user",
          "type": "address"
        },
        {
          "indexed": false,
          "name": "proxy",
          "type": "address"
        },
        {
          "indexed": false,
          "name": "recoveryContract",
          "type": "address"
        },
        {
          "indexed": false,
          "name": "owner",
          "type": "address"
        }
      ],
      "name": "UserCreated",
      "type": "event"
    },
    {
      "anonymous": false,
      "inputs": [
        {
          "indexed": true,
          "name": "self",
          "type": "address"
        },
        {
          "indexed": false,
          "name": "errorCode",
          "type": "uint256"
        }
      ],
      "name": "ErrorCode",
      "type": "event"
    },
    {
      "anonymous": false,
      "inputs": [
        {
          "indexed": false,
          "name": "code",
          "type": "address"
        },
        {
          "indexed": false,
          "name": "sender",
          "type": "address"
        },
        {
          "indexed": false,
          "name": "sig",
          "type": "bytes4"
        }
      ],
      "name": "AuthFailedError",
      "type": "event"
    },
    {
      "constant": false,
      "inputs": [
        {
          "name": "_eventsHistory",
          "type": "address"
        }
      ],
      "name": "setupEventsHistory",
      "outputs": [
        {
          "name": "",
          "type": "uint256"
        }
      ],
      "payable": false,
      "stateMutability": "nonpayable",
      "type": "function"
    },
    {
      "constant": false,
      "inputs": [
        {
          "name": "_newUserBackendProvider",
          "type": "address"
        }
      ],
      "name": "setUserBackendProvider",
      "outputs": [
        {
          "name": "",
          "type": "uint256"
        }
      ],
      "payable": false,
      "stateMutability": "nonpayable",
      "type": "function"
    },
    {
      "constant": false,
      "inputs": [
        {
          "name": "_oracle",
          "type": "address"
        }
      ],
      "name": "setOracleAddress",
      "outputs": [
        {
          "name": "",
          "type": "uint256"
        }
      ],
      "payable": false,
      "stateMutability": "nonpayable",
      "type": "function"
    },
    {
      "constant": false,
      "inputs": [
        {
          "name": "_owner",
          "type": "address"
        },
        {
          "name": "_recoveryContract",
          "type": "address"
        },
        {
          "name": "_use2FA",
          "type": "bool"
        }
      ],
      "name": "createUserWithProxyAndRecovery",
      "outputs": [
        {
          "name": "",
          "type": "uint256"
        }
      ],
      "payable": false,
      "stateMutability": "nonpayable",
      "type": "function"
    },
    {
      "constant": false,
      "inputs": [
        {
          "name": "_user",
          "type": "address"
        }
      ],
      "name": "updateBackendProviderForUser",
      "outputs": [
        {
          "name": "",
          "type": "uint256"
        }
      ],
      "payable": false,
      "stateMutability": "nonpayable",
      "type": "function"
    },
    {
      "constant": false,
      "inputs": [
        {
          "name": "_user",
          "type": "address"
        },
        {
          "name": "_proxy",
          "type": "address"
        },
        {
          "name": "_recoveryContract",
          "type": "address"
        },
        {
          "name": "_owner",
          "type": "address"
        }
      ],
      "name": "emitUserCreated",
      "outputs": [],
      "payable": false,
      "stateMutability": "nonpayable",
      "type": "function"
    }
  ],
  "bytecode": "0x6060604052341561000f57600080fd5b60405160208061152e833981016040528080519150819050600160a060020a038116151561003c57600080fd5b60008054600160a060020a031916600160a060020a03929092169190911790556100723064010000000061007981026109481704565b505061009b565b60018054600160a060020a038316600160a060020a0319909116178155919050565b611484806100aa6000396000f3006060604052600436106100955763ffffffff60e060020a60003504166302927d20811461009a5780632637cd7d146100cb578063473b56d8146100ea5780634c69c00f14610109578063723d21b5146101285780637dc0d1d0146101475780638834277e14610176578063a8fe9b5c1461018e578063f3a8f7dd146101b8578063ff55c4f9146101e9578063fff10aba146101fc575b600080fd5b34156100a557600080fd5b6100b9600160a060020a036004351661020f565b60405190815260200160405180910390f35b34156100d657600080fd5b6100b9600160a060020a03600435166102b3565b34156100f557600080fd5b6100b9600160a060020a0360043516610360565b341561011457600080fd5b6100b9600160a060020a0360043516610422565b341561013357600080fd5b6100b9600160a060020a03600435166104e4565b341561015257600080fd5b61015a6105cf565b604051600160a060020a03909116815260200160405180910390f35b341561018157600080fd5b61018c6004356105de565b005b341561019957600080fd5b6100b9600160a060020a03600435811690602435166044351515610625565b34156101c357600080fd5b61018c600160a060020a03600435811690602435811690604435811690606435166107f3565b34156101f457600080fd5b61015a610861565b341561020757600080fd5b61015a610870565b600061022733600035600160e060020a03191661087f565b151561028a576000805160206114398339815191523033600035600160e060020a031916604051600160a060020a039384168152919092166020820152600160e060020a03199091166040808301919091526060909101905180910390a16102ae565b600160a060020a038216151561029f57600080fd5b6102a882610948565b50600190505b919050565b60006102cb33600035600160e060020a03191661087f565b151561032e576000805160206114398339815191523033600035600160e060020a031916604051600160a060020a039384168152919092166020820152600160e060020a03199091166040808301919091526060909101905180910390a16102ae565b5060008054600160a060020a03831673ffffffffffffffffffffffffffffffffffffffff199091161790556001919050565b600061037833600035600160e060020a03191661087f565b15156103db576000805160206114398339815191523033600035600160e060020a031916604051600160a060020a039384168152919092166020820152600160e060020a03199091166040808301919091526060909101905180910390a16102ae565b600160a060020a03821615156103f057600080fd5b5060028054600160a060020a03831673ffffffffffffffffffffffffffffffffffffffff199091161790556001919050565b600061043a33600035600160e060020a03191661087f565b151561049d576000805160206114398339815191523033600035600160e060020a031916604051600160a060020a039384168152919092166020820152600160e060020a03199091166040808301919091526060909101905180910390a16102ae565b600160a060020a03821615156104b257600080fd5b5060038054600160a060020a03831673ffffffffffffffffffffffffffffffffffffffff199091161790556001919050565b60006104fc33600035600160e060020a03191661087f565b151561055f576000805160206114398339815191523033600035600160e060020a031916604051600160a060020a039384168152919092166020820152600160e060020a03199091166040808301919091526060909101905180910390a16102ae565b600254600160a060020a0380841691632f71ed9c911660405160e060020a63ffffffff8416028152600160a060020a039091166004820152602401602060405180830381600087803b15156105b357600080fd5b5af115156105c057600080fd5b50505060405180519392505050565b600354600160a060020a031681565b6105e6610977565b600160a060020a03167f09e0713b45664e161c202b19bb4574ee83dfa056f9bfdee56847b3971d9682218260405190815260200160405180910390a250565b60008080600160a060020a038616151561063e57600080fd5b60025486908690600160a060020a0316610656610a5d565b600160a060020a039384168152918316602083015290911660408083019190915260609091019051809103906000f080151561069157600080fd5b600354909250600160a060020a038084169163cb9fa36691168660405160e060020a63ffffffff8516028152600160a060020a03909216600483015215156024820152604401602060405180830381600087803b15156106f057600080fd5b5af115156106fd57600080fd5b50505060405180519050506107118261097b565b81600160a060020a03166389f4fd576040518163ffffffff1660e060020a028152600401602060405180830381600087803b151561074e57600080fd5b5af1151561075b57600080fd5b50505060405180519050905061076f610870565b600160a060020a031663f3a8f7dd8383888a60405160e060020a63ffffffff8716028152600160a060020a039485166004820152928416602484015290831660448301529091166064820152608401600060405180830381600087803b15156107d757600080fd5b5af115156107e457600080fd5b50600198975050505050505050565b83600160a060020a031633600160a060020a03167f3e4421caa3c2c904474750d7351099afa13fa389bfabba41d91731f64b629587858585604051600160a060020a03938416815291831660208301529091166040808301919091526060909101905180910390a350505050565b600254600160a060020a031681565b600154600160a060020a031690565b600030600160a060020a031683600160a060020a031614156108a357506001610942565b600054600160a060020a031615156108bd57506000610942565b600054600160a060020a031663b700961384308560405160e060020a63ffffffff8616028152600160a060020a039384166004820152919092166024820152600160e060020a03199091166044820152606401602060405180830381600087803b151561092957600080fd5b5af1151561093657600080fd5b50505060405180519150505b92915050565b60018054600160a060020a03831673ffffffffffffffffffffffffffffffffffffffff19909116178155919050565b3390565b6000610985610a00565b9050600160a060020a038116156109fc5780600160a060020a0316638c2229be8360405160e060020a63ffffffff8416028152600160a060020a039091166004820152602401602060405180830381600087803b15156109e457600080fd5b5af115156109f157600080fd5b505050604051805150505b5050565b600254600090600160a060020a0316635724e81f6040518163ffffffff1660e060020a028152600401602060405180830381600087803b1515610a4257600080fd5b5af11515610a4f57600080fd5b505050604051805191505090565b6040516109cb80610a6e8339019056006060604052341561000f57600080fd5b6040516060806109cb833981016040528080519190602001805191906020018051915050600160a060020a038116151561004857600080fd5b6100506100c2565b604051809103906000f080151561006657600080fd5b60048054600160a060020a0319908116600160a060020a039384161790915560008054821695831695909517909455600380548516338316179055600580548516938216939093179092556002805490931691161790556100d2565b6040516106d0806102fb83390190565b61021a806100e16000396000f3006060604052600436106100565763ffffffff7c0100000000000000000000000000000000000000000000000000000000600035041663094780e6811461009c5780631d143848146100d85780639d2a43ad146100eb575b6000610060610112565b905060405136810160405236600082376000803683856127105a03f46040513d81016040523d6000823e816001811461009857600080fd5b3d82f35b34156100a757600080fd5b6100af610195565b60405173ffffffffffffffffffffffffffffffffffffffff909116815260200160405180910390f35b34156100e357600080fd5b6100af6101b1565b34156100f657600080fd5b6100fe6101cd565b604051901515815260200160405180910390f35b60025460009073ffffffffffffffffffffffffffffffffffffffff166359b804aa6040518163ffffffff167c0100000000000000000000000000000000000000000000000000000000028152600401602060405180830381600087803b151561017a57600080fd5b5af1151561018757600080fd5b505050604051805191505090565b60025473ffffffffffffffffffffffffffffffffffffffff1681565b60035473ffffffffffffffffffffffffffffffffffffffff1681565b60055474010000000000000000000000000000000000000000900460ff16815600a165627a7a723058208eb11d716d0912f72e72fc9d5eeee72f97cc068865892fd17e4ee3f35bbac1480029606060405260008054600160a060020a033316600160a060020a03199091161790556106a0806100306000396000f3006060604052600436106100745763ffffffff60e060020a6000350416634592cd1d81146100b3578063557f4bc9146100da5780635aa77d3c146100f95780635ecb16cd146101285780637362377b14610179578063ce606ee01461018c578063dffdc75d1461019f578063f2fde38b14610219575b33600160a060020a03167f88a5966d370b9919b20f3e2c13ff65706f196a4e32cc2c12bf57088f885258743460405190815260200160405180910390a2005b34156100be57600080fd5b6100c6610238565b604051901515815260200160405180910390f35b34156100e557600080fd5b6100c6600160a060020a03600435166102cf565b341561010457600080fd5b61010c61032e565b604051600160a060020a03909116815260200160405180910390f35b341561013357600080fd5b610177600460248135818101908301358060208181020160405190810160405280939291908181526020018383602002808284375094965061033d95505050505050565b005b341561018457600080fd5b610177610468565b341561019757600080fd5b61010c6104c9565b34156101aa57600080fd5b61020760048035600160a060020a03169060446024803590810190830135806020601f820181900481020160405190810160405281815292919060208401838380828437509496505084359460200135151593506104d892505050565b60405190815260200160405180910390f35b341561022457600080fd5b6100c6600160a060020a03600435166105d6565b60015460009033600160a060020a03908116911614610259575060006102cc565b600154600054600160a060020a0391821691167f8be0079c531659141344cd1fd0a4f28419497f9722a3daafe3b4186f6b6457e060405160405180910390a350600180546000805473ffffffffffffffffffffffffffffffffffffffff19908116600160a060020a038416179091551681555b90565b6000805433600160a060020a039081169116141561032957600160a060020a03821615156102ff57506000610329565b506001805473ffffffffffffffffffffffffffffffffffffffff1916600160a060020a0383161781555b919050565b600154600160a060020a031681565b600080548190819033600160a060020a039081169116141561046257600092505b83518310156104625783838151811061037357fe5b90602001906020020151915081600160a060020a03166370a082313060405160e060020a63ffffffff8416028152600160a060020a039091166004820152602401602060405180830381600087803b15156103cd57600080fd5b5af115156103da57600080fd5b505050604051805191505080156104575781600160a060020a031663a9059cbb338360405160e060020a63ffffffff8516028152600160a060020a0390921660048301526024820152604401602060405180830381600087803b151561043f57600080fd5b5af1151561044c57600080fd5b505050604051805150505b60019092019161035e565b50505050565b6000805433600160a060020a03908116911614156104c65750600160a060020a0330163160008111156104c657600160a060020a03331681156108fc0282604051600060405180830381858888f1935050505015156104c657600080fd5b50565b600054600160a060020a031681565b60008054819033600160a060020a03908116911614156105cd5760206000865160208801878a6040603f5a0204f1905060005191508080610517575082155b151561052257600080fd5b85600160a060020a03167fc1de93dfa06362c6a616cde73ec17d116c0d588dd1df70f27f91b500de207c41858760405182815260406020820181815290820183818151815260200191508051906020019080838360005b83811015610591578082015183820152602001610579565b50505050905090810190601f1680156105be5780820380516001836020036101000a031916815260200191505b50935050505060405180910390a25b50949350505050565b6000805433600160a060020a039081169116141561032957600160a060020a038216151561060657506000610329565b600054600160a060020a0380841691167f8be0079c531659141344cd1fd0a4f28419497f9722a3daafe3b4186f6b6457e060405160405180910390a35060008054600160a060020a03831673ffffffffffffffffffffffffffffffffffffffff1990911617905560019190505600a165627a7a7230582012a3dfe1de2637b757bfd60f056e9995a455d869c0ad5d96aecf1f245f74c77b00295133a133185f1023427a2e90f18506b27db994977ce0c0faafd514a7dd109ae0a165627a7a723058209a62ab38f67850d9da1799667a14202c5ec2b41d3641cc42cff8fb6de3589fb30029",
  "source": "/**\n * Copyright 2017–2018, LaborX PTY\n * Licensed under the AGPL Version 3 license.\n */\n\npragma solidity ^0.4.21;\n\n\nimport \"solidity-shared-lib/contracts/Owned.sol\";\nimport \"solidity-eventshistory-lib/contracts/MultiEventsHistoryAdapter.sol\";\nimport \"solidity-roles-lib/contracts/Roles2LibraryAdapter.sol\";\nimport \"./UserRouter.sol\";\nimport \"./UserBackendProviderInterface.sol\";\nimport \"./UserRegistry.sol\";\nimport \"./UserInterface.sol\";\n\n\ncontract UserFactory is Roles2LibraryAdapter, MultiEventsHistoryAdapter {\n\n    uint constant USER_FACTORY_SCOPE = 21000;\n\n    event UserCreated(\n        address indexed self,\n        address indexed user,\n        address proxy,\n        address recoveryContract,\n        address owner\n    );\n\n    address public userBackendProvider;\n    address public oracle;\n\n    function UserFactory(address _roles2Library) Roles2LibraryAdapter(_roles2Library) public {\n        _setEventsHistory(this);\n    }\n\n    function setupEventsHistory(address _eventsHistory) \n    auth \n    external \n    returns (uint) \n    {\n        require(_eventsHistory != 0x0);\n        \n        _setEventsHistory(_eventsHistory);\n        return OK;\n    }\n\n    function setUserBackendProvider(address _newUserBackendProvider)\n    auth\n    external\n    returns (uint)\n    {\n        require(_newUserBackendProvider != 0x0);\n\n        userBackendProvider = _newUserBackendProvider;\n        return OK;\n    }\n\n    function setOracleAddress(address _oracle)\n    auth\n    external\n    returns (uint)\n    {\n        require(_oracle != 0x0);\n\n        oracle = _oracle;\n        return OK;\n    }\n\n    function createUserWithProxyAndRecovery(\n        address _owner,\n        address _recoveryContract,\n        bool _use2FA\n    )\n    public\n    returns (uint) \n    {\n        require(_owner != 0x0);\n\n        UserInterface user = UserInterface(new UserRouter(_owner, _recoveryContract, userBackendProvider));\n        user.init(oracle, _use2FA);\n\n        _addUserToRegistry(address(user));\n\n        address proxy = user.getUserProxy();\n        UserFactory(getEventsHistory()).emitUserCreated(\n            user,\n            proxy,\n            _recoveryContract,\n            _owner\n        );\n        return OK;\n    }\n\n    function updateBackendProviderForUser(UserInterface _user) \n    auth\n    external\n    returns (uint) \n    {\n        return _user.updateBackendProvider(userBackendProvider);\n    }\n\n    function emitUserCreated(\n        address _user,\n        address _proxy,\n        address _recoveryContract,\n        address _owner\n    ) \n    external \n    {\n        emit UserCreated(\n            msg.sender,\n            _user,\n            _proxy,\n            _recoveryContract,\n            _owner\n        );\n    }\n\n    function _getUserRegistry() private view returns (UserRegistry) {\n        return UserRegistry(UserBackendProviderInterface(userBackendProvider).getUserRegistry());\n    }\n\n    function _addUserToRegistry(address _user) private {\n        UserRegistry _userRegistry = _getUserRegistry();\n        if (address(_userRegistry) != 0x0) {\n            _userRegistry.addUserContract(_user);\n        }\n    }\n}\n",
  "sourcePath": "solidity-user-lib/contracts/UserFactory.sol",
  "compiler": {
    "name": "solc",
    "version": "0.4.21+commit.dfe3193c.Emscripten.clang"
  },
  "schemaVersion": "2.0.0",
  "updatedAt": "2018-07-12T13:24:25.550Z"
}