{
  "contractName": "UserBackend",
  "abi": [
    {
      "constant": true,
      "inputs": [],
      "name": "backendProvider",
      "outputs": [
        {
          "name": "",
          "type": "address"
        }
      ],
      "payable": false,
      "stateMutability": "view",
      "type": "function"
    },
    {
      "constant": false,
      "inputs": [
        {
          "name": "owner",
          "type": "address"
        }
      ],
      "name": "removeOwner",
      "outputs": [],
      "payable": false,
      "stateMutability": "nonpayable",
      "type": "function"
    },
    {
      "constant": true,
      "inputs": [],
      "name": "issuer",
      "outputs": [
        {
          "name": "",
          "type": "address"
        }
      ],
      "payable": false,
      "stateMutability": "view",
      "type": "function"
    },
    {
      "constant": false,
      "inputs": [
        {
          "name": "transactionId",
          "type": "uint256"
        }
      ],
      "name": "revokeConfirmation",
      "outputs": [],
      "payable": false,
      "stateMutability": "nonpayable",
      "type": "function"
    },
    {
      "constant": true,
      "inputs": [
        {
          "name": "",
          "type": "address"
        }
      ],
      "name": "isOwner",
      "outputs": [
        {
          "name": "",
          "type": "bool"
        }
      ],
      "payable": false,
      "stateMutability": "view",
      "type": "function"
    },
    {
      "constant": true,
      "inputs": [
        {
          "name": "",
          "type": "uint256"
        },
        {
          "name": "",
          "type": "address"
        }
      ],
      "name": "confirmations",
      "outputs": [
        {
          "name": "",
          "type": "bool"
        }
      ],
      "payable": false,
      "stateMutability": "view",
      "type": "function"
    },
    {
      "constant": true,
      "inputs": [
        {
          "name": "pending",
          "type": "bool"
        },
        {
          "name": "executed",
          "type": "bool"
        }
      ],
      "name": "getTransactionCount",
      "outputs": [
        {
          "name": "count",
          "type": "uint256"
        }
      ],
      "payable": false,
      "stateMutability": "view",
      "type": "function"
    },
    {
      "constant": true,
      "inputs": [],
      "name": "version",
      "outputs": [
        {
          "name": "",
          "type": "bytes32"
        }
      ],
      "payable": false,
      "stateMutability": "view",
      "type": "function"
    },
    {
      "constant": true,
      "inputs": [],
      "name": "pendingContractOwner",
      "outputs": [
        {
          "name": "",
          "type": "address"
        }
      ],
      "payable": false,
      "stateMutability": "view",
      "type": "function"
    },
    {
      "constant": false,
      "inputs": [
        {
          "name": "tokens",
          "type": "address[]"
        }
      ],
      "name": "withdrawTokens",
      "outputs": [],
      "payable": false,
      "stateMutability": "nonpayable",
      "type": "function"
    },
    {
      "constant": false,
      "inputs": [
        {
          "name": "owner",
          "type": "address"
        }
      ],
      "name": "addOwner",
      "outputs": [],
      "payable": false,
      "stateMutability": "nonpayable",
      "type": "function"
    },
    {
      "constant": false,
      "inputs": [],
      "name": "withdrawEther",
      "outputs": [],
      "payable": false,
      "stateMutability": "nonpayable",
      "type": "function"
    },
    {
      "constant": true,
      "inputs": [
        {
          "name": "transactionId",
          "type": "uint256"
        }
      ],
      "name": "isConfirmed",
      "outputs": [
        {
          "name": "",
          "type": "bool"
        }
      ],
      "payable": false,
      "stateMutability": "view",
      "type": "function"
    },
    {
      "constant": true,
      "inputs": [],
      "name": "getOracle",
      "outputs": [
        {
          "name": "",
          "type": "address"
        }
      ],
      "payable": false,
      "stateMutability": "view",
      "type": "function"
    },
    {
      "constant": true,
      "inputs": [
        {
          "name": "transactionId",
          "type": "uint256"
        }
      ],
      "name": "getConfirmationCount",
      "outputs": [
        {
          "name": "count",
          "type": "uint256"
        }
      ],
      "payable": false,
      "stateMutability": "view",
      "type": "function"
    },
    {
      "constant": true,
      "inputs": [
        {
          "name": "",
          "type": "uint256"
        }
      ],
      "name": "transactions",
      "outputs": [
        {
          "name": "destination",
          "type": "address"
        },
        {
          "name": "value",
          "type": "uint256"
        },
        {
          "name": "data",
          "type": "bytes"
        },
        {
          "name": "executed",
          "type": "bool"
        }
      ],
      "payable": false,
      "stateMutability": "view",
      "type": "function"
    },
    {
      "constant": true,
      "inputs": [],
      "name": "use2FA",
      "outputs": [
        {
          "name": "",
          "type": "bool"
        }
      ],
      "payable": false,
      "stateMutability": "view",
      "type": "function"
    },
    {
      "constant": true,
      "inputs": [],
      "name": "getOwners",
      "outputs": [
        {
          "name": "",
          "type": "address[]"
        }
      ],
      "payable": false,
      "stateMutability": "view",
      "type": "function"
    },
    {
      "constant": true,
      "inputs": [
        {
          "name": "from",
          "type": "uint256"
        },
        {
          "name": "to",
          "type": "uint256"
        },
        {
          "name": "pending",
          "type": "bool"
        },
        {
          "name": "executed",
          "type": "bool"
        }
      ],
      "name": "getTransactionIds",
      "outputs": [
        {
          "name": "_transactionIds",
          "type": "uint256[]"
        }
      ],
      "payable": false,
      "stateMutability": "view",
      "type": "function"
    },
    {
      "constant": true,
      "inputs": [
        {
          "name": "transactionId",
          "type": "uint256"
        }
      ],
      "name": "getConfirmations",
      "outputs": [
        {
          "name": "_confirmations",
          "type": "address[]"
        }
      ],
      "payable": false,
      "stateMutability": "view",
      "type": "function"
    },
    {
      "constant": true,
      "inputs": [],
      "name": "transactionCount",
      "outputs": [
        {
          "name": "",
          "type": "uint256"
        }
      ],
      "payable": false,
      "stateMutability": "view",
      "type": "function"
    },
    {
      "constant": false,
      "inputs": [
        {
          "name": "_required",
          "type": "uint256"
        }
      ],
      "name": "changeRequirement",
      "outputs": [],
      "payable": false,
      "stateMutability": "nonpayable",
      "type": "function"
    },
    {
      "constant": false,
      "inputs": [
        {
          "name": "transactionId",
          "type": "uint256"
        }
      ],
      "name": "confirmTransaction",
      "outputs": [],
      "payable": false,
      "stateMutability": "nonpayable",
      "type": "function"
    },
    {
      "constant": false,
      "inputs": [
        {
          "name": "destination",
          "type": "address"
        },
        {
          "name": "value",
          "type": "uint256"
        },
        {
          "name": "data",
          "type": "bytes"
        }
      ],
      "name": "submitTransaction",
      "outputs": [
        {
          "name": "transactionId",
          "type": "uint256"
        }
      ],
      "payable": false,
      "stateMutability": "nonpayable",
      "type": "function"
    },
    {
      "constant": true,
      "inputs": [],
      "name": "contractOwner",
      "outputs": [
        {
          "name": "",
          "type": "address"
        }
      ],
      "payable": false,
      "stateMutability": "view",
      "type": "function"
    },
    {
      "constant": true,
      "inputs": [],
      "name": "MAX_OWNER_COUNT",
      "outputs": [
        {
          "name": "",
          "type": "uint256"
        }
      ],
      "payable": false,
      "stateMutability": "view",
      "type": "function"
    },
    {
      "constant": true,
      "inputs": [],
      "name": "required",
      "outputs": [
        {
          "name": "",
          "type": "uint256"
        }
      ],
      "payable": false,
      "stateMutability": "view",
      "type": "function"
    },
    {
      "constant": false,
      "inputs": [
        {
          "name": "owner",
          "type": "address"
        },
        {
          "name": "newOwner",
          "type": "address"
        }
      ],
      "name": "replaceOwner",
      "outputs": [],
      "payable": false,
      "stateMutability": "nonpayable",
      "type": "function"
    },
    {
      "constant": false,
      "inputs": [
        {
          "name": "transactionId",
          "type": "uint256"
        }
      ],
      "name": "executeTransaction",
      "outputs": [],
      "payable": false,
      "stateMutability": "nonpayable",
      "type": "function"
    },
    {
      "payable": true,
      "stateMutability": "payable",
      "type": "fallback"
    },
    {
      "anonymous": false,
      "inputs": [
        {
          "indexed": true,
          "name": "sender",
          "type": "address"
        },
        {
          "indexed": true,
          "name": "transactionId",
          "type": "uint256"
        }
      ],
      "name": "Confirmation",
      "type": "event"
    },
    {
      "anonymous": false,
      "inputs": [
        {
          "indexed": true,
          "name": "sender",
          "type": "address"
        },
        {
          "indexed": true,
          "name": "transactionId",
          "type": "uint256"
        }
      ],
      "name": "Revocation",
      "type": "event"
    },
    {
      "anonymous": false,
      "inputs": [
        {
          "indexed": true,
          "name": "transactionId",
          "type": "uint256"
        }
      ],
      "name": "Submission",
      "type": "event"
    },
    {
      "anonymous": false,
      "inputs": [
        {
          "indexed": true,
          "name": "transactionId",
          "type": "uint256"
        }
      ],
      "name": "Execution",
      "type": "event"
    },
    {
      "anonymous": false,
      "inputs": [
        {
          "indexed": true,
          "name": "transactionId",
          "type": "uint256"
        }
      ],
      "name": "ExecutionFailure",
      "type": "event"
    },
    {
      "anonymous": false,
      "inputs": [
        {
          "indexed": true,
          "name": "sender",
          "type": "address"
        },
        {
          "indexed": false,
          "name": "value",
          "type": "uint256"
        }
      ],
      "name": "Deposit",
      "type": "event"
    },
    {
      "anonymous": false,
      "inputs": [
        {
          "indexed": true,
          "name": "owner",
          "type": "address"
        }
      ],
      "name": "OwnerAddition",
      "type": "event"
    },
    {
      "anonymous": false,
      "inputs": [
        {
          "indexed": true,
          "name": "owner",
          "type": "address"
        }
      ],
      "name": "OwnerRemoval",
      "type": "event"
    },
    {
      "anonymous": false,
      "inputs": [
        {
          "indexed": false,
          "name": "required",
          "type": "uint256"
        }
      ],
      "name": "RequirementChange",
      "type": "event"
    },
    {
      "anonymous": false,
      "inputs": [
        {
          "indexed": true,
          "name": "previousOwner",
          "type": "address"
        },
        {
          "indexed": true,
          "name": "newOwner",
          "type": "address"
        }
      ],
      "name": "OwnershipTransferred",
      "type": "event"
    },
    {
      "constant": false,
      "inputs": [
        {
          "name": "_oracle",
          "type": "address"
        },
        {
          "name": "_enable2FA",
          "type": "bool"
        }
      ],
      "name": "init",
      "outputs": [
        {
          "name": "",
          "type": "uint256"
        }
      ],
      "payable": false,
      "stateMutability": "nonpayable",
      "type": "function"
    },
    {
      "constant": false,
      "inputs": [
        {
          "name": "_enabled",
          "type": "bool"
        }
      ],
      "name": "set2FA",
      "outputs": [
        {
          "name": "",
          "type": "uint256"
        }
      ],
      "payable": false,
      "stateMutability": "nonpayable",
      "type": "function"
    },
    {
      "constant": false,
      "inputs": [
        {
          "name": "_userProxy",
          "type": "address"
        }
      ],
      "name": "setUserProxy",
      "outputs": [
        {
          "name": "",
          "type": "uint256"
        }
      ],
      "payable": false,
      "stateMutability": "nonpayable",
      "type": "function"
    },
    {
      "constant": true,
      "inputs": [],
      "name": "getUserProxy",
      "outputs": [
        {
          "name": "",
          "type": "address"
        }
      ],
      "payable": false,
      "stateMutability": "view",
      "type": "function"
    },
    {
      "constant": false,
      "inputs": [
        {
          "name": "_oracle",
          "type": "address"
        }
      ],
      "name": "setOracle",
      "outputs": [
        {
          "name": "",
          "type": "uint256"
        }
      ],
      "payable": false,
      "stateMutability": "nonpayable",
      "type": "function"
    },
    {
      "constant": false,
      "inputs": [
        {
          "name": "_newBackendProvider",
          "type": "address"
        }
      ],
      "name": "updateBackendProvider",
      "outputs": [
        {
          "name": "",
          "type": "uint256"
        }
      ],
      "payable": false,
      "stateMutability": "nonpayable",
      "type": "function"
    },
    {
      "constant": false,
      "inputs": [
        {
          "name": "_recoveryContract",
          "type": "address"
        }
      ],
      "name": "setRecoveryContract",
      "outputs": [
        {
          "name": "",
          "type": "uint256"
        }
      ],
      "payable": false,
      "stateMutability": "nonpayable",
      "type": "function"
    },
    {
      "constant": true,
      "inputs": [],
      "name": "getRecoveryContract",
      "outputs": [
        {
          "name": "",
          "type": "address"
        }
      ],
      "payable": false,
      "stateMutability": "view",
      "type": "function"
    },
    {
      "constant": false,
      "inputs": [
        {
          "name": "newAddress",
          "type": "address"
        }
      ],
      "name": "recoverUser",
      "outputs": [
        {
          "name": "",
          "type": "uint256"
        }
      ],
      "payable": false,
      "stateMutability": "nonpayable",
      "type": "function"
    },
    {
      "constant": false,
      "inputs": [
        {
          "name": "_destination",
          "type": "address"
        },
        {
          "name": "_data",
          "type": "bytes"
        },
        {
          "name": "_value",
          "type": "uint256"
        },
        {
          "name": "_throwOnFailedCall",
          "type": "bool"
        }
      ],
      "name": "forward",
      "outputs": [
        {
          "name": "",
          "type": "bytes32"
        }
      ],
      "payable": false,
      "stateMutability": "nonpayable",
      "type": "function"
    },
    {
      "constant": false,
      "inputs": [
        {
          "name": "_newOwner",
          "type": "address"
        }
      ],
      "name": "transferOwnership",
      "outputs": [
        {
          "name": "_result",
          "type": "bool"
        }
      ],
      "payable": false,
      "stateMutability": "nonpayable",
      "type": "function"
    },
    {
      "constant": false,
      "inputs": [
        {
          "name": "_to",
          "type": "address"
        }
      ],
      "name": "changeContractOwnership",
      "outputs": [
        {
          "name": "",
          "type": "bool"
        }
      ],
      "payable": false,
      "stateMutability": "nonpayable",
      "type": "function"
    },
    {
      "constant": false,
      "inputs": [],
      "name": "claimContractOwnership",
      "outputs": [
        {
          "name": "_result",
          "type": "bool"
        }
      ],
      "payable": false,
      "stateMutability": "nonpayable",
      "type": "function"
    }
  ],
  "bytecode": "0x60606040527f312e302e30000000000000000000000000000000000000000000000000000000600c5560008054600160a060020a033316600160a060020a0319909116179055612763806100546000396000f3006060604052600436106101ea5763ffffffff60e060020a600035041663094780e68114610233578063173825d9146102625780631d1438481461028157806320ea8d86146102945780632f54bf6e146102aa5780632f71ed9c146102dd5780633411c81c1461030e57806335f2507f146103305780634592cd1d1461034f578063547415251461036257806354fd4d501461037f578063557f4bc9146103925780635aa77d3c146103b15780635ecb16cd146103c45780636029d66f146104135780637065cb48146104325780637362377b14610451578063784547a7146104645780637adbf9731461047a578063833b1fce1461049957806389f4fd57146104ac5780638b51d13f146104bf5780639ace38c2146104d55780639d2a43ad14610583578063a0e67e2b14610596578063a8abe69a146105fc578063b5dc40c31461061f578063b77bf60014610635578063ba51a6df14610648578063c01a8c841461065e578063c5e5f97814610674578063c64274741461068c578063cb9fa366146106f1578063ce606ee014610715578063d74f8edd14610728578063dc8452cd1461073b578063dffdc75d1461074e578063e20056e6146107b6578063eb8a5cd6146107db578063ee22610b146107fa578063f2fde38b14610810578063f60c37a41461082f575b60003411156102315733600160a060020a03167fe1fffcc4923d04b559f4d29a8bfc6cda04eb5b0d3c460751c2402c5c5cc9109c3460405190815260200160405180910390a25b005b341561023e57600080fd5b610246610842565b604051600160a060020a03909116815260200160405180910390f35b341561026d57600080fd5b610231600160a060020a0360043516610851565b341561028c57600080fd5b6102466109d9565b341561029f57600080fd5b6102316004356109e8565b34156102b557600080fd5b6102c9600160a060020a0360043516610ac6565b604051901515815260200160405180910390f35b34156102e857600080fd5b6102fc600160a060020a0360043516610adb565b60405190815260200160405180910390f35b341561031957600080fd5b6102c9600435600160a060020a0360243516610b40565b341561033b57600080fd5b6102fc600160a060020a0360043516610b60565b341561035a57600080fd5b6102c9610bd6565b341561036d57600080fd5b6102fc60043515156024351515610c39565b341561038a57600080fd5b6102fc610ca5565b341561039d57600080fd5b6102c9600160a060020a0360043516610cab565b34156103bc57600080fd5b610246610cd4565b34156103cf57600080fd5b6102316004602481358181019083013580602081810201604051908101604052809392919081815260200183836020028082843750949650610ce395505050505050565b341561041e57600080fd5b6102fc600160a060020a0360043516610e0e565b341561043d57600080fd5b610231600160a060020a0360043516610f2d565b341561045c57600080fd5b610231611054565b341561046f57600080fd5b6102c96004356110b5565b341561048557600080fd5b6102fc600160a060020a0360043516611139565b34156104a457600080fd5b6102466111bb565b34156104b757600080fd5b6102466111e8565b34156104ca57600080fd5b6102fc6004356111f7565b34156104e057600080fd5b6104eb600435611260565b604051600160a060020a038516815260208101849052811515606082015260806040820181815290820184818151815260200191508051906020019080838360005b8381101561054557808201518382015260200161052d565b50505050905090810190601f1680156105725780820380516001836020036101000a031916815260200191505b509550505050505060405180910390f35b341561058e57600080fd5b6102c961133e565b34156105a157600080fd5b6105a961134e565b60405160208082528190810183818151815260200191508051906020019060200280838360005b838110156105e85780820151838201526020016105d0565b505050509050019250505060405180910390f35b341561060757600080fd5b6105a9600435602435604435151560643515156113b6565b341561062a57600080fd5b6105a96004356114de565b341561064057600080fd5b6102fc611642565b341561065357600080fd5b610231600435611648565b341561066957600080fd5b6102316004356116d3565b341561067f57600080fd5b6102fc60043515156117c0565b341561069757600080fd5b6102fc60048035600160a060020a03169060248035919060649060443590810190830135806020601f8201819004810201604051908101604052818152929190602084018383808284375094965061189595505050505050565b34156106fc57600080fd5b6102fc600160a060020a036004351660243515156118b4565b341561072057600080fd5b61024661195c565b341561073357600080fd5b6102fc61196b565b341561074657600080fd5b6102fc611970565b341561075957600080fd5b6102fc60048035600160a060020a03169060446024803590810190830135806020601f8201819004810201604051908101604052818152929190602084018383808284375094965050843594602001351515935061197692505050565b34156107c157600080fd5b610231600160a060020a0360043581169060243516611b49565b34156107e657600080fd5b6102fc600160a060020a0360043516611cea565b341561080557600080fd5b610231600435611d7e565b341561081b57600080fd5b6102c9600160a060020a0360043516611ed6565b341561083a57600080fd5b610246611f37565b600254600160a060020a031681565b600030600160a060020a031633600160a060020a031614151561087357600080fd5b600160a060020a038216600090815260086020526040902054829060ff16151561089c57600080fd5b600160a060020a0383166000908152600860205260408120805460ff1916905591505b600954600019018210156109725782600160a060020a03166009838154811015156108e657fe5b600091825260209091200154600160a060020a031614156109675760098054600019810190811061091357fe5b60009182526020909120015460098054600160a060020a03909216918490811061093957fe5b60009182526020909120018054600160a060020a031916600160a060020a0392909216919091179055610972565b8160010191506108bf565b60098054600019019061098590826125e6565b50600954600a54111561099e5760095461099e90611648565b82600160a060020a03167f8001553a916ef2f495d26a907cc54d96ed840d7bda71e73194bf5a9df7a76b9060405160405180910390a2505050565b600354600160a060020a031681565b33600160a060020a03811660009081526008602052604090205460ff161515610a1057600080fd5b600082815260076020908152604080832033600160a060020a038116855292529091205483919060ff161515610a4557600080fd5b600084815260066020526040902060030154849060ff1615610a6657600080fd5b6000858152600760209081526040808320600160a060020a033316808552925291829020805460ff1916905586917ff6a317157440607f36269043eb55f1287a5a19ba2216afeab88cd46cbcfb88e9905160405180910390a35050505050565b60086020526000908152604090205460ff1681565b6000610ae5611f46565b1515610af057600080fd5b60035433600160a060020a0390811691161415610b3b57600160a060020a0382161515610b1c57600080fd5b5060028054600160a060020a031916600160a060020a03831617905560015b919050565b600760209081526000928352604080842090915290825290205460ff1681565b600080610b6b611f46565b1515610b7657600080fd5b60055433600160a060020a0390811691161415610bd057600160a060020a0383161515610ba257600080fd5b5060008054600160a060020a03848116600160a060020a031983161790925516610bcb81611fee565b600191505b50919050565b600554600090819060a060020a900460ff1615610bf257600080fd5b610bfa611f46565b1515610c0f57610c086120dc565b9150610c35565b50600054600160a060020a0316610c246120dc565b91508115610c3557610c3581611fee565b5090565b6000805b600b54811015610c9e57838015610c66575060008181526006602052604090206003015460ff16155b80610c8a5750828015610c8a575060008181526006602052604090206003015460ff165b15610c96576001820191505b600101610c3d565b5092915050565b600c5481565b60055460009060a060020a900460ff1615610cc557600080fd5b610cce82612165565b92915050565b600154600160a060020a031681565b600080548190819033600160a060020a0390811691161415610e0857600092505b8351831015610e0857838381518110610d1957fe5b90602001906020020151915081600160a060020a03166370a082313060405160e060020a63ffffffff8416028152600160a060020a039091166004820152602401602060405180830381600087803b1515610d7357600080fd5b5af11515610d8057600080fd5b50505060405180519150508015610dfd5781600160a060020a031663a9059cbb338360405160e060020a63ffffffff8516028152600160a060020a0390921660048301526024820152604401602060405180830381600087803b1515610de557600080fd5b5af11515610df257600080fd5b505050604051805150505b600190920191610d04565b50505050565b6000610e18611f46565b1515610e2357600080fd5b600054600554600160a060020a039091169060a060020a900460ff16158015610e5d575080600160a060020a031633600160a060020a0316145b80610e79575030600160a060020a031633600160a060020a0316145b15610eb757600160a060020a0383161515610e9357600080fd5b60058054600160a060020a031916600160a060020a03851617905560019150610bd0565b60055460a060020a900460ff168015610ee1575080600160a060020a031633600160a060020a0316145b15610bd057610f2130346000368080601f016020809104026020016040519081016040528181529291906020840183838082843750611895945050505050565b50600360005260206000f35b30600160a060020a031633600160a060020a0316141515610f4d57600080fd5b600160a060020a038116600090815260086020526040902054819060ff1615610f7557600080fd5b81600160a060020a0381161515610f8b57600080fd5b600980549050600101600a546032821180610fa557508181115b80610fae575080155b80610fb7575081155b15610fc157600080fd5b600160a060020a0385166000908152600860205260409020805460ff191660019081179091556009805490918101610ff983826125e6565b5060009182526020909120018054600160a060020a031916600160a060020a0387169081179091557ff39e6e1eb0edcf53c221607b54b00cd28f3196fed0a24994dc308b8f611b682d60405160405180910390a25050505050565b6000805433600160a060020a03908116911614156110b25750600160a060020a0330163160008111156110b257600160a060020a03331681156108fc0282604051600060405180830381858888f1935050505015156110b257600080fd5b50565b600080805b60095481101561113257600084815260076020526040812060098054919291849081106110e357fe5b6000918252602080832090910154600160a060020a0316835282019290925260400190205460ff1615611117576001820191505b600a5482141561112a5760019250611132565b6001016110ba565b5050919050565b6000611143611f46565b151561114e57600080fd5b600054600554600160a060020a039091169060a060020a900460ff16158015611188575080600160a060020a031633600160a060020a0316145b806111a4575030600160a060020a031633600160a060020a0316145b15610eb7576111b2836121b8565b60019150610bd0565b6000600960018154811015156111cd57fe5b600091825260209091200154600160a060020a031690505b90565b600454600160a060020a031690565b6000805b600954811015610bd0576000838152600760205260408120600980549192918490811061122457fe5b6000918252602080832090910154600160a060020a0316835282019290925260400190205460ff1615611258576001820191505b6001016111fb565b60066020528060005260406000206000915090508060000160009054906101000a9004600160a060020a031690806001015490806002018054600181600116156101000203166002900480601f01602080910402602001604051908101604052809291908181526020018280546001816001161561010002031660029004801561132b5780601f106113005761010080835404028352916020019161132b565b820191906000526020600020905b81548152906001019060200180831161130e57829003601f168201915b5050506003909301549192505060ff1684565b60055460a060020a900460ff1681565b61135661260a565b60098054806020026020016040519081016040528092919081815260200182805480156113ac57602002820191906000526020600020905b8154600160a060020a0316815260019091019060200180831161138e575b5050505050905090565b6113be61260a565b6113c661260a565b600080600b546040518059106113d95750595b9080825280602002602001820160405250925060009150600090505b600b5481101561146e5785801561141e575060008181526006602052604090206003015460ff16155b806114425750848015611442575060008181526006602052604090206003015460ff165b15611466578083838151811061145457fe5b60209081029091010152600191909101905b6001016113f5565b87870360405180591061147e5750595b908082528060200260200182016040525093508790505b868110156114d3578281815181106114a957fe5b9060200190602002015184898303815181106114c157fe5b60209081029091010152600101611495565b505050949350505050565b6114e661260a565b6114ee61260a565b60095460009081906040518059106115035750595b9080825280602002602001820160405250925060009150600090505b6009548110156115cb576000858152600760205260408120600980549192918490811061154857fe5b6000918252602080832090910154600160a060020a0316835282019290925260400190205460ff16156115c357600980548290811061158357fe5b600091825260209091200154600160a060020a03168383815181106115a457fe5b600160a060020a03909216602092830290910190910152600191909101905b60010161151f565b816040518059106115d95750595b90808252806020026020018201604052509350600090505b8181101561163a5782818151811061160557fe5b9060200190602002015184828151811061161b57fe5b600160a060020a039092166020928302909101909101526001016115f1565b505050919050565b600b5481565b30600160a060020a031633600160a060020a031614151561166857600080fd5b60095481603282118061167a57508181115b80611683575080155b8061168c575081155b1561169657600080fd5b600a8390557fa3f1ee9126a074d9326c682f561767f710e927faa811f7a99829d49dc421797a8360405190815260200160405180910390a1505050565b33600160a060020a03811660009081526008602052604090205460ff1615156116fb57600080fd5b6000828152600660205260409020548290600160a060020a0316151561172057600080fd5b600083815260076020908152604080832033600160a060020a038116855292529091205484919060ff161561175457600080fd5b6000858152600760209081526040808320600160a060020a033316808552925291829020805460ff1916600117905586917f4a504a94899432a9846e1aa406dceb1bcfd538bb839071d49d1e5e23f5be30ef905160405180910390a36117b985611d7e565b5050505050565b60006117ca611f46565b15156117d557600080fd5b600054600554600160a060020a039091169060a060020a900460ff1615801561180f575080600160a060020a031633600160a060020a0316145b8061182b575030600160a060020a031633600160a060020a0316145b15610eb7576118386111bb565b600160a060020a0316151561184c57600080fd5b60055460ff60a060020a909104161515831515146111b2576005805474ff0000000000000000000000000000000000000000191660a060020a8515150217905560019150610bd0565b60006118a2848484612254565b90506118ad816116d3565b9392505050565b60006118be611f46565b15156118c957600080fd5b60035433600160a060020a0390811691161415610cce576000546118f690600160a060020a031684612345565b30600160a060020a031663c5e5f9788360405160e060020a63ffffffff84160281529015156004820152602401602060405180830381600087803b151561193c57600080fd5b5af1151561194957600080fd5b5050506040518051506001949350505050565b600054600160a060020a031681565b603281565b600a5481565b6000611980611f46565b151561198b57600080fd5b600054600554600160a060020a039091169060a060020a900460ff161580156119c5575080600160a060020a031633600160a060020a0316145b806119e1575030600160a060020a031633600160a060020a0316145b15611ad657600454600160a060020a031663dffdc75d8787878760405160e060020a63ffffffff8716028152600160a060020a03851660048201908152604482018490528215156064830152608060248301908152909160840185818151815260200191508051906020019080838360005b83811015611a6b578082015183820152602001611a53565b50505050905090810190601f168015611a985780820380516001836020036101000a031916815260200191505b5095505050505050602060405180830381600087803b1515611ab957600080fd5b5af11515611ac657600080fd5b5050506040518051925050611b40565b60055460a060020a900460ff168015611b00575080600160a060020a031633600160a060020a0316145b15611b4057610f2130346000368080601f016020809104026020016040519081016040528181529291906020840183838082843750611895945050505050565b50949350505050565b600030600160a060020a031633600160a060020a0316141515611b6b57600080fd5b600160a060020a038316600090815260086020526040902054839060ff161515611b9457600080fd5b600160a060020a038316600090815260086020526040902054839060ff1615611bbc57600080fd5b600092505b600954831015611c485784600160a060020a0316600984815481101515611be457fe5b600091825260209091200154600160a060020a03161415611c3d5783600984815481101515611c0f57fe5b60009182526020909120018054600160a060020a031916600160a060020a0392909216919091179055611c48565b826001019250611bc1565b600160a060020a03808616600081815260086020526040808220805460ff199081169091559388168252908190208054909316600117909255907f8001553a916ef2f495d26a907cc54d96ed840d7bda71e73194bf5a9df7a76b90905160405180910390a283600160a060020a03167ff39e6e1eb0edcf53c221607b54b00cd28f3196fed0a24994dc308b8f611b682d60405160405180910390a25050505050565b6000611cf4611f46565b1515611cff57600080fd5b600054600554600160a060020a039091169060a060020a900460ff16158015611d39575080600160a060020a031633600160a060020a0316145b80611d55575030600160a060020a031633600160a060020a0316145b15610eb75760048054600160a060020a031916600160a060020a03851617905560019150610bd0565b600081815260066020526040812060030154829060ff1615611d9f57600080fd5b611da8836110b5565b15611ed1576000838152600660205260409081902060038101805460ff19166001908117909155815490820154919450600160a060020a0316916002850190518082805460018160011615610100020316600290048015611e4a5780601f10611e1f57610100808354040283529160200191611e4a565b820191906000526020600020905b815481529060010190602001808311611e2d57829003601f168201915b505091505060006040518083038185875af19250505015611e9757827f33e13ecb54c3076d8e8bb8c2881800a4d972b792045ffae98fdf46df365fed7560405160405180910390a2611ed1565b827f526441bb6c1aba3c9a4a6ca1d6545da9c2333c8c48343ef398eb858d72b7923660405160405180910390a260038201805460ff191690555b505050565b600554600090819060a060020a900460ff1615611ef257600080fd5b611efa611f46565b1515611f1057611f09836123c8565b9150610bd0565b50600054600160a060020a0316611f26836123c8565b91508115610bd057610bd081611fee565b600554600160a060020a031690565b6002546000908190600160a060020a03161515611f665760009150610c35565b600254600160a060020a03166359b804aa6040518163ffffffff1660e060020a028152600401602060405180830381600087803b1515611fa557600080fd5b5af11515611fb257600080fd5b50505060405180519050905080600160a060020a031630600160a060020a031614158015611fe85750600160a060020a03811615155b91505090565b60008054600160a060020a033081169163e20056e69185911660405160e060020a63ffffffff8516028152600160a060020a03928316600482015291166024820152604401600060405180830381600087803b151561204c57600080fd5b5af1151561205957600080fd5b505050612064612459565b9050600160a060020a038116156120d85780600160a060020a0316634ef5129d308460405160e060020a63ffffffff8516028152600160a060020a03928316600482015291166024820152604401600060405180830381600087803b15156120cb57600080fd5b5af115156117b957600080fd5b5050565b60015460009033600160a060020a039081169116146120fd575060006111e5565b600154600054600160a060020a0391821691167f8be0079c531659141344cd1fd0a4f28419497f9722a3daafe3b4186f6b6457e060405160405180910390a3506001805460008054600160a060020a0319908116600160a060020a0384161790915516815590565b6000805433600160a060020a0390811691161415610b3b57600160a060020a038216151561219557506000610b3b565b5060018054600160a060020a038316600160a060020a0319909116178155919050565b600160a060020a03811615156121cd57600080fd5b30600160a060020a031663e20056e6600960018154811015156121ec57fe5b600091825260209091200154600160a060020a03168360405160e060020a63ffffffff8516028152600160a060020a03928316600482015291166024820152604401600060405180830381600087803b151561224757600080fd5b5af11515610e0857600080fd5b600083600160a060020a038116151561226c57600080fd5b600b54915060806040519081016040908152600160a060020a0387168252602080830187905281830186905260006060840181905285815260069091522081518154600160a060020a031916600160a060020a0391909116178155602082015181600101556040820151816002019080516122eb92916020019061261c565b506060820151600391909101805460ff191691151591909117905550600b80546001019055817fc0ba8fe4b176c1714197d43b9cc6bcf797a4a7461c5fe8d0ef6e184ae7601e5160405160405180910390a2509392505050565b600061234f61260a565b60029150816040518059106123615750595b90808252806020026020018201604052509050838160008151811061238257fe5b600160a060020a0390921660209283029091019091015282816001815181106123a757fe5b600160a060020a03909216602092830290910190910152610e0881836124b6565b6000805433600160a060020a0390811691161415610b3b57600160a060020a03821615156123f857506000610b3b565b600054600160a060020a0380841691167f8be0079c531659141344cd1fd0a4f28419497f9722a3daafe3b4186f6b6457e060405160405180910390a35060008054600160a060020a038316600160a060020a03199091161790556001919050565b600254600090600160a060020a0316635724e81f6040518163ffffffff1660e060020a028152600401602060405180830381600087803b151561249b57600080fd5b5af115156124a857600080fd5b505050604051805191505090565b600082518260328211806124c957508181115b806124d2575080155b806124db575081155b156124e557600080fd5b600a54156124f257600080fd5b60006124ff6009826125e6565b50600092505b84518310156125c6576008600086858151811061251e57fe5b90602001906020020151600160a060020a0316815260208101919091526040016000205460ff168061256c575084838151811061255757fe5b90602001906020020151600160a060020a0316155b1561257657600080fd5b60016008600087868151811061258857fe5b90602001906020020151600160a060020a031681526020810191909152604001600020805460ff191691151591909117905560019290920191612505565b60098580516125d9929160200190612696565b505050600a919091555050565b815481835581811511611ed157600083815260209020611ed19181019083016126f9565b60206040519081016040526000815290565b828054600181600116156101000203166002900490600052602060002090601f016020900481019282601f1061265d57805160ff191683800117855561268a565b8280016001018555821561268a579182015b8281111561268a57825182559160200191906001019061266f565b50610c359291506126f9565b8280548282559060005260206000209081019282156126ed579160200282015b828111156126ed5782518254600160a060020a031916600160a060020a0391909116178255602092909201916001909101906126b6565b50610c35929150612713565b6111e591905b80821115610c3557600081556001016126ff565b6111e591905b80821115610c35578054600160a060020a03191681556001016127195600a165627a7a72305820e82104201d8023098850938f1f89fcbabedadd7189ea992c19f475431a6d851d0029",
  "source": "/**\n* Copyright 20172018, LaborX PTY\n* Licensed under the AGPL Version 3 license.\n*/\n\npragma solidity ^0.4.21;\n\n\nimport \"solidity-shared-lib/contracts/Owned.sol\";\nimport \"./TwoFactorAuthenticationSig.sol\";\nimport \"./UserBase.sol\";\nimport \"./UserRegistry.sol\";\n\n\ncontract UserBackend is Owned, UserBase, TwoFactorAuthenticationSig {\n\n    uint constant OK = 1;\n    uint constant MULTISIG_ADDED = 3;\n\n    bytes32 public version = \"1.0.0\";\n\n    modifier onlyMultiowned(address _initiator) {\n        if ((!use2FA && msg.sender == _initiator)\n            || msg.sender == address(this)\n        ) {\n            _;\n        }\n        else if (use2FA && msg.sender == _initiator) {\n            submitTransaction(address(this), msg.value, msg.data);\n            assembly {\n                mstore(0, 3) /// MULTISIG_ADDED\n                return(0, 32)\n            }\n        }\n    }\n\n    modifier only2FADisabled {\n        require(!use2FA);\n        _;\n    }\n\n    modifier onlyRecoveryContract {\n        if (recoveryContract == msg.sender) {\n            _;\n        }\n    }\n\n    modifier onlyIssuer {\n        if (issuer == msg.sender) {\n            _;\n        }\n    }\n\n    modifier onlyCall {\n        require(_allowDelegateCall());\n        _;\n    }\n\n    function init(address _oracle, bool _enable2FA)\n    onlyCall\n    onlyIssuer\n    external\n    returns (uint)\n    {\n        _init(contractOwner, _oracle);\n        this.set2FA(_enable2FA);\n        return OK;\n    }\n\n    function set2FA(bool _enabled)\n    onlyCall\n    onlyMultiowned(contractOwner)\n    external\n    returns (uint) \n    {\n        require(getOracle() != 0x0);\n\n        if (use2FA != _enabled) {\n            use2FA = _enabled;\n        }\n        return OK;\n    }\n\n    function setUserProxy(UserProxy _userProxy) \n    onlyCall\n    onlyMultiowned(contractOwner)\n    public \n    returns (uint) \n    {\n        userProxy = _userProxy;\n        return OK;\n    }\n\n    function getUserProxy() \n    public \n    view \n    returns (address) \n    {\n        return userProxy;\n    }\n\n    function setOracle(address _oracle)\n    onlyCall\n    onlyMultiowned(contractOwner)\n    external\n    returns (uint)\n    {\n        _setOracle(_oracle);\n        return OK;\n    }\n\n    function updateBackendProvider(address _newBackendProvider)\n    onlyCall\n    onlyIssuer\n    external\n    returns (uint) \n    {\n        require(_newBackendProvider != 0x0);\n\n        backendProvider = UserBackendProviderInterface(_newBackendProvider);\n        return OK;\n    }\n\n    function setRecoveryContract(address _recoveryContract) \n    onlyCall\n    onlyMultiowned(contractOwner)\n    public \n    returns (uint) \n    {\n        require(_recoveryContract != 0x0);\n\n        recoveryContract = _recoveryContract;\n        return OK;\n    }\n\n    function getRecoveryContract()\n    public\n    view\n    returns (address)\n    {\n        return recoveryContract;\n    }\n\n    function recoverUser(address newAddress) \n    onlyCall\n    onlyRecoveryContract\n    public\n    returns (uint) \n    {\n        require(newAddress != 0x0);\n\n        address _oldContractOwner = contractOwner;\n        contractOwner = newAddress;\n        _userOwnershipChanged(_oldContractOwner);\n\n        return OK;\n    }\n\n    function forward(\n        address _destination,\n        bytes _data,\n        uint _value,\n        bool _throwOnFailedCall\n    )\n    onlyCall\n    onlyMultiowned(contractOwner)\n    public\n    returns (bytes32) \n    {\n        return userProxy.forward(_destination, _data, _value, _throwOnFailedCall);\n    }\n\n    function transferOwnership(address _newOwner) \n    only2FADisabled\n    public \n    returns (bool _result) \n    {\n        if (!_allowDelegateCall()) {\n            return super.transferOwnership(_newOwner);\n        } \n\n        address _oldContractOwner = contractOwner;\n        _result = super.transferOwnership(_newOwner);\n        if (_result) {\n            _userOwnershipChanged(_oldContractOwner);\n        }\n\n        return _result;\n    }\n\n    function changeContractOwnership(address _to)\n    only2FADisabled\n    public\n    returns (bool)\n    {\n        return super.changeContractOwnership(_to);\n    }\n\n    function claimContractOwnership()\n    only2FADisabled\n    public\n    returns (bool _result)\n    {\n        if (!_allowDelegateCall()) {\n            return super.claimContractOwnership();\n        }\n\n        address _oldContractOwner = contractOwner;\n        _result = super.claimContractOwnership();\n        if (_result) {\n            _userOwnershipChanged(_oldContractOwner);\n        }\n\n        return _result;\n    }\n\n    function _allowDelegateCall() private view returns (bool) {\n        // make sure this is used by delegatecall\n        if (address(backendProvider) == 0x0) {\n            return false;\n        }\n\n        address _backend = backendProvider.getUserBackend();\n        return address(this) != _backend && _backend != 0x0; \n    }\n\n    function _getUserRegistry() private view returns (UserRegistry) {\n        return UserRegistry(backendProvider.getUserRegistry());\n    }\n\n    function _userOwnershipChanged(address _oldContractOwner) private {\n        this.replaceOwner(_oldContractOwner, contractOwner);\n\n        UserRegistry _userRegistry = _getUserRegistry();\n        if (address(_userRegistry) != 0x0) {\n            _userRegistry.userOwnershipChanged(this, _oldContractOwner);\n        }\n    }\n}",
  "sourcePath": "solidity-user-lib/contracts/UserBackend.sol",
  "compiler": {
    "name": "solc",
    "version": "0.4.21+commit.dfe3193c.Emscripten.clang"
  },
  "schemaVersion": "2.0.0",
  "updatedAt": "2018-07-16T12:21:15.450Z"
}