{
  "contractName": "UserBase",
  "abi": [
    {
      "constant": true,
      "inputs": [],
      "name": "backendProvider",
      "outputs": [
        {
          "name": "",
          "type": "address"
        }
      ],
      "payable": false,
      "stateMutability": "view",
      "type": "function"
    },
    {
      "constant": true,
      "inputs": [],
      "name": "issuer",
      "outputs": [
        {
          "name": "",
          "type": "address"
        }
      ],
      "payable": false,
      "stateMutability": "view",
      "type": "function"
    },
    {
      "constant": true,
      "inputs": [],
      "name": "use2FA",
      "outputs": [
        {
          "name": "",
          "type": "bool"
        }
      ],
      "payable": false,
      "stateMutability": "view",
      "type": "function"
    }
  ],
  "bytecode": "0x6060604052341561000f57600080fd5b6101568061001e6000396000f3006060604052600436106100565763ffffffff7c0100000000000000000000000000000000000000000000000000000000600035041663094780e6811461005b5780631d143848146100975780639d2a43ad146100aa575b600080fd5b341561006657600080fd5b61006e6100d1565b60405173ffffffffffffffffffffffffffffffffffffffff909116815260200160405180910390f35b34156100a257600080fd5b61006e6100ed565b34156100b557600080fd5b6100bd610109565b604051901515815260200160405180910390f35b60005473ffffffffffffffffffffffffffffffffffffffff1681565b60015473ffffffffffffffffffffffffffffffffffffffff1681565b60035474010000000000000000000000000000000000000000900460ff16815600a165627a7a72305820e3df950445a7aff9c0236a609a2e321d5de82fb036262bc35b05ce05b33f74070029",
  "source": "/**\n* Copyright 2017–2018, LaborX PTY\n* Licensed under the AGPL Version 3 license.\n*/\n\npragma solidity ^0.4.21;\n\n\nimport \"./UserProxy.sol\";\nimport \"./UserBackendProviderInterface.sol\";\n\n\n/// @title Duplicates structure of Owned contract in order to save memory layout for\n/// UserRouter and other delegatecall-based contracts (BaseByzantiumRouter)\ncontract UserOwned {\n    address internal contractOwner;\n    address internal pendingContractOwner;\n}\n\n\n/// @title Used to provide memory layout for UserRouter \n/// and book an order of properties and an ability to combine with UserOwned contract\ncontract UserBase {\n    UserBackendProviderInterface public backendProvider;\n    address public issuer;\n    UserProxy internal userProxy;\n    address internal recoveryContract;\n    bool public use2FA;\n}",
  "sourcePath": "solidity-user-lib/contracts/UserBase.sol",
  "compiler": {
    "name": "solc",
    "version": "0.4.21+commit.dfe3193c.Emscripten.clang"
  },
  "schemaVersion": "2.0.0",
  "updatedAt": "2018-07-12T13:16:24.736Z"
}