{
  "contractName": "UserRegistry",
  "abi": [
    {
      "constant": false,
      "inputs": [
        {
          "name": "_roles2Library",
          "type": "address"
        }
      ],
      "name": "setRoles2Library",
      "outputs": [
        {
          "name": "",
          "type": "uint256"
        }
      ],
      "payable": false,
      "stateMutability": "nonpayable",
      "type": "function"
    },
    {
      "constant": false,
      "inputs": [
        {
          "name": "_errorCode",
          "type": "uint256"
        }
      ],
      "name": "emitErrorCode",
      "outputs": [],
      "payable": false,
      "stateMutability": "nonpayable",
      "type": "function"
    },
    {
      "constant": true,
      "inputs": [],
      "name": "getEventsHistory",
      "outputs": [
        {
          "name": "",
          "type": "address"
        }
      ],
      "payable": false,
      "stateMutability": "view",
      "type": "function"
    },
    {
      "inputs": [
        {
          "name": "_store",
          "type": "address"
        },
        {
          "name": "_crate",
          "type": "bytes32"
        },
        {
          "name": "_roles2Library",
          "type": "address"
        }
      ],
      "payable": false,
      "stateMutability": "nonpayable",
      "type": "constructor"
    },
    {
      "anonymous": false,
      "inputs": [
        {
          "indexed": true,
          "name": "self",
          "type": "address"
        },
        {
          "indexed": true,
          "name": "userContract",
          "type": "address"
        },
        {
          "indexed": true,
          "name": "owner",
          "type": "address"
        }
      ],
      "name": "UserContractAdded",
      "type": "event"
    },
    {
      "anonymous": false,
      "inputs": [
        {
          "indexed": true,
          "name": "self",
          "type": "address"
        },
        {
          "indexed": true,
          "name": "userContract",
          "type": "address"
        },
        {
          "indexed": true,
          "name": "owner",
          "type": "address"
        }
      ],
      "name": "UserContractRemoved",
      "type": "event"
    },
    {
      "anonymous": false,
      "inputs": [
        {
          "indexed": true,
          "name": "self",
          "type": "address"
        },
        {
          "indexed": true,
          "name": "userContract",
          "type": "address"
        },
        {
          "indexed": false,
          "name": "oldOwner",
          "type": "address"
        },
        {
          "indexed": true,
          "name": "owner",
          "type": "address"
        }
      ],
      "name": "UserContractChanged",
      "type": "event"
    },
    {
      "anonymous": false,
      "inputs": [
        {
          "indexed": true,
          "name": "self",
          "type": "address"
        },
        {
          "indexed": false,
          "name": "errorCode",
          "type": "uint256"
        }
      ],
      "name": "ErrorCode",
      "type": "event"
    },
    {
      "anonymous": false,
      "inputs": [
        {
          "indexed": false,
          "name": "code",
          "type": "address"
        },
        {
          "indexed": false,
          "name": "sender",
          "type": "address"
        },
        {
          "indexed": false,
          "name": "sig",
          "type": "bytes4"
        }
      ],
      "name": "AuthFailedError",
      "type": "event"
    },
    {
      "constant": false,
      "inputs": [
        {
          "name": "_eventsHistory",
          "type": "address"
        }
      ],
      "name": "setupEventsHistory",
      "outputs": [
        {
          "name": "",
          "type": "uint256"
        }
      ],
      "payable": false,
      "stateMutability": "nonpayable",
      "type": "function"
    },
    {
      "constant": true,
      "inputs": [
        {
          "name": "_account",
          "type": "address"
        }
      ],
      "name": "getUserContracts",
      "outputs": [
        {
          "name": "_users",
          "type": "address[]"
        }
      ],
      "payable": false,
      "stateMutability": "view",
      "type": "function"
    },
    {
      "constant": false,
      "inputs": [
        {
          "name": "_contract",
          "type": "address"
        }
      ],
      "name": "addUserContract",
      "outputs": [
        {
          "name": "",
          "type": "uint256"
        }
      ],
      "payable": false,
      "stateMutability": "nonpayable",
      "type": "function"
    },
    {
      "constant": false,
      "inputs": [
        {
          "name": "_contract",
          "type": "address"
        },
        {
          "name": "_from",
          "type": "address"
        }
      ],
      "name": "removeUserContractFrom",
      "outputs": [
        {
          "name": "",
          "type": "uint256"
        }
      ],
      "payable": false,
      "stateMutability": "nonpayable",
      "type": "function"
    },
    {
      "constant": false,
      "inputs": [
        {
          "name": "_contract",
          "type": "address"
        }
      ],
      "name": "removeUserContract",
      "outputs": [
        {
          "name": "",
          "type": "uint256"
        }
      ],
      "payable": false,
      "stateMutability": "nonpayable",
      "type": "function"
    },
    {
      "constant": false,
      "inputs": [
        {
          "name": "_contract",
          "type": "address"
        },
        {
          "name": "_from",
          "type": "address"
        }
      ],
      "name": "userOwnershipChanged",
      "outputs": [],
      "payable": false,
      "stateMutability": "nonpayable",
      "type": "function"
    },
    {
      "constant": true,
      "inputs": [
        {
          "name": "_account",
          "type": "address"
        },
        {
          "name": "_accountProxy",
          "type": "address"
        }
      ],
      "name": "isManagingProxy",
      "outputs": [
        {
          "name": "",
          "type": "bool"
        }
      ],
      "payable": false,
      "stateMutability": "view",
      "type": "function"
    },
    {
      "constant": false,
      "inputs": [
        {
          "name": "_contract",
          "type": "address"
        },
        {
          "name": "_owner",
          "type": "address"
        }
      ],
      "name": "emitUserContractAdded",
      "outputs": [],
      "payable": false,
      "stateMutability": "nonpayable",
      "type": "function"
    },
    {
      "constant": false,
      "inputs": [
        {
          "name": "_contract",
          "type": "address"
        },
        {
          "name": "_owner",
          "type": "address"
        }
      ],
      "name": "emitUserContractRemoved",
      "outputs": [],
      "payable": false,
      "stateMutability": "nonpayable",
      "type": "function"
    },
    {
      "constant": false,
      "inputs": [
        {
          "name": "_contract",
          "type": "address"
        },
        {
          "name": "_oldOwner",
          "type": "address"
        },
        {
          "name": "_owner",
          "type": "address"
        }
      ],
      "name": "emitUserContractChanged",
      "outputs": [],
      "payable": false,
      "stateMutability": "nonpayable",
      "type": "function"
    }
  ],
  "bytecode": "0x606060405234156200001057600080fd5b6040516060806200168883398101604052808051919060200180519190602001805191508190508383620000556000838364010000000062001280620000d182021704565b5050600160a060020a03811615156200006d57600080fd5b60028054600160a060020a031916600160a060020a0392909216919091179055620000c860047f6f776e6564557365727353746f72616765000000000000000000000000000000640100000000620000f78102620012b31704565b50505062000272565b8254600160a060020a031916600160a060020a0392909216919091178255600190910155565b620001118282640100000000620012c16200011582021704565b5050565b620001118282640100000000620012c76200012f82021704565b6200018682826040519081527f636f756e74000000000000000000000000000000000000000000000000000000602082015260250160405180910390206200023a640100000000026200138c176401000000009004565b620001e082600101826040519081527f696e646578657300000000000000000000000000000000000000000000000000602082015260270160405180910390206200023a640100000000026200138c176401000000009004565b6200011182600201826040519081527f76616c7565730000000000000000000000000000000000000000000000000000602082015260260160405180910390206200023a640100000000026200138c176401000000009004565b8154620002569082640100000000620013a46200025a82021704565b9055565b8115158062000267575080155b156200011157600080fd5b61140680620002826000396000f3006060604052600436106100ab5763ffffffff60e060020a60003504166302927d2081146100b05780631c1dbe86146100e15780632637cd7d1461010e5780632b86eadf1461012d57806334c925f0146101525780634ef5129d146101c45780634f3abaf5146101e95780638834277e1461020e578063895e7029146102245780638c2229be1461025d578063c11c06161461027c578063e921d7ad1461029b578063fff10aba146102c0575b600080fd5b34156100bb57600080fd5b6100cf600160a060020a03600435166102ef565b60405190815260200160405180910390f35b34156100ec57600080fd5b61010c600160a060020a0360043581169060243581169060443516610393565b005b341561011957600080fd5b6100cf600160a060020a03600435166103fa565b341561013857600080fd5b61010c600160a060020a03600435811690602435166104a7565b341561015d57600080fd5b610171600160a060020a03600435166104fc565b60405160208082528190810183818151815260200191508051906020019060200280838360005b838110156101b0578082015183820152602001610198565b505050509050019250505060405180910390f35b34156101cf57600080fd5b61010c600160a060020a0360043581169060243516610526565b34156101f457600080fd5b61010c600160a060020a03600435811690602435166106c2565b341561021957600080fd5b61010c600435610717565b341561022f57600080fd5b610249600160a060020a036004358116906024351661075e565b604051901515815260200160405180910390f35b341561026857600080fd5b6100cf600160a060020a0360043516610827565b341561028757600080fd5b6100cf600160a060020a0360043516610993565b34156102a657600080fd5b6100cf600160a060020a0360043581169060243516610a07565b34156102cb57600080fd5b6102d3610b1a565b604051600160a060020a03909116815260200160405180910390f35b600061030733600035600160e060020a031916610b3e565b151561036a576000805160206113bb8339815191523033600035600160e060020a031916604051600160a060020a039384168152919092166020820152600160e060020a03199091166040808301919091526060909101905180910390a161038e565b600160a060020a038216151561037f57600080fd5b61038882610c05565b50600190505b919050565b80600160a060020a031683600160a060020a03166103af610c36565b600160a060020a03167f8beef7ee073be53d6d36d09e7d08562480d2017aa3da575f5bdd4b3dc820698d85604051600160a060020a03909116815260200160405180910390a4505050565b600061041233600035600160e060020a031916610b3e565b1515610475576000805160206113bb8339815191523033600035600160e060020a031916604051600160a060020a039384168152919092166020820152600160e060020a03199091166040808301919091526060909101905180910390a161038e565b5060028054600160a060020a03831673ffffffffffffffffffffffffffffffffffffffff199091161790556001919050565b80600160a060020a031682600160a060020a03166104c3610c36565b600160a060020a03167fefe29a8e25a0f51e06b1f495775b866d4261a05754e0e67a1f421af79ef1a3e960405160405180910390a45050565b61050461126e565b61052060006004600160a060020a03851663ffffffff610c3a16565b92915050565b600082600160a060020a031663ce606ee06040518163ffffffff1660e060020a028152600401602060405180830381600087803b151561056557600080fd5b5af1151561057257600080fd5b50505060405180519050905081600160a060020a031681600160a060020a031614156105a9576105a3617533610c5d565b506106bd565b6105b38383610cc2565b15156105c4576105a3617532610c5d565b6105ce8382610d0a565b1561064f576105db610d4b565b600160a060020a0316631c1dbe8684848460405160e060020a63ffffffff8616028152600160a060020a03938416600482015291831660248301529091166044820152606401600060405180830381600087803b151561063a57600080fd5b5af1151561064757600080fd5b5050506106bd565b610657610d4b565b600160a060020a0316632b86eadf848460405160e060020a63ffffffff8516028152600160a060020a03928316600482015291166024820152604401600060405180830381600087803b15156106ac57600080fd5b5af115156106b957600080fd5b5050505b505050565b80600160a060020a031682600160a060020a03166106de610c36565b600160a060020a03167f54845e7437c98cb9e4d6ce78f0adeb57583ea7bc81d7e68044d893ab22677f4a60405160405180910390a45050565b61071f610c36565b600160a060020a03167f09e0713b45664e161c202b19bb4574ee83dfa056f9bfdee56847b3971d9682218260405190815260200160405180910390a250565b60008082600160a060020a031663ce606ee06040518163ffffffff1660e060020a028152600401602060405180830381600087803b151561079e57600080fd5b5af115156107ab57600080fd5b5050506040518051915050600160a060020a03811663ce606ee06040518163ffffffff1660e060020a028152600401602060405180830381600087803b15156107f357600080fd5b5af1151561080057600080fd5b50505060405180519050600160a060020a031684600160a060020a03161491505092915050565b60008061084033600035600160e060020a031916610b3e565b15156108a3576000805160206113bb8339815191523033600035600160e060020a031916604051600160a060020a039384168152919092166020820152600160e060020a03199091166040808301919091526060909101905180910390a161098d565b82600160a060020a031663ce606ee06040518163ffffffff1660e060020a028152600401602060405180830381600087803b15156108e057600080fd5b5af115156108ed57600080fd5b5050506040518051905090506109038382610d0a565b151561091b57610914617531610c5d565b915061098d565b610923610d4b565b600160a060020a0316634f3abaf5848360405160e060020a63ffffffff8516028152600160a060020a03928316600482015291166024820152604401600060405180830381600087803b151561097857600080fd5b5af1151561098557600080fd5b505050600191505b50919050565b600030600160a060020a031663e921d7ad833360405160e060020a63ffffffff8516028152600160a060020a03928316600482015291166024820152604401602060405180830381600087803b15156109eb57600080fd5b5af115156109f857600080fd5b50505060405180519392505050565b6000610a1f33600035600160e060020a031916610b3e565b1515610a82576000805160206113bb8339815191523033600035600160e060020a031916604051600160a060020a039384168152919092166020820152600160e060020a03199091166040808301919091526060909101905180910390a1610520565b610a8c8383610cc2565b1515610aa457610a9d617532610c5d565b9050610520565b610aac610d4b565b600160a060020a0316632b86eadf848460405160e060020a63ffffffff8516028152600160a060020a03928316600482015291166024820152604401600060405180830381600087803b1515610b0157600080fd5b5af11515610b0e57600080fd5b50600195945050505050565b600354600090600160a060020a0316801515610b365730610b38565b805b91505090565b600030600160a060020a031683600160a060020a03161415610b6257506001610520565b600254600160a060020a03161515610b7c57506000610520565b600254600160a060020a031663b700961384308560405160e060020a63ffffffff8616028152600160a060020a039384166004820152919092166024820152600160e060020a03199091166044820152606401602060405180830381600087803b1515610be857600080fd5b5af11515610bf557600080fd5b5050506040518051949350505050565b60038054600160a060020a03831673ffffffffffffffffffffffffffffffffffffffff199091161790556001919050565b3390565b610c4261126e565b610c55610c50858585610d5a565b610d6d565b949350505050565b6000610c67610b1a565b600160a060020a0316638834277e8360405160e060020a63ffffffff84160281526004810191909152602401600060405180830381600087803b1515610cac57600080fd5b5af11515610cb957600080fd5b50929392505050565b6000610ce0816004600160a060020a0385168663ffffffff610df716565b1561052057610d0260006004600160a060020a0385168663ffffffff610e1716565b506001610520565b6000610d28816004600160a060020a0385168663ffffffff610df716565b151561052057610d0260006004600160a060020a0385168663ffffffff610e3216565b6000610d55610b1a565b905090565b610d6261126e565b610c55848484610e47565b610d7561126e565b610d7d61126e565b60008351604051805910610d8e5750595b90808252806020026020018201604052509150600090505b8351811015610df057838181518110610dbb57fe5b90602001906020020151828281518110610dd157fe5b600160a060020a03909216602092830290910190910152600101610da6565b5092915050565b6000610e0e858585600160a060020a038616610ec0565b95945050505050565b610e2c848484600160a060020a038516610ece565b50505050565b610e2c848484600160a060020a038516610eda565b610e4f61126e565b600080610e5d868686610ee6565b915081604051805910610e6d5750595b90808252806020026020018201604052509250600090505b81811015610eb757610e9986868684610ef3565b838281518110610ea557fe5b60209081029091010152600101610e85565b50509392505050565b6000610e0e85858585610f07565b610e2c84848484610f23565b610e2c84848484610fd1565b6000610c5584848461102c565b6000610e0e856002860185600186016110b9565b6000610f18858560010185856110b9565b151595945050505050565b6000806000610f3487878787610f07565b1515610f3f57610fc8565b610f4a878787610ee6565b9250610f5b876002880187866110b9565b9150610f6c878760010187876110b9565b905082811015610f9657610f8687600188018785856110de565b610f9687600288018784866110de565b610fa78760018801878760006110de565b610fb88760028801878660006110de565b610fc88787876000198701611102565b50505050505050565b6000610fdf85858585610f07565b15610fe957611025565b610ff4858585610ee6565b600101905061100985600286018584866110de565b61101985600186018585856110de565b61102585858584611102565b5050505050565b825460018401548354600092600160a060020a0316916353aa3f5e9185604051918252602082015260409081019051809103902060405160e060020a63ffffffff851602815260048101929092526024820152604401602060405180830381600087803b151561109b57600080fd5b5af115156110a857600080fd5b505050604051805195945050505050565b6000610e0e858585856040519182526020820152604090810190518091039020611187565b611025858585856040519182526020820152604090810190518091039020846111f6565b835460018501548454600160a060020a03909216916353e7168b91908560405191825260208201526040908101905180910390208460405160e060020a63ffffffff8616028152600481019390935260248301919091526044820152606401600060405180830381600087803b151561117a57600080fd5b5af11515610fc857600080fd5b825460018401548354600092600160a060020a0316916337d9d7fc9185604051918252602082015260409081019051809103902060405160e060020a63ffffffff851602815260048101929092526024820152604401602060405180830381600087803b151561109b57600080fd5b835460018501548454600160a060020a039092169163a14ff85791908560405191825260208201526040908101905180910390208460405160e060020a63ffffffff8616028152600481019390935260248301919091526044820152606401600060405180830381600087803b151561117a57600080fd5b60206040519081016040526000815290565b825473ffffffffffffffffffffffffffffffffffffffff1916600160a060020a0392909216919091178255600190910155565b6112bd82826112c1565b5050565b6112bd82825b61130882826040519081527f636f756e740000000000000000000000000000000000000000000000000000006020820152602501604051809103902061138c565b61134c82600101826040519081527f696e6465786573000000000000000000000000000000000000000000000000006020820152602701604051809103902061138c565b6112bd82600201826040519081527f76616c7565730000000000000000000000000000000000000000000000000000602082015260260160405180910390205b815461139890826113a4565b9055565b815461139890825b811515806113b0575080155b156112bd57600080fd005133a133185f1023427a2e90f18506b27db994977ce0c0faafd514a7dd109ae0a165627a7a72305820bccb3ca023a270d7f2cfad90dd07e42edcd43961b5b3b56cacbb045877ad0db40029",
  "source": "/**\n* Copyright 2017–2018, LaborX PTY\n* Licensed under the AGPL Version 3 license.\n*/\n\npragma solidity ^0.4.21;\n\n\nimport \"solidity-storage-lib/contracts/StorageAdapter.sol\";\nimport \"solidity-roles-lib/contracts/Roles2LibraryAdapter.sol\";\nimport \"solidity-eventshistory-lib/contracts/MultiEventsHistoryAdapter.sol\";\nimport \"./UserOwnershipListenerInterface.sol\";\n\n\n/// @title Acts like a registry for existed users across a system.\n/// Upgradable (thanks to Storage contract), protected by roles access.\n/// Allows to keep records about who owns which contracts and update these records\n/// accordingly. Contracts should use UserOwnershipListenerInterface to sign about\n/// ownership changes and if this contract was added to the registry then the record\n/// will be updated, otherwise nothing happen.\ncontract UserRegistry is StorageAdapter, Roles2LibraryAdapter, MultiEventsHistoryAdapter, UserOwnershipListenerInterface {\n\n    uint constant USER_REGISTRY_SCOPE = 30000;\n    uint constant USER_REGISTRY_USER_CONTRACT_ALREADY_EXISTS = USER_REGISTRY_SCOPE + 1;\n    uint constant USER_REGISTRY_NO_USER_CONTRACT_FOUND = USER_REGISTRY_SCOPE + 2;\n    uint constant USER_REGISTRY_CANNOT_CHANGE_TO_THE_SAME_OWNER = USER_REGISTRY_SCOPE + 3;\n\n    event UserContractAdded(address indexed self, address indexed userContract, address indexed owner);\n    event UserContractRemoved(address indexed self, address indexed userContract, address indexed owner);\n    event UserContractChanged(address indexed self, address indexed userContract, address oldOwner, address indexed owner);\n\n    /// @dev mapping(owner => (set of user's contracts)\n    StorageInterface.AddressesSetMapping internal ownedUsersStorage;\n\n    function UserRegistry(Storage _store, bytes32 _crate, address _roles2Library)\n    StorageAdapter(_store, _crate)\n    Roles2LibraryAdapter(_roles2Library)\n    public \n    {\n        ownedUsersStorage.init(\"ownedUsersStorage\");\n    }\n\n    /// @notice Sets up events history address\n    /// Allowed only for authorized roles.\n    /// @param _eventsHistory address of events history contract\n    /// @return result of an operation\n    function setupEventsHistory(address _eventsHistory) \n    external \n    auth \n    returns (uint) \n    {\n        require(_eventsHistory != 0x0);\n        \n        _setEventsHistory(_eventsHistory);\n        return OK;\n    }\n\n    /// @notice Gets a list of contracts that are associated with provided user\n    /// @param _account user address to seek\n    /// @return array of contracts owned by a user\n    function getUserContracts(address _account)\n    public\n    view\n    returns (address[] _users)\n    {\n        _users = store.get(ownedUsersStorage, bytes32(_account));\n    }\n\n    /// @notice Registers a contract and associate it with its owner. Contract passed\n    /// here should be compatible with Owned contract interface.\n    /// Allowed only for authorized roles.\n    /// Emits UserContractAdded event.\n    /// @param _contract contract address to register; should support Owned interface\n    /// @return result of an operation\n    function addUserContract(address _contract)\n    external\n    auth\n    returns (uint)\n    {\n        address _owner = Owned(_contract).contractOwner();\n        if (!_addUserContract(_contract, _owner)) {\n            return _emitErrorCode(USER_REGISTRY_USER_CONTRACT_ALREADY_EXISTS);\n        }\n        \n        _emitter().emitUserContractAdded(_contract, _owner);\n        return OK;\n    }\n\n    /// @notice Removes a contract from provided user association. \n    /// Mostly used to clean up unrelevant connections.\n    /// Allowed only for authorized roles.\n    /// Emits UserContractRemoved event.\n    /// @param _contract contract address to remove\n    /// @return result of an operation\n    function removeUserContractFrom(address _contract, address _from)\n    external\n    auth\n    returns (uint)\n    {\n        if (!_removeUserContract(_contract, _from)) {\n            return _emitErrorCode(USER_REGISTRY_NO_USER_CONTRACT_FOUND);\n        }\n\n        _emitter().emitUserContractRemoved(_contract, _from);\n        return OK;\n    }\n\n    /// @notice Removes a contract from msg.sender association.\n    /// Not protected by a role auth, so any user who has record with\n    /// his contract could remove his contracts.\n    /// @param _contract contract address to remove\n    /// @return result of an operation\n    function removeUserContract(address _contract)\n    external\n    returns (uint)\n    {\n        return this.removeUserContractFrom(_contract, msg.sender);\n    }\n\n    /// @notice Listener function. Updates records when contract owner changed\n    /// in a stored contract. Does not allow to add a contract record through this function.\n    /// Emits UserContractChanged event.\n    /// @param _contract contract address that have a new owner\n    /// @param _from old contract owner address\n    function userOwnershipChanged(address _contract, address _from) \n    external\n    {\n        address _owner = Owned(_contract).contractOwner();\n        if (_owner == _from) {\n            _emitErrorCode(USER_REGISTRY_CANNOT_CHANGE_TO_THE_SAME_OWNER);\n            return;\n        }\n\n        if (!_removeUserContract(_contract, _from)) {\n            _emitErrorCode(USER_REGISTRY_NO_USER_CONTRACT_FOUND);\n            return;\n        }\n\n        if (_addUserContract(_contract, _owner)) {\n            _emitter().emitUserContractChanged(_contract, _from, _owner);\n        } else {\n            _emitter().emitUserContractRemoved(_contract, _from);\n        }\n    }\n\n    /// @notice Says if user account `_account` owns a user proxy contract `_accountProxy`\n    /// and could manage it through UserInterface interface.\n    /// Checks if UserInterface#getUserProxy() == _accountProxy && UserInterface#contractOwner == _account\n    /// @param _account user account that he has private key access\n    /// @param _accountProxy user proxy contract or UserInterface#getUserProxy()\n    /// @return 'true' if an account has access to user proxy, 'false' otherwise\n    function isManagingProxy(address _account, address _accountProxy)\n    public\n    view\n    returns (bool)\n    {\n        address _userRouter = Owned(_accountProxy).contractOwner();\n        return _account == Owned(_userRouter).contractOwner();\n    }\n\n    /* EVENTS EMITTING (for events history) */\n\n    function emitUserContractAdded(address _contract, address _owner) external {\n        emit UserContractAdded(_self(), _contract, _owner);\n    }\n\n    function emitUserContractRemoved(address _contract, address _owner) external {\n        emit UserContractRemoved(_self(), _contract, _owner);\n    }\n\n    function emitUserContractChanged(address _contract, address _oldOwner, address _owner) external {\n        emit UserContractChanged(_self(), _contract, _oldOwner, _owner);\n    }\n\n    /* INTERNAL */\n\n    function _addUserContract(address _contract, address _owner) private returns (bool) {\n        if (!store.includes(ownedUsersStorage, bytes32(_owner), _contract)) {\n            store.add(ownedUsersStorage, bytes32(_owner), _contract);\n            return true;\n        }\n    }\n\n    function _removeUserContract(address _contract, address _from) private returns (bool) {\n        if (store.includes(ownedUsersStorage, bytes32(_from), _contract)) {\n            store.remove(ownedUsersStorage, bytes32(_from), _contract);\n            return true;\n        }\n    }\n\n    function _emitter() private view returns (UserRegistry) {\n        return UserRegistry(getEventsHistory());\n    }\n}",
  "sourcePath": "solidity-user-lib/contracts/UserRegistry.sol",
  "compiler": {
    "name": "solc",
    "version": "0.4.21+commit.dfe3193c.Emscripten.clang"
  },
  "schemaVersion": "2.0.0",
  "updatedAt": "2018-08-03T10:01:31.102Z"
}