{
  "contractName": "UserRegistry",
  "abi": [
    {
      "constant": false,
      "inputs": [
        {
          "name": "_roles2Library",
          "type": "address"
        }
      ],
      "name": "setRoles2Library",
      "outputs": [
        {
          "name": "",
          "type": "uint256"
        }
      ],
      "payable": false,
      "stateMutability": "nonpayable",
      "type": "function"
    },
    {
      "constant": false,
      "inputs": [
        {
          "name": "_errorCode",
          "type": "uint256"
        }
      ],
      "name": "emitErrorCode",
      "outputs": [],
      "payable": false,
      "stateMutability": "nonpayable",
      "type": "function"
    },
    {
      "constant": true,
      "inputs": [],
      "name": "getEventsHistory",
      "outputs": [
        {
          "name": "",
          "type": "address"
        }
      ],
      "payable": false,
      "stateMutability": "view",
      "type": "function"
    },
    {
      "inputs": [
        {
          "name": "_store",
          "type": "address"
        },
        {
          "name": "_crate",
          "type": "bytes32"
        },
        {
          "name": "_roles2Library",
          "type": "address"
        }
      ],
      "payable": false,
      "stateMutability": "nonpayable",
      "type": "constructor"
    },
    {
      "anonymous": false,
      "inputs": [
        {
          "indexed": true,
          "name": "self",
          "type": "address"
        },
        {
          "indexed": true,
          "name": "userContract",
          "type": "address"
        },
        {
          "indexed": true,
          "name": "owner",
          "type": "address"
        }
      ],
      "name": "UserContractAdded",
      "type": "event"
    },
    {
      "anonymous": false,
      "inputs": [
        {
          "indexed": true,
          "name": "self",
          "type": "address"
        },
        {
          "indexed": true,
          "name": "userContract",
          "type": "address"
        },
        {
          "indexed": true,
          "name": "owner",
          "type": "address"
        }
      ],
      "name": "UserContractRemoved",
      "type": "event"
    },
    {
      "anonymous": false,
      "inputs": [
        {
          "indexed": true,
          "name": "self",
          "type": "address"
        },
        {
          "indexed": true,
          "name": "userContract",
          "type": "address"
        },
        {
          "indexed": false,
          "name": "oldOwner",
          "type": "address"
        },
        {
          "indexed": true,
          "name": "owner",
          "type": "address"
        }
      ],
      "name": "UserContractChanged",
      "type": "event"
    },
    {
      "anonymous": false,
      "inputs": [
        {
          "indexed": true,
          "name": "self",
          "type": "address"
        },
        {
          "indexed": false,
          "name": "errorCode",
          "type": "uint256"
        }
      ],
      "name": "ErrorCode",
      "type": "event"
    },
    {
      "anonymous": false,
      "inputs": [
        {
          "indexed": false,
          "name": "code",
          "type": "address"
        },
        {
          "indexed": false,
          "name": "sender",
          "type": "address"
        },
        {
          "indexed": false,
          "name": "sig",
          "type": "bytes4"
        }
      ],
      "name": "AuthFailedError",
      "type": "event"
    },
    {
      "constant": false,
      "inputs": [
        {
          "name": "_eventsHistory",
          "type": "address"
        }
      ],
      "name": "setupEventsHistory",
      "outputs": [
        {
          "name": "",
          "type": "uint256"
        }
      ],
      "payable": false,
      "stateMutability": "nonpayable",
      "type": "function"
    },
    {
      "constant": true,
      "inputs": [
        {
          "name": "_account",
          "type": "address"
        }
      ],
      "name": "getUserContracts",
      "outputs": [
        {
          "name": "_users",
          "type": "address[]"
        }
      ],
      "payable": false,
      "stateMutability": "view",
      "type": "function"
    },
    {
      "constant": false,
      "inputs": [
        {
          "name": "_contract",
          "type": "address"
        }
      ],
      "name": "addUserContract",
      "outputs": [
        {
          "name": "",
          "type": "uint256"
        }
      ],
      "payable": false,
      "stateMutability": "nonpayable",
      "type": "function"
    },
    {
      "constant": false,
      "inputs": [
        {
          "name": "_contract",
          "type": "address"
        },
        {
          "name": "_from",
          "type": "address"
        }
      ],
      "name": "removeUserContractFrom",
      "outputs": [
        {
          "name": "",
          "type": "uint256"
        }
      ],
      "payable": false,
      "stateMutability": "nonpayable",
      "type": "function"
    },
    {
      "constant": false,
      "inputs": [
        {
          "name": "_contract",
          "type": "address"
        }
      ],
      "name": "removeUserContract",
      "outputs": [
        {
          "name": "",
          "type": "uint256"
        }
      ],
      "payable": false,
      "stateMutability": "nonpayable",
      "type": "function"
    },
    {
      "constant": false,
      "inputs": [
        {
          "name": "_contract",
          "type": "address"
        },
        {
          "name": "_from",
          "type": "address"
        }
      ],
      "name": "userOwnershipChanged",
      "outputs": [],
      "payable": false,
      "stateMutability": "nonpayable",
      "type": "function"
    },
    {
      "constant": false,
      "inputs": [
        {
          "name": "_contract",
          "type": "address"
        },
        {
          "name": "_owner",
          "type": "address"
        }
      ],
      "name": "emitUserContractAdded",
      "outputs": [],
      "payable": false,
      "stateMutability": "nonpayable",
      "type": "function"
    },
    {
      "constant": false,
      "inputs": [
        {
          "name": "_contract",
          "type": "address"
        },
        {
          "name": "_owner",
          "type": "address"
        }
      ],
      "name": "emitUserContractRemoved",
      "outputs": [],
      "payable": false,
      "stateMutability": "nonpayable",
      "type": "function"
    },
    {
      "constant": false,
      "inputs": [
        {
          "name": "_contract",
          "type": "address"
        },
        {
          "name": "_oldOwner",
          "type": "address"
        },
        {
          "name": "_owner",
          "type": "address"
        }
      ],
      "name": "emitUserContractChanged",
      "outputs": [],
      "payable": false,
      "stateMutability": "nonpayable",
      "type": "function"
    }
  ],
  "bytecode": "0x606060405234156200001057600080fd5b604051606080620015668339810160405280805191906020018051919060200180519150819050838362000055600083836401000000006200115e620000d182021704565b5050600160a060020a03811615156200006d57600080fd5b60028054600160a060020a031916600160a060020a0392909216919091179055620000c860047f6f776e6564557365727353746f72616765000000000000000000000000000000640100000000620000f78102620011911704565b50505062000272565b8254600160a060020a031916600160a060020a0392909216919091178255600190910155565b6200011182826401000000006200119f6200011582021704565b5050565b620001118282640100000000620011a56200012f82021704565b6200018682826040519081527f636f756e74000000000000000000000000000000000000000000000000000000602082015260250160405180910390206200023a640100000000026200126a176401000000009004565b620001e082600101826040519081527f696e646578657300000000000000000000000000000000000000000000000000602082015260270160405180910390206200023a640100000000026200126a176401000000009004565b6200011182600201826040519081527f76616c7565730000000000000000000000000000000000000000000000000000602082015260260160405180910390206200023a640100000000026200126a176401000000009004565b8154620002569082640100000000620012826200025a82021704565b9055565b8115158062000267575080155b156200011157600080fd5b6112e480620002826000396000f3006060604052600436106100a05763ffffffff60e060020a60003504166302927d2081146100a55780631c1dbe86146100d65780632637cd7d146101035780632b86eadf1461012257806334c925f0146101475780634ef5129d146101b95780634f3abaf5146101de5780638834277e146102035780638c2229be14610219578063c11c061614610238578063e921d7ad14610257578063fff10aba1461027c575b600080fd5b34156100b057600080fd5b6100c4600160a060020a03600435166102ab565b60405190815260200160405180910390f35b34156100e157600080fd5b610101600160a060020a036004358116906024358116906044351661034f565b005b341561010e57600080fd5b6100c4600160a060020a03600435166103b6565b341561012d57600080fd5b610101600160a060020a0360043581169060243516610463565b341561015257600080fd5b610166600160a060020a03600435166104b8565b60405160208082528190810183818151815260200191508051906020019060200280838360005b838110156101a557808201518382015260200161018d565b505050509050019250505060405180910390f35b34156101c457600080fd5b610101600160a060020a03600435811690602435166104e2565b34156101e957600080fd5b610101600160a060020a036004358116906024351661067e565b341561020e57600080fd5b6101016004356106d3565b341561022457600080fd5b6100c4600160a060020a036004351661071a565b341561024357600080fd5b6100c4600160a060020a0360043516610886565b341561026257600080fd5b6100c4600160a060020a03600435811690602435166108fa565b341561028757600080fd5b61028f610a0d565b604051600160a060020a03909116815260200160405180910390f35b60006102c333600035600160e060020a031916610a1c565b1515610326576000805160206112998339815191523033600035600160e060020a031916604051600160a060020a039384168152919092166020820152600160e060020a03199091166040808301919091526060909101905180910390a161034a565b600160a060020a038216151561033b57600080fd5b61034482610ae3565b50600190505b919050565b80600160a060020a031683600160a060020a031661036b610b14565b600160a060020a03167f8beef7ee073be53d6d36d09e7d08562480d2017aa3da575f5bdd4b3dc820698d85604051600160a060020a03909116815260200160405180910390a4505050565b60006103ce33600035600160e060020a031916610a1c565b1515610431576000805160206112998339815191523033600035600160e060020a031916604051600160a060020a039384168152919092166020820152600160e060020a03199091166040808301919091526060909101905180910390a161034a565b5060028054600160a060020a03831673ffffffffffffffffffffffffffffffffffffffff199091161790556001919050565b80600160a060020a031682600160a060020a031661047f610b14565b600160a060020a03167fefe29a8e25a0f51e06b1f495775b866d4261a05754e0e67a1f421af79ef1a3e960405160405180910390a45050565b6104c061114c565b6104dc60006004600160a060020a03851663ffffffff610b1816565b92915050565b600082600160a060020a031663ce606ee06040518163ffffffff1660e060020a028152600401602060405180830381600087803b151561052157600080fd5b5af1151561052e57600080fd5b50505060405180519050905081600160a060020a031681600160a060020a031614156105655761055f617533610b3b565b50610679565b61056f8383610ba0565b15156105805761055f617532610b3b565b61058a8382610be8565b1561060b57610597610c29565b600160a060020a0316631c1dbe8684848460405160e060020a63ffffffff8616028152600160a060020a03938416600482015291831660248301529091166044820152606401600060405180830381600087803b15156105f657600080fd5b5af1151561060357600080fd5b505050610679565b610613610c29565b600160a060020a0316632b86eadf848460405160e060020a63ffffffff8516028152600160a060020a03928316600482015291166024820152604401600060405180830381600087803b151561066857600080fd5b5af1151561067557600080fd5b5050505b505050565b80600160a060020a031682600160a060020a031661069a610b14565b600160a060020a03167f54845e7437c98cb9e4d6ce78f0adeb57583ea7bc81d7e68044d893ab22677f4a60405160405180910390a45050565b6106db610b14565b600160a060020a03167f09e0713b45664e161c202b19bb4574ee83dfa056f9bfdee56847b3971d9682218260405190815260200160405180910390a250565b60008061073333600035600160e060020a031916610a1c565b1515610796576000805160206112998339815191523033600035600160e060020a031916604051600160a060020a039384168152919092166020820152600160e060020a03199091166040808301919091526060909101905180910390a1610880565b82600160a060020a031663ce606ee06040518163ffffffff1660e060020a028152600401602060405180830381600087803b15156107d357600080fd5b5af115156107e057600080fd5b5050506040518051905090506107f68382610be8565b151561080e57610807617531610b3b565b9150610880565b610816610c29565b600160a060020a0316634f3abaf5848360405160e060020a63ffffffff8516028152600160a060020a03928316600482015291166024820152604401600060405180830381600087803b151561086b57600080fd5b5af1151561087857600080fd5b505050600191505b50919050565b600030600160a060020a031663e921d7ad833360405160e060020a63ffffffff8516028152600160a060020a03928316600482015291166024820152604401602060405180830381600087803b15156108de57600080fd5b5af115156108eb57600080fd5b50505060405180519392505050565b600061091233600035600160e060020a031916610a1c565b1515610975576000805160206112998339815191523033600035600160e060020a031916604051600160a060020a039384168152919092166020820152600160e060020a03199091166040808301919091526060909101905180910390a16104dc565b61097f8383610ba0565b151561099757610990617532610b3b565b90506104dc565b61099f610c29565b600160a060020a0316632b86eadf848460405160e060020a63ffffffff8516028152600160a060020a03928316600482015291166024820152604401600060405180830381600087803b15156109f457600080fd5b5af11515610a0157600080fd5b50600195945050505050565b600354600160a060020a031690565b600030600160a060020a031683600160a060020a03161415610a40575060016104dc565b600254600160a060020a03161515610a5a575060006104dc565b600254600160a060020a031663b700961384308560405160e060020a63ffffffff8616028152600160a060020a039384166004820152919092166024820152600160e060020a03199091166044820152606401602060405180830381600087803b1515610ac657600080fd5b5af11515610ad357600080fd5b5050506040518051949350505050565b60038054600160a060020a03831673ffffffffffffffffffffffffffffffffffffffff199091161790556001919050565b3390565b610b2061114c565b610b33610b2e858585610c38565b610c4b565b949350505050565b6000610b45610a0d565b600160a060020a0316638834277e8360405160e060020a63ffffffff84160281526004810191909152602401600060405180830381600087803b1515610b8a57600080fd5b5af11515610b9757600080fd5b50929392505050565b6000610bbe816004600160a060020a0385168663ffffffff610cd516565b156104dc57610be060006004600160a060020a0385168663ffffffff610cf516565b5060016104dc565b6000610c06816004600160a060020a0385168663ffffffff610cd516565b15156104dc57610be060006004600160a060020a0385168663ffffffff610d1016565b6000610c33610a0d565b905090565b610c4061114c565b610b33848484610d25565b610c5361114c565b610c5b61114c565b60008351604051805910610c6c5750595b90808252806020026020018201604052509150600090505b8351811015610cce57838181518110610c9957fe5b90602001906020020151828281518110610caf57fe5b600160a060020a03909216602092830290910190910152600101610c84565b5092915050565b6000610cec858585600160a060020a038616610d9e565b95945050505050565b610d0a848484600160a060020a038516610dac565b50505050565b610d0a848484600160a060020a038516610db8565b610d2d61114c565b600080610d3b868686610dc4565b915081604051805910610d4b5750595b90808252806020026020018201604052509250600090505b81811015610d9557610d7786868684610dd1565b838281518110610d8357fe5b60209081029091010152600101610d63565b50509392505050565b6000610cec85858585610de5565b610d0a84848484610e01565b610d0a84848484610eaf565b6000610b33848484610f0a565b6000610cec85600286018560018601610f97565b6000610df685856001018585610f97565b151595945050505050565b6000806000610e1287878787610de5565b1515610e1d57610ea6565b610e28878787610dc4565b9250610e3987600288018786610f97565b9150610e4a87876001018787610f97565b905082811015610e7457610e648760018801878585610fbc565b610e748760028801878486610fbc565b610e85876001880187876000610fbc565b610e96876002880187866000610fbc565b610ea68787876000198701610fe0565b50505050505050565b6000610ebd85858585610de5565b15610ec757610f03565b610ed2858585610dc4565b6001019050610ee78560028601858486610fbc565b610ef78560018601858585610fbc565b610f0385858584610fe0565b5050505050565b825460018401548354600092600160a060020a0316916353aa3f5e9185604051918252602082015260409081019051809103902060405160e060020a63ffffffff851602815260048101929092526024820152604401602060405180830381600087803b1515610f7957600080fd5b5af11515610f8657600080fd5b505050604051805195945050505050565b6000610cec858585856040519182526020820152604090810190518091039020611065565b610f03858585856040519182526020820152604090810190518091039020846110d4565b835460018501548454600160a060020a03909216916353e7168b91908560405191825260208201526040908101905180910390208460405160e060020a63ffffffff8616028152600481019390935260248301919091526044820152606401600060405180830381600087803b151561105857600080fd5b5af11515610ea657600080fd5b825460018401548354600092600160a060020a0316916337d9d7fc9185604051918252602082015260409081019051809103902060405160e060020a63ffffffff851602815260048101929092526024820152604401602060405180830381600087803b1515610f7957600080fd5b835460018501548454600160a060020a039092169163a14ff85791908560405191825260208201526040908101905180910390208460405160e060020a63ffffffff8616028152600481019390935260248301919091526044820152606401600060405180830381600087803b151561105857600080fd5b60206040519081016040526000815290565b825473ffffffffffffffffffffffffffffffffffffffff1916600160a060020a0392909216919091178255600190910155565b61119b828261119f565b5050565b61119b82825b6111e682826040519081527f636f756e740000000000000000000000000000000000000000000000000000006020820152602501604051809103902061126a565b61122a82600101826040519081527f696e6465786573000000000000000000000000000000000000000000000000006020820152602701604051809103902061126a565b61119b82600201826040519081527f76616c7565730000000000000000000000000000000000000000000000000000602082015260260160405180910390205b81546112769082611282565b9055565b815461127690825b8115158061128e575080155b1561119b57600080fd005133a133185f1023427a2e90f18506b27db994977ce0c0faafd514a7dd109ae0a165627a7a7230582022beb7000675a0ff2ae7aeebc0b211456716031b27edac523b7563f9762c61680029",
  "source": "/**\n* Copyright 2017–2018, LaborX PTY\n* Licensed under the AGPL Version 3 license.\n*/\n\npragma solidity ^0.4.21;\n\n\nimport \"solidity-storage-lib/contracts/StorageAdapter.sol\";\nimport \"solidity-roles-lib/contracts/Roles2LibraryAdapter.sol\";\nimport \"solidity-eventshistory-lib/contracts/MultiEventsHistoryAdapter.sol\";\nimport \"./UserOwnershipListenerInterface.sol\";\n\n\n/// @title TODO:\ncontract UserRegistry is StorageAdapter, Roles2LibraryAdapter, MultiEventsHistoryAdapter, UserOwnershipListenerInterface {\n\n    uint constant USER_REGISTRY_SCOPE = 30000;\n    uint constant USER_REGISTRY_USER_CONTRACT_ALREADY_EXISTS = USER_REGISTRY_SCOPE + 1;\n    uint constant USER_REGISTRY_NO_USER_CONTRACT_FOUND = USER_REGISTRY_SCOPE + 2;\n    uint constant USER_REGISTRY_CANNOT_CHANGE_TO_THE_SAME_OWNER = USER_REGISTRY_SCOPE + 3;\n\n    event UserContractAdded(address indexed self, address indexed userContract, address indexed owner);\n    event UserContractRemoved(address indexed self, address indexed userContract, address indexed owner);\n    event UserContractChanged(address indexed self, address indexed userContract, address oldOwner, address indexed owner);\n\n    /// @dev mapping(owner => (set of user's contracts)\n    StorageInterface.AddressesSetMapping internal ownedUsersStorage;\n\n    function UserRegistry(Storage _store, bytes32 _crate, address _roles2Library)\n    StorageAdapter(_store, _crate)\n    Roles2LibraryAdapter(_roles2Library)\n    public \n    {\n        ownedUsersStorage.init(\"ownedUsersStorage\");\n    }\n\n    function setupEventsHistory(address _eventsHistory) \n    external \n    auth \n    returns (uint) \n    {\n        require(_eventsHistory != 0x0);\n        \n        _setEventsHistory(_eventsHistory);\n        return OK;\n    }\n\n    function getUserContracts(address _account)\n    public\n    view\n    returns (address[] _users)\n    {\n        _users = store.get(ownedUsersStorage, bytes32(_account));\n    }\n\n    function addUserContract(address _contract)\n    external\n    auth\n    returns (uint)\n    {\n        address _owner = Owned(_contract).contractOwner();\n        if (!_addUserContract(_contract, _owner)) {\n            return _emitErrorCode(USER_REGISTRY_USER_CONTRACT_ALREADY_EXISTS);\n        }\n        \n        _emitter().emitUserContractAdded(_contract, _owner);\n        return OK;\n    }\n\n    function removeUserContractFrom(address _contract, address _from)\n    external\n    auth\n    returns (uint)\n    {\n        if (!_removeUserContract(_contract, _from)) {\n            return _emitErrorCode(USER_REGISTRY_NO_USER_CONTRACT_FOUND);\n        }\n\n        _emitter().emitUserContractRemoved(_contract, _from);\n        return OK;\n    }\n\n    function removeUserContract(address _contract)\n    external\n    returns (uint)\n    {\n        return this.removeUserContractFrom(_contract, msg.sender);\n    }\n\n    function userOwnershipChanged(address _contract, address _from) \n    external\n    {\n        address _owner = Owned(_contract).contractOwner();\n        if (_owner == _from) {\n            _emitErrorCode(USER_REGISTRY_CANNOT_CHANGE_TO_THE_SAME_OWNER);\n            return;\n        }\n\n        if (!_removeUserContract(_contract, _from)) {\n            _emitErrorCode(USER_REGISTRY_NO_USER_CONTRACT_FOUND);\n            return;\n        }\n\n        if (_addUserContract(_contract, _owner)) {\n            _emitter().emitUserContractChanged(_contract, _from, _owner);\n        } else {\n            _emitter().emitUserContractRemoved(_contract, _from);\n        }\n    }\n\n    function emitUserContractAdded(address _contract, address _owner) external {\n        emit UserContractAdded(_self(), _contract, _owner);\n    }\n\n    function emitUserContractRemoved(address _contract, address _owner) external {\n        emit UserContractRemoved(_self(), _contract, _owner);\n    }\n\n    function emitUserContractChanged(address _contract, address _oldOwner, address _owner) external {\n        emit UserContractChanged(_self(), _contract, _oldOwner, _owner);\n    }\n\n    function _addUserContract(address _contract, address _owner) private returns (bool) {\n        if (!store.includes(ownedUsersStorage, bytes32(_owner), _contract)) {\n            store.add(ownedUsersStorage, bytes32(_owner), _contract);\n            return true;\n        }\n    }\n\n    function _removeUserContract(address _contract, address _from) private returns (bool) {\n        if (store.includes(ownedUsersStorage, bytes32(_from), _contract)) {\n            store.remove(ownedUsersStorage, bytes32(_from), _contract);\n            return true;\n        }\n    }\n\n    function _emitter() private view returns (UserRegistry) {\n        return UserRegistry(getEventsHistory());\n    }\n}",
  "sourcePath": "solidity-user-lib/contracts/UserRegistry.sol",
  "compiler": {
    "name": "solc",
    "version": "0.4.21+commit.dfe3193c.Emscripten.clang"
  },
  "schemaVersion": "2.0.0",
  "updatedAt": "2018-07-12T13:24:16.287Z"
}