{
  "contractName": "UserBackend",
  "abi": [
    {
      "constant": true,
      "inputs": [],
      "name": "backendProvider",
      "outputs": [
        {
          "name": "",
          "type": "address"
        }
      ],
      "payable": false,
      "stateMutability": "view",
      "type": "function"
    },
    {
      "constant": false,
      "inputs": [
        {
          "name": "owner",
          "type": "address"
        }
      ],
      "name": "removeOwner",
      "outputs": [],
      "payable": false,
      "stateMutability": "nonpayable",
      "type": "function"
    },
    {
      "constant": true,
      "inputs": [],
      "name": "issuer",
      "outputs": [
        {
          "name": "",
          "type": "address"
        }
      ],
      "payable": false,
      "stateMutability": "view",
      "type": "function"
    },
    {
      "constant": false,
      "inputs": [
        {
          "name": "transactionId",
          "type": "uint256"
        }
      ],
      "name": "revokeConfirmation",
      "outputs": [],
      "payable": false,
      "stateMutability": "nonpayable",
      "type": "function"
    },
    {
      "constant": true,
      "inputs": [
        {
          "name": "",
          "type": "address"
        }
      ],
      "name": "isOwner",
      "outputs": [
        {
          "name": "",
          "type": "bool"
        }
      ],
      "payable": false,
      "stateMutability": "view",
      "type": "function"
    },
    {
      "constant": true,
      "inputs": [
        {
          "name": "",
          "type": "uint256"
        },
        {
          "name": "",
          "type": "address"
        }
      ],
      "name": "confirmations",
      "outputs": [
        {
          "name": "",
          "type": "bool"
        }
      ],
      "payable": false,
      "stateMutability": "view",
      "type": "function"
    },
    {
      "constant": true,
      "inputs": [
        {
          "name": "pending",
          "type": "bool"
        },
        {
          "name": "executed",
          "type": "bool"
        }
      ],
      "name": "getTransactionCount",
      "outputs": [
        {
          "name": "count",
          "type": "uint256"
        }
      ],
      "payable": false,
      "stateMutability": "view",
      "type": "function"
    },
    {
      "constant": true,
      "inputs": [],
      "name": "version",
      "outputs": [
        {
          "name": "",
          "type": "bytes32"
        }
      ],
      "payable": false,
      "stateMutability": "view",
      "type": "function"
    },
    {
      "constant": true,
      "inputs": [],
      "name": "pendingContractOwner",
      "outputs": [
        {
          "name": "",
          "type": "address"
        }
      ],
      "payable": false,
      "stateMutability": "view",
      "type": "function"
    },
    {
      "constant": false,
      "inputs": [
        {
          "name": "tokens",
          "type": "address[]"
        }
      ],
      "name": "withdrawTokens",
      "outputs": [],
      "payable": false,
      "stateMutability": "nonpayable",
      "type": "function"
    },
    {
      "constant": false,
      "inputs": [
        {
          "name": "owner",
          "type": "address"
        }
      ],
      "name": "addOwner",
      "outputs": [],
      "payable": false,
      "stateMutability": "nonpayable",
      "type": "function"
    },
    {
      "constant": false,
      "inputs": [],
      "name": "withdrawEther",
      "outputs": [],
      "payable": false,
      "stateMutability": "nonpayable",
      "type": "function"
    },
    {
      "constant": true,
      "inputs": [
        {
          "name": "transactionId",
          "type": "uint256"
        }
      ],
      "name": "isConfirmed",
      "outputs": [
        {
          "name": "",
          "type": "bool"
        }
      ],
      "payable": false,
      "stateMutability": "view",
      "type": "function"
    },
    {
      "constant": true,
      "inputs": [],
      "name": "getOracle",
      "outputs": [
        {
          "name": "",
          "type": "address"
        }
      ],
      "payable": false,
      "stateMutability": "view",
      "type": "function"
    },
    {
      "constant": true,
      "inputs": [
        {
          "name": "transactionId",
          "type": "uint256"
        }
      ],
      "name": "getConfirmationCount",
      "outputs": [
        {
          "name": "count",
          "type": "uint256"
        }
      ],
      "payable": false,
      "stateMutability": "view",
      "type": "function"
    },
    {
      "constant": true,
      "inputs": [
        {
          "name": "",
          "type": "uint256"
        }
      ],
      "name": "transactions",
      "outputs": [
        {
          "name": "destination",
          "type": "address"
        },
        {
          "name": "value",
          "type": "uint256"
        },
        {
          "name": "data",
          "type": "bytes"
        },
        {
          "name": "executed",
          "type": "bool"
        }
      ],
      "payable": false,
      "stateMutability": "view",
      "type": "function"
    },
    {
      "constant": true,
      "inputs": [],
      "name": "use2FA",
      "outputs": [
        {
          "name": "",
          "type": "bool"
        }
      ],
      "payable": false,
      "stateMutability": "view",
      "type": "function"
    },
    {
      "constant": true,
      "inputs": [],
      "name": "getOwners",
      "outputs": [
        {
          "name": "",
          "type": "address[]"
        }
      ],
      "payable": false,
      "stateMutability": "view",
      "type": "function"
    },
    {
      "constant": true,
      "inputs": [
        {
          "name": "from",
          "type": "uint256"
        },
        {
          "name": "to",
          "type": "uint256"
        },
        {
          "name": "pending",
          "type": "bool"
        },
        {
          "name": "executed",
          "type": "bool"
        }
      ],
      "name": "getTransactionIds",
      "outputs": [
        {
          "name": "_transactionIds",
          "type": "uint256[]"
        }
      ],
      "payable": false,
      "stateMutability": "view",
      "type": "function"
    },
    {
      "constant": true,
      "inputs": [
        {
          "name": "transactionId",
          "type": "uint256"
        }
      ],
      "name": "getConfirmations",
      "outputs": [
        {
          "name": "_confirmations",
          "type": "address[]"
        }
      ],
      "payable": false,
      "stateMutability": "view",
      "type": "function"
    },
    {
      "constant": true,
      "inputs": [],
      "name": "transactionCount",
      "outputs": [
        {
          "name": "",
          "type": "uint256"
        }
      ],
      "payable": false,
      "stateMutability": "view",
      "type": "function"
    },
    {
      "constant": false,
      "inputs": [
        {
          "name": "_required",
          "type": "uint256"
        }
      ],
      "name": "changeRequirement",
      "outputs": [],
      "payable": false,
      "stateMutability": "nonpayable",
      "type": "function"
    },
    {
      "constant": false,
      "inputs": [
        {
          "name": "transactionId",
          "type": "uint256"
        }
      ],
      "name": "confirmTransaction",
      "outputs": [],
      "payable": false,
      "stateMutability": "nonpayable",
      "type": "function"
    },
    {
      "constant": false,
      "inputs": [
        {
          "name": "destination",
          "type": "address"
        },
        {
          "name": "value",
          "type": "uint256"
        },
        {
          "name": "data",
          "type": "bytes"
        }
      ],
      "name": "submitTransaction",
      "outputs": [
        {
          "name": "transactionId",
          "type": "uint256"
        }
      ],
      "payable": false,
      "stateMutability": "nonpayable",
      "type": "function"
    },
    {
      "constant": true,
      "inputs": [],
      "name": "contractOwner",
      "outputs": [
        {
          "name": "",
          "type": "address"
        }
      ],
      "payable": false,
      "stateMutability": "view",
      "type": "function"
    },
    {
      "constant": true,
      "inputs": [],
      "name": "MAX_OWNER_COUNT",
      "outputs": [
        {
          "name": "",
          "type": "uint256"
        }
      ],
      "payable": false,
      "stateMutability": "view",
      "type": "function"
    },
    {
      "constant": true,
      "inputs": [],
      "name": "required",
      "outputs": [
        {
          "name": "",
          "type": "uint256"
        }
      ],
      "payable": false,
      "stateMutability": "view",
      "type": "function"
    },
    {
      "constant": false,
      "inputs": [
        {
          "name": "owner",
          "type": "address"
        },
        {
          "name": "newOwner",
          "type": "address"
        }
      ],
      "name": "replaceOwner",
      "outputs": [],
      "payable": false,
      "stateMutability": "nonpayable",
      "type": "function"
    },
    {
      "constant": false,
      "inputs": [
        {
          "name": "transactionId",
          "type": "uint256"
        }
      ],
      "name": "executeTransaction",
      "outputs": [],
      "payable": false,
      "stateMutability": "nonpayable",
      "type": "function"
    },
    {
      "payable": true,
      "stateMutability": "payable",
      "type": "fallback"
    },
    {
      "anonymous": false,
      "inputs": [
        {
          "indexed": true,
          "name": "sender",
          "type": "address"
        },
        {
          "indexed": true,
          "name": "transactionId",
          "type": "uint256"
        }
      ],
      "name": "Confirmation",
      "type": "event"
    },
    {
      "anonymous": false,
      "inputs": [
        {
          "indexed": true,
          "name": "sender",
          "type": "address"
        },
        {
          "indexed": true,
          "name": "transactionId",
          "type": "uint256"
        }
      ],
      "name": "Revocation",
      "type": "event"
    },
    {
      "anonymous": false,
      "inputs": [
        {
          "indexed": true,
          "name": "transactionId",
          "type": "uint256"
        }
      ],
      "name": "Submission",
      "type": "event"
    },
    {
      "anonymous": false,
      "inputs": [
        {
          "indexed": true,
          "name": "transactionId",
          "type": "uint256"
        }
      ],
      "name": "Execution",
      "type": "event"
    },
    {
      "anonymous": false,
      "inputs": [
        {
          "indexed": true,
          "name": "transactionId",
          "type": "uint256"
        }
      ],
      "name": "ExecutionFailure",
      "type": "event"
    },
    {
      "anonymous": false,
      "inputs": [
        {
          "indexed": true,
          "name": "sender",
          "type": "address"
        },
        {
          "indexed": false,
          "name": "value",
          "type": "uint256"
        }
      ],
      "name": "Deposit",
      "type": "event"
    },
    {
      "anonymous": false,
      "inputs": [
        {
          "indexed": true,
          "name": "owner",
          "type": "address"
        }
      ],
      "name": "OwnerAddition",
      "type": "event"
    },
    {
      "anonymous": false,
      "inputs": [
        {
          "indexed": true,
          "name": "owner",
          "type": "address"
        }
      ],
      "name": "OwnerRemoval",
      "type": "event"
    },
    {
      "anonymous": false,
      "inputs": [
        {
          "indexed": false,
          "name": "required",
          "type": "uint256"
        }
      ],
      "name": "RequirementChange",
      "type": "event"
    },
    {
      "anonymous": false,
      "inputs": [
        {
          "indexed": true,
          "name": "previousOwner",
          "type": "address"
        },
        {
          "indexed": true,
          "name": "newOwner",
          "type": "address"
        }
      ],
      "name": "OwnershipTransferred",
      "type": "event"
    },
    {
      "constant": false,
      "inputs": [
        {
          "name": "_oracle",
          "type": "address"
        },
        {
          "name": "_enable2FA",
          "type": "bool"
        }
      ],
      "name": "init",
      "outputs": [
        {
          "name": "",
          "type": "uint256"
        }
      ],
      "payable": false,
      "stateMutability": "nonpayable",
      "type": "function"
    },
    {
      "constant": false,
      "inputs": [
        {
          "name": "_enabled",
          "type": "bool"
        }
      ],
      "name": "set2FA",
      "outputs": [
        {
          "name": "",
          "type": "uint256"
        }
      ],
      "payable": false,
      "stateMutability": "nonpayable",
      "type": "function"
    },
    {
      "constant": false,
      "inputs": [
        {
          "name": "_userProxy",
          "type": "address"
        }
      ],
      "name": "setUserProxy",
      "outputs": [
        {
          "name": "",
          "type": "uint256"
        }
      ],
      "payable": false,
      "stateMutability": "nonpayable",
      "type": "function"
    },
    {
      "constant": true,
      "inputs": [],
      "name": "getUserProxy",
      "outputs": [
        {
          "name": "",
          "type": "address"
        }
      ],
      "payable": false,
      "stateMutability": "view",
      "type": "function"
    },
    {
      "constant": false,
      "inputs": [
        {
          "name": "_oracle",
          "type": "address"
        }
      ],
      "name": "setOracle",
      "outputs": [
        {
          "name": "",
          "type": "uint256"
        }
      ],
      "payable": false,
      "stateMutability": "nonpayable",
      "type": "function"
    },
    {
      "constant": false,
      "inputs": [
        {
          "name": "_newBackendProvider",
          "type": "address"
        }
      ],
      "name": "updateBackendProvider",
      "outputs": [
        {
          "name": "",
          "type": "uint256"
        }
      ],
      "payable": false,
      "stateMutability": "nonpayable",
      "type": "function"
    },
    {
      "constant": false,
      "inputs": [
        {
          "name": "_recoveryContract",
          "type": "address"
        }
      ],
      "name": "setRecoveryContract",
      "outputs": [
        {
          "name": "",
          "type": "uint256"
        }
      ],
      "payable": false,
      "stateMutability": "nonpayable",
      "type": "function"
    },
    {
      "constant": true,
      "inputs": [],
      "name": "getRecoveryContract",
      "outputs": [
        {
          "name": "",
          "type": "address"
        }
      ],
      "payable": false,
      "stateMutability": "view",
      "type": "function"
    },
    {
      "constant": false,
      "inputs": [
        {
          "name": "newAddress",
          "type": "address"
        }
      ],
      "name": "recoverUser",
      "outputs": [
        {
          "name": "",
          "type": "uint256"
        }
      ],
      "payable": false,
      "stateMutability": "nonpayable",
      "type": "function"
    },
    {
      "constant": false,
      "inputs": [
        {
          "name": "_destination",
          "type": "address"
        },
        {
          "name": "_data",
          "type": "bytes"
        },
        {
          "name": "_value",
          "type": "uint256"
        },
        {
          "name": "_throwOnFailedCall",
          "type": "bool"
        }
      ],
      "name": "forward",
      "outputs": [
        {
          "name": "",
          "type": "bytes32"
        }
      ],
      "payable": false,
      "stateMutability": "nonpayable",
      "type": "function"
    },
    {
      "constant": false,
      "inputs": [
        {
          "name": "_newOwner",
          "type": "address"
        }
      ],
      "name": "transferOwnership",
      "outputs": [
        {
          "name": "_result",
          "type": "bool"
        }
      ],
      "payable": false,
      "stateMutability": "nonpayable",
      "type": "function"
    },
    {
      "constant": false,
      "inputs": [
        {
          "name": "_to",
          "type": "address"
        }
      ],
      "name": "changeContractOwnership",
      "outputs": [
        {
          "name": "",
          "type": "bool"
        }
      ],
      "payable": false,
      "stateMutability": "nonpayable",
      "type": "function"
    },
    {
      "constant": false,
      "inputs": [],
      "name": "claimContractOwnership",
      "outputs": [
        {
          "name": "_result",
          "type": "bool"
        }
      ],
      "payable": false,
      "stateMutability": "nonpayable",
      "type": "function"
    }
  ],
  "bytecode": "0x60806040527f312e302e30000000000000000000000000000000000000000000000000000000600c5560008054600160a060020a0319163317905561345f806100496000396000f3006080604052600436106101ea5763ffffffff60e060020a600035041663094780e6811461022c578063173825d91461025d5780631d1438481461027e57806320ea8d86146102935780632f54bf6e146102ab5780632f71ed9c146102e05780633411c81c1461031357806335f2507f146103375780634592cd1d14610358578063547415251461036d57806354fd4d501461038c578063557f4bc9146103a15780635aa77d3c146103c25780635ecb16cd146103d75780636029d66f1461042c5780637065cb481461044d5780637362377b1461046e578063784547a7146104835780637adbf9731461049b578063833b1fce146104bc57806389f4fd57146104d15780638b51d13f146104e65780639ace38c2146104fe5780639d2a43ad146105b9578063a0e67e2b146105ce578063a8abe69a14610633578063b5dc40c314610658578063b77bf60014610670578063ba51a6df14610685578063c01a8c841461069d578063c5e5f978146106b5578063c6427474146106cf578063cb9fa36614610738578063ce606ee01461075e578063d74f8edd14610773578063dc8452cd14610788578063dffdc75d1461079d578063e20056e61461080b578063eb8a5cd614610832578063ee22610b14610853578063f2fde38b1461086b578063f60c37a41461088c575b600034111561022a5760408051348152905133917fe1fffcc4923d04b559f4d29a8bfc6cda04eb5b0d3c460751c2402c5c5cc9109c919081900360200190a25b005b34801561023857600080fd5b506102416108a1565b60408051600160a060020a039092168252519081900360200190f35b34801561026957600080fd5b5061022a600160a060020a03600435166108b0565b34801561028a57600080fd5b50610241610abb565b34801561029f57600080fd5b5061022a600435610aca565b3480156102b757600080fd5b506102cc600160a060020a0360043516610cad565b604080519115158252519081900360200190f35b3480156102ec57600080fd5b50610301600160a060020a0360043516610cc2565b60408051918252519081900360200190f35b34801561031f57600080fd5b506102cc600435600160a060020a0360243516610da7565b34801561034357600080fd5b50610301600160a060020a0360043516610dc7565b34801561036457600080fd5b506102cc610f2e565b34801561037957600080fd5b5061030160043515156024351515611054565b34801561039857600080fd5b506103016110c0565b3480156103ad57600080fd5b506102cc600160a060020a03600435166110c6565b3480156103ce57600080fd5b5061024161113a565b3480156103e357600080fd5b506040805160206004803580820135838102808601850190965280855261022a953695939460249493850192918291850190849080828437509497506111499650505050505050565b34801561043857600080fd5b50610301600160a060020a03600435166112c1565b34801561045957600080fd5b5061022a600160a060020a0360043516611467565b34801561047a57600080fd5b5061022a6116ff565b34801561048f57600080fd5b506102cc600435611751565b3480156104a757600080fd5b50610301600160a060020a03600435166117d5565b3480156104c857600080fd5b50610241611875565b3480156104dd57600080fd5b506102416118a2565b3480156104f257600080fd5b506103016004356118b1565b34801561050a57600080fd5b5061051660043561191a565b6040518085600160a060020a0316600160a060020a031681526020018481526020018060200183151515158152602001828103825284818151815260200191508051906020019080838360005b8381101561057b578181015183820152602001610563565b50505050905090810190601f1680156105a85780820380516001836020036101000a031916815260200191505b509550505050505060405180910390f35b3480156105c557600080fd5b506102cc6119d9565b3480156105da57600080fd5b506105e36119e9565b60408051602080825283518183015283519192839290830191858101910280838360005b8381101561061f578181015183820152602001610607565b505050509050019250505060405180910390f35b34801561063f57600080fd5b506105e360043560243560443515156064351515611a4b565b34801561066457600080fd5b506105e3600435611b84565b34801561067c57600080fd5b50610301611cfd565b34801561069157600080fd5b5061022a600435611d03565b3480156106a957600080fd5b5061022a600435611e38565b3480156106c157600080fd5b506103016004351515612004565b3480156106db57600080fd5b50604080516020600460443581810135601f8101849004840285018401909552848452610301948235600160a060020a03169460248035953695946064949201919081908401838280828437509497506121689650505050505050565b34801561074457600080fd5b50610301600160a060020a03600435166024351515612187565b34801561076a57600080fd5b5061024161228d565b34801561077f57600080fd5b5061030161229c565b34801561079457600080fd5b506103016122a1565b3480156107a957600080fd5b5060408051602060046024803582810135601f8101859004850286018501909652858552610301958335600160a060020a03169536956044949193909101919081908401838280828437509497505084359550505050506020013515156122a7565b34801561081757600080fd5b5061022a600160a060020a03600435811690602435166124be565b34801561083e57600080fd5b50610301600160a060020a0360043516612735565b34801561085f57600080fd5b5061022a6004356127e7565b34801561087757600080fd5b506102cc600160a060020a03600435166129b8565b34801561089857600080fd5b50610241612ae1565b600254600160a060020a031681565b600033301461090b576040805160e560020a62461bcd02815260206004820152602760248201526000805160206133f48339815191526044820152600080516020613414833981519152606482015290519081900360840190fd5b600160a060020a038216600090815260086020526040902054829060ff16151561097b576040805160e560020a62461bcd02815260206004820152602260248201526000805160206133b4833981519152604482015260f260020a611cdd02606482015290519081900360840190fd5b600160a060020a0383166000908152600860205260408120805460ff1916905591505b60095460001901821015610a565782600160a060020a03166009838154811015156109c557fe5b600091825260209091200154600160a060020a03161415610a4b576009805460001981019081106109f257fe5b60009182526020909120015460098054600160a060020a039092169184908110610a1857fe5b9060005260206000200160006101000a815481600160a060020a030219169083600160a060020a03160217905550610a56565b81600101915061099e565b600980546000190190610a699082613276565b50600954600a541115610a8257600954610a8290611d03565b604051600160a060020a038416907f8001553a916ef2f495d26a907cc54d96ed840d7bda71e73194bf5a9df7a76b9090600090a2505050565b600354600160a060020a031681565b3360008181526008602052604090205460ff161515610b2f576040805160e560020a62461bcd02815260206004820152602260248201526000805160206133b4833981519152604482015260f260020a611cdd02606482015290519081900360840190fd5b60008281526007602090815260408083203380855292529091205483919060ff161515610bcc576040805160e560020a62461bcd02815260206004820152602260248201527f5b4d756c74695369675d3a2074782073686f756c6420626520636f6e6669726d60448201527f6564000000000000000000000000000000000000000000000000000000000000606482015290519081900360840190fd5b600084815260066020526040902060030154849060ff1615610c5e576040805160e560020a62461bcd02815260206004820152602560248201527f5b4d756c74695369675d3a2074782073686f756c64206e6f742062652065786560448201527f6375746564000000000000000000000000000000000000000000000000000000606482015290519081900360840190fd5b6000858152600760209081526040808320338085529252808320805460ff191690555187927ff6a317157440607f36269043eb55f1287a5a19ba2216afeab88cd46cbcfb88e991a35050505050565b60086020526000908152604090205460ff1681565b6000610ccc612af0565b1515610d10576040805160e560020a62461bcd02815260206004820152601c60248201526000805160206133d4833981519152604482015290519081900360640190fd5b600354600160a060020a0316331415610da257600160a060020a0382161515610d83576040805160e560020a62461bcd02815260206004820152601960248201527f4261636b656e642073686f756c64206e6f742062652030783000000000000000604482015290519081900360640190fd5b5060028054600160a060020a031916600160a060020a03831617905560015b919050565b600760209081526000928352604080842090915290825290205460ff1681565b600080610dd2612af0565b1515610e16576040805160e560020a62461bcd02815260206004820152601c60248201526000805160206133d4833981519152604482015290519081900360640190fd5b600554600160a060020a0316331415610f2857600160a060020a0383161515610e89576040805160e560020a62461bcd02815260206004820181905260248201527f5265636f766572656420757365722073686f756c64206e6f7420626520307830604482015290519081900360640190fd5b5060008054600160a060020a03848116600160a060020a0319831681178455604080517fe20056e60000000000000000000000000000000000000000000000000000000081529290931660048301819052602483019190915291519192309263e20056e692604480820193929182900301818387803b158015610f0b57600080fd5b505af1158015610f1f573d6000803e3d6000fd5b50505050600191505b50919050565b600554600090819060a060020a900460ff1615610f95576040805160e560020a62461bcd02815260206004820152601660248201527f3246412073686f756c642062652064697361626c656400000000000000000000604482015290519081900360640190fd5b610f9d612af0565b1515610fb257610fab612bb8565b9150611050565b50600054600160a060020a0316610fc7612bb8565b915081156110505760008054604080517fe20056e6000000000000000000000000000000000000000000000000000000008152600160a060020a038581166004830152909216602483015251309263e20056e6926044808201939182900301818387803b15801561103757600080fd5b505af115801561104b573d6000803e3d6000fd5b505050505b5090565b6000805b600b548110156110b957838015611081575060008181526006602052604090206003015460ff16155b806110a557508280156110a5575060008181526006602052604090206003015460ff165b156110b1576001820191505b600101611058565b5092915050565b600c5481565b60055460009060a060020a900460ff161561112b576040805160e560020a62461bcd02815260206004820152601660248201527f3246412073686f756c642062652064697361626c656400000000000000000000604482015290519081900360640190fd5b61113482612c3b565b92915050565b600154600160a060020a031681565b6000805481908190600160a060020a03163314156112bb57600092505b83518310156112bb57838381518110151561117d57fe5b6020908102909101810151604080517f70a082310000000000000000000000000000000000000000000000000000000081523060048201529051919450600160a060020a038516926370a08231926024808401938290030181600087803b1580156111e757600080fd5b505af11580156111fb573d6000803e3d6000fd5b505050506040513d602081101561121157600080fd5b5051905080156112b057604080517fa9059cbb000000000000000000000000000000000000000000000000000000008152336004820152602481018390529051600160a060020a0384169163a9059cbb9160448083019260209291908290030181600087803b15801561128357600080fd5b505af1158015611297573d6000803e3d6000fd5b505050506040513d60208110156112ad57600080fd5b50505b600190920191611166565b50505050565b60006112cb612af0565b151561130f576040805160e560020a62461bcd02815260206004820152601c60248201526000805160206133d4833981519152604482015290519081900360640190fd5b600054600554600160a060020a039091169060a060020a900460ff16158015611340575033600160a060020a038216145b8061134a57503330145b156113f957600160a060020a03831615156113d5576040805160e560020a62461bcd02815260206004820152602b60248201527f5265636f7665727920636f6e747261637420616464726573732073686f756c6460448201527f206e6f7420626520307830000000000000000000000000000000000000000000606482015290519081900360840190fd5b60058054600160a060020a031916600160a060020a03851617905560019150610f28565b60055460a060020a900460ff16801561141a575033600160a060020a038216145b15610f285761145b30346000368080601f01602080910402602001604051908101604052809392919081815260200183838082843750612168945050505050565b50600360005260206000f35b3330146114c0576040805160e560020a62461bcd02815260206004820152602760248201526000805160206133f48339815191526044820152600080516020613414833981519152606482015290519081900360840190fd5b600160a060020a038116600090815260086020526040902054819060ff1615611541576040805160e560020a62461bcd02815260206004820152602260248201527f5b4d756c74695369675d3a204f776e65722073686f756c64206e6f7420657869604482015260f260020a611cdd02606482015290519081900360840190fd5b81600160a060020a03811615156115c8576040805160e560020a62461bcd02815260206004820152602560248201527f5b4d756c74695369675d3a20616464726573732073686f756c64206e6f74206260448201527f6520307830000000000000000000000000000000000000000000000000000000606482015290519081900360840190fd5b600980549050600101600a5460328211806115e257508181115b806115eb575080155b806115f4575081155b1561166f576040805160e560020a62461bcd02815260206004820152603160248201527f5b4d756c74695369675d3a2076616c6964206d756c746973696720726571756960448201527f72656d656e74206973206e6f74206d6574000000000000000000000000000000606482015290519081900360840190fd5b600160a060020a038516600081815260086020526040808220805460ff1916600190811790915560098054918201815583527f6e1540171b6c0c960b71a7020d9f60077f6af931a8bbf590da0223dacf75c7af018054600160a060020a03191684179055517ff39e6e1eb0edcf53c221607b54b00cd28f3196fed0a24994dc308b8f611b682d9190a25050505050565b60008054600160a060020a031633141561174e57503031600081111561174e57604051339082156108fc029083906000818181858888f1935050505015801561174c573d6000803e3d6000fd5b505b50565b600080805b6009548110156117ce576000848152600760205260408120600980549192918490811061177f57fe5b6000918252602080832090910154600160a060020a0316835282019290925260400190205460ff16156117b3576001820191505b600a548214156117c657600192506117ce565b600101611756565b5050919050565b60006117df612af0565b1515611823576040805160e560020a62461bcd02815260206004820152601c60248201526000805160206133d4833981519152604482015290519081900360640190fd5b600054600554600160a060020a039091169060a060020a900460ff16158015611854575033600160a060020a038216145b8061185e57503330145b156113f95761186c83612c8a565b60019150610f28565b60006009600181548110151561188757fe5b600091825260209091200154600160a060020a031690505b90565b600454600160a060020a031690565b6000805b600954811015610f2857600083815260076020526040812060098054919291849081106118de57fe5b6000918252602080832090910154600160a060020a0316835282019290925260400190205460ff1615611912576001820191505b6001016118b5565b60066020908152600091825260409182902080546001808301546002808501805488516101009582161595909502600019011691909104601f8101879004870284018701909752868352600160a060020a039093169590949192918301828280156119c65780601f1061199b576101008083540402835291602001916119c6565b820191906000526020600020905b8154815290600101906020018083116119a957829003601f168201915b5050506003909301549192505060ff1684565b60055460a060020a900460ff1681565b60606009805480602002602001604051908101604052809291908181526020018280548015611a4157602002820191906000526020600020905b8154600160a060020a03168152600190910190602001808311611a23575b5050505050905090565b606080600080600b54604051908082528060200260200182016040528015611a7d578160200160208202803883390190505b50925060009150600090505b600b54811015611b0457858015611ab2575060008181526006602052604090206003015460ff16155b80611ad65750848015611ad6575060008181526006602052604090206003015460ff165b15611afc57808383815181101515611aea57fe5b60209081029091010152600191909101905b600101611a89565b878703604051908082528060200260200182016040528015611b30578160200160208202803883390190505b5093508790505b86811015611b79578281815181101515611b4d57fe5b9060200190602002015184898303815181101515611b6757fe5b60209081029091010152600101611b37565b505050949350505050565b606080600080600980549050604051908082528060200260200182016040528015611bb9578160200160208202803883390190505b50925060009150600090505b600954811015611c765760008581526007602052604081206009805491929184908110611bee57fe5b6000918252602080832090910154600160a060020a0316835282019290925260400190205460ff1615611c6e576009805482908110611c2957fe5b6000918252602090912001548351600160a060020a0390911690849084908110611c4f57fe5b600160a060020a03909216602092830290910190910152600191909101905b600101611bc5565b81604051908082528060200260200182016040528015611ca0578160200160208202803883390190505b509350600090505b81811015611cf5578281815181101515611cbe57fe5b906020019060200201518482815181101515611cd657fe5b600160a060020a03909216602092830290910190910152600101611ca8565b505050919050565b600b5481565b333014611d5c576040805160e560020a62461bcd02815260206004820152602760248201526000805160206133f48339815191526044820152600080516020613414833981519152606482015290519081900360840190fd5b600954816032821180611d6e57508181115b80611d77575080155b80611d80575081155b15611dfb576040805160e560020a62461bcd02815260206004820152603160248201527f5b4d756c74695369675d3a2076616c6964206d756c746973696720726571756960448201527f72656d656e74206973206e6f74206d6574000000000000000000000000000000606482015290519081900360840190fd5b600a8390556040805184815290517fa3f1ee9126a074d9326c682f561767f710e927faa811f7a99829d49dc421797a9181900360200190a1505050565b3360008181526008602052604090205460ff161515611e9d576040805160e560020a62461bcd02815260206004820152602260248201526000805160206133b4833981519152604482015260f260020a611cdd02606482015290519081900360840190fd5b6000828152600660205260409020548290600160a060020a03161515611f0d576040805160e560020a62461bcd02815260206004820152601b60248201527f5b4d756c74695369675d3a2074782073686f756c642065786973740000000000604482015290519081900360640190fd5b60008381526007602090815260408083203380855292529091205484919060ff1615611fa9576040805160e560020a62461bcd02815260206004820152602660248201527f5b4d756c74695369675d3a2074782073686f756c64206e6f7420626520636f6e60448201527f6669726d65640000000000000000000000000000000000000000000000000000606482015290519081900360840190fd5b6000858152600760209081526040808320338085529252808320805460ff191660011790555187927f4a504a94899432a9846e1aa406dceb1bcfd538bb839071d49d1e5e23f5be30ef91a3611ffd856127e7565b5050505050565b600061200e612af0565b1515612052576040805160e560020a62461bcd02815260206004820152601c60248201526000805160206133d4833981519152604482015290519081900360640190fd5b600054600554600160a060020a039091169060a060020a900460ff16158015612083575033600160a060020a038216145b8061208d57503330145b156113f95761209a611875565b600160a060020a0316151561211f576040805160e560020a62461bcd02815260206004820152602860248201527f4f7261636c65206d75737420626520736574206265666f72652032464120616360448201527f7469766174696f6e000000000000000000000000000000000000000000000000606482015290519081900360840190fd5b60055460ff60a060020a9091041615158315151461186c576005805474ff0000000000000000000000000000000000000000191660a060020a8515150217905560019150610f28565b6000612175848484612d8e565b905061218081611e38565b9392505050565b6000612191612af0565b15156121d5576040805160e560020a62461bcd02815260206004820152601c60248201526000805160206133d4833981519152604482015290519081900360640190fd5b600354600160a060020a0316331415611134576000546121fe90600160a060020a031684612ee3565b604080517fc5e5f97800000000000000000000000000000000000000000000000000000000815283151560048201529051309163c5e5f9789160248083019260209291908290030181600087803b15801561225857600080fd5b505af115801561226c573d6000803e3d6000fd5b505050506040513d602081101561228257600080fd5b506001949350505050565b600054600160a060020a031681565b603281565b600a5481565b60006122b1612af0565b15156122f5576040805160e560020a62461bcd02815260206004820152601c60248201526000805160206133d4833981519152604482015290519081900360640190fd5b600054600554600160a060020a039091169060a060020a900460ff16158015612326575033600160a060020a038216145b8061233057503330145b1561245357600480546040517fdffdc75d000000000000000000000000000000000000000000000000000000008152600160a060020a03898116938201938452604482018890528615156064830152608060248301908152895160848401528951919093169363dffdc75d938b938b938b938b939092909160a490910190602087019080838360005b838110156123d15781810151838201526020016123b9565b50505050905090810190601f1680156123fe5780820380516001836020036101000a031916815260200191505b5095505050505050602060405180830381600087803b15801561242057600080fd5b505af1158015612434573d6000803e3d6000fd5b505050506040513d602081101561244a57600080fd5b505191506124b5565b60055460a060020a900460ff168015612474575033600160a060020a038216145b156124b55761145b30346000368080601f01602080910402602001604051908101604052809392919081815260200183838082843750612168945050505050565b50949350505050565b6000333014612519576040805160e560020a62461bcd02815260206004820152602760248201526000805160206133f48339815191526044820152600080516020613414833981519152606482015290519081900360840190fd5b600160a060020a038316600090815260086020526040902054839060ff161515612589576040805160e560020a62461bcd02815260206004820152602260248201526000805160206133b4833981519152604482015260f260020a611cdd02606482015290519081900360840190fd5b600160a060020a038316600090815260086020526040902054839060ff161561260a576040805160e560020a62461bcd02815260206004820152602260248201527f5b4d756c74695369675d3a204f776e65722073686f756c64206e6f7420657869604482015260f260020a611cdd02606482015290519081900360840190fd5b600092505b60095483101561269b5784600160a060020a031660098481548110151561263257fe5b600091825260209091200154600160a060020a03161415612690578360098481548110151561265d57fe5b9060005260206000200160006101000a815481600160a060020a030219169083600160a060020a0316021790555061269b565b82600101925061260f565b600160a060020a03808616600081815260086020526040808220805460ff1990811690915593881682528082208054909416600117909355915190917f8001553a916ef2f495d26a907cc54d96ed840d7bda71e73194bf5a9df7a76b9091a2604051600160a060020a038516907ff39e6e1eb0edcf53c221607b54b00cd28f3196fed0a24994dc308b8f611b682d90600090a25050505050565b600061273f612af0565b1515612783576040805160e560020a62461bcd02815260206004820152601c60248201526000805160206133d4833981519152604482015290519081900360640190fd5b600054600554600160a060020a039091169060a060020a900460ff161580156127b4575033600160a060020a038216145b806127be57503330145b156113f95760048054600160a060020a031916600160a060020a03851617905560019150610f28565b600081815260066020526040812060030154829060ff1615612879576040805160e560020a62461bcd02815260206004820152602560248201527f5b4d756c74695369675d3a2074782073686f756c64206e6f742062652065786560448201527f6375746564000000000000000000000000000000000000000000000000000000606482015290519081900360840190fd5b61288283611751565b156129b3576000838152600660205260409081902060038101805460ff19166001908117909155815481830154935160028085018054959850600160a060020a03909316959492939192839285926000199183161561010002919091019091160480156129305780601f1061290557610100808354040283529160200191612930565b820191906000526020600020905b81548152906001019060200180831161291357829003601f168201915b505091505060006040518083038185875af1925050501561297b5760405183907f33e13ecb54c3076d8e8bb8c2881800a4d972b792045ffae98fdf46df365fed7590600090a26129b3565b60405183907f526441bb6c1aba3c9a4a6ca1d6545da9c2333c8c48343ef398eb858d72b7923690600090a260038201805460ff191690555b505050565b600554600090819060a060020a900460ff1615612a1f576040805160e560020a62461bcd02815260206004820152601660248201527f3246412073686f756c642062652064697361626c656400000000000000000000604482015290519081900360640190fd5b612a27612af0565b1515612a3d57612a3683612f62565b9150610f28565b50600054600160a060020a0316612a5383612f62565b91508115610f2857604080517fe20056e6000000000000000000000000000000000000000000000000000000008152600160a060020a038381166004830152851660248201529051309163e20056e691604480830192600092919082900301818387803b158015612ac357600080fd5b505af1158015612ad7573d6000803e3d6000fd5b5050505050919050565b600554600160a060020a031690565b6002546000908190600160a060020a03161515612b105760009150611050565b600260009054906101000a9004600160a060020a0316600160a060020a03166359b804aa6040518163ffffffff1660e060020a028152600401602060405180830381600087803b158015612b6357600080fd5b505af1158015612b77573d6000803e3d6000fd5b505050506040513d6020811015612b8d57600080fd5b5051905030600160a060020a03821614801590612bb25750600160a060020a03811615155b91505090565b600154600090600160a060020a03163314612bd55750600061189f565b60015460008054604051600160a060020a0393841693909116917f8be0079c531659141344cd1fd0a4f28419497f9722a3daafe3b4186f6b6457e091a3506001805460008054600160a060020a0319908116600160a060020a0384161790915516815590565b60008054600160a060020a0316331415610da257600160a060020a0382161515612c6757506000610da2565b5060018054600160a060020a038316600160a060020a0319909116178155919050565b600160a060020a0381161515612d10576040805160e560020a62461bcd02815260206004820152602160248201527f4f7261636c652073686f756c64206e6f7420626520657175616c20746f20307860448201527f3000000000000000000000000000000000000000000000000000000000000000606482015290519081900360840190fd5b60098054309163e20056e6916001908110612d2757fe5b60009182526020822001546040805160e060020a63ffffffff8616028152600160a060020a0392831660048201529186166024830152516044808301939282900301818387803b158015612d7a57600080fd5b505af1158015611ffd573d6000803e3d6000fd5b600083600160a060020a0381161515612e17576040805160e560020a62461bcd02815260206004820152602560248201527f5b4d756c74695369675d3a20616464726573732073686f756c64206e6f74206260448201527f6520307830000000000000000000000000000000000000000000000000000000606482015290519081900360840190fd5b600b5460408051608081018252600160a060020a0388811682526020808301898152838501898152600060608601819052878152600684529590952084518154600160a060020a03191694169390931783555160018301559251805194965091939092612e8b92600285019291019061329a565b50606091909101516003909101805460ff1916911515919091179055600b8054600101905560405182907fc0ba8fe4b176c1714197d43b9cc6bcf797a4a7461c5fe8d0ef6e184ae7601e5190600090a2509392505050565b604080516002808252606082810190935291908281602001602082028038833901905050905083816000815181101515612f1957fe5b600160a060020a039092166020928302909101909101528051839082906001908110612f4157fe5b600160a060020a039092166020928302909101909101526112bb8183612fec565b60008054600160a060020a0316331415610da257600160a060020a0382161515612f8e57506000610da2565b60008054604051600160a060020a03808616939216917f8be0079c531659141344cd1fd0a4f28419497f9722a3daafe3b4186f6b6457e091a35060008054600160a060020a038316600160a060020a03199091161790556001919050565b60008251826032821180612fff57508181115b80613008575080155b80613011575081155b1561308c576040805160e560020a62461bcd02815260206004820152603160248201527f5b4d756c74695369675d3a2076616c6964206d756c746973696720726571756960448201527f72656d656e74206973206e6f74206d6574000000000000000000000000000000606482015290519081900360840190fd5b600a541561310a576040805160e560020a62461bcd02815260206004820152603060248201527f5b4d756c74695369675d3a20277265717569726564272073686f756c64206e6f60448201527f7420626520696e697469616c697a656400000000000000000000000000000000606482015290519081900360840190fd5b6000613117600982613276565b50600092505b84518310156132565760086000868581518110151561313857fe5b6020908102909101810151600160a060020a031682528101919091526040016000205460ff16806131895750848381518110151561317257fe5b90602001906020020151600160a060020a03166000145b15613204576040805160e560020a62461bcd02815260206004820152602760248201527f5b4d756c74695369675d3a206f776e65722073686f756c64206e6f742062652060448201527f736b697070656400000000000000000000000000000000000000000000000000606482015290519081900360840190fd5b600160086000878681518110151561321857fe5b602090810291909101810151600160a060020a03168252810191909152604001600020805460ff19169115159190911790556001929092019161311d565b8451613269906009906020880190613314565b505050600a919091555050565b8154818355818111156129b3576000838152602090206129b3918101908301613375565b828054600181600116156101000203166002900490600052602060002090601f016020900481019282601f106132db57805160ff1916838001178555613308565b82800160010185558215613308579182015b828111156133085782518255916020019190600101906132ed565b50611050929150613375565b828054828255906000526020600020908101928215613369579160200282015b828111156133695782518254600160a060020a031916600160a060020a03909116178255602090920191600190910190613334565b5061105092915061338f565b61189f91905b80821115611050576000815560010161337b565b61189f91905b80821115611050578054600160a060020a031916815560010161339556005b4d756c74695369675d3a206f776e65722073686f756c64206e6f74206578694f6e6c792064656c656761746563616c6c20697320616c6c6f776564000000005b4d756c74695369675d3a204f6e6c792027746869732720616c6c6f77656420746f2063616c6c00000000000000000000000000000000000000000000000000a165627a7a7230582058c7130bcdf7c9d76ae7913849f77f6b739ffb3c6084831470de996a3e5a693e0029",
  "source": "/**\n* Copyright 20172018, LaborX PTY\n* Licensed under the AGPL Version 3 license.\n*/\n\npragma solidity ^0.4.21;\n\n\nimport \"solidity-shared-lib/contracts/Owned.sol\";\nimport \"./TwoFactorAuthenticationSig.sol\";\nimport \"./UserBase.sol\";\n\n\ncontract UserBackend is Owned, UserBase, TwoFactorAuthenticationSig {\n\n    uint constant OK = 1;\n    uint constant MULTISIG_ADDED = 3;\n\n    bytes32 public version = \"1.0.0\";\n\n    modifier onlyMultiowned(address _initiator) {\n        if ((!use2FA && msg.sender == _initiator)\n            || msg.sender == address(this)\n        ) {\n            _;\n        }\n        else if (use2FA && msg.sender == _initiator) {\n            submitTransaction(address(this), msg.value, msg.data);\n            assembly {\n                mstore(0, 3) /// MULTISIG_ADDED\n                return(0, 32)\n            }\n        }\n    }\n\n    modifier only2FADisabled {\n        require(!use2FA, \"2FA should be disabled\");\n        _;\n    }\n\n    modifier onlyRecoveryContract {\n        if (recoveryContract == msg.sender) {\n            _;\n        }\n    }\n\n    modifier onlyIssuer {\n        if (issuer == msg.sender) {\n            _;\n        }\n    }\n\n    modifier onlyCall {\n        require(_allowDelegateCall(), \"Only delegatecall is allowed\");\n        _;\n    }\n\n    function init(address _oracle, bool _enable2FA)\n    onlyCall\n    onlyIssuer\n    external\n    returns (uint)\n    {\n        _init(contractOwner, _oracle);\n        this.set2FA(_enable2FA);\n        return OK;\n    }\n\n    function set2FA(bool _enabled)\n    onlyCall\n    onlyMultiowned(contractOwner)\n    external\n    returns (uint) \n    {\n        require(getOracle() != 0x0, \"Oracle must be set before 2FA activation\");\n\n        if (use2FA != _enabled) {\n            use2FA = _enabled;\n        }\n        return OK;\n    }\n\n    function setUserProxy(UserProxy _userProxy) \n    onlyCall\n    onlyMultiowned(contractOwner)\n    public \n    returns (uint) \n    {\n        userProxy = _userProxy;\n        return OK;\n    }\n\n    function getUserProxy() \n    public \n    view \n    returns (address) \n    {\n        return userProxy;\n    }\n\n    function setOracle(address _oracle)\n    onlyCall\n    onlyMultiowned(contractOwner)\n    external\n    returns (uint)\n    {\n        _setOracle(_oracle);\n        return OK;\n    }\n\n    function updateBackendProvider(address _newBackendProvider)\n    onlyCall\n    onlyIssuer\n    external\n    returns (uint) \n    {\n        require(_newBackendProvider != 0x0, \"Backend should not be 0x0\");\n\n        backendProvider = UserBackendProviderInterface(_newBackendProvider);\n        return OK;\n    }\n\n    function setRecoveryContract(address _recoveryContract) \n    onlyCall\n    onlyMultiowned(contractOwner)\n    public \n    returns (uint) \n    {\n        require(_recoveryContract != 0x0, \"Recovery contract address should not be 0x0\");\n\n        recoveryContract = _recoveryContract;\n        return OK;\n    }\n\n    function getRecoveryContract()\n    public\n    view\n    returns (address)\n    {\n        return recoveryContract;\n    }\n\n    function recoverUser(address newAddress) \n    onlyCall\n    onlyRecoveryContract\n    public\n    returns (uint) \n    {\n        require(newAddress != 0x0, \"Recovered user should not be 0x0\");\n\n        address _oldContractOwner = contractOwner;\n        contractOwner = newAddress;\n        this.replaceOwner(_oldContractOwner, newAddress);\n\n        return OK;\n    }\n\n    function forward(\n        address _destination,\n        bytes _data,\n        uint _value,\n        bool _throwOnFailedCall\n    )\n    onlyCall\n    onlyMultiowned(contractOwner)\n    public\n    returns (bytes32) \n    {\n        return userProxy.forward(_destination, _data, _value, _throwOnFailedCall);\n    }\n\n    function transferOwnership(address _newOwner) \n    only2FADisabled\n    public \n    returns (bool _result) \n    {\n        if (!_allowDelegateCall()) {\n            return super.transferOwnership(_newOwner);\n        } \n\n        address _oldContractOwner = contractOwner;\n        _result = super.transferOwnership(_newOwner);\n        if (_result) {\n            this.replaceOwner(_oldContractOwner, _newOwner);\n        }\n\n        return _result;\n    }\n\n    function changeContractOwnership(address _to)\n    only2FADisabled\n    public\n    returns (bool)\n    {\n        return super.changeContractOwnership(_to);\n    }\n\n    function claimContractOwnership()\n    only2FADisabled\n    public\n    returns (bool _result)\n    {\n        if (!_allowDelegateCall()) {\n            return super.claimContractOwnership();\n        }\n\n        address _oldContractOwner = contractOwner;\n        _result = super.claimContractOwnership();\n        if (_result) {\n            this.replaceOwner(_oldContractOwner, contractOwner);\n        }\n\n        return _result;\n    }\n\n    function _allowDelegateCall() private view returns (bool) {\n        // make sure this is used by delegatecall\n        if (address(backendProvider) == 0x0) {\n            return false;\n        }\n\n        address _backend = backendProvider.getUserBackend();\n        return address(this) != _backend && _backend != 0x0; \n    }\n}",
  "sourcePath": "solidity-user-lib/contracts/UserBackend.sol",
  "compiler": {
    "name": "solc",
    "version": "0.4.24+commit.e67f0147.Emscripten.clang"
  },
  "schemaVersion": "2.0.1",
  "updatedAt": "2018-07-09T12:18:04.473Z"
}