{
  "contractName": "UserProxy",
  "abi": [
    {
      "constant": false,
      "inputs": [],
      "name": "claimContractOwnership",
      "outputs": [
        {
          "name": "",
          "type": "bool"
        }
      ],
      "payable": false,
      "stateMutability": "nonpayable",
      "type": "function"
    },
    {
      "constant": false,
      "inputs": [
        {
          "name": "_to",
          "type": "address"
        }
      ],
      "name": "changeContractOwnership",
      "outputs": [
        {
          "name": "",
          "type": "bool"
        }
      ],
      "payable": false,
      "stateMutability": "nonpayable",
      "type": "function"
    },
    {
      "constant": true,
      "inputs": [],
      "name": "pendingContractOwner",
      "outputs": [
        {
          "name": "",
          "type": "address"
        }
      ],
      "payable": false,
      "stateMutability": "view",
      "type": "function"
    },
    {
      "constant": false,
      "inputs": [
        {
          "name": "tokens",
          "type": "address[]"
        }
      ],
      "name": "withdrawTokens",
      "outputs": [],
      "payable": false,
      "stateMutability": "nonpayable",
      "type": "function"
    },
    {
      "constant": false,
      "inputs": [],
      "name": "withdrawEther",
      "outputs": [],
      "payable": false,
      "stateMutability": "nonpayable",
      "type": "function"
    },
    {
      "constant": true,
      "inputs": [],
      "name": "contractOwner",
      "outputs": [
        {
          "name": "",
          "type": "address"
        }
      ],
      "payable": false,
      "stateMutability": "view",
      "type": "function"
    },
    {
      "constant": false,
      "inputs": [
        {
          "name": "newOwner",
          "type": "address"
        }
      ],
      "name": "transferOwnership",
      "outputs": [
        {
          "name": "",
          "type": "bool"
        }
      ],
      "payable": false,
      "stateMutability": "nonpayable",
      "type": "function"
    },
    {
      "payable": true,
      "stateMutability": "payable",
      "type": "fallback"
    },
    {
      "anonymous": false,
      "inputs": [
        {
          "indexed": true,
          "name": "destination",
          "type": "address"
        },
        {
          "indexed": false,
          "name": "value",
          "type": "uint256"
        },
        {
          "indexed": false,
          "name": "data",
          "type": "bytes"
        }
      ],
      "name": "Forwarded",
      "type": "event"
    },
    {
      "anonymous": false,
      "inputs": [
        {
          "indexed": true,
          "name": "sender",
          "type": "address"
        },
        {
          "indexed": false,
          "name": "value",
          "type": "uint256"
        }
      ],
      "name": "Received",
      "type": "event"
    },
    {
      "anonymous": false,
      "inputs": [
        {
          "indexed": true,
          "name": "previousOwner",
          "type": "address"
        },
        {
          "indexed": true,
          "name": "newOwner",
          "type": "address"
        }
      ],
      "name": "OwnershipTransferred",
      "type": "event"
    },
    {
      "constant": false,
      "inputs": [
        {
          "name": "_destination",
          "type": "address"
        },
        {
          "name": "_data",
          "type": "bytes"
        },
        {
          "name": "_value",
          "type": "uint256"
        },
        {
          "name": "_throwOnFailedCall",
          "type": "bool"
        }
      ],
      "name": "forward",
      "outputs": [
        {
          "name": "result",
          "type": "bytes32"
        }
      ],
      "payable": false,
      "stateMutability": "nonpayable",
      "type": "function"
    }
  ],
  "bytecode": "0x606060405260008054600160a060020a033316600160a060020a03199091161790556106a0806100306000396000f3006060604052600436106100745763ffffffff60e060020a6000350416634592cd1d81146100b3578063557f4bc9146100da5780635aa77d3c146100f95780635ecb16cd146101285780637362377b14610179578063ce606ee01461018c578063dffdc75d1461019f578063f2fde38b14610219575b33600160a060020a03167f88a5966d370b9919b20f3e2c13ff65706f196a4e32cc2c12bf57088f885258743460405190815260200160405180910390a2005b34156100be57600080fd5b6100c6610238565b604051901515815260200160405180910390f35b34156100e557600080fd5b6100c6600160a060020a03600435166102cf565b341561010457600080fd5b61010c61032e565b604051600160a060020a03909116815260200160405180910390f35b341561013357600080fd5b610177600460248135818101908301358060208181020160405190810160405280939291908181526020018383602002808284375094965061033d95505050505050565b005b341561018457600080fd5b610177610468565b341561019757600080fd5b61010c6104c9565b34156101aa57600080fd5b61020760048035600160a060020a03169060446024803590810190830135806020601f820181900481020160405190810160405281815292919060208401838380828437509496505084359460200135151593506104d892505050565b60405190815260200160405180910390f35b341561022457600080fd5b6100c6600160a060020a03600435166105d6565b60015460009033600160a060020a03908116911614610259575060006102cc565b600154600054600160a060020a0391821691167f8be0079c531659141344cd1fd0a4f28419497f9722a3daafe3b4186f6b6457e060405160405180910390a350600180546000805473ffffffffffffffffffffffffffffffffffffffff19908116600160a060020a038416179091551681555b90565b6000805433600160a060020a039081169116141561032957600160a060020a03821615156102ff57506000610329565b506001805473ffffffffffffffffffffffffffffffffffffffff1916600160a060020a0383161781555b919050565b600154600160a060020a031681565b600080548190819033600160a060020a039081169116141561046257600092505b83518310156104625783838151811061037357fe5b90602001906020020151915081600160a060020a03166370a082313060405160e060020a63ffffffff8416028152600160a060020a039091166004820152602401602060405180830381600087803b15156103cd57600080fd5b5af115156103da57600080fd5b505050604051805191505080156104575781600160a060020a031663a9059cbb338360405160e060020a63ffffffff8516028152600160a060020a0390921660048301526024820152604401602060405180830381600087803b151561043f57600080fd5b5af1151561044c57600080fd5b505050604051805150505b60019092019161035e565b50505050565b6000805433600160a060020a03908116911614156104c65750600160a060020a0330163160008111156104c657600160a060020a03331681156108fc0282604051600060405180830381858888f1935050505015156104c657600080fd5b50565b600054600160a060020a031681565b60008054819033600160a060020a03908116911614156105cd5760206000865160208801878a6040603f5a0204f1905060005191508080610517575082155b151561052257600080fd5b85600160a060020a03167fc1de93dfa06362c6a616cde73ec17d116c0d588dd1df70f27f91b500de207c41858760405182815260406020820181815290820183818151815260200191508051906020019080838360005b83811015610591578082015183820152602001610579565b50505050905090810190601f1680156105be5780820380516001836020036101000a031916815260200191505b50935050505060405180910390a25b50949350505050565b6000805433600160a060020a039081169116141561032957600160a060020a038216151561060657506000610329565b600054600160a060020a0380841691167f8be0079c531659141344cd1fd0a4f28419497f9722a3daafe3b4186f6b6457e060405160405180910390a35060008054600160a060020a03831673ffffffffffffffffffffffffffffffffffffffff1990911617905560019190505600a165627a7a7230582012a3dfe1de2637b757bfd60f056e9995a455d869c0ad5d96aecf1f245f74c77b0029",
  "source": "/**\n * Copyright 2017–2018, LaborX PTY\n * Licensed under the AGPL Version 3 license.\n */\n\npragma solidity ^0.4.21;\n\n\nimport \"solidity-shared-lib/contracts/Owned.sol\";\n\n\ncontract UserProxy is Owned {\n\n    event Forwarded (\n        address indexed destination,\n        uint value,\n        bytes data\n    );\n    event Received (\n        address indexed sender,\n        uint value\n    );\n\n    function () \n    payable\n    external \n    {\n        emit Received(msg.sender, msg.value);\n    }\n\n    function forward(\n        address _destination,\n        bytes _data,\n        uint _value,\n        bool _throwOnFailedCall\n    )  \n    onlyContractOwner\n    public\n    returns (bytes32 result) \n    {\n        bool success;\n        assembly {\n            success := call(div(mul(gas, 63), 64), _destination, _value, add(_data, 32), mload(_data), 0, 32)\n            result := mload(0)\n        }\n        require(success || !_throwOnFailedCall);\n\n        emit Forwarded(_destination, _value, _data);\n    }\n}\n",
  "sourcePath": "solidity-user-lib/contracts/UserProxy.sol",
  "compiler": {
    "name": "solc",
    "version": "0.4.21+commit.dfe3193c.Emscripten.clang"
  },
  "schemaVersion": "2.0.0",
  "updatedAt": "2018-07-16T12:15:18.867Z"
}