{
  "contractName": "UserBackend",
  "abi": [
    {
      "constant": true,
      "inputs": [],
      "name": "backendProvider",
      "outputs": [
        {
          "name": "",
          "type": "address"
        }
      ],
      "payable": false,
      "stateMutability": "view",
      "type": "function"
    },
    {
      "constant": false,
      "inputs": [
        {
          "name": "owner",
          "type": "address"
        }
      ],
      "name": "removeOwner",
      "outputs": [],
      "payable": false,
      "stateMutability": "nonpayable",
      "type": "function"
    },
    {
      "constant": true,
      "inputs": [],
      "name": "issuer",
      "outputs": [
        {
          "name": "",
          "type": "address"
        }
      ],
      "payable": false,
      "stateMutability": "view",
      "type": "function"
    },
    {
      "constant": false,
      "inputs": [
        {
          "name": "transactionId",
          "type": "uint256"
        }
      ],
      "name": "revokeConfirmation",
      "outputs": [],
      "payable": false,
      "stateMutability": "nonpayable",
      "type": "function"
    },
    {
      "constant": true,
      "inputs": [
        {
          "name": "",
          "type": "address"
        }
      ],
      "name": "isOwner",
      "outputs": [
        {
          "name": "",
          "type": "bool"
        }
      ],
      "payable": false,
      "stateMutability": "view",
      "type": "function"
    },
    {
      "constant": true,
      "inputs": [
        {
          "name": "statusMask",
          "type": "uint8"
        }
      ],
      "name": "getTransactionCount",
      "outputs": [
        {
          "name": "count",
          "type": "uint256"
        }
      ],
      "payable": false,
      "stateMutability": "view",
      "type": "function"
    },
    {
      "constant": true,
      "inputs": [
        {
          "name": "",
          "type": "uint256"
        },
        {
          "name": "",
          "type": "address"
        }
      ],
      "name": "confirmations",
      "outputs": [
        {
          "name": "",
          "type": "bool"
        }
      ],
      "payable": false,
      "stateMutability": "view",
      "type": "function"
    },
    {
      "constant": true,
      "inputs": [],
      "name": "version",
      "outputs": [
        {
          "name": "",
          "type": "bytes32"
        }
      ],
      "payable": false,
      "stateMutability": "view",
      "type": "function"
    },
    {
      "constant": true,
      "inputs": [],
      "name": "pendingContractOwner",
      "outputs": [
        {
          "name": "",
          "type": "address"
        }
      ],
      "payable": false,
      "stateMutability": "view",
      "type": "function"
    },
    {
      "constant": false,
      "inputs": [
        {
          "name": "tokens",
          "type": "address[]"
        }
      ],
      "name": "withdrawTokens",
      "outputs": [],
      "payable": false,
      "stateMutability": "nonpayable",
      "type": "function"
    },
    {
      "constant": false,
      "inputs": [
        {
          "name": "owner",
          "type": "address"
        }
      ],
      "name": "addOwner",
      "outputs": [],
      "payable": false,
      "stateMutability": "nonpayable",
      "type": "function"
    },
    {
      "constant": false,
      "inputs": [],
      "name": "withdrawEther",
      "outputs": [],
      "payable": false,
      "stateMutability": "nonpayable",
      "type": "function"
    },
    {
      "constant": true,
      "inputs": [
        {
          "name": "transactionId",
          "type": "uint256"
        }
      ],
      "name": "isConfirmed",
      "outputs": [
        {
          "name": "",
          "type": "bool"
        }
      ],
      "payable": false,
      "stateMutability": "view",
      "type": "function"
    },
    {
      "constant": true,
      "inputs": [],
      "name": "getOracle",
      "outputs": [
        {
          "name": "",
          "type": "address"
        }
      ],
      "payable": false,
      "stateMutability": "view",
      "type": "function"
    },
    {
      "constant": true,
      "inputs": [
        {
          "name": "transactionId",
          "type": "uint256"
        }
      ],
      "name": "getConfirmationCount",
      "outputs": [
        {
          "name": "count",
          "type": "uint256"
        }
      ],
      "payable": false,
      "stateMutability": "view",
      "type": "function"
    },
    {
      "constant": true,
      "inputs": [
        {
          "name": "",
          "type": "uint256"
        }
      ],
      "name": "transactions",
      "outputs": [
        {
          "name": "destination",
          "type": "address"
        },
        {
          "name": "value",
          "type": "uint256"
        },
        {
          "name": "data",
          "type": "bytes"
        },
        {
          "name": "status",
          "type": "uint8"
        }
      ],
      "payable": false,
      "stateMutability": "view",
      "type": "function"
    },
    {
      "constant": true,
      "inputs": [],
      "name": "use2FA",
      "outputs": [
        {
          "name": "",
          "type": "bool"
        }
      ],
      "payable": false,
      "stateMutability": "view",
      "type": "function"
    },
    {
      "constant": true,
      "inputs": [
        {
          "name": "from",
          "type": "uint256"
        },
        {
          "name": "to",
          "type": "uint256"
        },
        {
          "name": "statusMask",
          "type": "uint8"
        }
      ],
      "name": "getTransactionIds",
      "outputs": [
        {
          "name": "_transactionIds",
          "type": "uint256[]"
        }
      ],
      "payable": false,
      "stateMutability": "view",
      "type": "function"
    },
    {
      "constant": true,
      "inputs": [],
      "name": "getOwners",
      "outputs": [
        {
          "name": "",
          "type": "address[]"
        }
      ],
      "payable": false,
      "stateMutability": "view",
      "type": "function"
    },
    {
      "constant": true,
      "inputs": [
        {
          "name": "transactionId",
          "type": "uint256"
        }
      ],
      "name": "getConfirmations",
      "outputs": [
        {
          "name": "_confirmations",
          "type": "address[]"
        }
      ],
      "payable": false,
      "stateMutability": "view",
      "type": "function"
    },
    {
      "constant": true,
      "inputs": [],
      "name": "transactionCount",
      "outputs": [
        {
          "name": "",
          "type": "uint256"
        }
      ],
      "payable": false,
      "stateMutability": "view",
      "type": "function"
    },
    {
      "constant": false,
      "inputs": [
        {
          "name": "_required",
          "type": "uint256"
        }
      ],
      "name": "changeRequirement",
      "outputs": [],
      "payable": false,
      "stateMutability": "nonpayable",
      "type": "function"
    },
    {
      "constant": false,
      "inputs": [
        {
          "name": "transactionId",
          "type": "uint256"
        },
        {
          "name": "pass",
          "type": "bytes"
        },
        {
          "name": "v",
          "type": "uint8"
        },
        {
          "name": "r",
          "type": "bytes32"
        },
        {
          "name": "s",
          "type": "bytes32"
        }
      ],
      "name": "confirmTransactionWithVRS",
      "outputs": [],
      "payable": false,
      "stateMutability": "nonpayable",
      "type": "function"
    },
    {
      "constant": false,
      "inputs": [
        {
          "name": "transactionId",
          "type": "uint256"
        }
      ],
      "name": "confirmTransaction",
      "outputs": [],
      "payable": false,
      "stateMutability": "nonpayable",
      "type": "function"
    },
    {
      "constant": false,
      "inputs": [
        {
          "name": "destination",
          "type": "address"
        },
        {
          "name": "value",
          "type": "uint256"
        },
        {
          "name": "data",
          "type": "bytes"
        }
      ],
      "name": "submitTransaction",
      "outputs": [
        {
          "name": "transactionId",
          "type": "uint256"
        }
      ],
      "payable": false,
      "stateMutability": "nonpayable",
      "type": "function"
    },
    {
      "constant": true,
      "inputs": [],
      "name": "contractOwner",
      "outputs": [
        {
          "name": "",
          "type": "address"
        }
      ],
      "payable": false,
      "stateMutability": "view",
      "type": "function"
    },
    {
      "constant": true,
      "inputs": [],
      "name": "MAX_OWNER_COUNT",
      "outputs": [
        {
          "name": "",
          "type": "uint256"
        }
      ],
      "payable": false,
      "stateMutability": "view",
      "type": "function"
    },
    {
      "constant": true,
      "inputs": [],
      "name": "required",
      "outputs": [
        {
          "name": "",
          "type": "uint256"
        }
      ],
      "payable": false,
      "stateMutability": "view",
      "type": "function"
    },
    {
      "constant": false,
      "inputs": [
        {
          "name": "owner",
          "type": "address"
        },
        {
          "name": "newOwner",
          "type": "address"
        }
      ],
      "name": "replaceOwner",
      "outputs": [],
      "payable": false,
      "stateMutability": "nonpayable",
      "type": "function"
    },
    {
      "constant": false,
      "inputs": [
        {
          "name": "transactionId",
          "type": "uint256"
        }
      ],
      "name": "executeTransaction",
      "outputs": [],
      "payable": false,
      "stateMutability": "nonpayable",
      "type": "function"
    },
    {
      "payable": true,
      "stateMutability": "payable",
      "type": "fallback"
    },
    {
      "anonymous": false,
      "inputs": [
        {
          "indexed": true,
          "name": "sender",
          "type": "address"
        },
        {
          "indexed": true,
          "name": "transactionId",
          "type": "uint256"
        }
      ],
      "name": "Confirmation",
      "type": "event"
    },
    {
      "anonymous": false,
      "inputs": [
        {
          "indexed": true,
          "name": "sender",
          "type": "address"
        },
        {
          "indexed": true,
          "name": "transactionId",
          "type": "uint256"
        }
      ],
      "name": "Revocation",
      "type": "event"
    },
    {
      "anonymous": false,
      "inputs": [
        {
          "indexed": true,
          "name": "transactionId",
          "type": "uint256"
        }
      ],
      "name": "Submission",
      "type": "event"
    },
    {
      "anonymous": false,
      "inputs": [
        {
          "indexed": true,
          "name": "transactionId",
          "type": "uint256"
        }
      ],
      "name": "Execution",
      "type": "event"
    },
    {
      "anonymous": false,
      "inputs": [
        {
          "indexed": true,
          "name": "transactionId",
          "type": "uint256"
        }
      ],
      "name": "ExecutionFailure",
      "type": "event"
    },
    {
      "anonymous": false,
      "inputs": [
        {
          "indexed": true,
          "name": "transactionId",
          "type": "uint256"
        }
      ],
      "name": "Cancelled",
      "type": "event"
    },
    {
      "anonymous": false,
      "inputs": [
        {
          "indexed": true,
          "name": "sender",
          "type": "address"
        },
        {
          "indexed": false,
          "name": "value",
          "type": "uint256"
        }
      ],
      "name": "Deposit",
      "type": "event"
    },
    {
      "anonymous": false,
      "inputs": [
        {
          "indexed": true,
          "name": "owner",
          "type": "address"
        }
      ],
      "name": "OwnerAddition",
      "type": "event"
    },
    {
      "anonymous": false,
      "inputs": [
        {
          "indexed": true,
          "name": "owner",
          "type": "address"
        }
      ],
      "name": "OwnerRemoval",
      "type": "event"
    },
    {
      "anonymous": false,
      "inputs": [
        {
          "indexed": false,
          "name": "required",
          "type": "uint256"
        }
      ],
      "name": "RequirementChange",
      "type": "event"
    },
    {
      "anonymous": false,
      "inputs": [
        {
          "indexed": true,
          "name": "previousOwner",
          "type": "address"
        },
        {
          "indexed": true,
          "name": "newOwner",
          "type": "address"
        }
      ],
      "name": "OwnershipTransferred",
      "type": "event"
    },
    {
      "constant": false,
      "inputs": [
        {
          "name": "_oracle",
          "type": "address"
        },
        {
          "name": "_enable2FA",
          "type": "bool"
        }
      ],
      "name": "init",
      "outputs": [
        {
          "name": "",
          "type": "uint256"
        }
      ],
      "payable": false,
      "stateMutability": "nonpayable",
      "type": "function"
    },
    {
      "constant": false,
      "inputs": [
        {
          "name": "_enabled",
          "type": "bool"
        }
      ],
      "name": "set2FA",
      "outputs": [
        {
          "name": "",
          "type": "uint256"
        }
      ],
      "payable": false,
      "stateMutability": "nonpayable",
      "type": "function"
    },
    {
      "constant": false,
      "inputs": [
        {
          "name": "_userProxy",
          "type": "address"
        }
      ],
      "name": "setUserProxy",
      "outputs": [
        {
          "name": "",
          "type": "uint256"
        }
      ],
      "payable": false,
      "stateMutability": "nonpayable",
      "type": "function"
    },
    {
      "constant": true,
      "inputs": [],
      "name": "getUserProxy",
      "outputs": [
        {
          "name": "",
          "type": "address"
        }
      ],
      "payable": false,
      "stateMutability": "view",
      "type": "function"
    },
    {
      "constant": false,
      "inputs": [
        {
          "name": "_oracle",
          "type": "address"
        }
      ],
      "name": "setOracle",
      "outputs": [
        {
          "name": "",
          "type": "uint256"
        }
      ],
      "payable": false,
      "stateMutability": "nonpayable",
      "type": "function"
    },
    {
      "constant": false,
      "inputs": [
        {
          "name": "_newBackendProvider",
          "type": "address"
        }
      ],
      "name": "updateBackendProvider",
      "outputs": [
        {
          "name": "",
          "type": "uint256"
        }
      ],
      "payable": false,
      "stateMutability": "nonpayable",
      "type": "function"
    },
    {
      "constant": false,
      "inputs": [
        {
          "name": "_recoveryContract",
          "type": "address"
        }
      ],
      "name": "setRecoveryContract",
      "outputs": [
        {
          "name": "",
          "type": "uint256"
        }
      ],
      "payable": false,
      "stateMutability": "nonpayable",
      "type": "function"
    },
    {
      "constant": true,
      "inputs": [],
      "name": "getRecoveryContract",
      "outputs": [
        {
          "name": "",
          "type": "address"
        }
      ],
      "payable": false,
      "stateMutability": "view",
      "type": "function"
    },
    {
      "constant": false,
      "inputs": [
        {
          "name": "_newAddress",
          "type": "address"
        }
      ],
      "name": "recoverUser",
      "outputs": [
        {
          "name": "",
          "type": "uint256"
        }
      ],
      "payable": false,
      "stateMutability": "nonpayable",
      "type": "function"
    },
    {
      "constant": false,
      "inputs": [
        {
          "name": "_destination",
          "type": "address"
        },
        {
          "name": "_data",
          "type": "bytes"
        },
        {
          "name": "_value",
          "type": "uint256"
        },
        {
          "name": "_throwOnFailedCall",
          "type": "bool"
        }
      ],
      "name": "forward",
      "outputs": [
        {
          "name": "",
          "type": "bytes32"
        }
      ],
      "payable": false,
      "stateMutability": "nonpayable",
      "type": "function"
    },
    {
      "constant": false,
      "inputs": [
        {
          "name": "_destination",
          "type": "address"
        },
        {
          "name": "_data",
          "type": "bytes"
        },
        {
          "name": "_value",
          "type": "uint256"
        },
        {
          "name": "_throwOnFailedCall",
          "type": "bool"
        },
        {
          "name": "_pass",
          "type": "bytes"
        },
        {
          "name": "_v",
          "type": "uint8"
        },
        {
          "name": "_r",
          "type": "bytes32"
        },
        {
          "name": "_s",
          "type": "bytes32"
        }
      ],
      "name": "forwardWithVRS",
      "outputs": [
        {
          "name": "",
          "type": "bytes32"
        }
      ],
      "payable": false,
      "stateMutability": "nonpayable",
      "type": "function"
    },
    {
      "constant": false,
      "inputs": [
        {
          "name": "_newOwner",
          "type": "address"
        }
      ],
      "name": "transferOwnership",
      "outputs": [
        {
          "name": "_result",
          "type": "bool"
        }
      ],
      "payable": false,
      "stateMutability": "nonpayable",
      "type": "function"
    },
    {
      "constant": false,
      "inputs": [
        {
          "name": "_to",
          "type": "address"
        }
      ],
      "name": "changeContractOwnership",
      "outputs": [
        {
          "name": "",
          "type": "bool"
        }
      ],
      "payable": false,
      "stateMutability": "nonpayable",
      "type": "function"
    },
    {
      "constant": false,
      "inputs": [],
      "name": "claimContractOwnership",
      "outputs": [
        {
          "name": "_result",
          "type": "bool"
        }
      ],
      "payable": false,
      "stateMutability": "nonpayable",
      "type": "function"
    }
  ],
  "bytecode": "0x60606040527f312e312e30000000000000000000000000000000000000000000000000000000600c5560008054600160a060020a033316600160a060020a0319909116179055612f4b806100546000396000f3006060604052600436106102005763ffffffff60e060020a600035041663094780e68114610249578063173825d9146102785780631d1438481461029757806320ea8d86146102aa5780632f54bf6e146102c05780632f71ed9c146102f357806331246b89146103245780633411c81c1461033d57806335f2507f1461035f57806342141ecd1461037e5780634592cd1d1461043a57806354fd4d501461044d578063557f4bc9146104605780635aa77d3c1461047f5780635ecb16cd146104925780636029d66f146104e15780637065cb48146105005780637362377b1461051f578063784547a7146105325780637adbf97314610548578063833b1fce1461056757806389f4fd571461057a5780638b51d13f1461058d5780639ace38c2146105a35780639d2a43ad146106525780639ebfddee14610665578063a0e67e2b146106d7578063b5dc40c3146106ea578063b77bf60014610700578063ba51a6df14610713578063be083f6d14610729578063c01a8c841461078f578063c5e5f978146107a5578063c6427474146107bd578063cb9fa36614610822578063ce606ee014610846578063d74f8edd14610859578063dc8452cd1461086c578063dffdc75d1461087f578063e20056e6146108e7578063eb8a5cd61461090c578063ee22610b1461092b578063f2fde38b14610941578063f60c37a414610960575b60003411156102475733600160a060020a03167fe1fffcc4923d04b559f4d29a8bfc6cda04eb5b0d3c460751c2402c5c5cc9109c3460405190815260200160405180910390a25b005b341561025457600080fd5b61025c610973565b604051600160a060020a03909116815260200160405180910390f35b341561028357600080fd5b610247600160a060020a0360043516610982565b34156102a257600080fd5b61025c610b0a565b34156102b557600080fd5b610247600435610b19565b34156102cb57600080fd5b6102df600160a060020a0360043516610c64565b604051901515815260200160405180910390f35b34156102fe57600080fd5b610312600160a060020a0360043516610c79565b60405190815260200160405180910390f35b341561032f57600080fd5b61031260ff60043516610cde565b341561034857600080fd5b6102df600435600160a060020a0360243516610d1d565b341561036a57600080fd5b610312600160a060020a0360043516610d3d565b341561038957600080fd5b61031260048035600160a060020a03169060446024803590810190830135806020601f82018190048102016040519081016040528181529291906020840183838082843750949686359660208082013515159750919550606081019450604090810135860180830194503592508291601f8301819004810201905190810160405281815292919060208401838380828437509496505060ff8535169460208101359450604001359250610db1915050565b341561044557600080fd5b6102df6111db565b341561045857600080fd5b61031261123e565b341561046b57600080fd5b6102df600160a060020a0360043516611244565b341561048a57600080fd5b61025c61126d565b341561049d57600080fd5b610247600460248135818101908301358060208181020160405190810160405280939291908181526020018383602002808284375094965061127c95505050505050565b34156104ec57600080fd5b610312600160a060020a03600435166113a7565b341561050b57600080fd5b610247600160a060020a03600435166114c6565b341561052a57600080fd5b6102476115ed565b341561053d57600080fd5b6102df60043561164e565b341561055357600080fd5b610312600160a060020a036004351661166f565b341561057257600080fd5b61025c6116f1565b341561058557600080fd5b61025c61171e565b341561059857600080fd5b61031260043561172d565b34156105ae57600080fd5b6105b9600435611796565b604051600160a060020a03851681526020810184905260ff8216606082015260806040820181815290820184818151815260200191508051906020019080838360005b838110156106145780820151838201526020016105fc565b50505050905090810190601f1680156106415780820380516001836020036101000a031916815260200191505b509550505050505060405180910390f35b341561065d57600080fd5b6102df611874565b341561067057600080fd5b61068460043560243560ff60443516611884565b60405160208082528190810183818151815260200191508051906020019060200280838360005b838110156106c35780820151838201526020016106ab565b505050509050019250505060405180910390f35b34156106e257600080fd5b61068461197f565b34156106f557600080fd5b6106846004356119e7565b341561070b57600080fd5b610312611b4b565b341561071e57600080fd5b610247600435611b51565b341561073457600080fd5b610247600480359060446024803590810190830135806020601f820181900481020160405190810160405281815292919060208401838380828437509496505060ff8535169460208101359450604001359250611bdc915050565b341561079a57600080fd5b610247600435611e2a565b34156107b057600080fd5b6103126004351515611f14565b34156107c857600080fd5b61031260048035600160a060020a03169060248035919060649060443590810190830135806020601f8201819004810201604051908101604052818152929190602084018383808284375094965061207095505050505050565b341561082d57600080fd5b610312600160a060020a0360043516602435151561208f565b341561085157600080fd5b61025c612137565b341561086457600080fd5b610312612146565b341561087757600080fd5b61031261214b565b341561088a57600080fd5b61031260048035600160a060020a03169060446024803590810190830135806020601f8201819004810201604051908101604052818152929190602084018383808284375094965050843594602001351515935061215192505050565b34156108f257600080fd5b610247600160a060020a0360043581169060243516612324565b341561091757600080fd5b610312600160a060020a03600435166124c5565b341561093657600080fd5b610247600435612559565b341561094c57600080fd5b6102df600160a060020a03600435166126b7565b341561096b57600080fd5b61025c612718565b600254600160a060020a031681565b600030600160a060020a031633600160a060020a03161415156109a457600080fd5b600160a060020a038216600090815260086020526040902054829060ff1615156109cd57600080fd5b600160a060020a0383166000908152600860205260408120805460ff1916905591505b60095460001901821015610aa35782600160a060020a0316600983815481101515610a1757fe5b600091825260209091200154600160a060020a03161415610a9857600980546000198101908110610a4457fe5b60009182526020909120015460098054600160a060020a039092169184908110610a6a57fe5b60009182526020909120018054600160a060020a031916600160a060020a0392909216919091179055610aa3565b8160010191506109f0565b600980546000190190610ab69082612dc9565b50600954600a541115610acf57600954610acf90611b51565b82600160a060020a03167f8001553a916ef2f495d26a907cc54d96ed840d7bda71e73194bf5a9df7a76b9060405160405180910390a2505050565b600354600160a060020a031681565b33600160a060020a0381166000908152600860205260408120549091829160ff161515610b4557600080fd5b600084815260076020908152604080832033600160a060020a038116855292529091205485919060ff161515610b7a57600080fd5b600086815260066020526040902060030154869060ff811690600c1615610ba057600080fd5b6000888152600760209081526040808320600160a060020a033316808552925291829020805460ff1916905589917ff6a317157440607f36269043eb55f1287a5a19ba2216afeab88cd46cbcfb88e9905160405180910390a3610c028861172d565b9650861515610c5a576000888152600660205260409081902060038101805460ff19166008179055965088907fc41d93b8bfbf9fd7cf5bfe271fd649ab6a6fec0ea101c23b82a2a28eca2533a9905160405180910390a25b5050505050505050565b60086020526000908152604090205460ff1681565b6000610c83612727565b1515610c8e57600080fd5b60035433600160a060020a0390811691161415610cd957600160a060020a0382161515610cba57600080fd5b5060028054600160a060020a031916600160a060020a03831617905560015b919050565b6000805b600b54811015610d1757600081815260066020526040902060030154831660ff1615610d0f576001820191505b600101610ce2565b50919050565b600760209081526000928352604080842090915290825290205460ff1681565b600080610d48612727565b1515610d5357600080fd5b60055433600160a060020a0390811691161415610d1757600160a060020a0383161515610d7f57600080fd5b5060008054600160a060020a03848116600160a060020a031983161790925516610da8816127cf565b50600192915050565b6000610dbb612727565b1515610dc657600080fd5b600054600160a060020a031685338b8b8b6040518086805190602001908083835b60208310610e065780518252601f199092019160209182019101610de7565b6001836020036101000a03801982511681845116179092525050506c01000000000000000000000000600160a060020a03808a168202949092019384529087160260148301525060280183805190602001908083835b60208310610e7b5780518252601f199092019160209182019101610e5c565b6001836020036101000a03801982511681845116179092525050509190910192835250506020019350604092505050518091039020858585600560149054906101000a900460ff16158015610ee1575084600160a060020a031633600160a060020a0316145b80610efd575030600160a060020a031633600160a060020a0316145b15610ff257600454600160a060020a031663dffdc75d8f8f8f8f60405160e060020a63ffffffff8716028152600160a060020a03851660048201908152604482018490528215156064830152608060248301908152909160840185818151815260200191508051906020019080838360005b83811015610f87578082015183820152602001610f6f565b50505050905090810190601f168015610fb45780820380516001836020036101000a031916815260200191505b5095505050505050602060405180830381600087803b1515610fd557600080fd5b5af11515610fe257600080fd5b50505060405180519650506111ca565b60055460a060020a900460ff16801561101c575084600160a060020a031633600160a060020a0316145b80156110d957506001846040517f19457468657265756d205369676e6564204d6573736167653a0a3332000000008152601c810191909152603c0160405180910390208484846040516000815260200160405260405193845260ff9092166020808501919091526040808501929092526060840192909252608090920191516020810390808403906000865af115156110b457600080fd5b505060206040510351600160a060020a03166110ce6116f1565b600160a060020a0316145b156111ca57600454600160a060020a031663dffdc75d8f8f8f8f60405160e060020a63ffffffff8716028152600160a060020a03851660048201908152604482018490528215156064830152608060248301908152909160840185818151815260200191508051906020019080838360005b8381101561116357808201518382015260200161114b565b50505050905090810190601f1680156111905780820380516001836020036101000a031916815260200191505b5095505050505050602060405180830381600087803b15156111b157600080fd5b5af115156111be57600080fd5b50505060405180519650505b505050505098975050505050505050565b600554600090819060a060020a900460ff16156111f757600080fd5b6111ff612727565b15156112145761120d6128bd565b915061123a565b50600054600160a060020a03166112296128bd565b9150811561123a5761123a816127cf565b5090565b600c5481565b60055460009060a060020a900460ff161561125e57600080fd5b61126782612946565b92915050565b600154600160a060020a031681565b600080548190819033600160a060020a03908116911614156113a157600092505b83518310156113a1578383815181106112b257fe5b90602001906020020151915081600160a060020a03166370a082313060405160e060020a63ffffffff8416028152600160a060020a039091166004820152602401602060405180830381600087803b151561130c57600080fd5b5af1151561131957600080fd5b505050604051805191505080156113965781600160a060020a031663a9059cbb338360405160e060020a63ffffffff8516028152600160a060020a0390921660048301526024820152604401602060405180830381600087803b151561137e57600080fd5b5af1151561138b57600080fd5b505050604051805150505b60019092019161129d565b50505050565b60006113b1612727565b15156113bc57600080fd5b600054600554600160a060020a039091169060a060020a900460ff161580156113f6575080600160a060020a031633600160a060020a0316145b80611412575030600160a060020a031633600160a060020a0316145b1561145057600160a060020a038316151561142c57600080fd5b60058054600160a060020a031916600160a060020a03851617905560019150610d17565b60055460a060020a900460ff16801561147a575080600160a060020a031633600160a060020a0316145b15610d17576114ba30346000368080601f016020809104026020016040519081016040528181529291906020840183838082843750612070945050505050565b50600360005260206000f35b30600160a060020a031633600160a060020a03161415156114e657600080fd5b600160a060020a038116600090815260086020526040902054819060ff161561150e57600080fd5b81600160a060020a038116151561152457600080fd5b600980549050600101600a54603282118061153e57508181115b80611547575080155b80611550575081155b1561155a57600080fd5b600160a060020a0385166000908152600860205260409020805460ff1916600190811790915560098054909181016115928382612dc9565b5060009182526020909120018054600160a060020a031916600160a060020a0387169081179091557ff39e6e1eb0edcf53c221607b54b00cd28f3196fed0a24994dc308b8f611b682d60405160405180910390a25050505050565b6000805433600160a060020a039081169116141561164b5750600160a060020a03301631600081111561164b57600160a060020a03331681156108fc0282604051600060405180830381858888f19350505050151561164b57600080fd5b50565b60008061165a8361172d565b9050600a54811415610d175760019150610d17565b6000611679612727565b151561168457600080fd5b600054600554600160a060020a039091169060a060020a900460ff161580156116be575080600160a060020a031633600160a060020a0316145b806116da575030600160a060020a031633600160a060020a0316145b15611450576116e883612999565b60019150610d17565b60006009600181548110151561170357fe5b600091825260209091200154600160a060020a031690505b90565b600454600160a060020a031690565b6000805b600954811015610d17576000838152600760205260408120600980549192918490811061175a57fe5b6000918252602080832090910154600160a060020a0316835282019290925260400190205460ff161561178e576001820191505b600101611731565b60066020528060005260406000206000915090508060000160009054906101000a9004600160a060020a031690806001015490806002018054600181600116156101000203166002900480601f0160208091040260200160405190810160405280929190818152602001828054600181600116156101000203166002900480156118615780601f1061183657610100808354040283529160200191611861565b820191906000526020600020905b81548152906001019060200180831161184457829003601f168201915b5050506003909301549192505060ff1684565b60055460a060020a900460ff1681565b61188c612df2565b611894612df2565b600080600b546040518059106118a75750595b9080825280602002602001820160405250925060009150600090505b600b5481101561191057600081815260066020526040902060030154851660ff161561190857808383815181106118f657fe5b60209081029091010152600191909101905b6001016118c3565b8686036040518059106119205750595b908082528060200260200182016040525093508690505b858110156119755782818151811061194b57fe5b90602001906020020151848883038151811061196357fe5b60209081029091010152600101611937565b5050509392505050565b611987612df2565b60098054806020026020016040519081016040528092919081815260200182805480156119dd57602002820191906000526020600020905b8154600160a060020a031681526001909101906020018083116119bf575b5050505050905090565b6119ef612df2565b6119f7612df2565b6009546000908190604051805910611a0c5750595b9080825280602002602001820160405250925060009150600090505b600954811015611ad45760008581526007602052604081206009805491929184908110611a5157fe5b6000918252602080832090910154600160a060020a0316835282019290925260400190205460ff1615611acc576009805482908110611a8c57fe5b600091825260209091200154600160a060020a0316838381518110611aad57fe5b600160a060020a03909216602092830290910190910152600191909101905b600101611a28565b81604051805910611ae25750595b90808252806020026020018201604052509350600090505b81811015611b4357828181518110611b0e57fe5b90602001906020020151848281518110611b2457fe5b600160a060020a03909216602092830290910190910152600101611afa565b505050919050565b600b5481565b30600160a060020a031633600160a060020a0316141515611b7157600080fd5b600954816032821180611b8357508181115b80611b8c575080155b80611b95575081155b15611b9f57600080fd5b600a8390557fa3f1ee9126a074d9326c682f561767f710e927faa811f7a99829d49dc421797a8360405190815260200160405180910390a1505050565b611be4612df2565b6000868152600660205260408120600301548190889060ff161515611c0857600080fd5b6040805190810160405280601c81526020017f19457468657265756d205369676e6564204d6573736167653a0a33320000000081525093508789306040518084805190602001908083835b60208310611c725780518252601f199092019160209182019101611c53565b6001836020036101000a0380198251168184511617909252505050919091019384525050600160a060020a03166c01000000000000000000000000026020820152603401905060405180910390209250600184846040518083805190602001908083835b60208310611cf55780518252601f199092019160209182019101611cd6565b6001836020036101000a0380198251168184511617909252505050919091019283525050602001905060405180910390208888886040516000815260200160405260405193845260ff9092166020808501919091526040808501929092526060840192909252608090920191516020810390808403906000865af11515611d7b57600080fd5b505060206040510351600160a060020a03811660009081526008602052604090205490925060ff161515611dae57600080fd5b6000898152600760209081526040808320600160a060020a038616845290915290205460ff161515611ddf57600080fd5b8882600160a060020a03167f4a504a94899432a9846e1aa406dceb1bcfd538bb839071d49d1e5e23f5be30ef60405160405180910390a3611e1f89612559565b505050505050505050565b33600160a060020a03811660009081526008602052604090205460ff161515611e5257600080fd5b600082815260066020526040902060030154829060ff161515611e7457600080fd5b600083815260076020908152604080832033600160a060020a038116855292529091205484919060ff1615611ea857600080fd5b6000858152600760209081526040808320600160a060020a033316808552925291829020805460ff1916600117905586917f4a504a94899432a9846e1aa406dceb1bcfd538bb839071d49d1e5e23f5be30ef905160405180910390a3611f0d85612559565b5050505050565b6000611f1e612727565b1515611f2957600080fd5b600054600554600160a060020a039091169060a060020a900460ff16158015611f63575080600160a060020a031633600160a060020a0316145b80611f7f575030600160a060020a031633600160a060020a0316145b1561145057611f8c6116f1565b600160a060020a03161515611fa057600080fd5b60055460ff60a060020a909104161515831515146116e8576005805474ff0000000000000000000000000000000000000000191660a060020a8515150217905560005430600160a060020a0381811692630a0f33af9291169061200161171e565b8760405160e060020a63ffffffff8716028152600160a060020a0394851660048201529284166024840152921660448201529015156064820152608401600060405180830381600087803b151561205757600080fd5b5af1151561206457600080fd5b50505060019150610d17565b600061207d848484612a35565b905061208881611e2a565b9392505050565b6000612099612727565b15156120a457600080fd5b60035433600160a060020a0390811691161415611267576000546120d190600160a060020a031684612b28565b30600160a060020a031663c5e5f9788360405160e060020a63ffffffff84160281529015156004820152602401602060405180830381600087803b151561211757600080fd5b5af1151561212457600080fd5b5050506040518051506001949350505050565b600054600160a060020a031681565b603281565b600a5481565b600061215b612727565b151561216657600080fd5b600054600554600160a060020a039091169060a060020a900460ff161580156121a0575080600160a060020a031633600160a060020a0316145b806121bc575030600160a060020a031633600160a060020a0316145b156122b157600454600160a060020a031663dffdc75d8787878760405160e060020a63ffffffff8716028152600160a060020a03851660048201908152604482018490528215156064830152608060248301908152909160840185818151815260200191508051906020019080838360005b8381101561224657808201518382015260200161222e565b50505050905090810190601f1680156122735780820380516001836020036101000a031916815260200191505b5095505050505050602060405180830381600087803b151561229457600080fd5b5af115156122a157600080fd5b505050604051805192505061231b565b60055460a060020a900460ff1680156122db575080600160a060020a031633600160a060020a0316145b1561231b576114ba30346000368080601f016020809104026020016040519081016040528181529291906020840183838082843750612070945050505050565b50949350505050565b600030600160a060020a031633600160a060020a031614151561234657600080fd5b600160a060020a038316600090815260086020526040902054839060ff16151561236f57600080fd5b600160a060020a038316600090815260086020526040902054839060ff161561239757600080fd5b600092505b6009548310156124235784600160a060020a03166009848154811015156123bf57fe5b600091825260209091200154600160a060020a0316141561241857836009848154811015156123ea57fe5b60009182526020909120018054600160a060020a031916600160a060020a0392909216919091179055612423565b82600101925061239c565b600160a060020a03808616600081815260086020526040808220805460ff199081169091559388168252908190208054909316600117909255907f8001553a916ef2f495d26a907cc54d96ed840d7bda71e73194bf5a9df7a76b90905160405180910390a283600160a060020a03167ff39e6e1eb0edcf53c221607b54b00cd28f3196fed0a24994dc308b8f611b682d60405160405180910390a25050505050565b60006124cf612727565b15156124da57600080fd5b600054600554600160a060020a039091169060a060020a900460ff16158015612514575080600160a060020a031633600160a060020a0316145b80612530575030600160a060020a031633600160a060020a0316145b156114505760048054600160a060020a031916600160a060020a03851617905560019150610d17565b600081815260066020526040812060030154829060ff811690600c161561257f57600080fd5b6125888461164e565b156113a1576000848152600660205260409081902060038101805460ff1916600417905580546001820154919550600160a060020a03169160028601905180828054600181600116156101000203166002900480156126285780601f106125fd57610100808354040283529160200191612628565b820191906000526020600020905b81548152906001019060200180831161260b57829003601f168201915b505091505060006040518083038185875af1925050501561267557837f33e13ecb54c3076d8e8bb8c2881800a4d972b792045ffae98fdf46df365fed7560405160405180910390a26113a1565b837f526441bb6c1aba3c9a4a6ca1d6545da9c2333c8c48343ef398eb858d72b7923660405160405180910390a260038301805460ff1916600217905550505050565b600554600090819060a060020a900460ff16156126d357600080fd5b6126db612727565b15156126f1576126ea83612bab565b9150610d17565b50600054600160a060020a031661270783612bab565b91508115610d1757610d17816127cf565b600554600160a060020a031690565b6002546000908190600160a060020a03161515612747576000915061123a565b600254600160a060020a03166359b804aa6040518163ffffffff1660e060020a028152600401602060405180830381600087803b151561278657600080fd5b5af1151561279357600080fd5b50505060405180519050905080600160a060020a031630600160a060020a0316141580156127c95750600160a060020a03811615155b91505090565b60008054600160a060020a033081169163e20056e69185911660405160e060020a63ffffffff8516028152600160a060020a03928316600482015291166024820152604401600060405180830381600087803b151561282d57600080fd5b5af1151561283a57600080fd5b505050612845612c3c565b9050600160a060020a038116156128b95780600160a060020a0316634ef5129d308460405160e060020a63ffffffff8516028152600160a060020a03928316600482015291166024820152604401600060405180830381600087803b15156128ac57600080fd5b5af11515611f0d57600080fd5b5050565b60015460009033600160a060020a039081169116146128de5750600061171b565b600154600054600160a060020a0391821691167f8be0079c531659141344cd1fd0a4f28419497f9722a3daafe3b4186f6b6457e060405160405180910390a3506001805460008054600160a060020a0319908116600160a060020a0384161790915516815590565b6000805433600160a060020a0390811691161415610cd957600160a060020a038216151561297657506000610cd9565b5060018054600160a060020a038316600160a060020a0319909116178155919050565b600160a060020a03811615156129ae57600080fd5b30600160a060020a031663e20056e6600960018154811015156129cd57fe5b600091825260209091200154600160a060020a03168360405160e060020a63ffffffff8516028152600160a060020a03928316600482015291166024820152604401600060405180830381600087803b1515612a2857600080fd5b5af115156113a157600080fd5b600083600160a060020a0381161515612a4d57600080fd5b600b54915060806040519081016040908152600160a060020a0387168252602080830187905281830186905260016060840152600085815260069091522081518154600160a060020a031916600160a060020a039190911617815560208201518160010155604082015181600201908051612acc929160200190612e04565b506060820151600391909101805460ff191660ff90921691909117905550600b80546001019055817fc0ba8fe4b176c1714197d43b9cc6bcf797a4a7461c5fe8d0ef6e184ae7601e5160405160405180910390a2509392505050565b6000612b32612df2565b6002915081604051805910612b445750595b908082528060200260200182016040525090508381600081518110612b6557fe5b600160a060020a039092166020928302909101909101528281600181518110612b8a57fe5b600160a060020a039092166020928302909101909101526113a18183612c99565b6000805433600160a060020a0390811691161415610cd957600160a060020a0382161515612bdb57506000610cd9565b600054600160a060020a0380841691167f8be0079c531659141344cd1fd0a4f28419497f9722a3daafe3b4186f6b6457e060405160405180910390a35060008054600160a060020a038316600160a060020a03199091161790556001919050565b600254600090600160a060020a0316635724e81f6040518163ffffffff1660e060020a028152600401602060405180830381600087803b1515612c7e57600080fd5b5af11515612c8b57600080fd5b505050604051805191505090565b60008251826032821180612cac57508181115b80612cb5575080155b80612cbe575081155b15612cc857600080fd5b600a5415612cd557600080fd5b6000612ce2600982612dc9565b50600092505b8451831015612da95760086000868581518110612d0157fe5b90602001906020020151600160a060020a0316815260208101919091526040016000205460ff1680612d4f5750848381518110612d3a57fe5b90602001906020020151600160a060020a0316155b15612d5957600080fd5b600160086000878681518110612d6b57fe5b90602001906020020151600160a060020a031681526020810191909152604001600020805460ff191691151591909117905560019290920191612ce8565b6009858051612dbc929160200190612e7e565b505050600a919091555050565b815481835581811511612ded57600083815260209020612ded918101908301612ee1565b505050565b60206040519081016040526000815290565b828054600181600116156101000203166002900490600052602060002090601f016020900481019282601f10612e4557805160ff1916838001178555612e72565b82800160010185558215612e72579182015b82811115612e72578251825591602001919060010190612e57565b5061123a929150612ee1565b828054828255906000526020600020908101928215612ed5579160200282015b82811115612ed55782518254600160a060020a031916600160a060020a039190911617825560209290920191600190910190612e9e565b5061123a929150612efb565b61171b91905b8082111561123a5760008155600101612ee7565b61171b91905b8082111561123a578054600160a060020a0319168155600101612f015600a165627a7a7230582011a1422fe7b4f72518d45adf88e7ac8832a5204df4ad2f4508f9d3af3029ca620029",
  "source": "/**\n* Copyright 20172018, LaborX PTY\n* Licensed under the AGPL Version 3 license.\n*/\n\npragma solidity ^0.4.21;\n\n\nimport \"solidity-shared-lib/contracts/Owned.sol\";\nimport \"./TwoFactorAuthenticationSig.sol\";\nimport \"./UserBase.sol\";\nimport \"./UserEmitter.sol\";\nimport \"./UserRegistry.sol\";\n\n\n/// @title Utilized as a library contract that receives delegated calls from frontend contracts\n/// and provides two-factor authentication confirmation for its functions. \n/// See UserInterface contract for centralized information about frontend contract interface.\ncontract UserBackend is Owned, UserBase, TwoFactorAuthenticationSig {\n\n    uint constant OK = 1;\n    uint constant MULTISIG_ADDED = 3;\n\n    bytes32 public version = \"1.1.0\";\n\n    /// @dev Guards and organizes 2FA access when it's turned on.\n    modifier onlyMultiowned(address _initiator) {\n        if ((!use2FA && msg.sender == _initiator) ||\n            msg.sender == address(this)\n        ) {\n            _;\n        }\n        else if (use2FA && msg.sender == _initiator) {\n            submitTransaction(address(this), msg.value, msg.data);\n            assembly {\n                mstore(0, 3) /// MULTISIG_ADDED\n                return(0, 32)\n            }\n        }\n    }\n\n    modifier onlyVerified(address _initiator, bytes32 _message, uint8 _v, bytes32 _r, bytes32 _s) {\n        if ((!use2FA && msg.sender == _initiator) ||\n            msg.sender == address(this)\n        ) {\n            _;\n        }\n        else if (use2FA &&\n                msg.sender == _initiator &&\n                getOracle() == ecrecover(\n                    keccak256(\"\\x19Ethereum Signed Message:\\n32\", _message), \n                    _v, \n                    _r, \n                    _s\n        )) {\n            _;\n        }\n    }\n\n    /// @dev Guards functions against invocation when 2FA is enabled\n    modifier only2FADisabled {\n        require(!use2FA);\n        _;\n    }\n\n    /// @dev Guards functions call only for recovery address\n    modifier onlyRecoveryContract {\n        if (recoveryContract == msg.sender) {\n            _;\n        }\n    }\n\n    /// @dev Guards functions call only for issuer address\n    modifier onlyIssuer {\n        if (issuer == msg.sender) {\n            _;\n        }\n    }\n\n    /// @dev Guards functions against invocation not from delegatecall\n    modifier onlyCall {\n        require(_allowDelegateCall());\n        _;\n    }\n\n    /// @notice Initializes frontend contract with oracle and 2FA flag.\n    /// Should be invoked by an issuer and before any other actions.\n    /// Should be called only through delegatecall.\n    /// @param _oracle oracle address for 2FA mode\n    /// @param _enable2FA if true enables 2FA mode, false - keep it turned off\n    /// @return result of an operation\n    function init(address _oracle, bool _enable2FA)\n    onlyCall\n    onlyIssuer\n    external\n    returns (uint)\n    {\n        _init(contractOwner, _oracle);\n        this.set2FA(_enable2FA);\n        return OK;\n    }\n\n    /// @notice Changes status of 2FA mode.\n    /// 2FA protected.\n    /// Should only be invoked by contract owner.\n    /// Should be called only through delegatecall.\n    /// @param _enabled if true enables 2FA mode, false - turns it off\n    /// @return result of an operation\n    function set2FA(bool _enabled)\n    onlyCall\n    onlyMultiowned(contractOwner)\n    external\n    returns (uint) \n    {\n        require(getOracle() != 0x0);\n\n        if (use2FA != _enabled) {\n            use2FA = _enabled;\n            UserEmitter(this).emitUser2FAChanged(contractOwner, address(this), getUserProxy(), _enabled);\n        }\n        return OK;\n    }\n\n    /// @notice Updates user proxy contract\n    /// 2FA protected.\n    /// Should only be invoked by contract owner.\n    /// Should be called only through delegatecall.\n    /// @param _userProxy new user proxy contract address\n    /// @return result of an operation\n    function setUserProxy(UserProxy _userProxy) \n    onlyCall\n    onlyMultiowned(contractOwner)\n    public \n    returns (uint) \n    {\n        userProxy = _userProxy;\n        return OK;\n    }\n\n    /// @notice Gets associated user proxy address\n    /// @return address of user proxy\n    function getUserProxy() \n    public \n    view \n    returns (address) \n    {\n        return userProxy;\n    }\n\n    /// @notice Updates address of an oracle\n    /// 2FA protected.\n    /// Should only be invoked by contract owner.\n    /// Should be called only through delegatecall.\n    /// @param _oracle new oracle address\n    /// @return result of an operation\n    function setOracle(address _oracle)\n    onlyCall\n    onlyMultiowned(contractOwner)\n    external\n    returns (uint)\n    {\n        _setOracle(_oracle);\n        return OK;\n    }\n\n    /// @notice Updates address of backend provider\n    /// Should be invoked by an issuer.\n    /// Should be called only through delegatecall.\n    /// @param _newBackendProvider address of a new backend provider contract\n    /// @return result of an operation    \n    function updateBackendProvider(address _newBackendProvider)\n    onlyCall\n    onlyIssuer\n    external\n    returns (uint) \n    {\n        require(_newBackendProvider != 0x0);\n\n        backendProvider = UserBackendProviderInterface(_newBackendProvider);\n        return OK;\n    }\n\n    /// @notice Updates recovery address\n    /// 2FA protected.\n    /// Should only be invoked by contract owner.\n    /// Should be called only through delegatecall.\n    /// @param _recoveryContract new recovery address\n    /// @return result of an operation\n    function setRecoveryContract(address _recoveryContract) \n    onlyCall\n    onlyMultiowned(contractOwner)\n    public \n    returns (uint) \n    {\n        require(_recoveryContract != 0x0);\n\n        recoveryContract = _recoveryContract;\n        return OK;\n    }\n\n    /// @notice Gets recovery address of a contract\n    /// @return recovery address\n    function getRecoveryContract()\n    public\n    view\n    returns (address)\n    {\n        return recoveryContract;\n    }\n\n    /// @notice Performs user recovery (change of contract owner by any reason)\n    /// Should only be invoked by recovery address.\n    /// Should be called only through delegatecall.\n    /// @param _newAddress new contract owner passed by recovery\n    /// @return result of an operation\n    function recoverUser(address _newAddress) \n    onlyCall\n    onlyRecoveryContract\n    public\n    returns (uint) \n    {\n        require(_newAddress != 0x0);\n\n        address _oldContractOwner = contractOwner;\n        contractOwner = _newAddress;\n        _userOwnershipChanged(_oldContractOwner);\n\n        return OK;\n    }\n\n    /// @notice Forwards invocations to a user proxy address\n    /// 2FA protected.\n    /// Should only be invoked by contract owner.\n    /// Should be called only through delegatecall.\n    /// @param _destination invocation target\n    /// @param _data encoded data that will passed to _destination\n    /// @param _value amount of Ether passed with call\n    /// @param _throwOnFailedCall if true then revert on unsuccessful call, silently fail otherwise\n    /// @return first 32 bytes of a call result\n    function forward(\n        address _destination,\n        bytes _data,\n        uint _value,\n        bool _throwOnFailedCall\n    )\n    onlyCall\n    onlyMultiowned(contractOwner)\n    public\n    returns (bytes32) \n    {\n        return userProxy.forward(_destination, _data, _value, _throwOnFailedCall);\n    }\n\n    function forwardWithVRS(\n        address _destination,\n        bytes _data,\n        uint _value,\n        bool _throwOnFailedCall,\n        bytes _pass,\n        uint8 _v,\n        bytes32 _r,\n        bytes32 _s\n    )\n    onlyCall\n    onlyVerified(contractOwner, keccak256(_pass, msg.sender, _destination, _data, _value), _v, _r, _s)\n    public\n    returns (bytes32)\n    {\n        return userProxy.forward(_destination, _data, _value, _throwOnFailedCall);\n    }\n\n    /// @notice Transfers contract ownership to the other owner\n    /// 2FA should be disabled.\n    /// Could be called through delegatecall and also for UserBackend.\n    /// Allowed only for a contract owner.\n    /// @param _newOwner new owner of a contract\n    /// @return true if owner change is successful, false otherwise\n    function transferOwnership(address _newOwner) \n    only2FADisabled\n    public \n    returns (bool _result) \n    {\n        if (!_allowDelegateCall()) {\n            return super.transferOwnership(_newOwner);\n        } \n\n        address _oldContractOwner = contractOwner;\n        _result = super.transferOwnership(_newOwner);\n        if (_result) {\n            _userOwnershipChanged(_oldContractOwner);\n        }\n\n        return _result;\n    }\n\n    /// @notice Prepares ownership pass.\n    /// 2FA should be disabled.\n    /// Could be called through delegatecall and also for UserBackend.\n    /// Allowed only for a contract owner.\n    /// @param _to new owner of a contract\n    /// @return true when successful, false otherwise\n    function changeContractOwnership(address _to)\n    only2FADisabled\n    public\n    returns (bool)\n    {\n        return super.changeContractOwnership(_to);\n    }\n\n    /// @notice Finalize ownership pass.\n    /// 2FA should be disabled.\n    /// Could be called through delegatecall and also for UserBackend.\n    /// Allowed only for a contract owner.\n    /// @return true when owner change is successful, false otherwise\n    function claimContractOwnership()\n    only2FADisabled\n    public\n    returns (bool _result)\n    {\n        if (!_allowDelegateCall()) {\n            return super.claimContractOwnership();\n        }\n\n        address _oldContractOwner = contractOwner;\n        _result = super.claimContractOwnership();\n        if (_result) {\n            _userOwnershipChanged(_oldContractOwner);\n        }\n\n        return _result;\n    }\n\n    /* INTERNAL */\n\n    function _allowDelegateCall() private view returns (bool) {\n        // make sure this is used by delegatecall\n        if (address(backendProvider) == 0x0) {\n            return false;\n        }\n\n        address _backend = backendProvider.getUserBackend();\n        return address(this) != _backend && _backend != 0x0; \n    }\n\n    function _getUserRegistry() private view returns (UserRegistry) {\n        return UserRegistry(backendProvider.getUserRegistry());\n    }\n\n    function _userOwnershipChanged(address _oldContractOwner) private {\n        this.replaceOwner(_oldContractOwner, contractOwner);\n\n        UserRegistry _userRegistry = _getUserRegistry();\n        if (address(_userRegistry) != 0x0) {\n            _userRegistry.userOwnershipChanged(this, _oldContractOwner);\n        }\n    }\n}",
  "sourcePath": "solidity-user-lib/contracts/UserBackend.sol",
  "compiler": {
    "name": "solc",
    "version": "0.4.21+commit.dfe3193c.Emscripten.clang"
  },
  "schemaVersion": "2.0.0",
  "updatedAt": "2018-08-03T10:01:31.051Z"
}