{
  "contractName": "UserBackendProvider",
  "abi": [
    {
      "constant": false,
      "inputs": [
        {
          "name": "_roles2Library",
          "type": "address"
        }
      ],
      "name": "setRoles2Library",
      "outputs": [
        {
          "name": "",
          "type": "uint256"
        }
      ],
      "payable": false,
      "stateMutability": "nonpayable",
      "type": "function"
    },
    {
      "inputs": [
        {
          "name": "_roles2Library",
          "type": "address"
        }
      ],
      "payable": false,
      "stateMutability": "nonpayable",
      "type": "constructor"
    },
    {
      "anonymous": false,
      "inputs": [
        {
          "indexed": false,
          "name": "code",
          "type": "address"
        },
        {
          "indexed": false,
          "name": "sender",
          "type": "address"
        },
        {
          "indexed": false,
          "name": "sig",
          "type": "bytes4"
        }
      ],
      "name": "AuthFailedError",
      "type": "event"
    },
    {
      "constant": true,
      "inputs": [],
      "name": "getUserBackend",
      "outputs": [
        {
          "name": "",
          "type": "address"
        }
      ],
      "payable": false,
      "stateMutability": "view",
      "type": "function"
    },
    {
      "constant": false,
      "inputs": [
        {
          "name": "_userBackend",
          "type": "address"
        }
      ],
      "name": "setUserBackend",
      "outputs": [
        {
          "name": "",
          "type": "uint256"
        }
      ],
      "payable": false,
      "stateMutability": "nonpayable",
      "type": "function"
    },
    {
      "constant": true,
      "inputs": [],
      "name": "getUserRegistry",
      "outputs": [
        {
          "name": "",
          "type": "address"
        }
      ],
      "payable": false,
      "stateMutability": "view",
      "type": "function"
    },
    {
      "constant": false,
      "inputs": [
        {
          "name": "_userRegistry",
          "type": "address"
        }
      ],
      "name": "setUserRegistry",
      "outputs": [
        {
          "name": "",
          "type": "uint256"
        }
      ],
      "payable": false,
      "stateMutability": "nonpayable",
      "type": "function"
    }
  ],
  "bytecode": "0x6060604052341561000f57600080fd5b60405160208061050a833981016040528080519150819050600160a060020a038116151561003c57600080fd5b60008054600160a060020a03909216600160a060020a03199092169190911790555061049d8061006d6000396000f30060606040526004361061006c5763ffffffff7c01000000000000000000000000000000000000000000000000000000006000350416632637cd7d81146100715780635724e81f146100a257806359b804aa146100d1578063b0d5451b146100e4578063ff1ad72d14610103575b600080fd5b341561007c57600080fd5b610090600160a060020a0360043516610122565b60405190815260200160405180910390f35b34156100ad57600080fd5b6100b56101e0565b604051600160a060020a03909116815260200160405180910390f35b34156100dc57600080fd5b6100b56101ef565b34156100ef57600080fd5b610090600160a060020a03600435166101fe565b341561010e57600080fd5b610090600160a060020a03600435166102bd565b600061013a33600035600160e060020a03191661038f565b15156101af577f5133a133185f1023427a2e90f18506b27db994977ce0c0faafd514a7dd109ae03033600035600160e060020a031916604051600160a060020a039384168152919092166020820152600160e060020a03199091166040808301919091526060909101905180910390a16101db565b506000805473ffffffffffffffffffffffffffffffffffffffff1916600160a060020a03831617905560015b919050565b600254600160a060020a031690565b600154600160a060020a031690565b600061021633600035600160e060020a03191661038f565b151561028b577f5133a133185f1023427a2e90f18506b27db994977ce0c0faafd514a7dd109ae03033600035600160e060020a031916604051600160a060020a039384168152919092166020820152600160e060020a03199091166040808301919091526060909101905180910390a16101db565b5060028054600160a060020a03831673ffffffffffffffffffffffffffffffffffffffff199091161790556001919050565b60006102d533600035600160e060020a03191661038f565b151561034a577f5133a133185f1023427a2e90f18506b27db994977ce0c0faafd514a7dd109ae03033600035600160e060020a031916604051600160a060020a039384168152919092166020820152600160e060020a03199091166040808301919091526060909101905180910390a16101db565b600160a060020a038216151561035f57600080fd5b5060018054600160a060020a03831673ffffffffffffffffffffffffffffffffffffffff19909116178155919050565b600030600160a060020a031683600160a060020a031614156103b35750600161046b565b600054600160a060020a031615156103cd5750600061046b565b600054600160a060020a031663b70096138430856040517c010000000000000000000000000000000000000000000000000000000063ffffffff8616028152600160a060020a039384166004820152919092166024820152600160e060020a03199091166044820152606401602060405180830381600087803b151561045257600080fd5b5af1151561045f57600080fd5b50505060405180519150505b929150505600a165627a7a72305820049376810800d360551adb4591b4c9cbec8ea0b6ae6f3ec44b9819ea38f5b3a10029",
  "source": "/**\n* Copyright 2017–2018, LaborX PTY\n* Licensed under the AGPL Version 3 license.\n*/\n\npragma solidity ^0.4.21;\n\n\nimport \"solidity-roles-lib/contracts/Roles2LibraryAdapter.sol\";\n\n\n/// @title TODO:\ncontract UserBackendProvider is Roles2LibraryAdapter {\n\n    uint constant OK = 1;\n\n    /// @dev TODO:\n    address private userBackend;\n    address private userRegistry;\n\n    function UserBackendProvider(address _roles2Library) Roles2LibraryAdapter(_roles2Library) public {\n    }\n\n    /// @notice TODO:\n    function getUserBackend() \n    public \n    view \n    returns (address) \n    {\n        return userBackend;\n    }\n\n    /// @notice TODO:\n    function setUserBackend(address _userBackend)\n    external\n    auth\n    returns (uint)\n    {\n        require(_userBackend != 0x0);\n\n        userBackend = _userBackend;\n        return OK;\n    }\n\n    function getUserRegistry()\n    public\n    view\n    returns (address)\n    {\n        return userRegistry;\n    }\n\n    function setUserRegistry(address _userRegistry)\n    external\n    auth\n    returns (uint)\n    {\n        userRegistry = _userRegistry;\n        return OK;\n    }\n}",
  "sourcePath": "solidity-user-lib/contracts/UserBackendProvider.sol",
  "compiler": {
    "name": "solc",
    "version": "0.4.21+commit.dfe3193c.Emscripten.clang"
  },
  "schemaVersion": "2.0.0",
  "updatedAt": "2018-07-20T10:33:35.812Z"
}