{
  "contractName": "WETH",
  "abi": [
    {
      "constant": true,
      "inputs": [],
      "name": "name",
      "outputs": [
        {
          "name": "",
          "type": "string"
        }
      ],
      "payable": false,
      "stateMutability": "view",
      "type": "function"
    },
    {
      "constant": false,
      "inputs": [
        {
          "name": "_spender",
          "type": "address"
        },
        {
          "name": "_value",
          "type": "uint256"
        }
      ],
      "name": "approve",
      "outputs": [
        {
          "name": "success",
          "type": "bool"
        }
      ],
      "payable": false,
      "stateMutability": "nonpayable",
      "type": "function"
    },
    {
      "constant": true,
      "inputs": [],
      "name": "totalSupply",
      "outputs": [
        {
          "name": "",
          "type": "uint256"
        }
      ],
      "payable": false,
      "stateMutability": "view",
      "type": "function"
    },
    {
      "constant": false,
      "inputs": [
        {
          "name": "_from",
          "type": "address"
        },
        {
          "name": "_to",
          "type": "address"
        },
        {
          "name": "_value",
          "type": "uint256"
        }
      ],
      "name": "transferFrom",
      "outputs": [
        {
          "name": "success",
          "type": "bool"
        }
      ],
      "payable": false,
      "stateMutability": "nonpayable",
      "type": "function"
    },
    {
      "constant": true,
      "inputs": [
        {
          "name": "",
          "type": "address"
        }
      ],
      "name": "balances",
      "outputs": [
        {
          "name": "",
          "type": "uint256"
        }
      ],
      "payable": false,
      "stateMutability": "view",
      "type": "function"
    },
    {
      "constant": true,
      "inputs": [],
      "name": "decimals",
      "outputs": [
        {
          "name": "",
          "type": "uint8"
        }
      ],
      "payable": false,
      "stateMutability": "view",
      "type": "function"
    },
    {
      "constant": false,
      "inputs": [
        {
          "name": "_to",
          "type": "address"
        },
        {
          "name": "_amount",
          "type": "uint256"
        }
      ],
      "name": "mint",
      "outputs": [
        {
          "name": "",
          "type": "bool"
        }
      ],
      "payable": false,
      "stateMutability": "nonpayable",
      "type": "function"
    },
    {
      "constant": true,
      "inputs": [
        {
          "name": "",
          "type": "address"
        },
        {
          "name": "",
          "type": "address"
        }
      ],
      "name": "allowed",
      "outputs": [
        {
          "name": "",
          "type": "uint256"
        }
      ],
      "payable": false,
      "stateMutability": "view",
      "type": "function"
    },
    {
      "constant": true,
      "inputs": [
        {
          "name": "_owner",
          "type": "address"
        }
      ],
      "name": "balanceOf",
      "outputs": [
        {
          "name": "balance",
          "type": "uint256"
        }
      ],
      "payable": false,
      "stateMutability": "view",
      "type": "function"
    },
    {
      "constant": true,
      "inputs": [],
      "name": "owner",
      "outputs": [
        {
          "name": "",
          "type": "address"
        }
      ],
      "payable": false,
      "stateMutability": "view",
      "type": "function"
    },
    {
      "constant": true,
      "inputs": [],
      "name": "symbol",
      "outputs": [
        {
          "name": "",
          "type": "string"
        }
      ],
      "payable": false,
      "stateMutability": "view",
      "type": "function"
    },
    {
      "constant": false,
      "inputs": [
        {
          "name": "_who",
          "type": "address"
        },
        {
          "name": "_value",
          "type": "uint256"
        }
      ],
      "name": "burn",
      "outputs": [],
      "payable": false,
      "stateMutability": "nonpayable",
      "type": "function"
    },
    {
      "constant": false,
      "inputs": [
        {
          "name": "_to",
          "type": "address"
        },
        {
          "name": "_value",
          "type": "uint256"
        }
      ],
      "name": "transfer",
      "outputs": [
        {
          "name": "success",
          "type": "bool"
        }
      ],
      "payable": false,
      "stateMutability": "nonpayable",
      "type": "function"
    },
    {
      "constant": false,
      "inputs": [
        {
          "name": "_value",
          "type": "uint256"
        },
        {
          "name": "externalAddress",
          "type": "string"
        }
      ],
      "name": "withdrawBurn",
      "outputs": [],
      "payable": false,
      "stateMutability": "nonpayable",
      "type": "function"
    },
    {
      "constant": true,
      "inputs": [
        {
          "name": "_owner",
          "type": "address"
        },
        {
          "name": "_spender",
          "type": "address"
        }
      ],
      "name": "allowance",
      "outputs": [
        {
          "name": "remaining",
          "type": "uint256"
        }
      ],
      "payable": false,
      "stateMutability": "view",
      "type": "function"
    },
    {
      "constant": false,
      "inputs": [
        {
          "name": "newOwner",
          "type": "address"
        }
      ],
      "name": "transferOwnership",
      "outputs": [],
      "payable": false,
      "stateMutability": "nonpayable",
      "type": "function"
    },
    {
      "inputs": [],
      "payable": false,
      "stateMutability": "nonpayable",
      "type": "constructor"
    },
    {
      "payable": true,
      "stateMutability": "payable",
      "type": "fallback"
    },
    {
      "anonymous": false,
      "inputs": [
        {
          "indexed": true,
          "name": "dst",
          "type": "address"
        },
        {
          "indexed": false,
          "name": "wad",
          "type": "uint256"
        }
      ],
      "name": "Deposit",
      "type": "event"
    },
    {
      "anonymous": false,
      "inputs": [
        {
          "indexed": true,
          "name": "src",
          "type": "address"
        },
        {
          "indexed": false,
          "name": "wad",
          "type": "uint256"
        }
      ],
      "name": "Withdrawal",
      "type": "event"
    },
    {
      "anonymous": false,
      "inputs": [
        {
          "indexed": true,
          "name": "from",
          "type": "address"
        },
        {
          "indexed": false,
          "name": "value",
          "type": "uint256"
        }
      ],
      "name": "Burn",
      "type": "event"
    },
    {
      "anonymous": false,
      "inputs": [
        {
          "indexed": true,
          "name": "from",
          "type": "address"
        },
        {
          "indexed": false,
          "name": "value",
          "type": "uint256"
        },
        {
          "indexed": false,
          "name": "externalAddress",
          "type": "string"
        }
      ],
      "name": "WithdrawBurn",
      "type": "event"
    },
    {
      "anonymous": false,
      "inputs": [
        {
          "indexed": true,
          "name": "to",
          "type": "address"
        },
        {
          "indexed": false,
          "name": "amount",
          "type": "uint256"
        }
      ],
      "name": "Mint",
      "type": "event"
    },
    {
      "anonymous": false,
      "inputs": [
        {
          "indexed": true,
          "name": "_from",
          "type": "address"
        },
        {
          "indexed": true,
          "name": "_to",
          "type": "address"
        },
        {
          "indexed": false,
          "name": "_value",
          "type": "uint256"
        }
      ],
      "name": "Transfer",
      "type": "event"
    },
    {
      "anonymous": false,
      "inputs": [
        {
          "indexed": true,
          "name": "_owner",
          "type": "address"
        },
        {
          "indexed": true,
          "name": "_spender",
          "type": "address"
        },
        {
          "indexed": false,
          "name": "_value",
          "type": "uint256"
        }
      ],
      "name": "Approval",
      "type": "event"
    },
    {
      "constant": false,
      "inputs": [],
      "name": "deposit",
      "outputs": [],
      "payable": true,
      "stateMutability": "payable",
      "type": "function"
    },
    {
      "constant": false,
      "inputs": [
        {
          "name": "wad",
          "type": "uint256"
        }
      ],
      "name": "withdraw",
      "outputs": [],
      "payable": false,
      "stateMutability": "nonpayable",
      "type": "function"
    }
  ],
  "bytecode": "0x608060405234801561001057600080fd5b50604080518082018252600d81527f577261707065642045746865720000000000000000000000000000000000000060208083019182528351808501855260048082527f57455448000000000000000000000000000000000000000000000000000000008284015260008054600160a060020a03191633908117825581526002909352948220829055600182905583519194601293919286928692869286926100b992916100ea565b506005805460ff191660ff841617905580516100dc9060069060208401906100ea565b505050505050505050610185565b828054600181600116156101000203166002900490600052602060002090601f016020900481019282601f1061012b57805160ff1916838001178555610158565b82800160010185558215610158579182015b8281111561015857825182559160200191906001019061013d565b50610164929150610168565b5090565b61018291905b80821115610164576000815560010161016e565b90565b610c92806101946000396000f3006080604052600436106100fb5763ffffffff7c010000000000000000000000000000000000000000000000000000000060003504166306fdde038114610105578063095ea7b31461018f57806318160ddd146101c757806323b872dd146101ee57806327e235e3146102185780632e1a7d4d14610239578063313ce5671461025157806340c10f191461027c5780635c658165146102a057806370a08231146102c75780638da5cb5b146102e857806395d89b41146103195780639dc29fac1461032e578063a9059cbb14610352578063d0e30db0146100fb578063d9809c5214610376578063dd62ed3e146103d4578063f2fde38b146103fb575b61010361041c565b005b34801561011157600080fd5b5061011a610473565b6040805160208082528351818301528351919283929083019185019080838360005b8381101561015457818101518382015260200161013c565b50505050905090810190601f1680156101815780820380516001836020036101000a031916815260200191505b509250505060405180910390f35b34801561019b57600080fd5b506101b3600160a060020a0360043516602435610501565b604080519115158252519081900360200190f35b3480156101d357600080fd5b506101dc610567565b60408051918252519081900360200190f35b3480156101fa57600080fd5b506101b3600160a060020a036004358116906024351660443561056d565b34801561022457600080fd5b506101dc600160a060020a036004351661065f565b34801561024557600080fd5b50610103600435610671565b34801561025d57600080fd5b50610266610708565b6040805160ff9092168252519081900360200190f35b34801561028857600080fd5b506101b3600160a060020a0360043516602435610711565b3480156102ac57600080fd5b506101dc600160a060020a03600435811690602435166107f2565b3480156102d357600080fd5b506101dc600160a060020a036004351661080f565b3480156102f457600080fd5b506102fd61082a565b60408051600160a060020a039092168252519081900360200190f35b34801561032557600080fd5b5061011a610839565b34801561033a57600080fd5b50610103600160a060020a0360043516602435610894565b34801561035e57600080fd5b506101b3600160a060020a036004351660243561099a565b34801561038257600080fd5b5060408051602060046024803582810135601f8101859004850286018501909652858552610103958335953695604494919390910191908190840183828082843750949750610a129650505050505050565b3480156103e057600080fd5b506101dc600160a060020a0360043581169060243516610ba4565b34801561040757600080fd5b50610103600160a060020a0360043516610bcf565b336000818152600260209081526040918290208054349081019091556001805482019055825190815291517fe1fffcc4923d04b559f4d29a8bfc6cda04eb5b0d3c460751c2402c5c5cc9109c9281900390910190a2565b6004805460408051602060026001851615610100026000190190941693909304601f810184900484028201840190925281815292918301828280156104f95780601f106104ce576101008083540402835291602001916104f9565b820191906000526020600020905b8154815290600101906020018083116104dc57829003601f168201915b505050505081565b336000818152600360209081526040808320600160a060020a038716808552908352818420869055815186815291519394909390927f8c5be1e5ebec7d5bd14f71427d1e84f3dd0314c0f7b2291e5b200ac8c7c3b925928290030190a350600192915050565b60015481565b600160a060020a0383166000818152600360209081526040808320338452825280832054938352600290915281205490919083118015906105ae5750828110155b15156105b957600080fd5b600160a060020a038085166000908152600260205260408082208054870190559187168152208054849003905560001981101561061b57600160a060020a03851660009081526003602090815260408083203384529091529020805484900390555b83600160a060020a031685600160a060020a0316600080516020610c47833981519152856040518082815260200191505060405180910390a3506001949350505050565b60026020526000908152604090205481565b8061067b3361080f565b101561068657600080fd5b33600081815260026020526040808220805485900390556001805485900390555183156108fc0291849190818181858888f193505050501580156106ce573d6000803e3d6000fd5b5060408051828152905133917f7fcf532c15f0a6db0bd6d0e038bea71d30d808c7d98cb3bf7268a95bf5081b65919081900360200190a250565b60055460ff1681565b60008054600160a060020a0316331461072957600080fd5b60015461073c908363ffffffff610c2116565b600155600160a060020a038316600090815260026020526040902054610768908363ffffffff610c2116565b600160a060020a038416600081815260026020908152604091829020939093558051858152905191927f0f6798a560793a54c3bcfe86a93cde1e73087d944c0ea20544137d412139688592918290030190a2604080518381529051600160a060020a03851691600091600080516020610c478339815191529181900360200190a350600192915050565b600360209081526000928352604080842090915290825290205481565b600160a060020a031660009081526002602052604090205490565b600054600160a060020a031681565b6006805460408051602060026001851615610100026000190190941693909304601f810184900484028201840190925281815292918301828280156104f95780601f106104ce576101008083540402835291602001916104f9565b600054600160a060020a031633146108ab57600080fd5b600160a060020a0382166000908152600260205260409020548111156108d057600080fd5b600160a060020a0382166000908152600260205260409020546108f9908263ffffffff610c3416565b600160a060020a038316600090815260026020526040902055600154610925908263ffffffff610c3416565b600155604080518281529051600160a060020a038416917fcc16f5dbb4873280815c1ee09dbd06736cffcc184412cf7a71a0fdb75d397ca5919081900360200190a2604080518281529051600091600160a060020a03851691600080516020610c478339815191529181900360200190a35050565b336000908152600260205260408120548211156109b657600080fd5b33600081815260026020908152604080832080548790039055600160a060020a0387168084529281902080548701905580518681529051929392600080516020610c47833981519152929181900390910190a350600192915050565b33600081815260026020526040902054831115610a2e57600080fd5b600160a060020a038116600090815260026020526040902054610a57908463ffffffff610c3416565b600160a060020a038216600090815260026020526040902055600154610a83908463ffffffff610c3416565b600155604080518481529051600160a060020a038316917fcc16f5dbb4873280815c1ee09dbd06736cffcc184412cf7a71a0fdb75d397ca5919081900360200190a280600160a060020a03167f3ec65af752d43e6114d775a2e90b69804505448ec3f1b5e0e5aeab3b4781dd6684846040518083815260200180602001828103825283818151815260200191508051906020019080838360005b83811015610b35578181015183820152602001610b1d565b50505050905090810190601f168015610b625780820380516001836020036101000a031916815260200191505b50935050505060405180910390a2604080518481529051600091600160a060020a03841691600080516020610c478339815191529181900360200190a3505050565b600160a060020a03918216600090815260036020908152604080832093909416825291909152205490565b600054600160a060020a03163314610be657600080fd5b600160a060020a03811615610c1e576000805473ffffffffffffffffffffffffffffffffffffffff1916600160a060020a0383161790555b50565b81810182811015610c2e57fe5b92915050565b600082821115610c4057fe5b509003905600ddf252ad1be2c89b69c2b068fc378daa952ba7f163c4a11628f55a4df523b3efa165627a7a72305820b1989d073a1536f54a45adb5daaa78631e1e5e7b3964ed00bb2df09ded6979420029",
  "source": "pragma solidity ^0.4.18;\n\n\nimport \"./MintableAndBurnableToken.sol\";\n\ncontract WETH is MintableAndBurnableToken {\n  event  Deposit(address indexed dst, uint wad);\n  event  Withdrawal(address indexed src, uint wad);\n\n  function WETH()\n    MintableAndBurnableToken(0, 'Wrapped Ether', 18, 'WETH') { }\n\n  function() public payable {\n      deposit();\n  }\n\n  function deposit() public payable {\n      balances[msg.sender] += msg.value;\n      totalSupply += msg.value;\n      emit Deposit(msg.sender, msg.value);\n  }\n\n  function withdraw(uint wad) public {\n      require(balanceOf(msg.sender) >= wad);\n      balances[msg.sender] -= wad;\n      totalSupply -= wad;\n      msg.sender.transfer(wad);\n      emit Withdrawal(msg.sender, wad);\n  }\n}\n",
  "sourcePath": "/home/mdkardaev/exchange/laborx.exchange.contracts/contracts/eip20/WETH.sol",
  "compiler": {
    "name": "solc",
    "version": "0.4.24+commit.e67f0147.Emscripten.clang"
  },
  "schemaVersion": "2.0.0",
  "updatedAt": "2018-07-09T10:20:34.828Z"
}