{
  "contractName": "WrappedEtherToken",
  "abi": [
    {
      "constant": true,
      "inputs": [],
      "name": "name",
      "outputs": [
        {
          "name": "",
          "type": "string"
        }
      ],
      "payable": false,
      "stateMutability": "view",
      "type": "function"
    },
    {
      "constant": false,
      "inputs": [
        {
          "name": "_spender",
          "type": "address"
        },
        {
          "name": "_value",
          "type": "uint256"
        }
      ],
      "name": "approve",
      "outputs": [
        {
          "name": "success",
          "type": "bool"
        }
      ],
      "payable": false,
      "stateMutability": "nonpayable",
      "type": "function"
    },
    {
      "constant": true,
      "inputs": [],
      "name": "totalSupply",
      "outputs": [
        {
          "name": "",
          "type": "uint256"
        }
      ],
      "payable": false,
      "stateMutability": "view",
      "type": "function"
    },
    {
      "constant": false,
      "inputs": [
        {
          "name": "_from",
          "type": "address"
        },
        {
          "name": "_to",
          "type": "address"
        },
        {
          "name": "_value",
          "type": "uint256"
        }
      ],
      "name": "transferFrom",
      "outputs": [
        {
          "name": "success",
          "type": "bool"
        }
      ],
      "payable": false,
      "stateMutability": "nonpayable",
      "type": "function"
    },
    {
      "constant": true,
      "inputs": [
        {
          "name": "",
          "type": "address"
        }
      ],
      "name": "balances",
      "outputs": [
        {
          "name": "",
          "type": "uint256"
        }
      ],
      "payable": false,
      "stateMutability": "view",
      "type": "function"
    },
    {
      "constant": true,
      "inputs": [],
      "name": "decimals",
      "outputs": [
        {
          "name": "",
          "type": "uint8"
        }
      ],
      "payable": false,
      "stateMutability": "view",
      "type": "function"
    },
    {
      "constant": false,
      "inputs": [
        {
          "name": "_to",
          "type": "address"
        },
        {
          "name": "_amount",
          "type": "uint256"
        }
      ],
      "name": "mint",
      "outputs": [
        {
          "name": "",
          "type": "bool"
        }
      ],
      "payable": false,
      "stateMutability": "nonpayable",
      "type": "function"
    },
    {
      "constant": true,
      "inputs": [
        {
          "name": "",
          "type": "address"
        },
        {
          "name": "",
          "type": "address"
        }
      ],
      "name": "allowed",
      "outputs": [
        {
          "name": "",
          "type": "uint256"
        }
      ],
      "payable": false,
      "stateMutability": "view",
      "type": "function"
    },
    {
      "constant": true,
      "inputs": [
        {
          "name": "_owner",
          "type": "address"
        }
      ],
      "name": "balanceOf",
      "outputs": [
        {
          "name": "balance",
          "type": "uint256"
        }
      ],
      "payable": false,
      "stateMutability": "view",
      "type": "function"
    },
    {
      "constant": true,
      "inputs": [],
      "name": "owner",
      "outputs": [
        {
          "name": "",
          "type": "address"
        }
      ],
      "payable": false,
      "stateMutability": "view",
      "type": "function"
    },
    {
      "constant": true,
      "inputs": [],
      "name": "symbol",
      "outputs": [
        {
          "name": "",
          "type": "string"
        }
      ],
      "payable": false,
      "stateMutability": "view",
      "type": "function"
    },
    {
      "constant": false,
      "inputs": [
        {
          "name": "_who",
          "type": "address"
        },
        {
          "name": "_value",
          "type": "uint256"
        }
      ],
      "name": "burn",
      "outputs": [],
      "payable": false,
      "stateMutability": "nonpayable",
      "type": "function"
    },
    {
      "constant": false,
      "inputs": [
        {
          "name": "_to",
          "type": "address"
        },
        {
          "name": "_value",
          "type": "uint256"
        }
      ],
      "name": "transfer",
      "outputs": [
        {
          "name": "success",
          "type": "bool"
        }
      ],
      "payable": false,
      "stateMutability": "nonpayable",
      "type": "function"
    },
    {
      "constant": false,
      "inputs": [
        {
          "name": "_value",
          "type": "uint256"
        },
        {
          "name": "externalAddress",
          "type": "string"
        }
      ],
      "name": "withdrawBurn",
      "outputs": [],
      "payable": false,
      "stateMutability": "nonpayable",
      "type": "function"
    },
    {
      "constant": true,
      "inputs": [
        {
          "name": "_owner",
          "type": "address"
        },
        {
          "name": "_spender",
          "type": "address"
        }
      ],
      "name": "allowance",
      "outputs": [
        {
          "name": "remaining",
          "type": "uint256"
        }
      ],
      "payable": false,
      "stateMutability": "view",
      "type": "function"
    },
    {
      "constant": false,
      "inputs": [
        {
          "name": "newOwner",
          "type": "address"
        }
      ],
      "name": "transferOwnership",
      "outputs": [],
      "payable": false,
      "stateMutability": "nonpayable",
      "type": "function"
    },
    {
      "inputs": [
        {
          "name": "_initialAmount",
          "type": "uint256"
        },
        {
          "name": "_tokenName",
          "type": "string"
        },
        {
          "name": "_decimalUnits",
          "type": "uint8"
        },
        {
          "name": "_tokenSymbol",
          "type": "string"
        }
      ],
      "payable": false,
      "stateMutability": "nonpayable",
      "type": "constructor"
    },
    {
      "payable": true,
      "stateMutability": "payable",
      "type": "fallback"
    },
    {
      "anonymous": false,
      "inputs": [
        {
          "indexed": true,
          "name": "dst",
          "type": "address"
        },
        {
          "indexed": false,
          "name": "wad",
          "type": "uint256"
        }
      ],
      "name": "Deposit",
      "type": "event"
    },
    {
      "anonymous": false,
      "inputs": [
        {
          "indexed": true,
          "name": "src",
          "type": "address"
        },
        {
          "indexed": false,
          "name": "wad",
          "type": "uint256"
        }
      ],
      "name": "Withdrawal",
      "type": "event"
    },
    {
      "anonymous": false,
      "inputs": [
        {
          "indexed": true,
          "name": "from",
          "type": "address"
        },
        {
          "indexed": false,
          "name": "value",
          "type": "uint256"
        }
      ],
      "name": "Burn",
      "type": "event"
    },
    {
      "anonymous": false,
      "inputs": [
        {
          "indexed": true,
          "name": "from",
          "type": "address"
        },
        {
          "indexed": false,
          "name": "value",
          "type": "uint256"
        },
        {
          "indexed": false,
          "name": "externalAddress",
          "type": "string"
        }
      ],
      "name": "WithdrawBurn",
      "type": "event"
    },
    {
      "anonymous": false,
      "inputs": [
        {
          "indexed": true,
          "name": "to",
          "type": "address"
        },
        {
          "indexed": false,
          "name": "amount",
          "type": "uint256"
        }
      ],
      "name": "Mint",
      "type": "event"
    },
    {
      "anonymous": false,
      "inputs": [
        {
          "indexed": true,
          "name": "_from",
          "type": "address"
        },
        {
          "indexed": true,
          "name": "_to",
          "type": "address"
        },
        {
          "indexed": false,
          "name": "_value",
          "type": "uint256"
        }
      ],
      "name": "Transfer",
      "type": "event"
    },
    {
      "anonymous": false,
      "inputs": [
        {
          "indexed": true,
          "name": "_owner",
          "type": "address"
        },
        {
          "indexed": true,
          "name": "_spender",
          "type": "address"
        },
        {
          "indexed": false,
          "name": "_value",
          "type": "uint256"
        }
      ],
      "name": "Approval",
      "type": "event"
    },
    {
      "constant": false,
      "inputs": [],
      "name": "deposit",
      "outputs": [],
      "payable": true,
      "stateMutability": "payable",
      "type": "function"
    },
    {
      "constant": false,
      "inputs": [
        {
          "name": "wad",
          "type": "uint256"
        }
      ],
      "name": "withdraw",
      "outputs": [],
      "payable": false,
      "stateMutability": "nonpayable",
      "type": "function"
    }
  ],
  "bytecode": "0x6060604052341561000f57600080fd5b604051610e2e380380610e2e83398101604052808051919060200180518201919060200180519190602001805160008054600160a060020a033316600160a060020a0319909116811782558152600260205260409020869055600186905590910190508383838383838383600483805161008d9291602001906100c2565b506005805460ff191660ff841617905560068180516100b09291602001906100c2565b5050505050505050505050505061015d565b828054600181600116156101000203166002900490600052602060002090601f016020900481019282601f1061010357805160ff1916838001178555610130565b82800160010185558215610130579182015b82811115610130578251825591602001919060010190610115565b5061013c929150610140565b5090565b61015a91905b8082111561013c5760008155600101610146565b90565b610cc28061016c6000396000f3006060604052600436106100fb5763ffffffff7c010000000000000000000000000000000000000000000000000000000060003504166306fdde038114610105578063095ea7b31461018f57806318160ddd146101c557806323b872dd146101ea57806327e235e3146102125780632e1a7d4d14610231578063313ce5671461024757806340c10f19146102705780635c6581651461029257806370a08231146102b75780638da5cb5b146102d657806395d89b41146103055780639dc29fac14610318578063a9059cbb1461033a578063d0e30db0146100fb578063d9809c521461035c578063dd62ed3e146103b2578063f2fde38b146103d7575b6101036103f6565b005b341561011057600080fd5b610118610454565b60405160208082528190810183818151815260200191508051906020019080838360005b8381101561015457808201518382015260200161013c565b50505050905090810190601f1680156101815780820380516001836020036101000a031916815260200191505b509250505060405180910390f35b341561019a57600080fd5b6101b1600160a060020a03600435166024356104f2565b604051901515815260200160405180910390f35b34156101d057600080fd5b6101d861055e565b60405190815260200160405180910390f35b34156101f557600080fd5b6101b1600160a060020a0360043581169060243516604435610564565b341561021d57600080fd5b6101d8600160a060020a0360043516610658565b341561023c57600080fd5b61010360043561066a565b341561025257600080fd5b61025a610710565b60405160ff909116815260200160405180910390f35b341561027b57600080fd5b6101b1600160a060020a0360043516602435610719565b341561029d57600080fd5b6101d8600160a060020a03600435811690602435166107fc565b34156102c257600080fd5b6101d8600160a060020a0360043516610819565b34156102e157600080fd5b6102e9610834565b604051600160a060020a03909116815260200160405180910390f35b341561031057600080fd5b610118610843565b341561032357600080fd5b610103600160a060020a03600435166024356108ae565b341561034557600080fd5b6101b1600160a060020a03600435166024356109b4565b341561036757600080fd5b610103600480359060446024803590810190830135806020601f82018190048102016040519081016040528181529291906020840183838082843750949650610a3695505050505050565b34156103bd57600080fd5b6101d8600160a060020a0360043581169060243516610bcd565b34156103e257600080fd5b610103600160a060020a0360043516610bf8565b600160a060020a0333166000818152600260205260409081902080543490810190915560018054820190557fe1fffcc4923d04b559f4d29a8bfc6cda04eb5b0d3c460751c2402c5c5cc9109c915190815260200160405180910390a2565b60048054600181600116156101000203166002900480601f0160208091040260200160405190810160405280929190818152602001828054600181600116156101000203166002900480156104ea5780601f106104bf576101008083540402835291602001916104ea565b820191906000526020600020905b8154815290600101906020018083116104cd57829003601f168201915b505050505081565b600160a060020a03338116600081815260036020908152604080832094871680845294909152808220859055909291907f8c5be1e5ebec7d5bd14f71427d1e84f3dd0314c0f7b2291e5b200ac8c7c3b9259085905190815260200160405180910390a350600192915050565b60015481565b600160a060020a0380841660008181526003602090815260408083203390951683529381528382205492825260029052918220548390108015906105a85750828110155b15156105b357600080fd5b600160a060020a038085166000908152600260205260408082208054870190559187168152208054849003905560001981101561061857600160a060020a03808616600090815260036020908152604080832033909416835292905220805484900390555b83600160a060020a031685600160a060020a0316600080516020610c778339815191528560405190815260200160405180910390a3506001949350505050565b60026020526000908152604090205481565b8061067433610819565b101561067f57600080fd5b600160a060020a033316600081815260026020526040908190208054849003905560018054849003905582156108fc0290839051600060405180830381858888f1935050505015156106d057600080fd5b33600160a060020a03167f7fcf532c15f0a6db0bd6d0e038bea71d30d808c7d98cb3bf7268a95bf5081b658260405190815260200160405180910390a250565b60055460ff1681565b6000805433600160a060020a0390811691161461073557600080fd5b600154610748908363ffffffff610c4e16565b600155600160a060020a038316600090815260026020526040902054610774908363ffffffff610c4e16565b600160a060020a0384166000818152600260205260409081902092909255907f0f6798a560793a54c3bcfe86a93cde1e73087d944c0ea20544137d41213968859084905190815260200160405180910390a2600160a060020a0383166000600080516020610c778339815191528460405190815260200160405180910390a350600192915050565b600360209081526000928352604080842090915290825290205481565b600160a060020a031660009081526002602052604090205490565b600054600160a060020a031681565b60068054600181600116156101000203166002900480601f0160208091040260200160405190810160405280929190818152602001828054600181600116156101000203166002900480156104ea5780601f106104bf576101008083540402835291602001916104ea565b60005433600160a060020a039081169116146108c957600080fd5b600160a060020a0382166000908152600260205260409020548111156108ee57600080fd5b600160a060020a038216600090815260026020526040902054610917908263ffffffff610c6416565b600160a060020a038316600090815260026020526040902055600154610943908263ffffffff610c6416565b600155600160a060020a0382167fcc16f5dbb4873280815c1ee09dbd06736cffcc184412cf7a71a0fdb75d397ca58260405190815260200160405180910390a26000600160a060020a038316600080516020610c778339815191528360405190815260200160405180910390a35050565b600160a060020a033316600090815260026020526040812054829010156109da57600080fd5b600160a060020a03338116600081815260026020526040808220805487900390559286168082529083902080548601905591600080516020610c778339815191529085905190815260200160405180910390a350600192915050565b33600160a060020a038116600090815260026020526040902054831115610a5c57600080fd5b600160a060020a038116600090815260026020526040902054610a85908463ffffffff610c6416565b600160a060020a038216600090815260026020526040902055600154610ab1908463ffffffff610c6416565b600155600160a060020a0381167fcc16f5dbb4873280815c1ee09dbd06736cffcc184412cf7a71a0fdb75d397ca58460405190815260200160405180910390a280600160a060020a03167f3ec65af752d43e6114d775a2e90b69804505448ec3f1b5e0e5aeab3b4781dd66848460405182815260406020820181815290820183818151815260200191508051906020019080838360005b83811015610b60578082015183820152602001610b48565b50505050905090810190601f168015610b8d5780820380516001836020036101000a031916815260200191505b50935050505060405180910390a26000600160a060020a038216600080516020610c778339815191528560405190815260200160405180910390a3505050565b600160a060020a03918216600090815260036020908152604080832093909416825291909152205490565b60005433600160a060020a03908116911614610c1357600080fd5b600160a060020a03811615610c4b576000805473ffffffffffffffffffffffffffffffffffffffff1916600160a060020a0383161790555b50565b600082820183811015610c5d57fe5b9392505050565b600082821115610c7057fe5b509003905600ddf252ad1be2c89b69c2b068fc378daa952ba7f163c4a11628f55a4df523b3efa165627a7a7230582084f18b82f49a41113c5b75fb3488e5c5c98811efd353f0055a05592b542aeddb0029",
  "source": "pragma solidity 0.4.21;\n\nimport \"./MintableAndBurnableToken.sol\";\n\n\ncontract WrappedEtherToken is MintableAndBurnableToken {\n\n    event Deposit(address indexed dst, uint wad);\n    event Withdrawal(address indexed src, uint wad);\n\n    function WrappedEtherToken(\n        uint256 _initialAmount,\n        string _tokenName,\n        uint8 _decimalUnits,\n        string _tokenSymbol\n    // solhint-disable-next-line visibility-modifier-order\n    ) MintableAndBurnableToken(\n        _initialAmount,\n        _tokenName,\n        _decimalUnits,\n        _tokenSymbol\n    ) public {\n    }\n\n    function() public payable {\n        deposit();\n    }\n\n    function deposit() public payable {\n        balances[msg.sender] += msg.value;\n        totalSupply += msg.value;\n        emit Deposit(msg.sender, msg.value);\n    }\n\n    function withdraw(uint wad) public {\n        require(balanceOf(msg.sender) >= wad);\n        balances[msg.sender] -= wad;\n        totalSupply -= wad;\n        msg.sender.transfer(wad);\n        emit Withdrawal(msg.sender, wad);\n    }\n}\n",
  "sourcePath": "/home/ipavlenko/Projects/Exchange/laborx.exchange/laborx.exchange.contracts/contracts/tokens/WrappedEtherToken.sol",
  "compiler": {
    "name": "solc",
    "version": "0.4.21+commit.dfe3193c.Emscripten.clang"
  },
  "schemaVersion": "2.0.0",
  "updatedAt": "2018-07-10T08:02:55.341Z"
}