{
  "contractName": "ZRXToken",
  "abi": [
    {
      "constant": true,
      "inputs": [],
      "name": "name",
      "outputs": [
        {
          "name": "",
          "type": "string"
        }
      ],
      "payable": false,
      "stateMutability": "view",
      "type": "function"
    },
    {
      "constant": false,
      "inputs": [
        {
          "name": "_spender",
          "type": "address"
        },
        {
          "name": "_value",
          "type": "uint256"
        }
      ],
      "name": "approve",
      "outputs": [
        {
          "name": "success",
          "type": "bool"
        }
      ],
      "payable": false,
      "stateMutability": "nonpayable",
      "type": "function"
    },
    {
      "constant": true,
      "inputs": [],
      "name": "totalSupply",
      "outputs": [
        {
          "name": "",
          "type": "uint256"
        }
      ],
      "payable": false,
      "stateMutability": "view",
      "type": "function"
    },
    {
      "constant": false,
      "inputs": [
        {
          "name": "_from",
          "type": "address"
        },
        {
          "name": "_to",
          "type": "address"
        },
        {
          "name": "_value",
          "type": "uint256"
        }
      ],
      "name": "transferFrom",
      "outputs": [
        {
          "name": "",
          "type": "bool"
        }
      ],
      "payable": false,
      "stateMutability": "nonpayable",
      "type": "function"
    },
    {
      "constant": true,
      "inputs": [
        {
          "name": "",
          "type": "address"
        }
      ],
      "name": "balances",
      "outputs": [
        {
          "name": "",
          "type": "uint256"
        }
      ],
      "payable": false,
      "stateMutability": "view",
      "type": "function"
    },
    {
      "constant": true,
      "inputs": [],
      "name": "decimals",
      "outputs": [
        {
          "name": "",
          "type": "uint8"
        }
      ],
      "payable": false,
      "stateMutability": "view",
      "type": "function"
    },
    {
      "constant": true,
      "inputs": [
        {
          "name": "",
          "type": "address"
        },
        {
          "name": "",
          "type": "address"
        }
      ],
      "name": "allowed",
      "outputs": [
        {
          "name": "",
          "type": "uint256"
        }
      ],
      "payable": false,
      "stateMutability": "view",
      "type": "function"
    },
    {
      "constant": true,
      "inputs": [
        {
          "name": "_owner",
          "type": "address"
        }
      ],
      "name": "balanceOf",
      "outputs": [
        {
          "name": "balance",
          "type": "uint256"
        }
      ],
      "payable": false,
      "stateMutability": "view",
      "type": "function"
    },
    {
      "constant": true,
      "inputs": [],
      "name": "symbol",
      "outputs": [
        {
          "name": "",
          "type": "string"
        }
      ],
      "payable": false,
      "stateMutability": "view",
      "type": "function"
    },
    {
      "constant": false,
      "inputs": [
        {
          "name": "_to",
          "type": "address"
        },
        {
          "name": "_value",
          "type": "uint256"
        }
      ],
      "name": "transfer",
      "outputs": [
        {
          "name": "success",
          "type": "bool"
        }
      ],
      "payable": false,
      "stateMutability": "nonpayable",
      "type": "function"
    },
    {
      "constant": true,
      "inputs": [
        {
          "name": "_owner",
          "type": "address"
        },
        {
          "name": "_spender",
          "type": "address"
        }
      ],
      "name": "allowance",
      "outputs": [
        {
          "name": "remaining",
          "type": "uint256"
        }
      ],
      "payable": false,
      "stateMutability": "view",
      "type": "function"
    },
    {
      "anonymous": false,
      "inputs": [
        {
          "indexed": true,
          "name": "_from",
          "type": "address"
        },
        {
          "indexed": true,
          "name": "_to",
          "type": "address"
        },
        {
          "indexed": false,
          "name": "_value",
          "type": "uint256"
        }
      ],
      "name": "Transfer",
      "type": "event"
    },
    {
      "anonymous": false,
      "inputs": [
        {
          "indexed": true,
          "name": "_owner",
          "type": "address"
        },
        {
          "indexed": true,
          "name": "_spender",
          "type": "address"
        },
        {
          "indexed": false,
          "name": "_value",
          "type": "uint256"
        }
      ],
      "name": "Approval",
      "type": "event"
    }
  ],
  "bytecode": "0x60606040526b033b2e3c9fd0803ce80000006040805190810160405280601181526020017f30782050726f746f636f6c20546f6b656e000000000000000000000000000000815250601260408051908101604090815260038083527f5a52580000000000000000000000000000000000000000000000000000000000602080850191909152600160a060020a033316600090815260019091529182208690559085905584908490849084908380516100bb9291602001906100ec565b506004805460ff191660ff841617905560058180516100de9291602001906100ec565b505050505050505050610187565b828054600181600116156101000203166002900490600052602060002090601f016020900481019282601f1061012d57805160ff191683800117855561015a565b8280016001018555821561015a579182015b8281111561015a57825182559160200191906001019061013f565b5061016692915061016a565b5090565b61018491905b808211156101665760008155600101610170565b90565b610690806101966000396000f3006060604052600436106100ae5763ffffffff7c010000000000000000000000000000000000000000000000000000000060003504166306fdde0381146100b3578063095ea7b31461013d57806318160ddd1461017357806323b872dd1461019857806327e235e3146101c0578063313ce567146101df5780635c6581651461020857806370a082311461022d57806395d89b411461024c578063a9059cbb1461025f578063dd62ed3e14610281575b600080fd5b34156100be57600080fd5b6100c66102a6565b60405160208082528190810183818151815260200191508051906020019080838360005b838110156101025780820151838201526020016100ea565b50505050905090810190601f16801561012f5780820380516001836020036101000a031916815260200191505b509250505060405180910390f35b341561014857600080fd5b61015f600160a060020a0360043516602435610344565b604051901515815260200160405180910390f35b341561017e57600080fd5b6101866103b0565b60405190815260200160405180910390f35b34156101a357600080fd5b61015f600160a060020a03600435811690602435166044356103b6565b34156101cb57600080fd5b610186600160a060020a03600435166104e7565b34156101ea57600080fd5b6101f26104f9565b60405160ff909116815260200160405180910390f35b341561021357600080fd5b610186600160a060020a0360043581169060243516610502565b341561023857600080fd5b610186600160a060020a036004351661051f565b341561025757600080fd5b6100c661053a565b341561026a57600080fd5b61015f600160a060020a03600435166024356105a5565b341561028c57600080fd5b610186600160a060020a0360043581169060243516610639565b60038054600181600116156101000203166002900480601f01602080910402602001604051908101604052809291908181526020018280546001816001161561010002031660029004801561033c5780601f106103115761010080835404028352916020019161033c565b820191906000526020600020905b81548152906001019060200180831161031f57829003601f168201915b505050505081565b600160a060020a03338116600081815260026020908152604080832094871680845294909152808220859055909291907f8c5be1e5ebec7d5bd14f71427d1e84f3dd0314c0f7b2291e5b200ac8c7c3b9259085905190815260200160405180910390a350600192915050565b60005481565b600160a060020a0380841660008181526002602090815260408083203390951683529381528382205492825260019052918220548390108015906103fa5750828110155b80156104205750600160a060020a03841660009081526001602052604090205483810110155b156104da57600160a060020a038085166000908152600160205260408082208054870190559187168152208054849003905560001981101561048a57600160a060020a03808616600090815260026020908152604080832033909416835292905220805484900390555b83600160a060020a031685600160a060020a03167fddf252ad1be2c89b69c2b068fc378daa952ba7f163c4a11628f55a4df523b3ef8560405190815260200160405180910390a3600191506104df565b600091505b509392505050565b60016020526000908152604090205481565b60045460ff1681565b600260209081526000928352604080842090915290825290205481565b600160a060020a031660009081526001602052604090205490565b60058054600181600116156101000203166002900480601f01602080910402602001604051908101604052809291908181526020018280546001816001161561010002031660029004801561033c5780601f106103115761010080835404028352916020019161033c565b600160a060020a033316600090815260016020526040812054829010156105cb57600080fd5b600160a060020a033381166000818152600160205260408082208054879003905592861680825290839020805486019055917fddf252ad1be2c89b69c2b068fc378daa952ba7f163c4a11628f55a4df523b3ef9085905190815260200160405180910390a350600192915050565b600160a060020a039182166000908152600260209081526040808320939094168252919091522054905600a165627a7a7230582090d467f3b06a0d8067bebcaea65cefafb8bbfe2b8212bde3fffc130d946e3a1f0029",
  "source": "/*\n\n  Copyright 2017 ZeroEx Intl.\n\n  Licensed under the Apache License, Version 2.0 (the \"License\");\n  you may not use this file except in compliance with the License.\n  You may obtain a copy of the License at\n\n    http://www.apache.org/licenses/LICENSE-2.0\n\n  Unless required by applicable law or agreed to in writing, software\n  distributed under the License is distributed on an \"AS IS\" BASIS,\n  WITHOUT WARRANTIES OR CONDITIONS OF ANY KIND, either express or implied.\n  See the License for the specific language governing permissions and\n  limitations under the License.\n\n*/\n\npragma solidity ^0.4.11;\n\nimport \"../UnlimitedAllowanceToken/UnlimitedAllowanceToken.sol\";\n\ncontract ZRXToken is UnlimitedAllowanceToken(10**27, \"0x Protocol Token\", 18, \"ZRX\") {\n}\n",
  "sourcePath": "/home/ipavlenko/Projects/Exchange/laborx.exchange.contracts/contracts/0xproject/ZRXToken/ZRXToken.sol",
  "compiler": {
    "name": "solc",
    "version": "0.4.21+commit.dfe3193c.Emscripten.clang"
  },
  "schemaVersion": "2.0.0",
  "updatedAt": "2018-04-24T09:43:00.027Z"
}